{"contracts/ProjectFactory.sol":{"ProjectFactory":{"abi":[{"inputs":[],"stateMutability":"nonpayable","type":"constructor"},{"anonymous":false,"inputs":[{"indexed":false,"internalType":"uint256","name":"id","type":"uint256"},{"indexed":false,"internalType":"string","name":"title","type":"string"},{"indexed":false,"internalType":"string","name":"short_description","type":"string"},{"indexed":false,"internalType":"string","name":"description","type":"string"},{"indexed":false,"internalType":"string","name":"pdf","type":"string"},{"indexed":false,"internalType":"string","name":"images","type":"string"},{"indexed":false,"internalType":"uint256","name":"budget","type":"uint256"},{"indexed":false,"internalType":"uint256","name":"time","type":"uint256"},{"indexed":false,"internalType":"uint256","name":"deadLine","type":"uint256"},{"indexed":false,"internalType":"address payable","name":"owner","type":"address"},{"indexed":false,"internalType":"contract Project","name":"project","type":"address"}],"name":"ProjectCreated","type":"event"},{"inputs":[],"name":"admin","outputs":[{"internalType":"address payable","name":"","type":"address"}],"stateMutability":"view","type":"function"},{"inputs":[{"internalType":"string","name":"_title","type":"string"},{"internalType":"string","name":"_short_description","type":"string"},{"internalType":"string","name":"_description","type":"string"},{"internalType":"string","name":"_pdf","type":"string"},{"internalType":"string","name":"_images","type":"string"},{"internalType":"uint256","name":"_budget","type":"uint256"},{"internalType":"uint256","name":"_deadline","type":"uint256"}],"name":"createProject","outputs":[],"stateMutability":"payable","type":"function"},{"inputs":[{"internalType":"uint256","name":"project_id","type":"uint256"},{"internalType":"uint256","name":"new_deadline","type":"uint256"}],"name":"extendDeadline","outputs":[],"stateMutability":"nonpayable","type":"function"},{"inputs":[],"name":"getAllProjects","outputs":[{"components":[{"internalType":"uint256","name":"id","type":"uint256"},{"internalType":"string","name":"title","type":"string"},{"internalType":"string","name":"short_description","type":"string"},{"internalType":"string","name":"description","type":"string"},{"internalType":"string","name":"pdf","type":"string"},{"internalType":"string","name":"images","type":"string"},{"internalType":"uint256","name":"budget","type":"uint256"},{"internalType":"uint256","name":"time","type":"uint256"},{"internalType":"uint256","name":"deadLine","type":"uint256"},{"internalType":"address payable","name":"owner","type":"address"},{"internalType":"contract Project","name":"project","type":"address"}],"internalType":"struct ProjectFactory.ProjectInfo[]","name":"","type":"tuple[]"}],"stateMutability":"view","type":"function"},{"inputs":[],"name":"getBalance","outputs":[{"internalType":"uint256","name":"","type":"uint256"}],"stateMutability":"view","type":"function"},{"inputs":[{"internalType":"uint256","name":"_id","type":"uint256"}],"name":"getProjectbyId","outputs":[{"components":[{"internalType":"uint256","name":"id","type":"uint256"},{"internalType":"string","name":"title","type":"string"},{"internalType":"string","name":"short_description","type":"string"},{"internalType":"string","name":"description","type":"string"},{"internalType":"string","name":"pdf","type":"string"},{"internalType":"string","name":"images","type":"string"},{"internalType":"uint256","name":"budget","type":"uint256"},{"internalType":"uint256","name":"time","type":"uint256"},{"internalType":"uint256","name":"deadLine","type":"uint256"},{"internalType":"address payable","name":"owner","type":"address"},{"internalType":"contract Project","name":"project","type":"address"}],"internalType":"struct ProjectFactory.ProjectInfo","name":"","type":"tuple"}],"stateMutability":"view","type":"function"},{"inputs":[],"name":"getProjectsByOwner","outputs":[{"components":[{"internalType":"uint256","name":"id","type":"uint256"},{"internalType":"string","name":"title","type":"string"},{"internalType":"string","name":"short_description","type":"string"},{"internalType":"string","name":"description","type":"string"},{"internalType":"string","name":"pdf","type":"string"},{"internalType":"string","name":"images","type":"string"},{"internalType":"uint256","name":"budget","type":"uint256"},{"internalType":"uint256","name":"time","type":"uint256"},{"internalType":"uint256","name":"deadLine","type":"uint256"},{"internalType":"address payable","name":"owner","type":"address"},{"internalType":"contract Project","name":"project","type":"address"}],"internalType":"struct ProjectFactory.ProjectInfo[]","name":"","type":"tuple[]"}],"stateMutability":"view","type":"function"},{"inputs":[{"internalType":"address","name":"","type":"address"},{"internalType":"uint256","name":"","type":"uint256"}],"name":"projectOwner","outputs":[{"internalType":"uint256","name":"id","type":"uint256"},{"internalType":"string","name":"title","type":"string"},{"internalType":"string","name":"short_description","type":"string"},{"internalType":"string","name":"description","type":"string"},{"internalType":"string","name":"pdf","type":"string"},{"internalType":"string","name":"images","type":"string"},{"internalType":"uint256","name":"budget","type":"uint256"},{"internalType":"uint256","name":"time","type":"uint256"},{"internalType":"uint256","name":"deadLine","type":"uint256"},{"internalType":"address payable","name":"owner","type":"address"},{"internalType":"contract Project","name":"project","type":"address"}],"stateMutability":"view","type":"function"},{"stateMutability":"payable","type":"receive"}],"evm":{"bytecode":{"linkReferences":{},"object":"608060405234801561001057600080fd5b5033600160006101000a81548173ffffffffffffffffffffffffffffffffffffffff021916908373ffffffffffffffffffffffffffffffffffffffff160217905550615a6b806100616000396000f3fe6080604052600436106200008b5760003560e01c806397c414c1116200005557806397c414c11462000156578063a7ee42de146200019a578063d61bb76a14620001ba578063f851a44014620002085762000093565b806312065fe014620000985780632d1fdef614620000c85780634aae5f4d14620000f657806380d0382914620001265762000093565b366200009357005b600080fd5b348015620000a557600080fd5b50620000b062000238565b604051620000bf9190620018b7565b60405180910390f35b348015620000d557600080fd5b50620000f46004803603810190620000ee919062001919565b62000240565b005b3480156200010357600080fd5b506200010e62000343565b6040516200011d919062001cac565b60405180910390f35b3480156200013357600080fd5b506200013e6200086a565b6040516200014d919062001cac565b60405180910390f35b3480156200016357600080fd5b506200018260048036038101906200017c919062001cd0565b62000d34565b60405162000191919062001e23565b60405180910390f35b620001b86004803603810190620001b2919062001f98565b62001140565b005b348015620001c757600080fd5b50620001e66004803603810190620001e091906200212b565b62001447565b604051620001ff9b9a99989796959493929190620021e6565b60405180910390f35b3480156200021557600080fd5b5062000220620017be565b6040516200022f9190620022ca565b60405180910390f35b600047905090565b60006002600084815260200190815260200160002090508060090160009054906101000a900473ffffffffffffffffffffffffffffffffffffffff1673ffffffffffffffffffffffffffffffffffffffff163373ffffffffffffffffffffffffffffffffffffffff1614620002ec576040517f08c379a0000000000000000000000000000000000000000000000000000000008152600401620002e3906200235d565b60405180910390fd5b8060080154821162000335576040517f08c379a00000000000000000000000000000000000000000000000000000000081526004016200032c90620023f5565b60405180910390fd5b818160080181905550505050565b60606000620003536000620017e4565b905060008167ffffffffffffffff81111562000374576200037362001e51565b5b604051908082528060200260200182016040528015620003b157816020015b6200039d62001808565b815260200190600190039081620003935790505b509050600080600090505b83811015620008605760006002600083815260200190815260200160002090503373ffffffffffffffffffffffffffffffffffffffff168160090160009054906101000a900473ffffffffffffffffffffffffffffffffffffffff1673ffffffffffffffffffffffffffffffffffffffff160362000849578060405180610160016040529081600082015481526020016001820180546200045d9062002446565b80601f01602080910402602001604051908101604052809291908181526020018280546200048b9062002446565b8015620004dc5780601f10620004b057610100808354040283529160200191620004dc565b820191906000526020600020905b815481529060010190602001808311620004be57829003601f168201915b50505050508152602001600282018054620004f79062002446565b80601f0160208091040260200160405190810160405280929190818152602001828054620005259062002446565b8015620005765780601f106200054a5761010080835404028352916020019162000576565b820191906000526020600020905b8154815290600101906020018083116200055857829003601f168201915b50505050508152602001600382018054620005919062002446565b80601f0160208091040260200160405190810160405280929190818152602001828054620005bf9062002446565b8015620006105780601f10620005e45761010080835404028352916020019162000610565b820191906000526020600020905b815481529060010190602001808311620005f257829003601f168201915b505050505081526020016004820180546200062b9062002446565b80601f0160208091040260200160405190810160405280929190818152602001828054620006599062002446565b8015620006aa5780601f106200067e57610100808354040283529160200191620006aa565b820191906000526020600020905b8154815290600101906020018083116200068c57829003601f168201915b50505050508152602001600582018054620006c59062002446565b80601f0160208091040260200160405190810160405280929190818152602001828054620006f39062002446565b8015620007445780601f10620007185761010080835404028352916020019162000744565b820191906000526020600020905b8154815290600101906020018083116200072657829003601f168201915b505050505081526020016006820154815260200160078201548152602001600882015481526020016009820160009054906101000a900473ffffffffffffffffffffffffffffffffffffffff1673ffffffffffffffffffffffffffffffffffffffff1673ffffffffffffffffffffffffffffffffffffffff168152602001600a820160009054906101000a900473ffffffffffffffffffffffffffffffffffffffff1673ffffffffffffffffffffffffffffffffffffffff1673ffffffffffffffffffffffffffffffffffffffff16815250508484815181106200082d576200082c6200247b565b5b602002602001018190525082806200084590620024d9565b9350505b5080806200085790620024d9565b915050620003bc565b5081935050505090565b606060006200087a6000620017e4565b90506000808267ffffffffffffffff8111156200089c576200089b62001e51565b5b604051908082528060200260200182016040528015620008d957816020015b620008c562001808565b815260200190600190039081620008bb5790505b50905060005b8381101562000d2a576000600260008381526020019081526020016000206040518061016001604052908160008201548152602001600182018054620009259062002446565b80601f0160208091040260200160405190810160405280929190818152602001828054620009539062002446565b8015620009a45780601f106200097857610100808354040283529160200191620009a4565b820191906000526020600020905b8154815290600101906020018083116200098657829003601f168201915b50505050508152602001600282018054620009bf9062002446565b80601f0160208091040260200160405190810160405280929190818152602001828054620009ed9062002446565b801562000a3e5780601f1062000a125761010080835404028352916020019162000a3e565b820191906000526020600020905b81548152906001019060200180831162000a2057829003601f168201915b5050505050815260200160038201805462000a599062002446565b80601f016020809104026020016040519081016040528092919081815260200182805462000a879062002446565b801562000ad85780601f1062000aac5761010080835404028352916020019162000ad8565b820191906000526020600020905b81548152906001019060200180831162000aba57829003601f168201915b5050505050815260200160048201805462000af39062002446565b80601f016020809104026020016040519081016040528092919081815260200182805462000b219062002446565b801562000b725780601f1062000b465761010080835404028352916020019162000b72565b820191906000526020600020905b81548152906001019060200180831162000b5457829003601f168201915b5050505050815260200160058201805462000b8d9062002446565b80601f016020809104026020016040519081016040528092919081815260200182805462000bbb9062002446565b801562000c0c5780601f1062000be05761010080835404028352916020019162000c0c565b820191906000526020600020905b81548152906001019060200180831162000bee57829003601f168201915b505050505081526020016006820154815260200160078201548152602001600882015481526020016009820160009054906101000a900473ffffffffffffffffffffffffffffffffffffffff1673ffffffffffffffffffffffffffffffffffffffff1673ffffffffffffffffffffffffffffffffffffffff168152602001600a820160009054906101000a900473ffffffffffffffffffffffffffffffffffffffff1673ffffffffffffffffffffffffffffffffffffffff1673ffffffffffffffffffffffffffffffffffffffff168152505090508083858151811062000cf85762000cf76200247b565b5b6020026020010181905250838062000d1090620024d9565b94505050808062000d2190620024d9565b915050620008df565b5080935050505090565b62000d3e62001808565b600060026000848152602001908152602001600020604051806101600160405290816000820154815260200160018201805462000d7b9062002446565b80601f016020809104026020016040519081016040528092919081815260200182805462000da99062002446565b801562000dfa5780601f1062000dce5761010080835404028352916020019162000dfa565b820191906000526020600020905b81548152906001019060200180831162000ddc57829003601f168201915b5050505050815260200160028201805462000e159062002446565b80601f016020809104026020016040519081016040528092919081815260200182805462000e439062002446565b801562000e945780601f1062000e685761010080835404028352916020019162000e94565b820191906000526020600020905b81548152906001019060200180831162000e7657829003601f168201915b5050505050815260200160038201805462000eaf9062002446565b80601f016020809104026020016040519081016040528092919081815260200182805462000edd9062002446565b801562000f2e5780601f1062000f025761010080835404028352916020019162000f2e565b820191906000526020600020905b81548152906001019060200180831162000f1057829003601f168201915b5050505050815260200160048201805462000f499062002446565b80601f016020809104026020016040519081016040528092919081815260200182805462000f779062002446565b801562000fc85780601f1062000f9c5761010080835404028352916020019162000fc8565b820191906000526020600020905b81548152906001019060200180831162000faa57829003601f168201915b5050505050815260200160058201805462000fe39062002446565b80601f0160208091040260200160405190810160405280929190818152602001828054620010119062002446565b8015620010625780601f10620010365761010080835404028352916020019162001062565b820191906000526020600020905b8154815290600101906020018083116200104457829003601f168201915b505050505081526020016006820154815260200160078201548152602001600882015481526020016009820160009054906101000a900473ffffffffffffffffffffffffffffffffffffffff1673ffffffffffffffffffffffffffffffffffffffff1673ffffffffffffffffffffffffffffffffffffffff168152602001600a820160009054906101000a900473ffffffffffffffffffffffffffffffffffffffff1673ffffffffffffffffffffffffffffffffffffffff1673ffffffffffffffffffffffffffffffffffffffff1681525050905080915050919050565b81341462001185576040517f08c379a00000000000000000000000000000000000000000000000000000000081526004016200117c906200259c565b60405180910390fd5b6000620011936000620017e4565b90506000338385604051620011a8906200188e565b620011b693929190620025be565b604051809103906000f080158015620011d3573d6000803e3d6000fd5b50905060006040518061016001604052808481526020018b81526020018a81526020018981526020018881526020018781526020018681526020014281526020018581526020013373ffffffffffffffffffffffffffffffffffffffff1681526020018373ffffffffffffffffffffffffffffffffffffffff1681525090508060026000858152602001908152602001600020600082015181600001556020820151816001019081620012879190620027c3565b5060408201518160020190816200129f9190620027c3565b506060820151816003019081620012b79190620027c3565b506080820151816004019081620012cf9190620027c3565b5060a0820151816005019081620012e79190620027c3565b5060c0820151816006015560e0820151816007015561010082015181600801556101208201518160090160006101000a81548173ffffffffffffffffffffffffffffffffffffffff021916908373ffffffffffffffffffffffffffffffffffffffff16021790555061014082015181600a0160006101000a81548173ffffffffffffffffffffffffffffffffffffffff021916908373ffffffffffffffffffffffffffffffffffffffff160217905550905050620013a66000620017f2565b8173ffffffffffffffffffffffffffffffffffffffff166108fc349081150290604051600060405180830381858888f19350505050158015620013ed573d6000803e3d6000fd5b507f71118d02c87017cad0298c6ece1cda0b1bcdb0a412b2a819038f352216c400e3838b8b8b8b8b8b428c338c604051620014339b9a99989796959493929190620021e6565b60405180910390a150505050505050505050565b6003602052816000526040600020602052806000526040600020600091509150508060000154908060010180546200147f9062002446565b80601f0160208091040260200160405190810160405280929190818152602001828054620014ad9062002446565b8015620014fe5780601f10620014d257610100808354040283529160200191620014fe565b820191906000526020600020905b815481529060010190602001808311620014e057829003601f168201915b505050505090806002018054620015159062002446565b80601f0160208091040260200160405190810160405280929190818152602001828054620015439062002446565b8015620015945780601f10620015685761010080835404028352916020019162001594565b820191906000526020600020905b8154815290600101906020018083116200157657829003601f168201915b505050505090806003018054620015ab9062002446565b80601f0160208091040260200160405190810160405280929190818152602001828054620015d99062002446565b80156200162a5780601f10620015fe576101008083540402835291602001916200162a565b820191906000526020600020905b8154815290600101906020018083116200160c57829003601f168201915b505050505090806004018054620016419062002446565b80601f01602080910402602001604051908101604052809291908181526020018280546200166f9062002446565b8015620016c05780601f106200169457610100808354040283529160200191620016c0565b820191906000526020600020905b815481529060010190602001808311620016a257829003601f168201915b505050505090806005018054620016d79062002446565b80601f0160208091040260200160405190810160405280929190818152602001828054620017059062002446565b8015620017565780601f106200172a5761010080835404028352916020019162001756565b820191906000526020600020905b8154815290600101906020018083116200173857829003601f168201915b5050505050908060060154908060070154908060080154908060090160009054906101000a900473ffffffffffffffffffffffffffffffffffffffff169080600a0160009054906101000a900473ffffffffffffffffffffffffffffffffffffffff1690508b565b600160009054906101000a900473ffffffffffffffffffffffffffffffffffffffff1681565b600081600001549050919050565b6001816000016000828254019250508190555050565b604051806101600160405280600081526020016060815260200160608152602001606081526020016060815260200160608152602001600081526020016000815260200160008152602001600073ffffffffffffffffffffffffffffffffffffffff168152602001600073ffffffffffffffffffffffffffffffffffffffff1681525090565b61318b80620028ab83390190565b6000819050919050565b620018b1816200189c565b82525050565b6000602082019050620018ce6000830184620018a6565b92915050565b6000604051905090565b600080fd5b600080fd5b620018f3816200189c565b8114620018ff57600080fd5b50565b6000813590506200191381620018e8565b92915050565b60008060408385031215620019335762001932620018de565b5b6000620019438582860162001902565b9250506020620019568582860162001902565b9150509250929050565b600081519050919050565b600082825260208201905092915050565b6000819050602082019050919050565b62001997816200189c565b82525050565b600081519050919050565b600082825260208201905092915050565b60005b83811015620019d9578082015181840152602081019050620019bc565b60008484015250505050565b6000601f19601f8301169050919050565b600062001a03826200199d565b62001a0f8185620019a8565b935062001a21818560208601620019b9565b62001a2c81620019e5565b840191505092915050565b600073ffffffffffffffffffffffffffffffffffffffff82169050919050565b600062001a648262001a37565b9050919050565b62001a768162001a57565b82525050565b6000819050919050565b600062001aa762001aa162001a9b8462001a37565b62001a7c565b62001a37565b9050919050565b600062001abb8262001a86565b9050919050565b600062001acf8262001aae565b9050919050565b62001ae18162001ac2565b82525050565b60006101608301600083015162001b0260008601826200198c565b506020830151848203602086015262001b1c8282620019f6565b9150506040830151848203604086015262001b388282620019f6565b9150506060830151848203606086015262001b548282620019f6565b9150506080830151848203608086015262001b708282620019f6565b91505060a083015184820360a086015262001b8c8282620019f6565b91505060c083015162001ba360c08601826200198c565b5060e083015162001bb860e08601826200198c565b5061010083015162001bcf6101008601826200198c565b5061012083015162001be661012086018262001a6b565b5061014083015162001bfd61014086018262001ad6565b508091505092915050565b600062001c16838362001ae7565b905092915050565b6000602082019050919050565b600062001c388262001960565b62001c4481856200196b565b93508360208202850162001c58856200197c565b8060005b8581101562001c9a578484038952815162001c78858262001c08565b945062001c858362001c1e565b925060208a0199505060018101905062001c5c565b50829750879550505050505092915050565b6000602082019050818103600083015262001cc8818462001c2b565b905092915050565b60006020828403121562001ce95762001ce8620018de565b5b600062001cf98482850162001902565b91505092915050565b60006101608301600083015162001d1d60008601826200198c565b506020830151848203602086015262001d378282620019f6565b9150506040830151848203604086015262001d538282620019f6565b9150506060830151848203606086015262001d6f8282620019f6565b9150506080830151848203608086015262001d8b8282620019f6565b91505060a083015184820360a086015262001da78282620019f6565b91505060c083015162001dbe60c08601826200198c565b5060e083015162001dd360e08601826200198c565b5061010083015162001dea6101008601826200198c565b5061012083015162001e0161012086018262001a6b565b5061014083015162001e1861014086018262001ad6565b508091505092915050565b6000602082019050818103600083015262001e3f818462001d02565b905092915050565b600080fd5b600080fd5b7f4e487b7100000000000000000000000000000000000000000000000000000000600052604160045260246000fd5b62001e8b82620019e5565b810181811067ffffffffffffffff8211171562001ead5762001eac62001e51565b5b80604052505050565b600062001ec2620018d4565b905062001ed0828262001e80565b919050565b600067ffffffffffffffff82111562001ef35762001ef262001e51565b5b62001efe82620019e5565b9050602081019050919050565b82818337600083830152505050565b600062001f3162001f2b8462001ed5565b62001eb6565b90508281526020810184848401111562001f505762001f4f62001e4c565b5b62001f5d84828562001f0b565b509392505050565b600082601f83011262001f7d5762001f7c62001e47565b5b813562001f8f84826020860162001f1a565b91505092915050565b600080600080600080600060e0888a03121562001fba5762001fb9620018de565b5b600088013567ffffffffffffffff81111562001fdb5762001fda620018e3565b5b62001fe98a828b0162001f65565b975050602088013567ffffffffffffffff8111156200200d576200200c620018e3565b5b6200201b8a828b0162001f65565b965050604088013567ffffffffffffffff8111156200203f576200203e620018e3565b5b6200204d8a828b0162001f65565b955050606088013567ffffffffffffffff811115620020715762002070620018e3565b5b6200207f8a828b0162001f65565b945050608088013567ffffffffffffffff811115620020a357620020a2620018e3565b5b620020b18a828b0162001f65565b93505060a0620020c48a828b0162001902565b92505060c0620020d78a828b0162001902565b91505092959891949750929550565b6000620020f38262001a37565b9050919050565b6200210581620020e6565b81146200211157600080fd5b50565b6000813590506200212581620020fa565b92915050565b60008060408385031215620021455762002144620018de565b5b6000620021558582860162002114565b9250506020620021688582860162001902565b9150509250929050565b600082825260208201905092915050565b600062002190826200199d565b6200219c818562002172565b9350620021ae818560208601620019b9565b620021b981620019e5565b840191505092915050565b620021cf8162001a57565b82525050565b620021e08162001ac2565b82525050565b600061016082019050620021fe600083018e620018a6565b818103602083015262002212818d62002183565b9050818103604083015262002228818c62002183565b905081810360608301526200223e818b62002183565b9050818103608083015262002254818a62002183565b905081810360a08301526200226a818962002183565b90506200227b60c0830188620018a6565b6200228a60e0830187620018a6565b6200229a610100830186620018a6565b620022aa610120830185620021c4565b620022ba610140830184620021d5565b9c9b505050505050505050505050565b6000602082019050620022e16000830184620021c4565b92915050565b7f4f6e6c792070726f6a656374206f776e65722063616e20657874656e6420646560008201527f61646c696e65206f6620746869732070726f6a65637400000000000000000000602082015250565b60006200234560368362002172565b91506200235282620022e7565b604082019050919050565b60006020820190508181036000830152620023788162002336565b9050919050565b7f706c656173652067697665206120646561646c696e65206f662067726561746560008201527f72207468616e2063757272656e7420646561646c696e65000000000000000000602082015250565b6000620023dd60378362002172565b9150620023ea826200237f565b604082019050919050565b600060208201905081810360008301526200241081620023ce565b9050919050565b7f4e487b7100000000000000000000000000000000000000000000000000000000600052602260045260246000fd5b600060028204905060018216806200245f57607f821691505b60208210810362002475576200247462002417565b5b50919050565b7f4e487b7100000000000000000000000000000000000000000000000000000000600052603260045260246000fd5b7f4e487b7100000000000000000000000000000000000000000000000000000000600052601160045260246000fd5b6000620024e6826200189c565b91507fffffffffffffffffffffffffffffffffffffffffffffffffffffffffffffffff82036200251b576200251a620024aa565b5b600182019050919050565b7f506c65617365205472616e736665722054686520416d6f756e7420457175616c60008201527f20546f20596f75722050726f6a65637420427564676574000000000000000000602082015250565b60006200258460378362002172565b9150620025918262002526565b604082019050919050565b60006020820190508181036000830152620025b78162002575565b9050919050565b6000606082019050620025d56000830186620021c4565b620025e46020830185620018a6565b620025f36040830184620018a6565b949350505050565b60008190508160005260206000209050919050565b60006020601f8301049050919050565b600082821b905092915050565b6000600883026200265f7fffffffffffffffffffffffffffffffffffffffffffffffffffffffffffffffff8262002620565b6200266b868362002620565b95508019841693508086168417925050509392505050565b6000620026a46200269e62002698846200189c565b62001a7c565b6200189c565b9050919050565b6000819050919050565b620026c08362002683565b620026d8620026cf82620026ab565b8484546200262d565b825550505050565b600090565b620026ef620026e0565b620026fc818484620026b5565b505050565b5b81811015620027245762002718600082620026e5565b60018101905062002702565b5050565b601f82111562002773576200273d81620025fb565b620027488462002610565b8101602085101562002758578190505b62002770620027678562002610565b83018262002701565b50505b505050565b600082821c905092915050565b6000620027986000198460080262002778565b1980831691505092915050565b6000620027b3838362002785565b9150826002028217905092915050565b620027ce826200199d565b67ffffffffffffffff811115620027ea57620027e962001e51565b5b620027f6825462002446565b6200280382828562002728565b600060209050601f8311600181146200283b576000841562002826578287015190505b620028328582620027a5565b865550620028a2565b601f1984166200284b86620025fb565b60005b8281101562002875578489015182556001820191506020850194506020810190506200284e565b8683101562002895578489015162002891601f89168262002785565b8355505b6001600288020188555050505b50505050505056fe60806040526000600460006101000a81548160ff0219169083151502179055506000600960006101000a81548160ff0219169083151502179055503480156200004757600080fd5b506040516200318b3803806200318b83398181016040528101906200006d919062000198565b82600160006101000a81548173ffffffffffffffffffffffffffffffffffffffff021916908373ffffffffffffffffffffffffffffffffffffffff16021790555081600281905550806003819055506000600460016101000a81548160ff02191690836003811115620000e557620000e4620001f4565b5b021790555050505062000223565b600080fd5b600073ffffffffffffffffffffffffffffffffffffffff82169050919050565b60006200012582620000f8565b9050919050565b620001378162000118565b81146200014357600080fd5b50565b60008151905062000157816200012c565b92915050565b6000819050919050565b62000172816200015d565b81146200017e57600080fd5b50565b600081519050620001928162000167565b92915050565b600080600060608486031215620001b457620001b3620000f3565b5b6000620001c48682870162000146565b9350506020620001d78682870162000181565b9250506040620001ea8682870162000181565b9150509250925092565b7f4e487b7100000000000000000000000000000000000000000000000000000000600052602160045260246000fd5b612f5880620002336000396000f3fe6080604052600436106100c65760003560e01c806398951b561161007f578063a6a2cb0511610059578063a6a2cb0514610257578063b19b0afe1461028a578063e7aa3afc146102b5578063ecc254b3146102e0576100cd565b806398951b56146101d8578063a0a2a6c014610201578063a4475ce41461022c576100cd565b8063013cf08b146100d257806312065fe01461011757806322e2e12d146101425780632a9cc1411461016b57806362564c48146101965780637417882c146101c1576100cd565b366100cd57005b600080fd5b3480156100de57600080fd5b506100f960048036038101906100f491906119c9565b6102f7565b60405161010e99989796959493929190611af1565b60405180910390f35b34801561012357600080fd5b5061012c610414565b6040516101399190611b85565b60405180910390f35b34801561014e57600080fd5b5061016960048036038101906101649190611cd5565b61041c565b005b34801561017757600080fd5b506101806107cd565b60405161018d9190611e80565b60405180910390f35b3480156101a257600080fd5b506101ab6109d9565b6040516101b89190612029565b60405180910390f35b3480156101cd57600080fd5b506101d6610c1c565b005b3480156101e457600080fd5b506101ff60048036038101906101fa91906119c9565b610fc7565b005b34801561020d57600080fd5b50610216611396565b60405161022391906120c2565b60405180910390f35b34801561023857600080fd5b506102416113a9565b60405161024e91906120dd565b60405180910390f35b34801561026357600080fd5b5061026c6113cf565b60405161028199989796959493929190611af1565b60405180910390f35b34801561029657600080fd5b5061029f6114da565b6040516102ac91906120f8565b60405180910390f35b3480156102c157600080fd5b506102ca6114ed565b6040516102d79190612113565b60405180910390f35b3480156102ec57600080fd5b506102f56116d2565b005b600560205280600052604060002060009150905080600001549080600101805461032090612164565b80601f016020809104026020016040519081016040528092919081815260200182805461034c90612164565b80156103995780601f1061036e57610100808354040283529160200191610399565b820191906000526020600020905b81548152906001019060200180831161037c57829003601f168201915b5050505050908060020160009054906101000a900473ffffffffffffffffffffffffffffffffffffffff16908060030154908060040154908060050160009054906101000a900460ff16908060060154908060070160009054906101000a900460ff16908060070160019054906101000a900460ff16905089565b600047905090565b600660003373ffffffffffffffffffffffffffffffffffffffff1673ffffffffffffffffffffffffffffffffffffffff16815260200190815260200160002060009054906101000a900460ff16156104a9576040517f08c379a00000000000000000000000000000000000000000000000000000000081526004016104a090612207565b60405180910390fd5b600860003373ffffffffffffffffffffffffffffffffffffffff1673ffffffffffffffffffffffffffffffffffffffff16815260200190815260200160002060009054906101000a900460ff1615610536576040517f08c379a000000000000000000000000000000000000000000000000000000000815260040161052d90612299565b60405180910390fd5b6001600381111561054a5761054961204b565b5b600460019054906101000a900460ff16600381111561056c5761056b61204b565b5b036105ac576040517f08c379a00000000000000000000000000000000000000000000000000000000081526004016105a39061232b565b60405180910390fd5b60006105b860006118f3565b905060006040518061012001604052808381526020018681526020013373ffffffffffffffffffffffffffffffffffffffff168152602001858152602001848152602001600015158152602001600081526020016000151581526020016000151581525090506001600660003373ffffffffffffffffffffffffffffffffffffffff1673ffffffffffffffffffffffffffffffffffffffff16815260200190815260200160002060006101000a81548160ff02191690831515021790555080600560008481526020019081526020016000206000820151816000015560208201518160010190816106a991906124f7565b5060408201518160020160006101000a81548173ffffffffffffffffffffffffffffffffffffffff021916908373ffffffffffffffffffffffffffffffffffffffff160217905550606082015181600301556080820151816004015560a08201518160050160006101000a81548160ff02191690831515021790555060c0820151816006015560e08201518160070160006101000a81548160ff0219169083151502179055506101008201518160070160016101000a81548160ff02191690831515021790555090505061077d6000611901565b7fb3080e016b94f1edbaf8dc52950b1b3debd550a7662d4db0cb404a7217047e8282863387876000806000806040516107be99989796959493929190612604565b60405180910390a15050505050565b6107d5611917565b600160009054906101000a900473ffffffffffffffffffffffffffffffffffffffff1673ffffffffffffffffffffffffffffffffffffffff163373ffffffffffffffffffffffffffffffffffffffff1614610865576040517f08c379a000000000000000000000000000000000000000000000000000000000815260040161085c9061270a565b60405180910390fd5b600a604051806101200160405290816000820154815260200160018201805461088d90612164565b80601f01602080910402602001604051908101604052809291908181526020018280546108b990612164565b80156109065780601f106108db57610100808354040283529160200191610906565b820191906000526020600020905b8154815290600101906020018083116108e957829003601f168201915b505050505081526020016002820160009054906101000a900473ffffffffffffffffffffffffffffffffffffffff1673ffffffffffffffffffffffffffffffffffffffff1673ffffffffffffffffffffffffffffffffffffffff16815260200160038201548152602001600482015481526020016005820160009054906101000a900460ff16151515158152602001600682015481526020016007820160009054906101000a900460ff161515151581526020016007820160019054906101000a900460ff161515151581525050905090565b606060006109e760006118f3565b905060008167ffffffffffffffff811115610a0557610a04611baa565b5b604051908082528060200260200182016040528015610a3e57816020015b610a2b611917565b815260200190600190039081610a235790505b5090506000805b83811015610c12576000600560008381526020019081526020016000206040518061012001604052908160008201548152602001600182018054610a8890612164565b80601f0160208091040260200160405190810160405280929190818152602001828054610ab490612164565b8015610b015780601f10610ad657610100808354040283529160200191610b01565b820191906000526020600020905b815481529060010190602001808311610ae457829003601f168201915b505050505081526020016002820160009054906101000a900473ffffffffffffffffffffffffffffffffffffffff1673ffffffffffffffffffffffffffffffffffffffff1673ffffffffffffffffffffffffffffffffffffffff16815260200160038201548152602001600482015481526020016005820160009054906101000a900460ff16151515158152602001600682015481526020016007820160009054906101000a900460ff161515151581526020016007820160019054906101000a900460ff161515151581525050905080848481518110610be557610be461272a565b5b60200260200101819052508280610bfb90612788565b935050508080610c0a90612788565b915050610a45565b5081935050505090565b600380811115610c2f57610c2e61204b565b5b600460019054906101000a900460ff166003811115610c5157610c5061204b565b5b03610c91576040517f08c379a0000000000000000000000000000000000000000000000000000000008152600401610c8890612842565b60405180910390fd5b600160009054906101000a900473ffffffffffffffffffffffffffffffffffffffff1673ffffffffffffffffffffffffffffffffffffffff163373ffffffffffffffffffffffffffffffffffffffff1614610d21576040517f08c379a0000000000000000000000000000000000000000000000000000000008152600401610d18906128d4565b60405180910390fd5b60026003811115610d3557610d3461204b565b5b600460019054906101000a900460ff166003811115610d5757610d5661204b565b5b14610d97576040517f08c379a0000000000000000000000000000000000000000000000000000000008152600401610d8e90612940565b60405180910390fd5b60016003811115610dab57610daa61204b565b5b600460019054906101000a900460ff166003811115610dcd57610dcc61204b565b5b14610e0d576040517f08c379a0000000000000000000000000000000000000000000000000000000008152600401610e04906129ac565b60405180910390fd5b6000600a60030154600354610e2291906129cc565b9050600160009054906101000a900473ffffffffffffffffffffffffffffffffffffffff1673ffffffffffffffffffffffffffffffffffffffff166108fc829081150290604051600060405180830381858888f19350505050158015610e8c573d6000803e3d6000fd5b50600a60020160009054906101000a900473ffffffffffffffffffffffffffffffffffffffff1673ffffffffffffffffffffffffffffffffffffffff166108fc600a600301549081150290604051600060405180830381858888f19350505050158015610efd573d6000803e3d6000fd5b506001600a60070160016101000a81548160ff021916908315150217905550600060086000600a60020160009054906101000a900473ffffffffffffffffffffffffffffffffffffffff1673ffffffffffffffffffffffffffffffffffffffff1673ffffffffffffffffffffffffffffffffffffffff16815260200190815260200160002060006101000a81548160ff0219169083151502179055506003600460016101000a81548160ff02191690836003811115610fbf57610fbe61204b565b5b021790555050565b600160009054906101000a900473ffffffffffffffffffffffffffffffffffffffff1673ffffffffffffffffffffffffffffffffffffffff163373ffffffffffffffffffffffffffffffffffffffff1614611057576040517f08c379a000000000000000000000000000000000000000000000000000000000815260040161104e90612a72565b60405180910390fd5b6000600560008381526020019081526020016000209050600160038111156110825761108161204b565b5b600460019054906101000a900460ff1660038111156110a4576110a361204b565b5b036110e4576040517f08c379a00000000000000000000000000000000000000000000000000000000081526004016110db90612b04565b60405180910390fd5b600160009054906101000a900473ffffffffffffffffffffffffffffffffffffffff1673ffffffffffffffffffffffffffffffffffffffff163373ffffffffffffffffffffffffffffffffffffffff1614611174576040517f08c379a000000000000000000000000000000000000000000000000000000000815260040161116b90612b96565b60405180910390fd5b60025442106111b8576040517f08c379a00000000000000000000000000000000000000000000000000000000081526004016111af90612c4e565b60405180910390fd5b42816006018190555060018160050160006101000a81548160ff02191690831515021790555080600a60008201548160000155600182018160010190816111ff9190612c84565b506002820160009054906101000a900473ffffffffffffffffffffffffffffffffffffffff168160020160006101000a81548173ffffffffffffffffffffffffffffffffffffffff021916908373ffffffffffffffffffffffffffffffffffffffff16021790555060038201548160030155600482015481600401556005820160009054906101000a900460ff168160050160006101000a81548160ff021916908315150217905550600682015481600601556007820160009054906101000a900460ff168160070160006101000a81548160ff0219169083151502179055506007820160019054906101000a900460ff168160070160016101000a81548160ff0219169083151502179055509050506001600860003373ffffffffffffffffffffffffffffffffffffffff1673ffffffffffffffffffffffffffffffffffffffff16815260200190815260200160002060006101000a81548160ff0219169083151502179055506001600460016101000a81548160ff0219169083600381111561138d5761138c61204b565b5b02179055505050565b600460019054906101000a900460ff1681565b600160009054906101000a900473ffffffffffffffffffffffffffffffffffffffff1681565b600a8060000154908060010180546113e690612164565b80601f016020809104026020016040519081016040528092919081815260200182805461141290612164565b801561145f5780601f106114345761010080835404028352916020019161145f565b820191906000526020600020905b81548152906001019060200180831161144257829003601f168201915b5050505050908060020160009054906101000a900473ffffffffffffffffffffffffffffffffffffffff16908060030154908060040154908060050160009054906101000a900460ff16908060060154908060070160009054906101000a900460ff16908060070160019054906101000a900460ff16905089565b600960009054906101000a900460ff1681565b6060600060038111156115035761150261204b565b5b600460019054906101000a900460ff1660038111156115255761152461204b565b5b03611567576040518060400160405280600481526020017f4f70656e0000000000000000000000000000000000000000000000000000000081525090506116cf565b6001600381111561157b5761157a61204b565b5b600460019054906101000a900460ff16600381111561159d5761159c61204b565b5b036115df576040518060400160405280600b81526020017f496e2050726f677265737300000000000000000000000000000000000000000081525090506116cf565b600260038111156115f3576115f261204b565b5b600460019054906101000a900460ff1660038111156116155761161461204b565b5b03611657576040518060400160405280601281526020017f4d61726b656420417320436f6d706c657465000000000000000000000000000081525090506116cf565b60038081111561166a5761166961204b565b5b600460019054906101000a900460ff16600381111561168c5761168b61204b565b5b036116ce576040518060400160405280600981526020017f436f6d706c65746564000000000000000000000000000000000000000000000081525090506116cf565b5b90565b600160038111156116e6576116e561204b565b5b600460019054906101000a900460ff1660038111156117085761170761204b565b5b14611748576040517f08c379a000000000000000000000000000000000000000000000000000000000815260040161173f90612dde565b60405180910390fd5b60038081111561175b5761175a61204b565b5b600460019054906101000a900460ff16600381111561177d5761177c61204b565b5b036117bd576040517f08c379a00000000000000000000000000000000000000000000000000000000081526004016117b490612842565b60405180910390fd5b600a60020160009054906101000a900473ffffffffffffffffffffffffffffffffffffffff1673ffffffffffffffffffffffffffffffffffffffff163373ffffffffffffffffffffffffffffffffffffffff1614611850576040517f08c379a000000000000000000000000000000000000000000000000000000000815260040161184790612e70565b60405180910390fd5b600260038111156118645761186361204b565b5b600460019054906101000a900460ff1660038111156118865761188561204b565b5b036118c6576040517f08c379a00000000000000000000000000000000000000000000000000000000081526004016118bd90612f02565b60405180910390fd5b6002600460016101000a81548160ff021916908360038111156118ec576118eb61204b565b5b0217905550565b600081600001549050919050565b6001816000016000828254019250508190555050565b6040518061012001604052806000815260200160608152602001600073ffffffffffffffffffffffffffffffffffffffff1681526020016000815260200160008152602001600015158152602001600081526020016000151581526020016000151581525090565b6000604051905090565b600080fd5b600080fd5b6000819050919050565b6119a681611993565b81146119b157600080fd5b50565b6000813590506119c38161199d565b92915050565b6000602082840312156119df576119de611989565b5b60006119ed848285016119b4565b91505092915050565b6119ff81611993565b82525050565b600081519050919050565b600082825260208201905092915050565b60005b83811015611a3f578082015181840152602081019050611a24565b60008484015250505050565b6000601f19601f8301169050919050565b6000611a6782611a05565b611a718185611a10565b9350611a81818560208601611a21565b611a8a81611a4b565b840191505092915050565b600073ffffffffffffffffffffffffffffffffffffffff82169050919050565b6000611ac082611a95565b9050919050565b611ad081611ab5565b82525050565b60008115159050919050565b611aeb81611ad6565b82525050565b600061012082019050611b07600083018c6119f6565b8181036020830152611b19818b611a5c565b9050611b28604083018a611ac7565b611b3560608301896119f6565b611b4260808301886119f6565b611b4f60a0830187611ae2565b611b5c60c08301866119f6565b611b6960e0830185611ae2565b611b77610100830184611ae2565b9a9950505050505050505050565b6000602082019050611b9a60008301846119f6565b92915050565b600080fd5b600080fd5b7f4e487b7100000000000000000000000000000000000000000000000000000000600052604160045260246000fd5b611be282611a4b565b810181811067ffffffffffffffff82111715611c0157611c00611baa565b5b80604052505050565b6000611c1461197f565b9050611c208282611bd9565b919050565b600067ffffffffffffffff821115611c4057611c3f611baa565b5b611c4982611a4b565b9050602081019050919050565b82818337600083830152505050565b6000611c78611c7384611c25565b611c0a565b905082815260208101848484011115611c9457611c93611ba5565b5b611c9f848285611c56565b509392505050565b600082601f830112611cbc57611cbb611ba0565b5b8135611ccc848260208601611c65565b91505092915050565b600080600060608486031215611cee57611ced611989565b5b600084013567ffffffffffffffff811115611d0c57611d0b61198e565b5b611d1886828701611ca7565b9350506020611d29868287016119b4565b9250506040611d3a868287016119b4565b9150509250925092565b611d4d81611993565b82525050565b600082825260208201905092915050565b6000611d6f82611a05565b611d798185611d53565b9350611d89818560208601611a21565b611d9281611a4b565b840191505092915050565b611da681611ab5565b82525050565b611db581611ad6565b82525050565b600061012083016000830151611dd46000860182611d44565b5060208301518482036020860152611dec8282611d64565b9150506040830151611e016040860182611d9d565b506060830151611e146060860182611d44565b506080830151611e276080860182611d44565b5060a0830151611e3a60a0860182611dac565b5060c0830151611e4d60c0860182611d44565b5060e0830151611e6060e0860182611dac565b50610100830151611e75610100860182611dac565b508091505092915050565b60006020820190508181036000830152611e9a8184611dbb565b905092915050565b600081519050919050565b600082825260208201905092915050565b6000819050602082019050919050565b600061012083016000830151611ee76000860182611d44565b5060208301518482036020860152611eff8282611d64565b9150506040830151611f146040860182611d9d565b506060830151611f276060860182611d44565b506080830151611f3a6080860182611d44565b5060a0830151611f4d60a0860182611dac565b5060c0830151611f6060c0860182611d44565b5060e0830151611f7360e0860182611dac565b50610100830151611f88610100860182611dac565b508091505092915050565b6000611f9f8383611ece565b905092915050565b6000602082019050919050565b6000611fbf82611ea2565b611fc98185611ead565b935083602082028501611fdb85611ebe565b8060005b858110156120175784840389528151611ff88582611f93565b945061200383611fa7565b925060208a01995050600181019050611fdf565b50829750879550505050505092915050565b600060208201905081810360008301526120438184611fb4565b905092915050565b7f4e487b7100000000000000000000000000000000000000000000000000000000600052602160045260246000fd5b6004811061208b5761208a61204b565b5b50565b600081905061209c8261207a565b919050565b60006120ac8261208e565b9050919050565b6120bc816120a1565b82525050565b60006020820190506120d760008301846120b3565b92915050565b60006020820190506120f26000830184611ac7565b92915050565b600060208201905061210d6000830184611ae2565b92915050565b6000602082019050818103600083015261212d8184611a5c565b905092915050565b7f4e487b7100000000000000000000000000000000000000000000000000000000600052602260045260246000fd5b6000600282049050600182168061217c57607f821691505b60208210810361218f5761218e612135565b5b50919050565b7f596f75206861766520616c7265616479206372656174656420612070726f706f60008201527f73616c20666f7220746869732070726f6a656374000000000000000000000000602082015250565b60006121f1603483611a10565b91506121fc82612195565b604082019050919050565b60006020820190508181036000830152612220816121e4565b9050919050565b7f506c6561736520666972737420636f6d706c65746520796f757220707265766960008201527f6f75732070726f6a656374730000000000000000000000000000000000000000602082015250565b6000612283602c83611a10565b915061228e82612227565b604082019050919050565b600060208201905081810360008301526122b281612276565b9050919050565b7f546869732070726f6a65637420697320616c726561647920756e64657220707260008201527f6f67726573730000000000000000000000000000000000000000000000000000602082015250565b6000612315602683611a10565b9150612320826122b9565b604082019050919050565b6000602082019050818103600083015261234481612308565b9050919050565b60008190508160005260206000209050919050565b60006020601f8301049050919050565b600082821b905092915050565b6000600883026123ad7fffffffffffffffffffffffffffffffffffffffffffffffffffffffffffffffff82612370565b6123b78683612370565b95508019841693508086168417925050509392505050565b6000819050919050565b60006123f46123ef6123ea84611993565b6123cf565b611993565b9050919050565b6000819050919050565b61240e836123d9565b61242261241a826123fb565b84845461237d565b825550505050565b600090565b61243761242a565b612442818484612405565b505050565b5b818110156124665761245b60008261242f565b600181019050612448565b5050565b601f8211156124ab5761247c8161234b565b61248584612360565b81016020851015612494578190505b6124a86124a085612360565b830182612447565b50505b505050565b600082821c905092915050565b60006124ce600019846008026124b0565b1980831691505092915050565b60006124e783836124bd565b9150826002028217905092915050565b61250082611a05565b67ffffffffffffffff81111561251957612518611baa565b5b6125238254612164565b61252e82828561246a565b600060209050601f831160018114612561576000841561254f578287015190505b61255985826124db565b8655506125c1565b601f19841661256f8661234b565b60005b8281101561259757848901518255600182019150602085019450602081019050612572565b868310156125b457848901516125b0601f8916826124bd565b8355505b6001600288020188555050505b505050505050565b6000819050919050565b60006125ee6125e96125e4846125c9565b6123cf565b611993565b9050919050565b6125fe816125d3565b82525050565b60006101208201905061261a600083018c6119f6565b818103602083015261262c818b611a5c565b905061263b604083018a611ac7565b61264860608301896119f6565b61265560808301886119f6565b61266260a0830187611ae2565b61266f60c08301866125f5565b61267c60e0830185611ae2565b61268a610100830184611ae2565b9a9950505050505050505050565b7f4f6e6c792050726f6a656374206f776e65722063616e2061636365737320736560008201527f6c65637465642070726f706f73616c2773206f776e6572000000000000000000602082015250565b60006126f4603783611a10565b91506126ff82612698565b604082019050919050565b60006020820190508181036000830152612723816126e7565b9050919050565b7f4e487b7100000000000000000000000000000000000000000000000000000000600052603260045260246000fd5b7f4e487b7100000000000000000000000000000000000000000000000000000000600052601160045260246000fd5b600061279382611993565b91507fffffffffffffffffffffffffffffffffffffffffffffffffffffffffffffffff82036127c5576127c4612759565b5b600182019050919050565b7f546869732050726f6a65637420497320416c726561647920436f6d706c65746560008201527f6400000000000000000000000000000000000000000000000000000000000000602082015250565b600061282c602183611a10565b9150612837826127d0565b604082019050919050565b6000602082019050818103600083015261285b8161281f565b9050919050565b7f596f7520417265204e6f7420417574686f72697a656420546f2046696e616c6960008201527f7a6520546869732050726f6a6563740000000000000000000000000000000000602082015250565b60006128be602f83611a10565b91506128c982612862565b604082019050919050565b600060208201905081810360008301526128ed816128b1565b9050919050565b7f50726f6a656374206973206e6f742079657420636f6d706c6574656400000000600082015250565b600061292a601c83611a10565b9150612935826128f4565b602082019050919050565b600060208201905081810360008301526129598161291d565b9050919050565b7f546869732050726f6a656374204973204e6f742059657420417070726f766564600082015250565b6000612996602083611a10565b91506129a182612960565b602082019050919050565b600060208201905081810360008301526129c581612989565b9050919050565b60006129d782611993565b91506129e283611993565b92508282039050818111156129fa576129f9612759565b5b92915050565b7f4f6e6c792050726f6a656374204f776e65722043616e2043616c6c205468697360008201527f2046756e6374696f6e0000000000000000000000000000000000000000000000602082015250565b6000612a5c602983611a10565b9150612a6782612a00565b604082019050919050565b60006020820190508181036000830152612a8b81612a4f565b9050919050565b7f546869732050726f6a65637420497320416c726561647920417070726f76656460008201527f20546f20536f6d656f6e6520656c736500000000000000000000000000000000602082015250565b6000612aee603083611a10565b9150612af982612a92565b604082019050919050565b60006020820190508181036000830152612b1d81612ae1565b9050919050565b7f4f6e6c792050726f6a656374204f776e65722043616e204170726f766520546860008201527f652050726f706f73616c73000000000000000000000000000000000000000000602082015250565b6000612b80602b83611a10565b9150612b8b82612b24565b604082019050919050565b60006020820190508181036000830152612baf81612b73565b9050919050565b7f546869732050726f6a65637420497320416c726561647920436f6d706c65746560008201527f6420596f752043616e6e6f74204d616b6520416e796d6f726520417070726f7660208201527f616c730000000000000000000000000000000000000000000000000000000000604082015250565b6000612c38604383611a10565b9150612c4382612bb6565b606082019050919050565b60006020820190508181036000830152612c6781612c2b565b9050919050565b600081549050612c7d81612164565b9050919050565b818103612c92575050612d6a565b612c9b82612c6e565b67ffffffffffffffff811115612cb457612cb3611baa565b5b612cbe8254612164565b612cc982828561246a565b6000601f831160018114612cf85760008415612ce6578287015490505b612cf085826124db565b865550612d63565b601f198416612d068761234b565b9650612d118661234b565b60005b82811015612d3957848901548255600182019150600185019450602081019050612d14565b86831015612d565784890154612d52601f8916826124bd565b8355505b6001600288020188555050505b5050505050505b565b7f596f757220636f61746174696f6e206973206e6f742079657420617070726f7660008201527f6564000000000000000000000000000000000000000000000000000000000000602082015250565b6000612dc8602283611a10565b9150612dd382612d6c565b604082019050919050565b60006020820190508181036000830152612df781612dbb565b9050919050565b7f4f6e6c792070726f706f73616c206f776e65722063616e206d61726b2070726f60008201527f6a65637420617320636f6d706c65746500000000000000000000000000000000602082015250565b6000612e5a603083611a10565b9150612e6582612dfe565b604082019050919050565b60006020820190508181036000830152612e8981612e4d565b9050919050565b7f596f75206861766520616c7265616479206d61726b656420746869732070726f60008201527f6a65637420617320636f6d706c65746500000000000000000000000000000000602082015250565b6000612eec603083611a10565b9150612ef782612e90565b604082019050919050565b60006020820190508181036000830152612f1b81612edf565b905091905056fea26469706673582212201c722f44fb416690eee8530fb5a351706665f941fa06cff5ed77614563200e5664736f6c63430008110033a26469706673582212209cb27aecaa84b1b6a8b91ce7e3a136e48dc87cf75940fddc991151a81009535d64736f6c63430008110033","opcodes":"PUSH1 0x80 PUSH1 0x40 MSTORE CALLVALUE DUP1 ISZERO PUSH2 0x10 JUMPI PUSH1 0x0 DUP1 REVERT JUMPDEST POP CALLER PUSH1 0x1 PUSH1 0x0 PUSH2 0x100 EXP DUP2 SLOAD DUP2 PUSH20 0xFFFFFFFFFFFFFFFFFFFFFFFFFFFFFFFFFFFFFFFF MUL NOT AND SWAP1 DUP4 PUSH20 0xFFFFFFFFFFFFFFFFFFFFFFFFFFFFFFFFFFFFFFFF AND MUL OR SWAP1 SSTORE POP PUSH2 0x5A6B DUP1 PUSH2 0x61 PUSH1 0x0 CODECOPY PUSH1 0x0 RETURN INVALID PUSH1 0x80 PUSH1 0x40 MSTORE PUSH1 0x4 CALLDATASIZE LT PUSH3 0x8B JUMPI PUSH1 0x0 CALLDATALOAD PUSH1 0xE0 SHR DUP1 PUSH4 0x97C414C1 GT PUSH3 0x55 JUMPI DUP1 PUSH4 0x97C414C1 EQ PUSH3 0x156 JUMPI DUP1 PUSH4 0xA7EE42DE EQ PUSH3 0x19A JUMPI DUP1 PUSH4 0xD61BB76A EQ PUSH3 0x1BA JUMPI DUP1 PUSH4 0xF851A440 EQ PUSH3 0x208 JUMPI PUSH3 0x93 JUMP JUMPDEST DUP1 PUSH4 0x12065FE0 EQ PUSH3 0x98 JUMPI DUP1 PUSH4 0x2D1FDEF6 EQ PUSH3 0xC8 JUMPI DUP1 PUSH4 0x4AAE5F4D EQ PUSH3 0xF6 JUMPI DUP1 PUSH4 0x80D03829 EQ PUSH3 0x126 JUMPI PUSH3 0x93 JUMP JUMPDEST CALLDATASIZE PUSH3 0x93 JUMPI STOP JUMPDEST PUSH1 0x0 DUP1 REVERT JUMPDEST CALLVALUE DUP1 ISZERO PUSH3 0xA5 JUMPI PUSH1 0x0 DUP1 REVERT JUMPDEST POP PUSH3 0xB0 PUSH3 0x238 JUMP JUMPDEST PUSH1 0x40 MLOAD PUSH3 0xBF SWAP2 SWAP1 PUSH3 0x18B7 JUMP JUMPDEST PUSH1 0x40 MLOAD DUP1 SWAP2 SUB SWAP1 RETURN JUMPDEST CALLVALUE DUP1 ISZERO PUSH3 0xD5 JUMPI PUSH1 0x0 DUP1 REVERT JUMPDEST POP PUSH3 0xF4 PUSH1 0x4 DUP1 CALLDATASIZE SUB DUP2 ADD SWAP1 PUSH3 0xEE SWAP2 SWAP1 PUSH3 0x1919 JUMP JUMPDEST PUSH3 0x240 JUMP JUMPDEST STOP JUMPDEST CALLVALUE DUP1 ISZERO PUSH3 0x103 JUMPI PUSH1 0x0 DUP1 REVERT JUMPDEST POP PUSH3 0x10E PUSH3 0x343 JUMP JUMPDEST PUSH1 0x40 MLOAD PUSH3 0x11D SWAP2 SWAP1 PUSH3 0x1CAC JUMP JUMPDEST PUSH1 0x40 MLOAD DUP1 SWAP2 SUB SWAP1 RETURN JUMPDEST CALLVALUE DUP1 ISZERO PUSH3 0x133 JUMPI PUSH1 0x0 DUP1 REVERT JUMPDEST POP PUSH3 0x13E PUSH3 0x86A JUMP JUMPDEST PUSH1 0x40 MLOAD PUSH3 0x14D SWAP2 SWAP1 PUSH3 0x1CAC JUMP JUMPDEST PUSH1 0x40 MLOAD DUP1 SWAP2 SUB SWAP1 RETURN JUMPDEST CALLVALUE DUP1 ISZERO PUSH3 0x163 JUMPI PUSH1 0x0 DUP1 REVERT JUMPDEST POP PUSH3 0x182 PUSH1 0x4 DUP1 CALLDATASIZE SUB DUP2 ADD SWAP1 PUSH3 0x17C SWAP2 SWAP1 PUSH3 0x1CD0 JUMP JUMPDEST PUSH3 0xD34 JUMP JUMPDEST PUSH1 0x40 MLOAD PUSH3 0x191 SWAP2 SWAP1 PUSH3 0x1E23 JUMP JUMPDEST PUSH1 0x40 MLOAD DUP1 SWAP2 SUB SWAP1 RETURN JUMPDEST PUSH3 0x1B8 PUSH1 0x4 DUP1 CALLDATASIZE SUB DUP2 ADD SWAP1 PUSH3 0x1B2 SWAP2 SWAP1 PUSH3 0x1F98 JUMP JUMPDEST PUSH3 0x1140 JUMP JUMPDEST STOP JUMPDEST CALLVALUE DUP1 ISZERO PUSH3 0x1C7 JUMPI PUSH1 0x0 DUP1 REVERT JUMPDEST POP PUSH3 0x1E6 PUSH1 0x4 DUP1 CALLDATASIZE SUB DUP2 ADD SWAP1 PUSH3 0x1E0 SWAP2 SWAP1 PUSH3 0x212B JUMP JUMPDEST PUSH3 0x1447 JUMP JUMPDEST PUSH1 0x40 MLOAD PUSH3 0x1FF SWAP12 SWAP11 SWAP10 SWAP9 SWAP8 SWAP7 SWAP6 SWAP5 SWAP4 SWAP3 SWAP2 SWAP1 PUSH3 0x21E6 JUMP JUMPDEST PUSH1 0x40 MLOAD DUP1 SWAP2 SUB SWAP1 RETURN JUMPDEST CALLVALUE DUP1 ISZERO PUSH3 0x215 JUMPI PUSH1 0x0 DUP1 REVERT JUMPDEST POP PUSH3 0x220 PUSH3 0x17BE JUMP JUMPDEST PUSH1 0x40 MLOAD PUSH3 0x22F SWAP2 SWAP1 PUSH3 0x22CA JUMP JUMPDEST PUSH1 0x40 MLOAD DUP1 SWAP2 SUB SWAP1 RETURN JUMPDEST PUSH1 0x0 SELFBALANCE SWAP1 POP SWAP1 JUMP JUMPDEST PUSH1 0x0 PUSH1 0x2 PUSH1 0x0 DUP5 DUP2 MSTORE PUSH1 0x20 ADD SWAP1 DUP2 MSTORE PUSH1 0x20 ADD PUSH1 0x0 KECCAK256 SWAP1 POP DUP1 PUSH1 0x9 ADD PUSH1 0x0 SWAP1 SLOAD SWAP1 PUSH2 0x100 EXP SWAP1 DIV PUSH20 0xFFFFFFFFFFFFFFFFFFFFFFFFFFFFFFFFFFFFFFFF AND PUSH20 0xFFFFFFFFFFFFFFFFFFFFFFFFFFFFFFFFFFFFFFFF AND CALLER PUSH20 0xFFFFFFFFFFFFFFFFFFFFFFFFFFFFFFFFFFFFFFFF AND EQ PUSH3 0x2EC JUMPI PUSH1 0x40 MLOAD PUSH32 0x8C379A000000000000000000000000000000000000000000000000000000000 DUP2 MSTORE PUSH1 0x4 ADD PUSH3 0x2E3 SWAP1 PUSH3 0x235D JUMP JUMPDEST PUSH1 0x40 MLOAD DUP1 SWAP2 SUB SWAP1 REVERT JUMPDEST DUP1 PUSH1 0x8 ADD SLOAD DUP3 GT PUSH3 0x335 JUMPI PUSH1 0x40 MLOAD PUSH32 0x8C379A000000000000000000000000000000000000000000000000000000000 DUP2 MSTORE PUSH1 0x4 ADD PUSH3 0x32C SWAP1 PUSH3 0x23F5 JUMP JUMPDEST PUSH1 0x40 MLOAD DUP1 SWAP2 SUB SWAP1 REVERT JUMPDEST DUP2 DUP2 PUSH1 0x8 ADD DUP2 SWAP1 SSTORE POP POP POP POP JUMP JUMPDEST PUSH1 0x60 PUSH1 0x0 PUSH3 0x353 PUSH1 0x0 PUSH3 0x17E4 JUMP JUMPDEST SWAP1 POP PUSH1 0x0 DUP2 PUSH8 0xFFFFFFFFFFFFFFFF DUP2 GT ISZERO PUSH3 0x374 JUMPI PUSH3 0x373 PUSH3 0x1E51 JUMP JUMPDEST JUMPDEST PUSH1 0x40 MLOAD SWAP1 DUP1 DUP3 MSTORE DUP1 PUSH1 0x20 MUL PUSH1 0x20 ADD DUP3 ADD PUSH1 0x40 MSTORE DUP1 ISZERO PUSH3 0x3B1 JUMPI DUP2 PUSH1 0x20 ADD JUMPDEST PUSH3 0x39D PUSH3 0x1808 JUMP JUMPDEST DUP2 MSTORE PUSH1 0x20 ADD SWAP1 PUSH1 0x1 SWAP1 SUB SWAP1 DUP2 PUSH3 0x393 JUMPI SWAP1 POP JUMPDEST POP SWAP1 POP PUSH1 0x0 DUP1 PUSH1 0x0 SWAP1 POP JUMPDEST DUP4 DUP2 LT ISZERO PUSH3 0x860 JUMPI PUSH1 0x0 PUSH1 0x2 PUSH1 0x0 DUP4 DUP2 MSTORE PUSH1 0x20 ADD SWAP1 DUP2 MSTORE PUSH1 0x20 ADD PUSH1 0x0 KECCAK256 SWAP1 POP CALLER PUSH20 0xFFFFFFFFFFFFFFFFFFFFFFFFFFFFFFFFFFFFFFFF AND DUP2 PUSH1 0x9 ADD PUSH1 0x0 SWAP1 SLOAD SWAP1 PUSH2 0x100 EXP SWAP1 DIV PUSH20 0xFFFFFFFFFFFFFFFFFFFFFFFFFFFFFFFFFFFFFFFF AND PUSH20 0xFFFFFFFFFFFFFFFFFFFFFFFFFFFFFFFFFFFFFFFF AND SUB PUSH3 0x849 JUMPI DUP1 PUSH1 0x40 MLOAD DUP1 PUSH2 0x160 ADD PUSH1 0x40 MSTORE SWAP1 DUP2 PUSH1 0x0 DUP3 ADD SLOAD DUP2 MSTORE PUSH1 0x20 ADD PUSH1 0x1 DUP3 ADD DUP1 SLOAD PUSH3 0x45D SWAP1 PUSH3 0x2446 JUMP JUMPDEST DUP1 PUSH1 0x1F ADD PUSH1 0x20 DUP1 SWAP2 DIV MUL PUSH1 0x20 ADD PUSH1 0x40 MLOAD SWAP1 DUP2 ADD PUSH1 0x40 MSTORE DUP1 SWAP3 SWAP2 SWAP1 DUP2 DUP2 MSTORE PUSH1 0x20 ADD DUP3 DUP1 SLOAD PUSH3 0x48B SWAP1 PUSH3 0x2446 JUMP JUMPDEST DUP1 ISZERO PUSH3 0x4DC JUMPI DUP1 PUSH1 0x1F LT PUSH3 0x4B0 JUMPI PUSH2 0x100 DUP1 DUP4 SLOAD DIV MUL DUP4 MSTORE SWAP2 PUSH1 0x20 ADD SWAP2 PUSH3 0x4DC JUMP JUMPDEST DUP3 ADD SWAP2 SWAP1 PUSH1 0x0 MSTORE PUSH1 0x20 PUSH1 0x0 KECCAK256 SWAP1 JUMPDEST DUP2 SLOAD DUP2 MSTORE SWAP1 PUSH1 0x1 ADD SWAP1 PUSH1 0x20 ADD DUP1 DUP4 GT PUSH3 0x4BE JUMPI DUP3 SWAP1 SUB PUSH1 0x1F AND DUP3 ADD SWAP2 JUMPDEST POP POP POP POP POP DUP2 MSTORE PUSH1 0x20 ADD PUSH1 0x2 DUP3 ADD DUP1 SLOAD PUSH3 0x4F7 SWAP1 PUSH3 0x2446 JUMP JUMPDEST DUP1 PUSH1 0x1F ADD PUSH1 0x20 DUP1 SWAP2 DIV MUL PUSH1 0x20 ADD PUSH1 0x40 MLOAD SWAP1 DUP2 ADD PUSH1 0x40 MSTORE DUP1 SWAP3 SWAP2 SWAP1 DUP2 DUP2 MSTORE PUSH1 0x20 ADD DUP3 DUP1 SLOAD PUSH3 0x525 SWAP1 PUSH3 0x2446 JUMP JUMPDEST DUP1 ISZERO PUSH3 0x576 JUMPI DUP1 PUSH1 0x1F LT PUSH3 0x54A JUMPI PUSH2 0x100 DUP1 DUP4 SLOAD DIV MUL DUP4 MSTORE SWAP2 PUSH1 0x20 ADD SWAP2 PUSH3 0x576 JUMP JUMPDEST DUP3 ADD SWAP2 SWAP1 PUSH1 0x0 MSTORE PUSH1 0x20 PUSH1 0x0 KECCAK256 SWAP1 JUMPDEST DUP2 SLOAD DUP2 MSTORE SWAP1 PUSH1 0x1 ADD SWAP1 PUSH1 0x20 ADD DUP1 DUP4 GT PUSH3 0x558 JUMPI DUP3 SWAP1 SUB PUSH1 0x1F AND DUP3 ADD SWAP2 JUMPDEST POP POP POP POP POP DUP2 MSTORE PUSH1 0x20 ADD PUSH1 0x3 DUP3 ADD DUP1 SLOAD PUSH3 0x591 SWAP1 PUSH3 0x2446 JUMP JUMPDEST DUP1 PUSH1 0x1F ADD PUSH1 0x20 DUP1 SWAP2 DIV MUL PUSH1 0x20 ADD PUSH1 0x40 MLOAD SWAP1 DUP2 ADD PUSH1 0x40 MSTORE DUP1 SWAP3 SWAP2 SWAP1 DUP2 DUP2 MSTORE PUSH1 0x20 ADD DUP3 DUP1 SLOAD PUSH3 0x5BF SWAP1 PUSH3 0x2446 JUMP JUMPDEST DUP1 ISZERO PUSH3 0x610 JUMPI DUP1 PUSH1 0x1F LT PUSH3 0x5E4 JUMPI PUSH2 0x100 DUP1 DUP4 SLOAD DIV MUL DUP4 MSTORE SWAP2 PUSH1 0x20 ADD SWAP2 PUSH3 0x610 JUMP JUMPDEST DUP3 ADD SWAP2 SWAP1 PUSH1 0x0 MSTORE PUSH1 0x20 PUSH1 0x0 KECCAK256 SWAP1 JUMPDEST DUP2 SLOAD DUP2 MSTORE SWAP1 PUSH1 0x1 ADD SWAP1 PUSH1 0x20 ADD DUP1 DUP4 GT PUSH3 0x5F2 JUMPI DUP3 SWAP1 SUB PUSH1 0x1F AND DUP3 ADD SWAP2 JUMPDEST POP POP POP POP POP DUP2 MSTORE PUSH1 0x20 ADD PUSH1 0x4 DUP3 ADD DUP1 SLOAD PUSH3 0x62B SWAP1 PUSH3 0x2446 JUMP JUMPDEST DUP1 PUSH1 0x1F ADD PUSH1 0x20 DUP1 SWAP2 DIV MUL PUSH1 0x20 ADD PUSH1 0x40 MLOAD SWAP1 DUP2 ADD PUSH1 0x40 MSTORE DUP1 SWAP3 SWAP2 SWAP1 DUP2 DUP2 MSTORE PUSH1 0x20 ADD DUP3 DUP1 SLOAD PUSH3 0x659 SWAP1 PUSH3 0x2446 JUMP JUMPDEST DUP1 ISZERO PUSH3 0x6AA JUMPI DUP1 PUSH1 0x1F LT PUSH3 0x67E JUMPI PUSH2 0x100 DUP1 DUP4 SLOAD DIV MUL DUP4 MSTORE SWAP2 PUSH1 0x20 ADD SWAP2 PUSH3 0x6AA JUMP JUMPDEST DUP3 ADD SWAP2 SWAP1 PUSH1 0x0 MSTORE PUSH1 0x20 PUSH1 0x0 KECCAK256 SWAP1 JUMPDEST DUP2 SLOAD DUP2 MSTORE SWAP1 PUSH1 0x1 ADD SWAP1 PUSH1 0x20 ADD DUP1 DUP4 GT PUSH3 0x68C JUMPI DUP3 SWAP1 SUB PUSH1 0x1F AND DUP3 ADD SWAP2 JUMPDEST POP POP POP POP POP DUP2 MSTORE PUSH1 0x20 ADD PUSH1 0x5 DUP3 ADD DUP1 SLOAD PUSH3 0x6C5 SWAP1 PUSH3 0x2446 JUMP JUMPDEST DUP1 PUSH1 0x1F ADD PUSH1 0x20 DUP1 SWAP2 DIV MUL PUSH1 0x20 ADD PUSH1 0x40 MLOAD SWAP1 DUP2 ADD PUSH1 0x40 MSTORE DUP1 SWAP3 SWAP2 SWAP1 DUP2 DUP2 MSTORE PUSH1 0x20 ADD DUP3 DUP1 SLOAD PUSH3 0x6F3 SWAP1 PUSH3 0x2446 JUMP JUMPDEST DUP1 ISZERO PUSH3 0x744 JUMPI DUP1 PUSH1 0x1F LT PUSH3 0x718 JUMPI PUSH2 0x100 DUP1 DUP4 SLOAD DIV MUL DUP4 MSTORE SWAP2 PUSH1 0x20 ADD SWAP2 PUSH3 0x744 JUMP JUMPDEST DUP3 ADD SWAP2 SWAP1 PUSH1 0x0 MSTORE PUSH1 0x20 PUSH1 0x0 KECCAK256 SWAP1 JUMPDEST DUP2 SLOAD DUP2 MSTORE SWAP1 PUSH1 0x1 ADD SWAP1 PUSH1 0x20 ADD DUP1 DUP4 GT PUSH3 0x726 JUMPI DUP3 SWAP1 SUB PUSH1 0x1F AND DUP3 ADD SWAP2 JUMPDEST POP POP POP POP POP DUP2 MSTORE PUSH1 0x20 ADD PUSH1 0x6 DUP3 ADD SLOAD DUP2 MSTORE PUSH1 0x20 ADD PUSH1 0x7 DUP3 ADD SLOAD DUP2 MSTORE PUSH1 0x20 ADD PUSH1 0x8 DUP3 ADD SLOAD DUP2 MSTORE PUSH1 0x20 ADD PUSH1 0x9 DUP3 ADD PUSH1 0x0 SWAP1 SLOAD SWAP1 PUSH2 0x100 EXP SWAP1 DIV PUSH20 0xFFFFFFFFFFFFFFFFFFFFFFFFFFFFFFFFFFFFFFFF AND PUSH20 0xFFFFFFFFFFFFFFFFFFFFFFFFFFFFFFFFFFFFFFFF AND PUSH20 0xFFFFFFFFFFFFFFFFFFFFFFFFFFFFFFFFFFFFFFFF AND DUP2 MSTORE PUSH1 0x20 ADD PUSH1 0xA DUP3 ADD PUSH1 0x0 SWAP1 SLOAD SWAP1 PUSH2 0x100 EXP SWAP1 DIV PUSH20 0xFFFFFFFFFFFFFFFFFFFFFFFFFFFFFFFFFFFFFFFF AND PUSH20 0xFFFFFFFFFFFFFFFFFFFFFFFFFFFFFFFFFFFFFFFF AND PUSH20 0xFFFFFFFFFFFFFFFFFFFFFFFFFFFFFFFFFFFFFFFF AND DUP2 MSTORE POP POP DUP5 DUP5 DUP2 MLOAD DUP2 LT PUSH3 0x82D JUMPI PUSH3 0x82C PUSH3 0x247B JUMP JUMPDEST JUMPDEST PUSH1 0x20 MUL PUSH1 0x20 ADD ADD DUP2 SWAP1 MSTORE POP DUP3 DUP1 PUSH3 0x845 SWAP1 PUSH3 0x24D9 JUMP JUMPDEST SWAP4 POP POP JUMPDEST POP DUP1 DUP1 PUSH3 0x857 SWAP1 PUSH3 0x24D9 JUMP JUMPDEST SWAP2 POP POP PUSH3 0x3BC JUMP JUMPDEST POP DUP2 SWAP4 POP POP POP POP SWAP1 JUMP JUMPDEST PUSH1 0x60 PUSH1 0x0 PUSH3 0x87A PUSH1 0x0 PUSH3 0x17E4 JUMP JUMPDEST SWAP1 POP PUSH1 0x0 DUP1 DUP3 PUSH8 0xFFFFFFFFFFFFFFFF DUP2 GT ISZERO PUSH3 0x89C JUMPI PUSH3 0x89B PUSH3 0x1E51 JUMP JUMPDEST JUMPDEST PUSH1 0x40 MLOAD SWAP1 DUP1 DUP3 MSTORE DUP1 PUSH1 0x20 MUL PUSH1 0x20 ADD DUP3 ADD PUSH1 0x40 MSTORE DUP1 ISZERO PUSH3 0x8D9 JUMPI DUP2 PUSH1 0x20 ADD JUMPDEST PUSH3 0x8C5 PUSH3 0x1808 JUMP JUMPDEST DUP2 MSTORE PUSH1 0x20 ADD SWAP1 PUSH1 0x1 SWAP1 SUB SWAP1 DUP2 PUSH3 0x8BB JUMPI SWAP1 POP JUMPDEST POP SWAP1 POP PUSH1 0x0 JUMPDEST DUP4 DUP2 LT ISZERO PUSH3 0xD2A JUMPI PUSH1 0x0 PUSH1 0x2 PUSH1 0x0 DUP4 DUP2 MSTORE PUSH1 0x20 ADD SWAP1 DUP2 MSTORE PUSH1 0x20 ADD PUSH1 0x0 KECCAK256 PUSH1 0x40 MLOAD DUP1 PUSH2 0x160 ADD PUSH1 0x40 MSTORE SWAP1 DUP2 PUSH1 0x0 DUP3 ADD SLOAD DUP2 MSTORE PUSH1 0x20 ADD PUSH1 0x1 DUP3 ADD DUP1 SLOAD PUSH3 0x925 SWAP1 PUSH3 0x2446 JUMP JUMPDEST DUP1 PUSH1 0x1F ADD PUSH1 0x20 DUP1 SWAP2 DIV MUL PUSH1 0x20 ADD PUSH1 0x40 MLOAD SWAP1 DUP2 ADD PUSH1 0x40 MSTORE DUP1 SWAP3 SWAP2 SWAP1 DUP2 DUP2 MSTORE PUSH1 0x20 ADD DUP3 DUP1 SLOAD PUSH3 0x953 SWAP1 PUSH3 0x2446 JUMP JUMPDEST DUP1 ISZERO PUSH3 0x9A4 JUMPI DUP1 PUSH1 0x1F LT PUSH3 0x978 JUMPI PUSH2 0x100 DUP1 DUP4 SLOAD DIV MUL DUP4 MSTORE SWAP2 PUSH1 0x20 ADD SWAP2 PUSH3 0x9A4 JUMP JUMPDEST DUP3 ADD SWAP2 SWAP1 PUSH1 0x0 MSTORE PUSH1 0x20 PUSH1 0x0 KECCAK256 SWAP1 JUMPDEST DUP2 SLOAD DUP2 MSTORE SWAP1 PUSH1 0x1 ADD SWAP1 PUSH1 0x20 ADD DUP1 DUP4 GT PUSH3 0x986 JUMPI DUP3 SWAP1 SUB PUSH1 0x1F AND DUP3 ADD SWAP2 JUMPDEST POP POP POP POP POP DUP2 MSTORE PUSH1 0x20 ADD PUSH1 0x2 DUP3 ADD DUP1 SLOAD PUSH3 0x9BF SWAP1 PUSH3 0x2446 JUMP JUMPDEST DUP1 PUSH1 0x1F ADD PUSH1 0x20 DUP1 SWAP2 DIV MUL PUSH1 0x20 ADD PUSH1 0x40 MLOAD SWAP1 DUP2 ADD PUSH1 0x40 MSTORE DUP1 SWAP3 SWAP2 SWAP1 DUP2 DUP2 MSTORE PUSH1 0x20 ADD DUP3 DUP1 SLOAD PUSH3 0x9ED SWAP1 PUSH3 0x2446 JUMP JUMPDEST DUP1 ISZERO PUSH3 0xA3E JUMPI DUP1 PUSH1 0x1F LT PUSH3 0xA12 JUMPI PUSH2 0x100 DUP1 DUP4 SLOAD DIV MUL DUP4 MSTORE SWAP2 PUSH1 0x20 ADD SWAP2 PUSH3 0xA3E JUMP JUMPDEST DUP3 ADD SWAP2 SWAP1 PUSH1 0x0 MSTORE PUSH1 0x20 PUSH1 0x0 KECCAK256 SWAP1 JUMPDEST DUP2 SLOAD DUP2 MSTORE SWAP1 PUSH1 0x1 ADD SWAP1 PUSH1 0x20 ADD DUP1 DUP4 GT PUSH3 0xA20 JUMPI DUP3 SWAP1 SUB PUSH1 0x1F AND DUP3 ADD SWAP2 JUMPDEST POP POP POP POP POP DUP2 MSTORE PUSH1 0x20 ADD PUSH1 0x3 DUP3 ADD DUP1 SLOAD PUSH3 0xA59 SWAP1 PUSH3 0x2446 JUMP JUMPDEST DUP1 PUSH1 0x1F ADD PUSH1 0x20 DUP1 SWAP2 DIV MUL PUSH1 0x20 ADD PUSH1 0x40 MLOAD SWAP1 DUP2 ADD PUSH1 0x40 MSTORE DUP1 SWAP3 SWAP2 SWAP1 DUP2 DUP2 MSTORE PUSH1 0x20 ADD DUP3 DUP1 SLOAD PUSH3 0xA87 SWAP1 PUSH3 0x2446 JUMP JUMPDEST DUP1 ISZERO PUSH3 0xAD8 JUMPI DUP1 PUSH1 0x1F LT PUSH3 0xAAC JUMPI PUSH2 0x100 DUP1 DUP4 SLOAD DIV MUL DUP4 MSTORE SWAP2 PUSH1 0x20 ADD SWAP2 PUSH3 0xAD8 JUMP JUMPDEST DUP3 ADD SWAP2 SWAP1 PUSH1 0x0 MSTORE PUSH1 0x20 PUSH1 0x0 KECCAK256 SWAP1 JUMPDEST DUP2 SLOAD DUP2 MSTORE SWAP1 PUSH1 0x1 ADD SWAP1 PUSH1 0x20 ADD DUP1 DUP4 GT PUSH3 0xABA JUMPI DUP3 SWAP1 SUB PUSH1 0x1F AND DUP3 ADD SWAP2 JUMPDEST POP POP POP POP POP DUP2 MSTORE PUSH1 0x20 ADD PUSH1 0x4 DUP3 ADD DUP1 SLOAD PUSH3 0xAF3 SWAP1 PUSH3 0x2446 JUMP JUMPDEST DUP1 PUSH1 0x1F ADD PUSH1 0x20 DUP1 SWAP2 DIV MUL PUSH1 0x20 ADD PUSH1 0x40 MLOAD SWAP1 DUP2 ADD PUSH1 0x40 MSTORE DUP1 SWAP3 SWAP2 SWAP1 DUP2 DUP2 MSTORE PUSH1 0x20 ADD DUP3 DUP1 SLOAD PUSH3 0xB21 SWAP1 PUSH3 0x2446 JUMP JUMPDEST DUP1 ISZERO PUSH3 0xB72 JUMPI DUP1 PUSH1 0x1F LT PUSH3 0xB46 JUMPI PUSH2 0x100 DUP1 DUP4 SLOAD DIV MUL DUP4 MSTORE SWAP2 PUSH1 0x20 ADD SWAP2 PUSH3 0xB72 JUMP JUMPDEST DUP3 ADD SWAP2 SWAP1 PUSH1 0x0 MSTORE PUSH1 0x20 PUSH1 0x0 KECCAK256 SWAP1 JUMPDEST DUP2 SLOAD DUP2 MSTORE SWAP1 PUSH1 0x1 ADD SWAP1 PUSH1 0x20 ADD DUP1 DUP4 GT PUSH3 0xB54 JUMPI DUP3 SWAP1 SUB PUSH1 0x1F AND DUP3 ADD SWAP2 JUMPDEST POP POP POP POP POP DUP2 MSTORE PUSH1 0x20 ADD PUSH1 0x5 DUP3 ADD DUP1 SLOAD PUSH3 0xB8D SWAP1 PUSH3 0x2446 JUMP JUMPDEST DUP1 PUSH1 0x1F ADD PUSH1 0x20 DUP1 SWAP2 DIV MUL PUSH1 0x20 ADD PUSH1 0x40 MLOAD SWAP1 DUP2 ADD PUSH1 0x40 MSTORE DUP1 SWAP3 SWAP2 SWAP1 DUP2 DUP2 MSTORE PUSH1 0x20 ADD DUP3 DUP1 SLOAD PUSH3 0xBBB SWAP1 PUSH3 0x2446 JUMP JUMPDEST DUP1 ISZERO PUSH3 0xC0C JUMPI DUP1 PUSH1 0x1F LT PUSH3 0xBE0 JUMPI PUSH2 0x100 DUP1 DUP4 SLOAD DIV MUL DUP4 MSTORE SWAP2 PUSH1 0x20 ADD SWAP2 PUSH3 0xC0C JUMP JUMPDEST DUP3 ADD SWAP2 SWAP1 PUSH1 0x0 MSTORE PUSH1 0x20 PUSH1 0x0 KECCAK256 SWAP1 JUMPDEST DUP2 SLOAD DUP2 MSTORE SWAP1 PUSH1 0x1 ADD SWAP1 PUSH1 0x20 ADD DUP1 DUP4 GT PUSH3 0xBEE JUMPI DUP3 SWAP1 SUB PUSH1 0x1F AND DUP3 ADD SWAP2 JUMPDEST POP POP POP POP POP DUP2 MSTORE PUSH1 0x20 ADD PUSH1 0x6 DUP3 ADD SLOAD DUP2 MSTORE PUSH1 0x20 ADD PUSH1 0x7 DUP3 ADD SLOAD DUP2 MSTORE PUSH1 0x20 ADD PUSH1 0x8 DUP3 ADD SLOAD DUP2 MSTORE PUSH1 0x20 ADD PUSH1 0x9 DUP3 ADD PUSH1 0x0 SWAP1 SLOAD SWAP1 PUSH2 0x100 EXP SWAP1 DIV PUSH20 0xFFFFFFFFFFFFFFFFFFFFFFFFFFFFFFFFFFFFFFFF AND PUSH20 0xFFFFFFFFFFFFFFFFFFFFFFFFFFFFFFFFFFFFFFFF AND PUSH20 0xFFFFFFFFFFFFFFFFFFFFFFFFFFFFFFFFFFFFFFFF AND DUP2 MSTORE PUSH1 0x20 ADD PUSH1 0xA DUP3 ADD PUSH1 0x0 SWAP1 SLOAD SWAP1 PUSH2 0x100 EXP SWAP1 DIV PUSH20 0xFFFFFFFFFFFFFFFFFFFFFFFFFFFFFFFFFFFFFFFF AND PUSH20 0xFFFFFFFFFFFFFFFFFFFFFFFFFFFFFFFFFFFFFFFF AND PUSH20 0xFFFFFFFFFFFFFFFFFFFFFFFFFFFFFFFFFFFFFFFF AND DUP2 MSTORE POP POP SWAP1 POP DUP1 DUP4 DUP6 DUP2 MLOAD DUP2 LT PUSH3 0xCF8 JUMPI PUSH3 0xCF7 PUSH3 0x247B JUMP JUMPDEST JUMPDEST PUSH1 0x20 MUL PUSH1 0x20 ADD ADD DUP2 SWAP1 MSTORE POP DUP4 DUP1 PUSH3 0xD10 SWAP1 PUSH3 0x24D9 JUMP JUMPDEST SWAP5 POP POP POP DUP1 DUP1 PUSH3 0xD21 SWAP1 PUSH3 0x24D9 JUMP JUMPDEST SWAP2 POP POP PUSH3 0x8DF JUMP JUMPDEST POP DUP1 SWAP4 POP POP POP POP SWAP1 JUMP JUMPDEST PUSH3 0xD3E PUSH3 0x1808 JUMP JUMPDEST PUSH1 0x0 PUSH1 0x2 PUSH1 0x0 DUP5 DUP2 MSTORE PUSH1 0x20 ADD SWAP1 DUP2 MSTORE PUSH1 0x20 ADD PUSH1 0x0 KECCAK256 PUSH1 0x40 MLOAD DUP1 PUSH2 0x160 ADD PUSH1 0x40 MSTORE SWAP1 DUP2 PUSH1 0x0 DUP3 ADD SLOAD DUP2 MSTORE PUSH1 0x20 ADD PUSH1 0x1 DUP3 ADD DUP1 SLOAD PUSH3 0xD7B SWAP1 PUSH3 0x2446 JUMP JUMPDEST DUP1 PUSH1 0x1F ADD PUSH1 0x20 DUP1 SWAP2 DIV MUL PUSH1 0x20 ADD PUSH1 0x40 MLOAD SWAP1 DUP2 ADD PUSH1 0x40 MSTORE DUP1 SWAP3 SWAP2 SWAP1 DUP2 DUP2 MSTORE PUSH1 0x20 ADD DUP3 DUP1 SLOAD PUSH3 0xDA9 SWAP1 PUSH3 0x2446 JUMP JUMPDEST DUP1 ISZERO PUSH3 0xDFA JUMPI DUP1 PUSH1 0x1F LT PUSH3 0xDCE JUMPI PUSH2 0x100 DUP1 DUP4 SLOAD DIV MUL DUP4 MSTORE SWAP2 PUSH1 0x20 ADD SWAP2 PUSH3 0xDFA JUMP JUMPDEST DUP3 ADD SWAP2 SWAP1 PUSH1 0x0 MSTORE PUSH1 0x20 PUSH1 0x0 KECCAK256 SWAP1 JUMPDEST DUP2 SLOAD DUP2 MSTORE SWAP1 PUSH1 0x1 ADD SWAP1 PUSH1 0x20 ADD DUP1 DUP4 GT PUSH3 0xDDC JUMPI DUP3 SWAP1 SUB PUSH1 0x1F AND DUP3 ADD SWAP2 JUMPDEST POP POP POP POP POP DUP2 MSTORE PUSH1 0x20 ADD PUSH1 0x2 DUP3 ADD DUP1 SLOAD PUSH3 0xE15 SWAP1 PUSH3 0x2446 JUMP JUMPDEST DUP1 PUSH1 0x1F ADD PUSH1 0x20 DUP1 SWAP2 DIV MUL PUSH1 0x20 ADD PUSH1 0x40 MLOAD SWAP1 DUP2 ADD PUSH1 0x40 MSTORE DUP1 SWAP3 SWAP2 SWAP1 DUP2 DUP2 MSTORE PUSH1 0x20 ADD DUP3 DUP1 SLOAD PUSH3 0xE43 SWAP1 PUSH3 0x2446 JUMP JUMPDEST DUP1 ISZERO PUSH3 0xE94 JUMPI DUP1 PUSH1 0x1F LT PUSH3 0xE68 JUMPI PUSH2 0x100 DUP1 DUP4 SLOAD DIV MUL DUP4 MSTORE SWAP2 PUSH1 0x20 ADD SWAP2 PUSH3 0xE94 JUMP JUMPDEST DUP3 ADD SWAP2 SWAP1 PUSH1 0x0 MSTORE PUSH1 0x20 PUSH1 0x0 KECCAK256 SWAP1 JUMPDEST DUP2 SLOAD DUP2 MSTORE SWAP1 PUSH1 0x1 ADD SWAP1 PUSH1 0x20 ADD DUP1 DUP4 GT PUSH3 0xE76 JUMPI DUP3 SWAP1 SUB PUSH1 0x1F AND DUP3 ADD SWAP2 JUMPDEST POP POP POP POP POP DUP2 MSTORE PUSH1 0x20 ADD PUSH1 0x3 DUP3 ADD DUP1 SLOAD PUSH3 0xEAF SWAP1 PUSH3 0x2446 JUMP JUMPDEST DUP1 PUSH1 0x1F ADD PUSH1 0x20 DUP1 SWAP2 DIV MUL PUSH1 0x20 ADD PUSH1 0x40 MLOAD SWAP1 DUP2 ADD PUSH1 0x40 MSTORE DUP1 SWAP3 SWAP2 SWAP1 DUP2 DUP2 MSTORE PUSH1 0x20 ADD DUP3 DUP1 SLOAD PUSH3 0xEDD SWAP1 PUSH3 0x2446 JUMP JUMPDEST DUP1 ISZERO PUSH3 0xF2E JUMPI DUP1 PUSH1 0x1F LT PUSH3 0xF02 JUMPI PUSH2 0x100 DUP1 DUP4 SLOAD DIV MUL DUP4 MSTORE SWAP2 PUSH1 0x20 ADD SWAP2 PUSH3 0xF2E JUMP JUMPDEST DUP3 ADD SWAP2 SWAP1 PUSH1 0x0 MSTORE PUSH1 0x20 PUSH1 0x0 KECCAK256 SWAP1 JUMPDEST DUP2 SLOAD DUP2 MSTORE SWAP1 PUSH1 0x1 ADD SWAP1 PUSH1 0x20 ADD DUP1 DUP4 GT PUSH3 0xF10 JUMPI DUP3 SWAP1 SUB PUSH1 0x1F AND DUP3 ADD SWAP2 JUMPDEST POP POP POP POP POP DUP2 MSTORE PUSH1 0x20 ADD PUSH1 0x4 DUP3 ADD DUP1 SLOAD PUSH3 0xF49 SWAP1 PUSH3 0x2446 JUMP JUMPDEST DUP1 PUSH1 0x1F ADD PUSH1 0x20 DUP1 SWAP2 DIV MUL PUSH1 0x20 ADD PUSH1 0x40 MLOAD SWAP1 DUP2 ADD PUSH1 0x40 MSTORE DUP1 SWAP3 SWAP2 SWAP1 DUP2 DUP2 MSTORE PUSH1 0x20 ADD DUP3 DUP1 SLOAD PUSH3 0xF77 SWAP1 PUSH3 0x2446 JUMP JUMPDEST DUP1 ISZERO PUSH3 0xFC8 JUMPI DUP1 PUSH1 0x1F LT PUSH3 0xF9C JUMPI PUSH2 0x100 DUP1 DUP4 SLOAD DIV MUL DUP4 MSTORE SWAP2 PUSH1 0x20 ADD SWAP2 PUSH3 0xFC8 JUMP JUMPDEST DUP3 ADD SWAP2 SWAP1 PUSH1 0x0 MSTORE PUSH1 0x20 PUSH1 0x0 KECCAK256 SWAP1 JUMPDEST DUP2 SLOAD DUP2 MSTORE SWAP1 PUSH1 0x1 ADD SWAP1 PUSH1 0x20 ADD DUP1 DUP4 GT PUSH3 0xFAA JUMPI DUP3 SWAP1 SUB PUSH1 0x1F AND DUP3 ADD SWAP2 JUMPDEST POP POP POP POP POP DUP2 MSTORE PUSH1 0x20 ADD PUSH1 0x5 DUP3 ADD DUP1 SLOAD PUSH3 0xFE3 SWAP1 PUSH3 0x2446 JUMP JUMPDEST DUP1 PUSH1 0x1F ADD PUSH1 0x20 DUP1 SWAP2 DIV MUL PUSH1 0x20 ADD PUSH1 0x40 MLOAD SWAP1 DUP2 ADD PUSH1 0x40 MSTORE DUP1 SWAP3 SWAP2 SWAP1 DUP2 DUP2 MSTORE PUSH1 0x20 ADD DUP3 DUP1 SLOAD PUSH3 0x1011 SWAP1 PUSH3 0x2446 JUMP JUMPDEST DUP1 ISZERO PUSH3 0x1062 JUMPI DUP1 PUSH1 0x1F LT PUSH3 0x1036 JUMPI PUSH2 0x100 DUP1 DUP4 SLOAD DIV MUL DUP4 MSTORE SWAP2 PUSH1 0x20 ADD SWAP2 PUSH3 0x1062 JUMP JUMPDEST DUP3 ADD SWAP2 SWAP1 PUSH1 0x0 MSTORE PUSH1 0x20 PUSH1 0x0 KECCAK256 SWAP1 JUMPDEST DUP2 SLOAD DUP2 MSTORE SWAP1 PUSH1 0x1 ADD SWAP1 PUSH1 0x20 ADD DUP1 DUP4 GT PUSH3 0x1044 JUMPI DUP3 SWAP1 SUB PUSH1 0x1F AND DUP3 ADD SWAP2 JUMPDEST POP POP POP POP POP DUP2 MSTORE PUSH1 0x20 ADD PUSH1 0x6 DUP3 ADD SLOAD DUP2 MSTORE PUSH1 0x20 ADD PUSH1 0x7 DUP3 ADD SLOAD DUP2 MSTORE PUSH1 0x20 ADD PUSH1 0x8 DUP3 ADD SLOAD DUP2 MSTORE PUSH1 0x20 ADD PUSH1 0x9 DUP3 ADD PUSH1 0x0 SWAP1 SLOAD SWAP1 PUSH2 0x100 EXP SWAP1 DIV PUSH20 0xFFFFFFFFFFFFFFFFFFFFFFFFFFFFFFFFFFFFFFFF AND PUSH20 0xFFFFFFFFFFFFFFFFFFFFFFFFFFFFFFFFFFFFFFFF AND PUSH20 0xFFFFFFFFFFFFFFFFFFFFFFFFFFFFFFFFFFFFFFFF AND DUP2 MSTORE PUSH1 0x20 ADD PUSH1 0xA DUP3 ADD PUSH1 0x0 SWAP1 SLOAD SWAP1 PUSH2 0x100 EXP SWAP1 DIV PUSH20 0xFFFFFFFFFFFFFFFFFFFFFFFFFFFFFFFFFFFFFFFF AND PUSH20 0xFFFFFFFFFFFFFFFFFFFFFFFFFFFFFFFFFFFFFFFF AND PUSH20 0xFFFFFFFFFFFFFFFFFFFFFFFFFFFFFFFFFFFFFFFF AND DUP2 MSTORE POP POP SWAP1 POP DUP1 SWAP2 POP POP SWAP2 SWAP1 POP JUMP JUMPDEST DUP2 CALLVALUE EQ PUSH3 0x1185 JUMPI PUSH1 0x40 MLOAD PUSH32 0x8C379A000000000000000000000000000000000000000000000000000000000 DUP2 MSTORE PUSH1 0x4 ADD PUSH3 0x117C SWAP1 PUSH3 0x259C JUMP JUMPDEST PUSH1 0x40 MLOAD DUP1 SWAP2 SUB SWAP1 REVERT JUMPDEST PUSH1 0x0 PUSH3 0x1193 PUSH1 0x0 PUSH3 0x17E4 JUMP JUMPDEST SWAP1 POP PUSH1 0x0 CALLER DUP4 DUP6 PUSH1 0x40 MLOAD PUSH3 0x11A8 SWAP1 PUSH3 0x188E JUMP JUMPDEST PUSH3 0x11B6 SWAP4 SWAP3 SWAP2 SWAP1 PUSH3 0x25BE JUMP JUMPDEST PUSH1 0x40 MLOAD DUP1 SWAP2 SUB SWAP1 PUSH1 0x0 CREATE DUP1 ISZERO DUP1 ISZERO PUSH3 0x11D3 JUMPI RETURNDATASIZE PUSH1 0x0 DUP1 RETURNDATACOPY RETURNDATASIZE PUSH1 0x0 REVERT JUMPDEST POP SWAP1 POP PUSH1 0x0 PUSH1 0x40 MLOAD DUP1 PUSH2 0x160 ADD PUSH1 0x40 MSTORE DUP1 DUP5 DUP2 MSTORE PUSH1 0x20 ADD DUP12 DUP2 MSTORE PUSH1 0x20 ADD DUP11 DUP2 MSTORE PUSH1 0x20 ADD DUP10 DUP2 MSTORE PUSH1 0x20 ADD DUP9 DUP2 MSTORE PUSH1 0x20 ADD DUP8 DUP2 MSTORE PUSH1 0x20 ADD DUP7 DUP2 MSTORE PUSH1 0x20 ADD TIMESTAMP DUP2 MSTORE PUSH1 0x20 ADD DUP6 DUP2 MSTORE PUSH1 0x20 ADD CALLER PUSH20 0xFFFFFFFFFFFFFFFFFFFFFFFFFFFFFFFFFFFFFFFF AND DUP2 MSTORE PUSH1 0x20 ADD DUP4 PUSH20 0xFFFFFFFFFFFFFFFFFFFFFFFFFFFFFFFFFFFFFFFF AND DUP2 MSTORE POP SWAP1 POP DUP1 PUSH1 0x2 PUSH1 0x0 DUP6 DUP2 MSTORE PUSH1 0x20 ADD SWAP1 DUP2 MSTORE PUSH1 0x20 ADD PUSH1 0x0 KECCAK256 PUSH1 0x0 DUP3 ADD MLOAD DUP2 PUSH1 0x0 ADD SSTORE PUSH1 0x20 DUP3 ADD MLOAD DUP2 PUSH1 0x1 ADD SWAP1 DUP2 PUSH3 0x1287 SWAP2 SWAP1 PUSH3 0x27C3 JUMP JUMPDEST POP PUSH1 0x40 DUP3 ADD MLOAD DUP2 PUSH1 0x2 ADD SWAP1 DUP2 PUSH3 0x129F SWAP2 SWAP1 PUSH3 0x27C3 JUMP JUMPDEST POP PUSH1 0x60 DUP3 ADD MLOAD DUP2 PUSH1 0x3 ADD SWAP1 DUP2 PUSH3 0x12B7 SWAP2 SWAP1 PUSH3 0x27C3 JUMP JUMPDEST POP PUSH1 0x80 DUP3 ADD MLOAD DUP2 PUSH1 0x4 ADD SWAP1 DUP2 PUSH3 0x12CF SWAP2 SWAP1 PUSH3 0x27C3 JUMP JUMPDEST POP PUSH1 0xA0 DUP3 ADD MLOAD DUP2 PUSH1 0x5 ADD SWAP1 DUP2 PUSH3 0x12E7 SWAP2 SWAP1 PUSH3 0x27C3 JUMP JUMPDEST POP PUSH1 0xC0 DUP3 ADD MLOAD DUP2 PUSH1 0x6 ADD SSTORE PUSH1 0xE0 DUP3 ADD MLOAD DUP2 PUSH1 0x7 ADD SSTORE PUSH2 0x100 DUP3 ADD MLOAD DUP2 PUSH1 0x8 ADD SSTORE PUSH2 0x120 DUP3 ADD MLOAD DUP2 PUSH1 0x9 ADD PUSH1 0x0 PUSH2 0x100 EXP DUP2 SLOAD DUP2 PUSH20 0xFFFFFFFFFFFFFFFFFFFFFFFFFFFFFFFFFFFFFFFF MUL NOT AND SWAP1 DUP4 PUSH20 0xFFFFFFFFFFFFFFFFFFFFFFFFFFFFFFFFFFFFFFFF AND MUL OR SWAP1 SSTORE POP PUSH2 0x140 DUP3 ADD MLOAD DUP2 PUSH1 0xA ADD PUSH1 0x0 PUSH2 0x100 EXP DUP2 SLOAD DUP2 PUSH20 0xFFFFFFFFFFFFFFFFFFFFFFFFFFFFFFFFFFFFFFFF MUL NOT AND SWAP1 DUP4 PUSH20 0xFFFFFFFFFFFFFFFFFFFFFFFFFFFFFFFFFFFFFFFF AND MUL OR SWAP1 SSTORE POP SWAP1 POP POP PUSH3 0x13A6 PUSH1 0x0 PUSH3 0x17F2 JUMP JUMPDEST DUP2 PUSH20 0xFFFFFFFFFFFFFFFFFFFFFFFFFFFFFFFFFFFFFFFF AND PUSH2 0x8FC CALLVALUE SWAP1 DUP2 ISZERO MUL SWAP1 PUSH1 0x40 MLOAD PUSH1 0x0 PUSH1 0x40 MLOAD DUP1 DUP4 SUB DUP2 DUP6 DUP9 DUP9 CALL SWAP4 POP POP POP POP ISZERO DUP1 ISZERO PUSH3 0x13ED JUMPI RETURNDATASIZE PUSH1 0x0 DUP1 RETURNDATACOPY RETURNDATASIZE PUSH1 0x0 REVERT JUMPDEST POP PUSH32 0x71118D02C87017CAD0298C6ECE1CDA0B1BCDB0A412B2A819038F352216C400E3 DUP4 DUP12 DUP12 DUP12 DUP12 DUP12 DUP12 TIMESTAMP DUP13 CALLER DUP13 PUSH1 0x40 MLOAD PUSH3 0x1433 SWAP12 SWAP11 SWAP10 SWAP9 SWAP8 SWAP7 SWAP6 SWAP5 SWAP4 SWAP3 SWAP2 SWAP1 PUSH3 0x21E6 JUMP JUMPDEST PUSH1 0x40 MLOAD DUP1 SWAP2 SUB SWAP1 LOG1 POP POP POP POP POP POP POP POP POP POP JUMP JUMPDEST PUSH1 0x3 PUSH1 0x20 MSTORE DUP2 PUSH1 0x0 MSTORE PUSH1 0x40 PUSH1 0x0 KECCAK256 PUSH1 0x20 MSTORE DUP1 PUSH1 0x0 MSTORE PUSH1 0x40 PUSH1 0x0 KECCAK256 PUSH1 0x0 SWAP2 POP SWAP2 POP POP DUP1 PUSH1 0x0 ADD SLOAD SWAP1 DUP1 PUSH1 0x1 ADD DUP1 SLOAD PUSH3 0x147F SWAP1 PUSH3 0x2446 JUMP JUMPDEST DUP1 PUSH1 0x1F ADD PUSH1 0x20 DUP1 SWAP2 DIV MUL PUSH1 0x20 ADD PUSH1 0x40 MLOAD SWAP1 DUP2 ADD PUSH1 0x40 MSTORE DUP1 SWAP3 SWAP2 SWAP1 DUP2 DUP2 MSTORE PUSH1 0x20 ADD DUP3 DUP1 SLOAD PUSH3 0x14AD SWAP1 PUSH3 0x2446 JUMP JUMPDEST DUP1 ISZERO PUSH3 0x14FE JUMPI DUP1 PUSH1 0x1F LT PUSH3 0x14D2 JUMPI PUSH2 0x100 DUP1 DUP4 SLOAD DIV MUL DUP4 MSTORE SWAP2 PUSH1 0x20 ADD SWAP2 PUSH3 0x14FE JUMP JUMPDEST DUP3 ADD SWAP2 SWAP1 PUSH1 0x0 MSTORE PUSH1 0x20 PUSH1 0x0 KECCAK256 SWAP1 JUMPDEST DUP2 SLOAD DUP2 MSTORE SWAP1 PUSH1 0x1 ADD SWAP1 PUSH1 0x20 ADD DUP1 DUP4 GT PUSH3 0x14E0 JUMPI DUP3 SWAP1 SUB PUSH1 0x1F AND DUP3 ADD SWAP2 JUMPDEST POP POP POP POP POP SWAP1 DUP1 PUSH1 0x2 ADD DUP1 SLOAD PUSH3 0x1515 SWAP1 PUSH3 0x2446 JUMP JUMPDEST DUP1 PUSH1 0x1F ADD PUSH1 0x20 DUP1 SWAP2 DIV MUL PUSH1 0x20 ADD PUSH1 0x40 MLOAD SWAP1 DUP2 ADD PUSH1 0x40 MSTORE DUP1 SWAP3 SWAP2 SWAP1 DUP2 DUP2 MSTORE PUSH1 0x20 ADD DUP3 DUP1 SLOAD PUSH3 0x1543 SWAP1 PUSH3 0x2446 JUMP JUMPDEST DUP1 ISZERO PUSH3 0x1594 JUMPI DUP1 PUSH1 0x1F LT PUSH3 0x1568 JUMPI PUSH2 0x100 DUP1 DUP4 SLOAD DIV MUL DUP4 MSTORE SWAP2 PUSH1 0x20 ADD SWAP2 PUSH3 0x1594 JUMP JUMPDEST DUP3 ADD SWAP2 SWAP1 PUSH1 0x0 MSTORE PUSH1 0x20 PUSH1 0x0 KECCAK256 SWAP1 JUMPDEST DUP2 SLOAD DUP2 MSTORE SWAP1 PUSH1 0x1 ADD SWAP1 PUSH1 0x20 ADD DUP1 DUP4 GT PUSH3 0x1576 JUMPI DUP3 SWAP1 SUB PUSH1 0x1F AND DUP3 ADD SWAP2 JUMPDEST POP POP POP POP POP SWAP1 DUP1 PUSH1 0x3 ADD DUP1 SLOAD PUSH3 0x15AB SWAP1 PUSH3 0x2446 JUMP JUMPDEST DUP1 PUSH1 0x1F ADD PUSH1 0x20 DUP1 SWAP2 DIV MUL PUSH1 0x20 ADD PUSH1 0x40 MLOAD SWAP1 DUP2 ADD PUSH1 0x40 MSTORE DUP1 SWAP3 SWAP2 SWAP1 DUP2 DUP2 MSTORE PUSH1 0x20 ADD DUP3 DUP1 SLOAD PUSH3 0x15D9 SWAP1 PUSH3 0x2446 JUMP JUMPDEST DUP1 ISZERO PUSH3 0x162A JUMPI DUP1 PUSH1 0x1F LT PUSH3 0x15FE JUMPI PUSH2 0x100 DUP1 DUP4 SLOAD DIV MUL DUP4 MSTORE SWAP2 PUSH1 0x20 ADD SWAP2 PUSH3 0x162A JUMP JUMPDEST DUP3 ADD SWAP2 SWAP1 PUSH1 0x0 MSTORE PUSH1 0x20 PUSH1 0x0 KECCAK256 SWAP1 JUMPDEST DUP2 SLOAD DUP2 MSTORE SWAP1 PUSH1 0x1 ADD SWAP1 PUSH1 0x20 ADD DUP1 DUP4 GT PUSH3 0x160C JUMPI DUP3 SWAP1 SUB PUSH1 0x1F AND DUP3 ADD SWAP2 JUMPDEST POP POP POP POP POP SWAP1 DUP1 PUSH1 0x4 ADD DUP1 SLOAD PUSH3 0x1641 SWAP1 PUSH3 0x2446 JUMP JUMPDEST DUP1 PUSH1 0x1F ADD PUSH1 0x20 DUP1 SWAP2 DIV MUL PUSH1 0x20 ADD PUSH1 0x40 MLOAD SWAP1 DUP2 ADD PUSH1 0x40 MSTORE DUP1 SWAP3 SWAP2 SWAP1 DUP2 DUP2 MSTORE PUSH1 0x20 ADD DUP3 DUP1 SLOAD PUSH3 0x166F SWAP1 PUSH3 0x2446 JUMP JUMPDEST DUP1 ISZERO PUSH3 0x16C0 JUMPI DUP1 PUSH1 0x1F LT PUSH3 0x1694 JUMPI PUSH2 0x100 DUP1 DUP4 SLOAD DIV MUL DUP4 MSTORE SWAP2 PUSH1 0x20 ADD SWAP2 PUSH3 0x16C0 JUMP JUMPDEST DUP3 ADD SWAP2 SWAP1 PUSH1 0x0 MSTORE PUSH1 0x20 PUSH1 0x0 KECCAK256 SWAP1 JUMPDEST DUP2 SLOAD DUP2 MSTORE SWAP1 PUSH1 0x1 ADD SWAP1 PUSH1 0x20 ADD DUP1 DUP4 GT PUSH3 0x16A2 JUMPI DUP3 SWAP1 SUB PUSH1 0x1F AND DUP3 ADD SWAP2 JUMPDEST POP POP POP POP POP SWAP1 DUP1 PUSH1 0x5 ADD DUP1 SLOAD PUSH3 0x16D7 SWAP1 PUSH3 0x2446 JUMP JUMPDEST DUP1 PUSH1 0x1F ADD PUSH1 0x20 DUP1 SWAP2 DIV MUL PUSH1 0x20 ADD PUSH1 0x40 MLOAD SWAP1 DUP2 ADD PUSH1 0x40 MSTORE DUP1 SWAP3 SWAP2 SWAP1 DUP2 DUP2 MSTORE PUSH1 0x20 ADD DUP3 DUP1 SLOAD PUSH3 0x1705 SWAP1 PUSH3 0x2446 JUMP JUMPDEST DUP1 ISZERO PUSH3 0x1756 JUMPI DUP1 PUSH1 0x1F LT PUSH3 0x172A JUMPI PUSH2 0x100 DUP1 DUP4 SLOAD DIV MUL DUP4 MSTORE SWAP2 PUSH1 0x20 ADD SWAP2 PUSH3 0x1756 JUMP JUMPDEST DUP3 ADD SWAP2 SWAP1 PUSH1 0x0 MSTORE PUSH1 0x20 PUSH1 0x0 KECCAK256 SWAP1 JUMPDEST DUP2 SLOAD DUP2 MSTORE SWAP1 PUSH1 0x1 ADD SWAP1 PUSH1 0x20 ADD DUP1 DUP4 GT PUSH3 0x1738 JUMPI DUP3 SWAP1 SUB PUSH1 0x1F AND DUP3 ADD SWAP2 JUMPDEST POP POP POP POP POP SWAP1 DUP1 PUSH1 0x6 ADD SLOAD SWAP1 DUP1 PUSH1 0x7 ADD SLOAD SWAP1 DUP1 PUSH1 0x8 ADD SLOAD SWAP1 DUP1 PUSH1 0x9 ADD PUSH1 0x0 SWAP1 SLOAD SWAP1 PUSH2 0x100 EXP SWAP1 DIV PUSH20 0xFFFFFFFFFFFFFFFFFFFFFFFFFFFFFFFFFFFFFFFF AND SWAP1 DUP1 PUSH1 0xA ADD PUSH1 0x0 SWAP1 SLOAD SWAP1 PUSH2 0x100 EXP SWAP1 DIV PUSH20 0xFFFFFFFFFFFFFFFFFFFFFFFFFFFFFFFFFFFFFFFF AND SWAP1 POP DUP12 JUMP JUMPDEST PUSH1 0x1 PUSH1 0x0 SWAP1 SLOAD SWAP1 PUSH2 0x100 EXP SWAP1 DIV PUSH20 0xFFFFFFFFFFFFFFFFFFFFFFFFFFFFFFFFFFFFFFFF AND DUP2 JUMP JUMPDEST PUSH1 0x0 DUP2 PUSH1 0x0 ADD SLOAD SWAP1 POP SWAP2 SWAP1 POP JUMP JUMPDEST PUSH1 0x1 DUP2 PUSH1 0x0 ADD PUSH1 0x0 DUP3 DUP3 SLOAD ADD SWAP3 POP POP DUP2 SWAP1 SSTORE POP POP JUMP JUMPDEST PUSH1 0x40 MLOAD DUP1 PUSH2 0x160 ADD PUSH1 0x40 MSTORE DUP1 PUSH1 0x0 DUP2 MSTORE PUSH1 0x20 ADD PUSH1 0x60 DUP2 MSTORE PUSH1 0x20 ADD PUSH1 0x60 DUP2 MSTORE PUSH1 0x20 ADD PUSH1 0x60 DUP2 MSTORE PUSH1 0x20 ADD PUSH1 0x60 DUP2 MSTORE PUSH1 0x20 ADD PUSH1 0x60 DUP2 MSTORE PUSH1 0x20 ADD PUSH1 0x0 DUP2 MSTORE PUSH1 0x20 ADD PUSH1 0x0 DUP2 MSTORE PUSH1 0x20 ADD PUSH1 0x0 DUP2 MSTORE PUSH1 0x20 ADD PUSH1 0x0 PUSH20 0xFFFFFFFFFFFFFFFFFFFFFFFFFFFFFFFFFFFFFFFF AND DUP2 MSTORE PUSH1 0x20 ADD PUSH1 0x0 PUSH20 0xFFFFFFFFFFFFFFFFFFFFFFFFFFFFFFFFFFFFFFFF AND DUP2 MSTORE POP SWAP1 JUMP JUMPDEST PUSH2 0x318B DUP1 PUSH3 0x28AB DUP4 CODECOPY ADD SWAP1 JUMP JUMPDEST PUSH1 0x0 DUP2 SWAP1 POP SWAP2 SWAP1 POP JUMP JUMPDEST PUSH3 0x18B1 DUP2 PUSH3 0x189C JUMP JUMPDEST DUP3 MSTORE POP POP JUMP JUMPDEST PUSH1 0x0 PUSH1 0x20 DUP3 ADD SWAP1 POP PUSH3 0x18CE PUSH1 0x0 DUP4 ADD DUP5 PUSH3 0x18A6 JUMP JUMPDEST SWAP3 SWAP2 POP POP JUMP JUMPDEST PUSH1 0x0 PUSH1 0x40 MLOAD SWAP1 POP SWAP1 JUMP JUMPDEST PUSH1 0x0 DUP1 REVERT JUMPDEST PUSH1 0x0 DUP1 REVERT JUMPDEST PUSH3 0x18F3 DUP2 PUSH3 0x189C JUMP JUMPDEST DUP2 EQ PUSH3 0x18FF JUMPI PUSH1 0x0 DUP1 REVERT JUMPDEST POP JUMP JUMPDEST PUSH1 0x0 DUP2 CALLDATALOAD SWAP1 POP PUSH3 0x1913 DUP2 PUSH3 0x18E8 JUMP JUMPDEST SWAP3 SWAP2 POP POP JUMP JUMPDEST PUSH1 0x0 DUP1 PUSH1 0x40 DUP4 DUP6 SUB SLT ISZERO PUSH3 0x1933 JUMPI PUSH3 0x1932 PUSH3 0x18DE JUMP JUMPDEST JUMPDEST PUSH1 0x0 PUSH3 0x1943 DUP6 DUP3 DUP7 ADD PUSH3 0x1902 JUMP JUMPDEST SWAP3 POP POP PUSH1 0x20 PUSH3 0x1956 DUP6 DUP3 DUP7 ADD PUSH3 0x1902 JUMP JUMPDEST SWAP2 POP POP SWAP3 POP SWAP3 SWAP1 POP JUMP JUMPDEST PUSH1 0x0 DUP2 MLOAD SWAP1 POP SWAP2 SWAP1 POP JUMP JUMPDEST PUSH1 0x0 DUP3 DUP3 MSTORE PUSH1 0x20 DUP3 ADD SWAP1 POP SWAP3 SWAP2 POP POP JUMP JUMPDEST PUSH1 0x0 DUP2 SWAP1 POP PUSH1 0x20 DUP3 ADD SWAP1 POP SWAP2 SWAP1 POP JUMP JUMPDEST PUSH3 0x1997 DUP2 PUSH3 0x189C JUMP JUMPDEST DUP3 MSTORE POP POP JUMP JUMPDEST PUSH1 0x0 DUP2 MLOAD SWAP1 POP SWAP2 SWAP1 POP JUMP JUMPDEST PUSH1 0x0 DUP3 DUP3 MSTORE PUSH1 0x20 DUP3 ADD SWAP1 POP SWAP3 SWAP2 POP POP JUMP JUMPDEST PUSH1 0x0 JUMPDEST DUP4 DUP2 LT ISZERO PUSH3 0x19D9 JUMPI DUP1 DUP3 ADD MLOAD DUP2 DUP5 ADD MSTORE PUSH1 0x20 DUP2 ADD SWAP1 POP PUSH3 0x19BC JUMP JUMPDEST PUSH1 0x0 DUP5 DUP5 ADD MSTORE POP POP POP POP JUMP JUMPDEST PUSH1 0x0 PUSH1 0x1F NOT PUSH1 0x1F DUP4 ADD AND SWAP1 POP SWAP2 SWAP1 POP JUMP JUMPDEST PUSH1 0x0 PUSH3 0x1A03 DUP3 PUSH3 0x199D JUMP JUMPDEST PUSH3 0x1A0F DUP2 DUP6 PUSH3 0x19A8 JUMP JUMPDEST SWAP4 POP PUSH3 0x1A21 DUP2 DUP6 PUSH1 0x20 DUP7 ADD PUSH3 0x19B9 JUMP JUMPDEST PUSH3 0x1A2C DUP2 PUSH3 0x19E5 JUMP JUMPDEST DUP5 ADD SWAP2 POP POP SWAP3 SWAP2 POP POP JUMP JUMPDEST PUSH1 0x0 PUSH20 0xFFFFFFFFFFFFFFFFFFFFFFFFFFFFFFFFFFFFFFFF DUP3 AND SWAP1 POP SWAP2 SWAP1 POP JUMP JUMPDEST PUSH1 0x0 PUSH3 0x1A64 DUP3 PUSH3 0x1A37 JUMP JUMPDEST SWAP1 POP SWAP2 SWAP1 POP JUMP JUMPDEST PUSH3 0x1A76 DUP2 PUSH3 0x1A57 JUMP JUMPDEST DUP3 MSTORE POP POP JUMP JUMPDEST PUSH1 0x0 DUP2 SWAP1 POP SWAP2 SWAP1 POP JUMP JUMPDEST PUSH1 0x0 PUSH3 0x1AA7 PUSH3 0x1AA1 PUSH3 0x1A9B DUP5 PUSH3 0x1A37 JUMP JUMPDEST PUSH3 0x1A7C JUMP JUMPDEST PUSH3 0x1A37 JUMP JUMPDEST SWAP1 POP SWAP2 SWAP1 POP JUMP JUMPDEST PUSH1 0x0 PUSH3 0x1ABB DUP3 PUSH3 0x1A86 JUMP JUMPDEST SWAP1 POP SWAP2 SWAP1 POP JUMP JUMPDEST PUSH1 0x0 PUSH3 0x1ACF DUP3 PUSH3 0x1AAE JUMP JUMPDEST SWAP1 POP SWAP2 SWAP1 POP JUMP JUMPDEST PUSH3 0x1AE1 DUP2 PUSH3 0x1AC2 JUMP JUMPDEST DUP3 MSTORE POP POP JUMP JUMPDEST PUSH1 0x0 PUSH2 0x160 DUP4 ADD PUSH1 0x0 DUP4 ADD MLOAD PUSH3 0x1B02 PUSH1 0x0 DUP7 ADD DUP3 PUSH3 0x198C JUMP JUMPDEST POP PUSH1 0x20 DUP4 ADD MLOAD DUP5 DUP3 SUB PUSH1 0x20 DUP7 ADD MSTORE PUSH3 0x1B1C DUP3 DUP3 PUSH3 0x19F6 JUMP JUMPDEST SWAP2 POP POP PUSH1 0x40 DUP4 ADD MLOAD DUP5 DUP3 SUB PUSH1 0x40 DUP7 ADD MSTORE PUSH3 0x1B38 DUP3 DUP3 PUSH3 0x19F6 JUMP JUMPDEST SWAP2 POP POP PUSH1 0x60 DUP4 ADD MLOAD DUP5 DUP3 SUB PUSH1 0x60 DUP7 ADD MSTORE PUSH3 0x1B54 DUP3 DUP3 PUSH3 0x19F6 JUMP JUMPDEST SWAP2 POP POP PUSH1 0x80 DUP4 ADD MLOAD DUP5 DUP3 SUB PUSH1 0x80 DUP7 ADD MSTORE PUSH3 0x1B70 DUP3 DUP3 PUSH3 0x19F6 JUMP JUMPDEST SWAP2 POP POP PUSH1 0xA0 DUP4 ADD MLOAD DUP5 DUP3 SUB PUSH1 0xA0 DUP7 ADD MSTORE PUSH3 0x1B8C DUP3 DUP3 PUSH3 0x19F6 JUMP JUMPDEST SWAP2 POP POP PUSH1 0xC0 DUP4 ADD MLOAD PUSH3 0x1BA3 PUSH1 0xC0 DUP7 ADD DUP3 PUSH3 0x198C JUMP JUMPDEST POP PUSH1 0xE0 DUP4 ADD MLOAD PUSH3 0x1BB8 PUSH1 0xE0 DUP7 ADD DUP3 PUSH3 0x198C JUMP JUMPDEST POP PUSH2 0x100 DUP4 ADD MLOAD PUSH3 0x1BCF PUSH2 0x100 DUP7 ADD DUP3 PUSH3 0x198C JUMP JUMPDEST POP PUSH2 0x120 DUP4 ADD MLOAD PUSH3 0x1BE6 PUSH2 0x120 DUP7 ADD DUP3 PUSH3 0x1A6B JUMP JUMPDEST POP PUSH2 0x140 DUP4 ADD MLOAD PUSH3 0x1BFD PUSH2 0x140 DUP7 ADD DUP3 PUSH3 0x1AD6 JUMP JUMPDEST POP DUP1 SWAP2 POP POP SWAP3 SWAP2 POP POP JUMP JUMPDEST PUSH1 0x0 PUSH3 0x1C16 DUP4 DUP4 PUSH3 0x1AE7 JUMP JUMPDEST SWAP1 POP SWAP3 SWAP2 POP POP JUMP JUMPDEST PUSH1 0x0 PUSH1 0x20 DUP3 ADD SWAP1 POP SWAP2 SWAP1 POP JUMP JUMPDEST PUSH1 0x0 PUSH3 0x1C38 DUP3 PUSH3 0x1960 JUMP JUMPDEST PUSH3 0x1C44 DUP2 DUP6 PUSH3 0x196B JUMP JUMPDEST SWAP4 POP DUP4 PUSH1 0x20 DUP3 MUL DUP6 ADD PUSH3 0x1C58 DUP6 PUSH3 0x197C JUMP JUMPDEST DUP1 PUSH1 0x0 JUMPDEST DUP6 DUP2 LT ISZERO PUSH3 0x1C9A JUMPI DUP5 DUP5 SUB DUP10 MSTORE DUP2 MLOAD PUSH3 0x1C78 DUP6 DUP3 PUSH3 0x1C08 JUMP JUMPDEST SWAP5 POP PUSH3 0x1C85 DUP4 PUSH3 0x1C1E JUMP JUMPDEST SWAP3 POP PUSH1 0x20 DUP11 ADD SWAP10 POP POP PUSH1 0x1 DUP2 ADD SWAP1 POP PUSH3 0x1C5C JUMP JUMPDEST POP DUP3 SWAP8 POP DUP8 SWAP6 POP POP POP POP POP POP SWAP3 SWAP2 POP POP JUMP JUMPDEST PUSH1 0x0 PUSH1 0x20 DUP3 ADD SWAP1 POP DUP2 DUP2 SUB PUSH1 0x0 DUP4 ADD MSTORE PUSH3 0x1CC8 DUP2 DUP5 PUSH3 0x1C2B JUMP JUMPDEST SWAP1 POP SWAP3 SWAP2 POP POP JUMP JUMPDEST PUSH1 0x0 PUSH1 0x20 DUP3 DUP5 SUB SLT ISZERO PUSH3 0x1CE9 JUMPI PUSH3 0x1CE8 PUSH3 0x18DE JUMP JUMPDEST JUMPDEST PUSH1 0x0 PUSH3 0x1CF9 DUP5 DUP3 DUP6 ADD PUSH3 0x1902 JUMP JUMPDEST SWAP2 POP POP SWAP3 SWAP2 POP POP JUMP JUMPDEST PUSH1 0x0 PUSH2 0x160 DUP4 ADD PUSH1 0x0 DUP4 ADD MLOAD PUSH3 0x1D1D PUSH1 0x0 DUP7 ADD DUP3 PUSH3 0x198C JUMP JUMPDEST POP PUSH1 0x20 DUP4 ADD MLOAD DUP5 DUP3 SUB PUSH1 0x20 DUP7 ADD MSTORE PUSH3 0x1D37 DUP3 DUP3 PUSH3 0x19F6 JUMP JUMPDEST SWAP2 POP POP PUSH1 0x40 DUP4 ADD MLOAD DUP5 DUP3 SUB PUSH1 0x40 DUP7 ADD MSTORE PUSH3 0x1D53 DUP3 DUP3 PUSH3 0x19F6 JUMP JUMPDEST SWAP2 POP POP PUSH1 0x60 DUP4 ADD MLOAD DUP5 DUP3 SUB PUSH1 0x60 DUP7 ADD MSTORE PUSH3 0x1D6F DUP3 DUP3 PUSH3 0x19F6 JUMP JUMPDEST SWAP2 POP POP PUSH1 0x80 DUP4 ADD MLOAD DUP5 DUP3 SUB PUSH1 0x80 DUP7 ADD MSTORE PUSH3 0x1D8B DUP3 DUP3 PUSH3 0x19F6 JUMP JUMPDEST SWAP2 POP POP PUSH1 0xA0 DUP4 ADD MLOAD DUP5 DUP3 SUB PUSH1 0xA0 DUP7 ADD MSTORE PUSH3 0x1DA7 DUP3 DUP3 PUSH3 0x19F6 JUMP JUMPDEST SWAP2 POP POP PUSH1 0xC0 DUP4 ADD MLOAD PUSH3 0x1DBE PUSH1 0xC0 DUP7 ADD DUP3 PUSH3 0x198C JUMP JUMPDEST POP PUSH1 0xE0 DUP4 ADD MLOAD PUSH3 0x1DD3 PUSH1 0xE0 DUP7 ADD DUP3 PUSH3 0x198C JUMP JUMPDEST POP PUSH2 0x100 DUP4 ADD MLOAD PUSH3 0x1DEA PUSH2 0x100 DUP7 ADD DUP3 PUSH3 0x198C JUMP JUMPDEST POP PUSH2 0x120 DUP4 ADD MLOAD PUSH3 0x1E01 PUSH2 0x120 DUP7 ADD DUP3 PUSH3 0x1A6B JUMP JUMPDEST POP PUSH2 0x140 DUP4 ADD MLOAD PUSH3 0x1E18 PUSH2 0x140 DUP7 ADD DUP3 PUSH3 0x1AD6 JUMP JUMPDEST POP DUP1 SWAP2 POP POP SWAP3 SWAP2 POP POP JUMP JUMPDEST PUSH1 0x0 PUSH1 0x20 DUP3 ADD SWAP1 POP DUP2 DUP2 SUB PUSH1 0x0 DUP4 ADD MSTORE PUSH3 0x1E3F DUP2 DUP5 PUSH3 0x1D02 JUMP JUMPDEST SWAP1 POP SWAP3 SWAP2 POP POP JUMP JUMPDEST PUSH1 0x0 DUP1 REVERT JUMPDEST PUSH1 0x0 DUP1 REVERT JUMPDEST PUSH32 0x4E487B7100000000000000000000000000000000000000000000000000000000 PUSH1 0x0 MSTORE PUSH1 0x41 PUSH1 0x4 MSTORE PUSH1 0x24 PUSH1 0x0 REVERT JUMPDEST PUSH3 0x1E8B DUP3 PUSH3 0x19E5 JUMP JUMPDEST DUP2 ADD DUP2 DUP2 LT PUSH8 0xFFFFFFFFFFFFFFFF DUP3 GT OR ISZERO PUSH3 0x1EAD JUMPI PUSH3 0x1EAC PUSH3 0x1E51 JUMP JUMPDEST JUMPDEST DUP1 PUSH1 0x40 MSTORE POP POP POP JUMP JUMPDEST PUSH1 0x0 PUSH3 0x1EC2 PUSH3 0x18D4 JUMP JUMPDEST SWAP1 POP PUSH3 0x1ED0 DUP3 DUP3 PUSH3 0x1E80 JUMP JUMPDEST SWAP2 SWAP1 POP JUMP JUMPDEST PUSH1 0x0 PUSH8 0xFFFFFFFFFFFFFFFF DUP3 GT ISZERO PUSH3 0x1EF3 JUMPI PUSH3 0x1EF2 PUSH3 0x1E51 JUMP JUMPDEST JUMPDEST PUSH3 0x1EFE DUP3 PUSH3 0x19E5 JUMP JUMPDEST SWAP1 POP PUSH1 0x20 DUP2 ADD SWAP1 POP SWAP2 SWAP1 POP JUMP JUMPDEST DUP3 DUP2 DUP4 CALLDATACOPY PUSH1 0x0 DUP4 DUP4 ADD MSTORE POP POP POP JUMP JUMPDEST PUSH1 0x0 PUSH3 0x1F31 PUSH3 0x1F2B DUP5 PUSH3 0x1ED5 JUMP JUMPDEST PUSH3 0x1EB6 JUMP JUMPDEST SWAP1 POP DUP3 DUP2 MSTORE PUSH1 0x20 DUP2 ADD DUP5 DUP5 DUP5 ADD GT ISZERO PUSH3 0x1F50 JUMPI PUSH3 0x1F4F PUSH3 0x1E4C JUMP JUMPDEST JUMPDEST PUSH3 0x1F5D DUP5 DUP3 DUP6 PUSH3 0x1F0B JUMP JUMPDEST POP SWAP4 SWAP3 POP POP POP JUMP JUMPDEST PUSH1 0x0 DUP3 PUSH1 0x1F DUP4 ADD SLT PUSH3 0x1F7D JUMPI PUSH3 0x1F7C PUSH3 0x1E47 JUMP JUMPDEST JUMPDEST DUP2 CALLDATALOAD PUSH3 0x1F8F DUP5 DUP3 PUSH1 0x20 DUP7 ADD PUSH3 0x1F1A JUMP JUMPDEST SWAP2 POP POP SWAP3 SWAP2 POP POP JUMP JUMPDEST PUSH1 0x0 DUP1 PUSH1 0x0 DUP1 PUSH1 0x0 DUP1 PUSH1 0x0 PUSH1 0xE0 DUP9 DUP11 SUB SLT ISZERO PUSH3 0x1FBA JUMPI PUSH3 0x1FB9 PUSH3 0x18DE JUMP JUMPDEST JUMPDEST PUSH1 0x0 DUP9 ADD CALLDATALOAD PUSH8 0xFFFFFFFFFFFFFFFF DUP2 GT ISZERO PUSH3 0x1FDB JUMPI PUSH3 0x1FDA PUSH3 0x18E3 JUMP JUMPDEST JUMPDEST PUSH3 0x1FE9 DUP11 DUP3 DUP12 ADD PUSH3 0x1F65 JUMP JUMPDEST SWAP8 POP POP PUSH1 0x20 DUP9 ADD CALLDATALOAD PUSH8 0xFFFFFFFFFFFFFFFF DUP2 GT ISZERO PUSH3 0x200D JUMPI PUSH3 0x200C PUSH3 0x18E3 JUMP JUMPDEST JUMPDEST PUSH3 0x201B DUP11 DUP3 DUP12 ADD PUSH3 0x1F65 JUMP JUMPDEST SWAP7 POP POP PUSH1 0x40 DUP9 ADD CALLDATALOAD PUSH8 0xFFFFFFFFFFFFFFFF DUP2 GT ISZERO PUSH3 0x203F JUMPI PUSH3 0x203E PUSH3 0x18E3 JUMP JUMPDEST JUMPDEST PUSH3 0x204D DUP11 DUP3 DUP12 ADD PUSH3 0x1F65 JUMP JUMPDEST SWAP6 POP POP PUSH1 0x60 DUP9 ADD CALLDATALOAD PUSH8 0xFFFFFFFFFFFFFFFF DUP2 GT ISZERO PUSH3 0x2071 JUMPI PUSH3 0x2070 PUSH3 0x18E3 JUMP JUMPDEST JUMPDEST PUSH3 0x207F DUP11 DUP3 DUP12 ADD PUSH3 0x1F65 JUMP JUMPDEST SWAP5 POP POP PUSH1 0x80 DUP9 ADD CALLDATALOAD PUSH8 0xFFFFFFFFFFFFFFFF DUP2 GT ISZERO PUSH3 0x20A3 JUMPI PUSH3 0x20A2 PUSH3 0x18E3 JUMP JUMPDEST JUMPDEST PUSH3 0x20B1 DUP11 DUP3 DUP12 ADD PUSH3 0x1F65 JUMP JUMPDEST SWAP4 POP POP PUSH1 0xA0 PUSH3 0x20C4 DUP11 DUP3 DUP12 ADD PUSH3 0x1902 JUMP JUMPDEST SWAP3 POP POP PUSH1 0xC0 PUSH3 0x20D7 DUP11 DUP3 DUP12 ADD PUSH3 0x1902 JUMP JUMPDEST SWAP2 POP POP SWAP3 SWAP6 SWAP9 SWAP2 SWAP5 SWAP8 POP SWAP3 SWAP6 POP JUMP JUMPDEST PUSH1 0x0 PUSH3 0x20F3 DUP3 PUSH3 0x1A37 JUMP JUMPDEST SWAP1 POP SWAP2 SWAP1 POP JUMP JUMPDEST PUSH3 0x2105 DUP2 PUSH3 0x20E6 JUMP JUMPDEST DUP2 EQ PUSH3 0x2111 JUMPI PUSH1 0x0 DUP1 REVERT JUMPDEST POP JUMP JUMPDEST PUSH1 0x0 DUP2 CALLDATALOAD SWAP1 POP PUSH3 0x2125 DUP2 PUSH3 0x20FA JUMP JUMPDEST SWAP3 SWAP2 POP POP JUMP JUMPDEST PUSH1 0x0 DUP1 PUSH1 0x40 DUP4 DUP6 SUB SLT ISZERO PUSH3 0x2145 JUMPI PUSH3 0x2144 PUSH3 0x18DE JUMP JUMPDEST JUMPDEST PUSH1 0x0 PUSH3 0x2155 DUP6 DUP3 DUP7 ADD PUSH3 0x2114 JUMP JUMPDEST SWAP3 POP POP PUSH1 0x20 PUSH3 0x2168 DUP6 DUP3 DUP7 ADD PUSH3 0x1902 JUMP JUMPDEST SWAP2 POP POP SWAP3 POP SWAP3 SWAP1 POP JUMP JUMPDEST PUSH1 0x0 DUP3 DUP3 MSTORE PUSH1 0x20 DUP3 ADD SWAP1 POP SWAP3 SWAP2 POP POP JUMP JUMPDEST PUSH1 0x0 PUSH3 0x2190 DUP3 PUSH3 0x199D JUMP JUMPDEST PUSH3 0x219C DUP2 DUP6 PUSH3 0x2172 JUMP JUMPDEST SWAP4 POP PUSH3 0x21AE DUP2 DUP6 PUSH1 0x20 DUP7 ADD PUSH3 0x19B9 JUMP JUMPDEST PUSH3 0x21B9 DUP2 PUSH3 0x19E5 JUMP JUMPDEST DUP5 ADD SWAP2 POP POP SWAP3 SWAP2 POP POP JUMP JUMPDEST PUSH3 0x21CF DUP2 PUSH3 0x1A57 JUMP JUMPDEST DUP3 MSTORE POP POP JUMP JUMPDEST PUSH3 0x21E0 DUP2 PUSH3 0x1AC2 JUMP JUMPDEST DUP3 MSTORE POP POP JUMP JUMPDEST PUSH1 0x0 PUSH2 0x160 DUP3 ADD SWAP1 POP PUSH3 0x21FE PUSH1 0x0 DUP4 ADD DUP15 PUSH3 0x18A6 JUMP JUMPDEST DUP2 DUP2 SUB PUSH1 0x20 DUP4 ADD MSTORE PUSH3 0x2212 DUP2 DUP14 PUSH3 0x2183 JUMP JUMPDEST SWAP1 POP DUP2 DUP2 SUB PUSH1 0x40 DUP4 ADD MSTORE PUSH3 0x2228 DUP2 DUP13 PUSH3 0x2183 JUMP JUMPDEST SWAP1 POP DUP2 DUP2 SUB PUSH1 0x60 DUP4 ADD MSTORE PUSH3 0x223E DUP2 DUP12 PUSH3 0x2183 JUMP JUMPDEST SWAP1 POP DUP2 DUP2 SUB PUSH1 0x80 DUP4 ADD MSTORE PUSH3 0x2254 DUP2 DUP11 PUSH3 0x2183 JUMP JUMPDEST SWAP1 POP DUP2 DUP2 SUB PUSH1 0xA0 DUP4 ADD MSTORE PUSH3 0x226A DUP2 DUP10 PUSH3 0x2183 JUMP JUMPDEST SWAP1 POP PUSH3 0x227B PUSH1 0xC0 DUP4 ADD DUP9 PUSH3 0x18A6 JUMP JUMPDEST PUSH3 0x228A PUSH1 0xE0 DUP4 ADD DUP8 PUSH3 0x18A6 JUMP JUMPDEST PUSH3 0x229A PUSH2 0x100 DUP4 ADD DUP7 PUSH3 0x18A6 JUMP JUMPDEST PUSH3 0x22AA PUSH2 0x120 DUP4 ADD DUP6 PUSH3 0x21C4 JUMP JUMPDEST PUSH3 0x22BA PUSH2 0x140 DUP4 ADD DUP5 PUSH3 0x21D5 JUMP JUMPDEST SWAP13 SWAP12 POP POP POP POP POP POP POP POP POP POP POP POP JUMP JUMPDEST PUSH1 0x0 PUSH1 0x20 DUP3 ADD SWAP1 POP PUSH3 0x22E1 PUSH1 0x0 DUP4 ADD DUP5 PUSH3 0x21C4 JUMP JUMPDEST SWAP3 SWAP2 POP POP JUMP JUMPDEST PUSH32 0x4F6E6C792070726F6A656374206F776E65722063616E20657874656E64206465 PUSH1 0x0 DUP3 ADD MSTORE PUSH32 0x61646C696E65206F6620746869732070726F6A65637400000000000000000000 PUSH1 0x20 DUP3 ADD MSTORE POP JUMP JUMPDEST PUSH1 0x0 PUSH3 0x2345 PUSH1 0x36 DUP4 PUSH3 0x2172 JUMP JUMPDEST SWAP2 POP PUSH3 0x2352 DUP3 PUSH3 0x22E7 JUMP JUMPDEST PUSH1 0x40 DUP3 ADD SWAP1 POP SWAP2 SWAP1 POP JUMP JUMPDEST PUSH1 0x0 PUSH1 0x20 DUP3 ADD SWAP1 POP DUP2 DUP2 SUB PUSH1 0x0 DUP4 ADD MSTORE PUSH3 0x2378 DUP2 PUSH3 0x2336 JUMP JUMPDEST SWAP1 POP SWAP2 SWAP1 POP JUMP JUMPDEST PUSH32 0x706C656173652067697665206120646561646C696E65206F6620677265617465 PUSH1 0x0 DUP3 ADD MSTORE PUSH32 0x72207468616E2063757272656E7420646561646C696E65000000000000000000 PUSH1 0x20 DUP3 ADD MSTORE POP JUMP JUMPDEST PUSH1 0x0 PUSH3 0x23DD PUSH1 0x37 DUP4 PUSH3 0x2172 JUMP JUMPDEST SWAP2 POP PUSH3 0x23EA DUP3 PUSH3 0x237F JUMP JUMPDEST PUSH1 0x40 DUP3 ADD SWAP1 POP SWAP2 SWAP1 POP JUMP JUMPDEST PUSH1 0x0 PUSH1 0x20 DUP3 ADD SWAP1 POP DUP2 DUP2 SUB PUSH1 0x0 DUP4 ADD MSTORE PUSH3 0x2410 DUP2 PUSH3 0x23CE JUMP JUMPDEST SWAP1 POP SWAP2 SWAP1 POP JUMP JUMPDEST PUSH32 0x4E487B7100000000000000000000000000000000000000000000000000000000 PUSH1 0x0 MSTORE PUSH1 0x22 PUSH1 0x4 MSTORE PUSH1 0x24 PUSH1 0x0 REVERT JUMPDEST PUSH1 0x0 PUSH1 0x2 DUP3 DIV SWAP1 POP PUSH1 0x1 DUP3 AND DUP1 PUSH3 0x245F JUMPI PUSH1 0x7F DUP3 AND SWAP2 POP JUMPDEST PUSH1 0x20 DUP3 LT DUP2 SUB PUSH3 0x2475 JUMPI PUSH3 0x2474 PUSH3 0x2417 JUMP JUMPDEST JUMPDEST POP SWAP2 SWAP1 POP JUMP JUMPDEST PUSH32 0x4E487B7100000000000000000000000000000000000000000000000000000000 PUSH1 0x0 MSTORE PUSH1 0x32 PUSH1 0x4 MSTORE PUSH1 0x24 PUSH1 0x0 REVERT JUMPDEST PUSH32 0x4E487B7100000000000000000000000000000000000000000000000000000000 PUSH1 0x0 MSTORE PUSH1 0x11 PUSH1 0x4 MSTORE PUSH1 0x24 PUSH1 0x0 REVERT JUMPDEST PUSH1 0x0 PUSH3 0x24E6 DUP3 PUSH3 0x189C JUMP JUMPDEST SWAP2 POP PUSH32 0xFFFFFFFFFFFFFFFFFFFFFFFFFFFFFFFFFFFFFFFFFFFFFFFFFFFFFFFFFFFFFFFF DUP3 SUB PUSH3 0x251B JUMPI PUSH3 0x251A PUSH3 0x24AA JUMP JUMPDEST JUMPDEST PUSH1 0x1 DUP3 ADD SWAP1 POP SWAP2 SWAP1 POP JUMP JUMPDEST PUSH32 0x506C65617365205472616E736665722054686520416D6F756E7420457175616C PUSH1 0x0 DUP3 ADD MSTORE PUSH32 0x20546F20596F75722050726F6A65637420427564676574000000000000000000 PUSH1 0x20 DUP3 ADD MSTORE POP JUMP JUMPDEST PUSH1 0x0 PUSH3 0x2584 PUSH1 0x37 DUP4 PUSH3 0x2172 JUMP JUMPDEST SWAP2 POP PUSH3 0x2591 DUP3 PUSH3 0x2526 JUMP JUMPDEST PUSH1 0x40 DUP3 ADD SWAP1 POP SWAP2 SWAP1 POP JUMP JUMPDEST PUSH1 0x0 PUSH1 0x20 DUP3 ADD SWAP1 POP DUP2 DUP2 SUB PUSH1 0x0 DUP4 ADD MSTORE PUSH3 0x25B7 DUP2 PUSH3 0x2575 JUMP JUMPDEST SWAP1 POP SWAP2 SWAP1 POP JUMP JUMPDEST PUSH1 0x0 PUSH1 0x60 DUP3 ADD SWAP1 POP PUSH3 0x25D5 PUSH1 0x0 DUP4 ADD DUP7 PUSH3 0x21C4 JUMP JUMPDEST PUSH3 0x25E4 PUSH1 0x20 DUP4 ADD DUP6 PUSH3 0x18A6 JUMP JUMPDEST PUSH3 0x25F3 PUSH1 0x40 DUP4 ADD DUP5 PUSH3 0x18A6 JUMP JUMPDEST SWAP5 SWAP4 POP POP POP POP JUMP JUMPDEST PUSH1 0x0 DUP2 SWAP1 POP DUP2 PUSH1 0x0 MSTORE PUSH1 0x20 PUSH1 0x0 KECCAK256 SWAP1 POP SWAP2 SWAP1 POP JUMP JUMPDEST PUSH1 0x0 PUSH1 0x20 PUSH1 0x1F DUP4 ADD DIV SWAP1 POP SWAP2 SWAP1 POP JUMP JUMPDEST PUSH1 0x0 DUP3 DUP3 SHL SWAP1 POP SWAP3 SWAP2 POP POP JUMP JUMPDEST PUSH1 0x0 PUSH1 0x8 DUP4 MUL PUSH3 0x265F PUSH32 0xFFFFFFFFFFFFFFFFFFFFFFFFFFFFFFFFFFFFFFFFFFFFFFFFFFFFFFFFFFFFFFFF DUP3 PUSH3 0x2620 JUMP JUMPDEST PUSH3 0x266B DUP7 DUP4 PUSH3 0x2620 JUMP JUMPDEST SWAP6 POP DUP1 NOT DUP5 AND SWAP4 POP DUP1 DUP7 AND DUP5 OR SWAP3 POP POP POP SWAP4 SWAP3 POP POP POP JUMP JUMPDEST PUSH1 0x0 PUSH3 0x26A4 PUSH3 0x269E PUSH3 0x2698 DUP5 PUSH3 0x189C JUMP JUMPDEST PUSH3 0x1A7C JUMP JUMPDEST PUSH3 0x189C JUMP JUMPDEST SWAP1 POP SWAP2 SWAP1 POP JUMP JUMPDEST PUSH1 0x0 DUP2 SWAP1 POP SWAP2 SWAP1 POP JUMP JUMPDEST PUSH3 0x26C0 DUP4 PUSH3 0x2683 JUMP JUMPDEST PUSH3 0x26D8 PUSH3 0x26CF DUP3 PUSH3 0x26AB JUMP JUMPDEST DUP5 DUP5 SLOAD PUSH3 0x262D JUMP JUMPDEST DUP3 SSTORE POP POP POP POP JUMP JUMPDEST PUSH1 0x0 SWAP1 JUMP JUMPDEST PUSH3 0x26EF PUSH3 0x26E0 JUMP JUMPDEST PUSH3 0x26FC DUP2 DUP5 DUP5 PUSH3 0x26B5 JUMP JUMPDEST POP POP POP JUMP JUMPDEST JUMPDEST DUP2 DUP2 LT ISZERO PUSH3 0x2724 JUMPI PUSH3 0x2718 PUSH1 0x0 DUP3 PUSH3 0x26E5 JUMP JUMPDEST PUSH1 0x1 DUP2 ADD SWAP1 POP PUSH3 0x2702 JUMP JUMPDEST POP POP JUMP JUMPDEST PUSH1 0x1F DUP3 GT ISZERO PUSH3 0x2773 JUMPI PUSH3 0x273D DUP2 PUSH3 0x25FB JUMP JUMPDEST PUSH3 0x2748 DUP5 PUSH3 0x2610 JUMP JUMPDEST DUP2 ADD PUSH1 0x20 DUP6 LT ISZERO PUSH3 0x2758 JUMPI DUP2 SWAP1 POP JUMPDEST PUSH3 0x2770 PUSH3 0x2767 DUP6 PUSH3 0x2610 JUMP JUMPDEST DUP4 ADD DUP3 PUSH3 0x2701 JUMP JUMPDEST POP POP JUMPDEST POP POP POP JUMP JUMPDEST PUSH1 0x0 DUP3 DUP3 SHR SWAP1 POP SWAP3 SWAP2 POP POP JUMP JUMPDEST PUSH1 0x0 PUSH3 0x2798 PUSH1 0x0 NOT DUP5 PUSH1 0x8 MUL PUSH3 0x2778 JUMP JUMPDEST NOT DUP1 DUP4 AND SWAP2 POP POP SWAP3 SWAP2 POP POP JUMP JUMPDEST PUSH1 0x0 PUSH3 0x27B3 DUP4 DUP4 PUSH3 0x2785 JUMP JUMPDEST SWAP2 POP DUP3 PUSH1 0x2 MUL DUP3 OR SWAP1 POP SWAP3 SWAP2 POP POP JUMP JUMPDEST PUSH3 0x27CE DUP3 PUSH3 0x199D JUMP JUMPDEST PUSH8 0xFFFFFFFFFFFFFFFF DUP2 GT ISZERO PUSH3 0x27EA JUMPI PUSH3 0x27E9 PUSH3 0x1E51 JUMP JUMPDEST JUMPDEST PUSH3 0x27F6 DUP3 SLOAD PUSH3 0x2446 JUMP JUMPDEST PUSH3 0x2803 DUP3 DUP3 DUP6 PUSH3 0x2728 JUMP JUMPDEST PUSH1 0x0 PUSH1 0x20 SWAP1 POP PUSH1 0x1F DUP4 GT PUSH1 0x1 DUP2 EQ PUSH3 0x283B JUMPI PUSH1 0x0 DUP5 ISZERO PUSH3 0x2826 JUMPI DUP3 DUP8 ADD MLOAD SWAP1 POP JUMPDEST PUSH3 0x2832 DUP6 DUP3 PUSH3 0x27A5 JUMP JUMPDEST DUP7 SSTORE POP PUSH3 0x28A2 JUMP JUMPDEST PUSH1 0x1F NOT DUP5 AND PUSH3 0x284B DUP7 PUSH3 0x25FB JUMP JUMPDEST PUSH1 0x0 JUMPDEST DUP3 DUP2 LT ISZERO PUSH3 0x2875 JUMPI DUP5 DUP10 ADD MLOAD DUP3 SSTORE PUSH1 0x1 DUP3 ADD SWAP2 POP PUSH1 0x20 DUP6 ADD SWAP5 POP PUSH1 0x20 DUP2 ADD SWAP1 POP PUSH3 0x284E JUMP JUMPDEST DUP7 DUP4 LT ISZERO PUSH3 0x2895 JUMPI DUP5 DUP10 ADD MLOAD PUSH3 0x2891 PUSH1 0x1F DUP10 AND DUP3 PUSH3 0x2785 JUMP JUMPDEST DUP4 SSTORE POP JUMPDEST PUSH1 0x1 PUSH1 0x2 DUP9 MUL ADD DUP9 SSTORE POP POP POP JUMPDEST POP POP POP POP POP POP JUMP INVALID PUSH1 0x80 PUSH1 0x40 MSTORE PUSH1 0x0 PUSH1 0x4 PUSH1 0x0 PUSH2 0x100 EXP DUP2 SLOAD DUP2 PUSH1 0xFF MUL NOT AND SWAP1 DUP4 ISZERO ISZERO MUL OR SWAP1 SSTORE POP PUSH1 0x0 PUSH1 0x9 PUSH1 0x0 PUSH2 0x100 EXP DUP2 SLOAD DUP2 PUSH1 0xFF MUL NOT AND SWAP1 DUP4 ISZERO ISZERO MUL OR SWAP1 SSTORE POP CALLVALUE DUP1 ISZERO PUSH3 0x47 JUMPI PUSH1 0x0 DUP1 REVERT JUMPDEST POP PUSH1 0x40 MLOAD PUSH3 0x318B CODESIZE SUB DUP1 PUSH3 0x318B DUP4 CODECOPY DUP2 DUP2 ADD PUSH1 0x40 MSTORE DUP2 ADD SWAP1 PUSH3 0x6D SWAP2 SWAP1 PUSH3 0x198 JUMP JUMPDEST DUP3 PUSH1 0x1 PUSH1 0x0 PUSH2 0x100 EXP DUP2 SLOAD DUP2 PUSH20 0xFFFFFFFFFFFFFFFFFFFFFFFFFFFFFFFFFFFFFFFF MUL NOT AND SWAP1 DUP4 PUSH20 0xFFFFFFFFFFFFFFFFFFFFFFFFFFFFFFFFFFFFFFFF AND MUL OR SWAP1 SSTORE POP DUP2 PUSH1 0x2 DUP2 SWAP1 SSTORE POP DUP1 PUSH1 0x3 DUP2 SWAP1 SSTORE POP PUSH1 0x0 PUSH1 0x4 PUSH1 0x1 PUSH2 0x100 EXP DUP2 SLOAD DUP2 PUSH1 0xFF MUL NOT AND SWAP1 DUP4 PUSH1 0x3 DUP2 GT ISZERO PUSH3 0xE5 JUMPI PUSH3 0xE4 PUSH3 0x1F4 JUMP JUMPDEST JUMPDEST MUL OR SWAP1 SSTORE POP POP POP POP PUSH3 0x223 JUMP JUMPDEST PUSH1 0x0 DUP1 REVERT JUMPDEST PUSH1 0x0 PUSH20 0xFFFFFFFFFFFFFFFFFFFFFFFFFFFFFFFFFFFFFFFF DUP3 AND SWAP1 POP SWAP2 SWAP1 POP JUMP JUMPDEST PUSH1 0x0 PUSH3 0x125 DUP3 PUSH3 0xF8 JUMP JUMPDEST SWAP1 POP SWAP2 SWAP1 POP JUMP JUMPDEST PUSH3 0x137 DUP2 PUSH3 0x118 JUMP JUMPDEST DUP2 EQ PUSH3 0x143 JUMPI PUSH1 0x0 DUP1 REVERT JUMPDEST POP JUMP JUMPDEST PUSH1 0x0 DUP2 MLOAD SWAP1 POP PUSH3 0x157 DUP2 PUSH3 0x12C JUMP JUMPDEST SWAP3 SWAP2 POP POP JUMP JUMPDEST PUSH1 0x0 DUP2 SWAP1 POP SWAP2 SWAP1 POP JUMP JUMPDEST PUSH3 0x172 DUP2 PUSH3 0x15D JUMP JUMPDEST DUP2 EQ PUSH3 0x17E JUMPI PUSH1 0x0 DUP1 REVERT JUMPDEST POP JUMP JUMPDEST PUSH1 0x0 DUP2 MLOAD SWAP1 POP PUSH3 0x192 DUP2 PUSH3 0x167 JUMP JUMPDEST SWAP3 SWAP2 POP POP JUMP JUMPDEST PUSH1 0x0 DUP1 PUSH1 0x0 PUSH1 0x60 DUP5 DUP7 SUB SLT ISZERO PUSH3 0x1B4 JUMPI PUSH3 0x1B3 PUSH3 0xF3 JUMP JUMPDEST JUMPDEST PUSH1 0x0 PUSH3 0x1C4 DUP7 DUP3 DUP8 ADD PUSH3 0x146 JUMP JUMPDEST SWAP4 POP POP PUSH1 0x20 PUSH3 0x1D7 DUP7 DUP3 DUP8 ADD PUSH3 0x181 JUMP JUMPDEST SWAP3 POP POP PUSH1 0x40 PUSH3 0x1EA DUP7 DUP3 DUP8 ADD PUSH3 0x181 JUMP JUMPDEST SWAP2 POP POP SWAP3 POP SWAP3 POP SWAP3 JUMP JUMPDEST PUSH32 0x4E487B7100000000000000000000000000000000000000000000000000000000 PUSH1 0x0 MSTORE PUSH1 0x21 PUSH1 0x4 MSTORE PUSH1 0x24 PUSH1 0x0 REVERT JUMPDEST PUSH2 0x2F58 DUP1 PUSH3 0x233 PUSH1 0x0 CODECOPY PUSH1 0x0 RETURN INVALID PUSH1 0x80 PUSH1 0x40 MSTORE PUSH1 0x4 CALLDATASIZE LT PUSH2 0xC6 JUMPI PUSH1 0x0 CALLDATALOAD PUSH1 0xE0 SHR DUP1 PUSH4 0x98951B56 GT PUSH2 0x7F JUMPI DUP1 PUSH4 0xA6A2CB05 GT PUSH2 0x59 JUMPI DUP1 PUSH4 0xA6A2CB05 EQ PUSH2 0x257 JUMPI DUP1 PUSH4 0xB19B0AFE EQ PUSH2 0x28A JUMPI DUP1 PUSH4 0xE7AA3AFC EQ PUSH2 0x2B5 JUMPI DUP1 PUSH4 0xECC254B3 EQ PUSH2 0x2E0 JUMPI PUSH2 0xCD JUMP JUMPDEST DUP1 PUSH4 0x98951B56 EQ PUSH2 0x1D8 JUMPI DUP1 PUSH4 0xA0A2A6C0 EQ PUSH2 0x201 JUMPI DUP1 PUSH4 0xA4475CE4 EQ PUSH2 0x22C JUMPI PUSH2 0xCD JUMP JUMPDEST DUP1 PUSH4 0x13CF08B EQ PUSH2 0xD2 JUMPI DUP1 PUSH4 0x12065FE0 EQ PUSH2 0x117 JUMPI DUP1 PUSH4 0x22E2E12D EQ PUSH2 0x142 JUMPI DUP1 PUSH4 0x2A9CC141 EQ PUSH2 0x16B JUMPI DUP1 PUSH4 0x62564C48 EQ PUSH2 0x196 JUMPI DUP1 PUSH4 0x7417882C EQ PUSH2 0x1C1 JUMPI PUSH2 0xCD JUMP JUMPDEST CALLDATASIZE PUSH2 0xCD JUMPI STOP JUMPDEST PUSH1 0x0 DUP1 REVERT JUMPDEST CALLVALUE DUP1 ISZERO PUSH2 0xDE JUMPI PUSH1 0x0 DUP1 REVERT JUMPDEST POP PUSH2 0xF9 PUSH1 0x4 DUP1 CALLDATASIZE SUB DUP2 ADD SWAP1 PUSH2 0xF4 SWAP2 SWAP1 PUSH2 0x19C9 JUMP JUMPDEST PUSH2 0x2F7 JUMP JUMPDEST PUSH1 0x40 MLOAD PUSH2 0x10E SWAP10 SWAP9 SWAP8 SWAP7 SWAP6 SWAP5 SWAP4 SWAP3 SWAP2 SWAP1 PUSH2 0x1AF1 JUMP JUMPDEST PUSH1 0x40 MLOAD DUP1 SWAP2 SUB SWAP1 RETURN JUMPDEST CALLVALUE DUP1 ISZERO PUSH2 0x123 JUMPI PUSH1 0x0 DUP1 REVERT JUMPDEST POP PUSH2 0x12C PUSH2 0x414 JUMP JUMPDEST PUSH1 0x40 MLOAD PUSH2 0x139 SWAP2 SWAP1 PUSH2 0x1B85 JUMP JUMPDEST PUSH1 0x40 MLOAD DUP1 SWAP2 SUB SWAP1 RETURN JUMPDEST CALLVALUE DUP1 ISZERO PUSH2 0x14E JUMPI PUSH1 0x0 DUP1 REVERT JUMPDEST POP PUSH2 0x169 PUSH1 0x4 DUP1 CALLDATASIZE SUB DUP2 ADD SWAP1 PUSH2 0x164 SWAP2 SWAP1 PUSH2 0x1CD5 JUMP JUMPDEST PUSH2 0x41C JUMP JUMPDEST STOP JUMPDEST CALLVALUE DUP1 ISZERO PUSH2 0x177 JUMPI PUSH1 0x0 DUP1 REVERT JUMPDEST POP PUSH2 0x180 PUSH2 0x7CD JUMP JUMPDEST PUSH1 0x40 MLOAD PUSH2 0x18D SWAP2 SWAP1 PUSH2 0x1E80 JUMP JUMPDEST PUSH1 0x40 MLOAD DUP1 SWAP2 SUB SWAP1 RETURN JUMPDEST CALLVALUE DUP1 ISZERO PUSH2 0x1A2 JUMPI PUSH1 0x0 DUP1 REVERT JUMPDEST POP PUSH2 0x1AB PUSH2 0x9D9 JUMP JUMPDEST PUSH1 0x40 MLOAD PUSH2 0x1B8 SWAP2 SWAP1 PUSH2 0x2029 JUMP JUMPDEST PUSH1 0x40 MLOAD DUP1 SWAP2 SUB SWAP1 RETURN JUMPDEST CALLVALUE DUP1 ISZERO PUSH2 0x1CD JUMPI PUSH1 0x0 DUP1 REVERT JUMPDEST POP PUSH2 0x1D6 PUSH2 0xC1C JUMP JUMPDEST STOP JUMPDEST CALLVALUE DUP1 ISZERO PUSH2 0x1E4 JUMPI PUSH1 0x0 DUP1 REVERT JUMPDEST POP PUSH2 0x1FF PUSH1 0x4 DUP1 CALLDATASIZE SUB DUP2 ADD SWAP1 PUSH2 0x1FA SWAP2 SWAP1 PUSH2 0x19C9 JUMP JUMPDEST PUSH2 0xFC7 JUMP JUMPDEST STOP JUMPDEST CALLVALUE DUP1 ISZERO PUSH2 0x20D JUMPI PUSH1 0x0 DUP1 REVERT JUMPDEST POP PUSH2 0x216 PUSH2 0x1396 JUMP JUMPDEST PUSH1 0x40 MLOAD PUSH2 0x223 SWAP2 SWAP1 PUSH2 0x20C2 JUMP JUMPDEST PUSH1 0x40 MLOAD DUP1 SWAP2 SUB SWAP1 RETURN JUMPDEST CALLVALUE DUP1 ISZERO PUSH2 0x238 JUMPI PUSH1 0x0 DUP1 REVERT JUMPDEST POP PUSH2 0x241 PUSH2 0x13A9 JUMP JUMPDEST PUSH1 0x40 MLOAD PUSH2 0x24E SWAP2 SWAP1 PUSH2 0x20DD JUMP JUMPDEST PUSH1 0x40 MLOAD DUP1 SWAP2 SUB SWAP1 RETURN JUMPDEST CALLVALUE DUP1 ISZERO PUSH2 0x263 JUMPI PUSH1 0x0 DUP1 REVERT JUMPDEST POP PUSH2 0x26C PUSH2 0x13CF JUMP JUMPDEST PUSH1 0x40 MLOAD PUSH2 0x281 SWAP10 SWAP9 SWAP8 SWAP7 SWAP6 SWAP5 SWAP4 SWAP3 SWAP2 SWAP1 PUSH2 0x1AF1 JUMP JUMPDEST PUSH1 0x40 MLOAD DUP1 SWAP2 SUB SWAP1 RETURN JUMPDEST CALLVALUE DUP1 ISZERO PUSH2 0x296 JUMPI PUSH1 0x0 DUP1 REVERT JUMPDEST POP PUSH2 0x29F PUSH2 0x14DA JUMP JUMPDEST PUSH1 0x40 MLOAD PUSH2 0x2AC SWAP2 SWAP1 PUSH2 0x20F8 JUMP JUMPDEST PUSH1 0x40 MLOAD DUP1 SWAP2 SUB SWAP1 RETURN JUMPDEST CALLVALUE DUP1 ISZERO PUSH2 0x2C1 JUMPI PUSH1 0x0 DUP1 REVERT JUMPDEST POP PUSH2 0x2CA PUSH2 0x14ED JUMP JUMPDEST PUSH1 0x40 MLOAD PUSH2 0x2D7 SWAP2 SWAP1 PUSH2 0x2113 JUMP JUMPDEST PUSH1 0x40 MLOAD DUP1 SWAP2 SUB SWAP1 RETURN JUMPDEST CALLVALUE DUP1 ISZERO PUSH2 0x2EC JUMPI PUSH1 0x0 DUP1 REVERT JUMPDEST POP PUSH2 0x2F5 PUSH2 0x16D2 JUMP JUMPDEST STOP JUMPDEST PUSH1 0x5 PUSH1 0x20 MSTORE DUP1 PUSH1 0x0 MSTORE PUSH1 0x40 PUSH1 0x0 KECCAK256 PUSH1 0x0 SWAP2 POP SWAP1 POP DUP1 PUSH1 0x0 ADD SLOAD SWAP1 DUP1 PUSH1 0x1 ADD DUP1 SLOAD PUSH2 0x320 SWAP1 PUSH2 0x2164 JUMP JUMPDEST DUP1 PUSH1 0x1F ADD PUSH1 0x20 DUP1 SWAP2 DIV MUL PUSH1 0x20 ADD PUSH1 0x40 MLOAD SWAP1 DUP2 ADD PUSH1 0x40 MSTORE DUP1 SWAP3 SWAP2 SWAP1 DUP2 DUP2 MSTORE PUSH1 0x20 ADD DUP3 DUP1 SLOAD PUSH2 0x34C SWAP1 PUSH2 0x2164 JUMP JUMPDEST DUP1 ISZERO PUSH2 0x399 JUMPI DUP1 PUSH1 0x1F LT PUSH2 0x36E JUMPI PUSH2 0x100 DUP1 DUP4 SLOAD DIV MUL DUP4 MSTORE SWAP2 PUSH1 0x20 ADD SWAP2 PUSH2 0x399 JUMP JUMPDEST DUP3 ADD SWAP2 SWAP1 PUSH1 0x0 MSTORE PUSH1 0x20 PUSH1 0x0 KECCAK256 SWAP1 JUMPDEST DUP2 SLOAD DUP2 MSTORE SWAP1 PUSH1 0x1 ADD SWAP1 PUSH1 0x20 ADD DUP1 DUP4 GT PUSH2 0x37C JUMPI DUP3 SWAP1 SUB PUSH1 0x1F AND DUP3 ADD SWAP2 JUMPDEST POP POP POP POP POP SWAP1 DUP1 PUSH1 0x2 ADD PUSH1 0x0 SWAP1 SLOAD SWAP1 PUSH2 0x100 EXP SWAP1 DIV PUSH20 0xFFFFFFFFFFFFFFFFFFFFFFFFFFFFFFFFFFFFFFFF AND SWAP1 DUP1 PUSH1 0x3 ADD SLOAD SWAP1 DUP1 PUSH1 0x4 ADD SLOAD SWAP1 DUP1 PUSH1 0x5 ADD PUSH1 0x0 SWAP1 SLOAD SWAP1 PUSH2 0x100 EXP SWAP1 DIV PUSH1 0xFF AND SWAP1 DUP1 PUSH1 0x6 ADD SLOAD SWAP1 DUP1 PUSH1 0x7 ADD PUSH1 0x0 SWAP1 SLOAD SWAP1 PUSH2 0x100 EXP SWAP1 DIV PUSH1 0xFF AND SWAP1 DUP1 PUSH1 0x7 ADD PUSH1 0x1 SWAP1 SLOAD SWAP1 PUSH2 0x100 EXP SWAP1 DIV PUSH1 0xFF AND SWAP1 POP DUP10 JUMP JUMPDEST PUSH1 0x0 SELFBALANCE SWAP1 POP SWAP1 JUMP JUMPDEST PUSH1 0x6 PUSH1 0x0 CALLER PUSH20 0xFFFFFFFFFFFFFFFFFFFFFFFFFFFFFFFFFFFFFFFF AND PUSH20 0xFFFFFFFFFFFFFFFFFFFFFFFFFFFFFFFFFFFFFFFF AND DUP2 MSTORE PUSH1 0x20 ADD SWAP1 DUP2 MSTORE PUSH1 0x20 ADD PUSH1 0x0 KECCAK256 PUSH1 0x0 SWAP1 SLOAD SWAP1 PUSH2 0x100 EXP SWAP1 DIV PUSH1 0xFF AND ISZERO PUSH2 0x4A9 JUMPI PUSH1 0x40 MLOAD PUSH32 0x8C379A000000000000000000000000000000000000000000000000000000000 DUP2 MSTORE PUSH1 0x4 ADD PUSH2 0x4A0 SWAP1 PUSH2 0x2207 JUMP JUMPDEST PUSH1 0x40 MLOAD DUP1 SWAP2 SUB SWAP1 REVERT JUMPDEST PUSH1 0x8 PUSH1 0x0 CALLER PUSH20 0xFFFFFFFFFFFFFFFFFFFFFFFFFFFFFFFFFFFFFFFF AND PUSH20 0xFFFFFFFFFFFFFFFFFFFFFFFFFFFFFFFFFFFFFFFF AND DUP2 MSTORE PUSH1 0x20 ADD SWAP1 DUP2 MSTORE PUSH1 0x20 ADD PUSH1 0x0 KECCAK256 PUSH1 0x0 SWAP1 SLOAD SWAP1 PUSH2 0x100 EXP SWAP1 DIV PUSH1 0xFF AND ISZERO PUSH2 0x536 JUMPI PUSH1 0x40 MLOAD PUSH32 0x8C379A000000000000000000000000000000000000000000000000000000000 DUP2 MSTORE PUSH1 0x4 ADD PUSH2 0x52D SWAP1 PUSH2 0x2299 JUMP JUMPDEST PUSH1 0x40 MLOAD DUP1 SWAP2 SUB SWAP1 REVERT JUMPDEST PUSH1 0x1 PUSH1 0x3 DUP2 GT ISZERO PUSH2 0x54A JUMPI PUSH2 0x549 PUSH2 0x204B JUMP JUMPDEST JUMPDEST PUSH1 0x4 PUSH1 0x1 SWAP1 SLOAD SWAP1 PUSH2 0x100 EXP SWAP1 DIV PUSH1 0xFF AND PUSH1 0x3 DUP2 GT ISZERO PUSH2 0x56C JUMPI PUSH2 0x56B PUSH2 0x204B JUMP JUMPDEST JUMPDEST SUB PUSH2 0x5AC JUMPI PUSH1 0x40 MLOAD PUSH32 0x8C379A000000000000000000000000000000000000000000000000000000000 DUP2 MSTORE PUSH1 0x4 ADD PUSH2 0x5A3 SWAP1 PUSH2 0x232B JUMP JUMPDEST PUSH1 0x40 MLOAD DUP1 SWAP2 SUB SWAP1 REVERT JUMPDEST PUSH1 0x0 PUSH2 0x5B8 PUSH1 0x0 PUSH2 0x18F3 JUMP JUMPDEST SWAP1 POP PUSH1 0x0 PUSH1 0x40 MLOAD DUP1 PUSH2 0x120 ADD PUSH1 0x40 MSTORE DUP1 DUP4 DUP2 MSTORE PUSH1 0x20 ADD DUP7 DUP2 MSTORE PUSH1 0x20 ADD CALLER PUSH20 0xFFFFFFFFFFFFFFFFFFFFFFFFFFFFFFFFFFFFFFFF AND DUP2 MSTORE PUSH1 0x20 ADD DUP6 DUP2 MSTORE PUSH1 0x20 ADD DUP5 DUP2 MSTORE PUSH1 0x20 ADD PUSH1 0x0 ISZERO ISZERO DUP2 MSTORE PUSH1 0x20 ADD PUSH1 0x0 DUP2 MSTORE PUSH1 0x20 ADD PUSH1 0x0 ISZERO ISZERO DUP2 MSTORE PUSH1 0x20 ADD PUSH1 0x0 ISZERO ISZERO DUP2 MSTORE POP SWAP1 POP PUSH1 0x1 PUSH1 0x6 PUSH1 0x0 CALLER PUSH20 0xFFFFFFFFFFFFFFFFFFFFFFFFFFFFFFFFFFFFFFFF AND PUSH20 0xFFFFFFFFFFFFFFFFFFFFFFFFFFFFFFFFFFFFFFFF AND DUP2 MSTORE PUSH1 0x20 ADD SWAP1 DUP2 MSTORE PUSH1 0x20 ADD PUSH1 0x0 KECCAK256 PUSH1 0x0 PUSH2 0x100 EXP DUP2 SLOAD DUP2 PUSH1 0xFF MUL NOT AND SWAP1 DUP4 ISZERO ISZERO MUL OR SWAP1 SSTORE POP DUP1 PUSH1 0x5 PUSH1 0x0 DUP5 DUP2 MSTORE PUSH1 0x20 ADD SWAP1 DUP2 MSTORE PUSH1 0x20 ADD PUSH1 0x0 KECCAK256 PUSH1 0x0 DUP3 ADD MLOAD DUP2 PUSH1 0x0 ADD SSTORE PUSH1 0x20 DUP3 ADD MLOAD DUP2 PUSH1 0x1 ADD SWAP1 DUP2 PUSH2 0x6A9 SWAP2 SWAP1 PUSH2 0x24F7 JUMP JUMPDEST POP PUSH1 0x40 DUP3 ADD MLOAD DUP2 PUSH1 0x2 ADD PUSH1 0x0 PUSH2 0x100 EXP DUP2 SLOAD DUP2 PUSH20 0xFFFFFFFFFFFFFFFFFFFFFFFFFFFFFFFFFFFFFFFF MUL NOT AND SWAP1 DUP4 PUSH20 0xFFFFFFFFFFFFFFFFFFFFFFFFFFFFFFFFFFFFFFFF AND MUL OR SWAP1 SSTORE POP PUSH1 0x60 DUP3 ADD MLOAD DUP2 PUSH1 0x3 ADD SSTORE PUSH1 0x80 DUP3 ADD MLOAD DUP2 PUSH1 0x4 ADD SSTORE PUSH1 0xA0 DUP3 ADD MLOAD DUP2 PUSH1 0x5 ADD PUSH1 0x0 PUSH2 0x100 EXP DUP2 SLOAD DUP2 PUSH1 0xFF MUL NOT AND SWAP1 DUP4 ISZERO ISZERO MUL OR SWAP1 SSTORE POP PUSH1 0xC0 DUP3 ADD MLOAD DUP2 PUSH1 0x6 ADD SSTORE PUSH1 0xE0 DUP3 ADD MLOAD DUP2 PUSH1 0x7 ADD PUSH1 0x0 PUSH2 0x100 EXP DUP2 SLOAD DUP2 PUSH1 0xFF MUL NOT AND SWAP1 DUP4 ISZERO ISZERO MUL OR SWAP1 SSTORE POP PUSH2 0x100 DUP3 ADD MLOAD DUP2 PUSH1 0x7 ADD PUSH1 0x1 PUSH2 0x100 EXP DUP2 SLOAD DUP2 PUSH1 0xFF MUL NOT AND SWAP1 DUP4 ISZERO ISZERO MUL OR SWAP1 SSTORE POP SWAP1 POP POP PUSH2 0x77D PUSH1 0x0 PUSH2 0x1901 JUMP JUMPDEST PUSH32 0xB3080E016B94F1EDBAF8DC52950B1B3DEBD550A7662D4DB0CB404A7217047E82 DUP3 DUP7 CALLER DUP8 DUP8 PUSH1 0x0 DUP1 PUSH1 0x0 DUP1 PUSH1 0x40 MLOAD PUSH2 0x7BE SWAP10 SWAP9 SWAP8 SWAP7 SWAP6 SWAP5 SWAP4 SWAP3 SWAP2 SWAP1 PUSH2 0x2604 JUMP JUMPDEST PUSH1 0x40 MLOAD DUP1 SWAP2 SUB SWAP1 LOG1 POP POP POP POP POP JUMP JUMPDEST PUSH2 0x7D5 PUSH2 0x1917 JUMP JUMPDEST PUSH1 0x1 PUSH1 0x0 SWAP1 SLOAD SWAP1 PUSH2 0x100 EXP SWAP1 DIV PUSH20 0xFFFFFFFFFFFFFFFFFFFFFFFFFFFFFFFFFFFFFFFF AND PUSH20 0xFFFFFFFFFFFFFFFFFFFFFFFFFFFFFFFFFFFFFFFF AND CALLER PUSH20 0xFFFFFFFFFFFFFFFFFFFFFFFFFFFFFFFFFFFFFFFF AND EQ PUSH2 0x865 JUMPI PUSH1 0x40 MLOAD PUSH32 0x8C379A000000000000000000000000000000000000000000000000000000000 DUP2 MSTORE PUSH1 0x4 ADD PUSH2 0x85C SWAP1 PUSH2 0x270A JUMP JUMPDEST PUSH1 0x40 MLOAD DUP1 SWAP2 SUB SWAP1 REVERT JUMPDEST PUSH1 0xA PUSH1 0x40 MLOAD DUP1 PUSH2 0x120 ADD PUSH1 0x40 MSTORE SWAP1 DUP2 PUSH1 0x0 DUP3 ADD SLOAD DUP2 MSTORE PUSH1 0x20 ADD PUSH1 0x1 DUP3 ADD DUP1 SLOAD PUSH2 0x88D SWAP1 PUSH2 0x2164 JUMP JUMPDEST DUP1 PUSH1 0x1F ADD PUSH1 0x20 DUP1 SWAP2 DIV MUL PUSH1 0x20 ADD PUSH1 0x40 MLOAD SWAP1 DUP2 ADD PUSH1 0x40 MSTORE DUP1 SWAP3 SWAP2 SWAP1 DUP2 DUP2 MSTORE PUSH1 0x20 ADD DUP3 DUP1 SLOAD PUSH2 0x8B9 SWAP1 PUSH2 0x2164 JUMP JUMPDEST DUP1 ISZERO PUSH2 0x906 JUMPI DUP1 PUSH1 0x1F LT PUSH2 0x8DB JUMPI PUSH2 0x100 DUP1 DUP4 SLOAD DIV MUL DUP4 MSTORE SWAP2 PUSH1 0x20 ADD SWAP2 PUSH2 0x906 JUMP JUMPDEST DUP3 ADD SWAP2 SWAP1 PUSH1 0x0 MSTORE PUSH1 0x20 PUSH1 0x0 KECCAK256 SWAP1 JUMPDEST DUP2 SLOAD DUP2 MSTORE SWAP1 PUSH1 0x1 ADD SWAP1 PUSH1 0x20 ADD DUP1 DUP4 GT PUSH2 0x8E9 JUMPI DUP3 SWAP1 SUB PUSH1 0x1F AND DUP3 ADD SWAP2 JUMPDEST POP POP POP POP POP DUP2 MSTORE PUSH1 0x20 ADD PUSH1 0x2 DUP3 ADD PUSH1 0x0 SWAP1 SLOAD SWAP1 PUSH2 0x100 EXP SWAP1 DIV PUSH20 0xFFFFFFFFFFFFFFFFFFFFFFFFFFFFFFFFFFFFFFFF AND PUSH20 0xFFFFFFFFFFFFFFFFFFFFFFFFFFFFFFFFFFFFFFFF AND PUSH20 0xFFFFFFFFFFFFFFFFFFFFFFFFFFFFFFFFFFFFFFFF AND DUP2 MSTORE PUSH1 0x20 ADD PUSH1 0x3 DUP3 ADD SLOAD DUP2 MSTORE PUSH1 0x20 ADD PUSH1 0x4 DUP3 ADD SLOAD DUP2 MSTORE PUSH1 0x20 ADD PUSH1 0x5 DUP3 ADD PUSH1 0x0 SWAP1 SLOAD SWAP1 PUSH2 0x100 EXP SWAP1 DIV PUSH1 0xFF AND ISZERO ISZERO ISZERO ISZERO DUP2 MSTORE PUSH1 0x20 ADD PUSH1 0x6 DUP3 ADD SLOAD DUP2 MSTORE PUSH1 0x20 ADD PUSH1 0x7 DUP3 ADD PUSH1 0x0 SWAP1 SLOAD SWAP1 PUSH2 0x100 EXP SWAP1 DIV PUSH1 0xFF AND ISZERO ISZERO ISZERO ISZERO DUP2 MSTORE PUSH1 0x20 ADD PUSH1 0x7 DUP3 ADD PUSH1 0x1 SWAP1 SLOAD SWAP1 PUSH2 0x100 EXP SWAP1 DIV PUSH1 0xFF AND ISZERO ISZERO ISZERO ISZERO DUP2 MSTORE POP POP SWAP1 POP SWAP1 JUMP JUMPDEST PUSH1 0x60 PUSH1 0x0 PUSH2 0x9E7 PUSH1 0x0 PUSH2 0x18F3 JUMP JUMPDEST SWAP1 POP PUSH1 0x0 DUP2 PUSH8 0xFFFFFFFFFFFFFFFF DUP2 GT ISZERO PUSH2 0xA05 JUMPI PUSH2 0xA04 PUSH2 0x1BAA JUMP JUMPDEST JUMPDEST PUSH1 0x40 MLOAD SWAP1 DUP1 DUP3 MSTORE DUP1 PUSH1 0x20 MUL PUSH1 0x20 ADD DUP3 ADD PUSH1 0x40 MSTORE DUP1 ISZERO PUSH2 0xA3E JUMPI DUP2 PUSH1 0x20 ADD JUMPDEST PUSH2 0xA2B PUSH2 0x1917 JUMP JUMPDEST DUP2 MSTORE PUSH1 0x20 ADD SWAP1 PUSH1 0x1 SWAP1 SUB SWAP1 DUP2 PUSH2 0xA23 JUMPI SWAP1 POP JUMPDEST POP SWAP1 POP PUSH1 0x0 DUP1 JUMPDEST DUP4 DUP2 LT ISZERO PUSH2 0xC12 JUMPI PUSH1 0x0 PUSH1 0x5 PUSH1 0x0 DUP4 DUP2 MSTORE PUSH1 0x20 ADD SWAP1 DUP2 MSTORE PUSH1 0x20 ADD PUSH1 0x0 KECCAK256 PUSH1 0x40 MLOAD DUP1 PUSH2 0x120 ADD PUSH1 0x40 MSTORE SWAP1 DUP2 PUSH1 0x0 DUP3 ADD SLOAD DUP2 MSTORE PUSH1 0x20 ADD PUSH1 0x1 DUP3 ADD DUP1 SLOAD PUSH2 0xA88 SWAP1 PUSH2 0x2164 JUMP JUMPDEST DUP1 PUSH1 0x1F ADD PUSH1 0x20 DUP1 SWAP2 DIV MUL PUSH1 0x20 ADD PUSH1 0x40 MLOAD SWAP1 DUP2 ADD PUSH1 0x40 MSTORE DUP1 SWAP3 SWAP2 SWAP1 DUP2 DUP2 MSTORE PUSH1 0x20 ADD DUP3 DUP1 SLOAD PUSH2 0xAB4 SWAP1 PUSH2 0x2164 JUMP JUMPDEST DUP1 ISZERO PUSH2 0xB01 JUMPI DUP1 PUSH1 0x1F LT PUSH2 0xAD6 JUMPI PUSH2 0x100 DUP1 DUP4 SLOAD DIV MUL DUP4 MSTORE SWAP2 PUSH1 0x20 ADD SWAP2 PUSH2 0xB01 JUMP JUMPDEST DUP3 ADD SWAP2 SWAP1 PUSH1 0x0 MSTORE PUSH1 0x20 PUSH1 0x0 KECCAK256 SWAP1 JUMPDEST DUP2 SLOAD DUP2 MSTORE SWAP1 PUSH1 0x1 ADD SWAP1 PUSH1 0x20 ADD DUP1 DUP4 GT PUSH2 0xAE4 JUMPI DUP3 SWAP1 SUB PUSH1 0x1F AND DUP3 ADD SWAP2 JUMPDEST POP POP POP POP POP DUP2 MSTORE PUSH1 0x20 ADD PUSH1 0x2 DUP3 ADD PUSH1 0x0 SWAP1 SLOAD SWAP1 PUSH2 0x100 EXP SWAP1 DIV PUSH20 0xFFFFFFFFFFFFFFFFFFFFFFFFFFFFFFFFFFFFFFFF AND PUSH20 0xFFFFFFFFFFFFFFFFFFFFFFFFFFFFFFFFFFFFFFFF AND PUSH20 0xFFFFFFFFFFFFFFFFFFFFFFFFFFFFFFFFFFFFFFFF AND DUP2 MSTORE PUSH1 0x20 ADD PUSH1 0x3 DUP3 ADD SLOAD DUP2 MSTORE PUSH1 0x20 ADD PUSH1 0x4 DUP3 ADD SLOAD DUP2 MSTORE PUSH1 0x20 ADD PUSH1 0x5 DUP3 ADD PUSH1 0x0 SWAP1 SLOAD SWAP1 PUSH2 0x100 EXP SWAP1 DIV PUSH1 0xFF AND ISZERO ISZERO ISZERO ISZERO DUP2 MSTORE PUSH1 0x20 ADD PUSH1 0x6 DUP3 ADD SLOAD DUP2 MSTORE PUSH1 0x20 ADD PUSH1 0x7 DUP3 ADD PUSH1 0x0 SWAP1 SLOAD SWAP1 PUSH2 0x100 EXP SWAP1 DIV PUSH1 0xFF AND ISZERO ISZERO ISZERO ISZERO DUP2 MSTORE PUSH1 0x20 ADD PUSH1 0x7 DUP3 ADD PUSH1 0x1 SWAP1 SLOAD SWAP1 PUSH2 0x100 EXP SWAP1 DIV PUSH1 0xFF AND ISZERO ISZERO ISZERO ISZERO DUP2 MSTORE POP POP SWAP1 POP DUP1 DUP5 DUP5 DUP2 MLOAD DUP2 LT PUSH2 0xBE5 JUMPI PUSH2 0xBE4 PUSH2 0x272A JUMP JUMPDEST JUMPDEST PUSH1 0x20 MUL PUSH1 0x20 ADD ADD DUP2 SWAP1 MSTORE POP DUP3 DUP1 PUSH2 0xBFB SWAP1 PUSH2 0x2788 JUMP JUMPDEST SWAP4 POP POP POP DUP1 DUP1 PUSH2 0xC0A SWAP1 PUSH2 0x2788 JUMP JUMPDEST SWAP2 POP POP PUSH2 0xA45 JUMP JUMPDEST POP DUP2 SWAP4 POP POP POP POP SWAP1 JUMP JUMPDEST PUSH1 0x3 DUP1 DUP2 GT ISZERO PUSH2 0xC2F JUMPI PUSH2 0xC2E PUSH2 0x204B JUMP JUMPDEST JUMPDEST PUSH1 0x4 PUSH1 0x1 SWAP1 SLOAD SWAP1 PUSH2 0x100 EXP SWAP1 DIV PUSH1 0xFF AND PUSH1 0x3 DUP2 GT ISZERO PUSH2 0xC51 JUMPI PUSH2 0xC50 PUSH2 0x204B JUMP JUMPDEST JUMPDEST SUB PUSH2 0xC91 JUMPI PUSH1 0x40 MLOAD PUSH32 0x8C379A000000000000000000000000000000000000000000000000000000000 DUP2 MSTORE PUSH1 0x4 ADD PUSH2 0xC88 SWAP1 PUSH2 0x2842 JUMP JUMPDEST PUSH1 0x40 MLOAD DUP1 SWAP2 SUB SWAP1 REVERT JUMPDEST PUSH1 0x1 PUSH1 0x0 SWAP1 SLOAD SWAP1 PUSH2 0x100 EXP SWAP1 DIV PUSH20 0xFFFFFFFFFFFFFFFFFFFFFFFFFFFFFFFFFFFFFFFF AND PUSH20 0xFFFFFFFFFFFFFFFFFFFFFFFFFFFFFFFFFFFFFFFF AND CALLER PUSH20 0xFFFFFFFFFFFFFFFFFFFFFFFFFFFFFFFFFFFFFFFF AND EQ PUSH2 0xD21 JUMPI PUSH1 0x40 MLOAD PUSH32 0x8C379A000000000000000000000000000000000000000000000000000000000 DUP2 MSTORE PUSH1 0x4 ADD PUSH2 0xD18 SWAP1 PUSH2 0x28D4 JUMP JUMPDEST PUSH1 0x40 MLOAD DUP1 SWAP2 SUB SWAP1 REVERT JUMPDEST PUSH1 0x2 PUSH1 0x3 DUP2 GT ISZERO PUSH2 0xD35 JUMPI PUSH2 0xD34 PUSH2 0x204B JUMP JUMPDEST JUMPDEST PUSH1 0x4 PUSH1 0x1 SWAP1 SLOAD SWAP1 PUSH2 0x100 EXP SWAP1 DIV PUSH1 0xFF AND PUSH1 0x3 DUP2 GT ISZERO PUSH2 0xD57 JUMPI PUSH2 0xD56 PUSH2 0x204B JUMP JUMPDEST JUMPDEST EQ PUSH2 0xD97 JUMPI PUSH1 0x40 MLOAD PUSH32 0x8C379A000000000000000000000000000000000000000000000000000000000 DUP2 MSTORE PUSH1 0x4 ADD PUSH2 0xD8E SWAP1 PUSH2 0x2940 JUMP JUMPDEST PUSH1 0x40 MLOAD DUP1 SWAP2 SUB SWAP1 REVERT JUMPDEST PUSH1 0x1 PUSH1 0x3 DUP2 GT ISZERO PUSH2 0xDAB JUMPI PUSH2 0xDAA PUSH2 0x204B JUMP JUMPDEST JUMPDEST PUSH1 0x4 PUSH1 0x1 SWAP1 SLOAD SWAP1 PUSH2 0x100 EXP SWAP1 DIV PUSH1 0xFF AND PUSH1 0x3 DUP2 GT ISZERO PUSH2 0xDCD JUMPI PUSH2 0xDCC PUSH2 0x204B JUMP JUMPDEST JUMPDEST EQ PUSH2 0xE0D JUMPI PUSH1 0x40 MLOAD PUSH32 0x8C379A000000000000000000000000000000000000000000000000000000000 DUP2 MSTORE PUSH1 0x4 ADD PUSH2 0xE04 SWAP1 PUSH2 0x29AC JUMP JUMPDEST PUSH1 0x40 MLOAD DUP1 SWAP2 SUB SWAP1 REVERT JUMPDEST PUSH1 0x0 PUSH1 0xA PUSH1 0x3 ADD SLOAD PUSH1 0x3 SLOAD PUSH2 0xE22 SWAP2 SWAP1 PUSH2 0x29CC JUMP JUMPDEST SWAP1 POP PUSH1 0x1 PUSH1 0x0 SWAP1 SLOAD SWAP1 PUSH2 0x100 EXP SWAP1 DIV PUSH20 0xFFFFFFFFFFFFFFFFFFFFFFFFFFFFFFFFFFFFFFFF AND PUSH20 0xFFFFFFFFFFFFFFFFFFFFFFFFFFFFFFFFFFFFFFFF AND PUSH2 0x8FC DUP3 SWAP1 DUP2 ISZERO MUL SWAP1 PUSH1 0x40 MLOAD PUSH1 0x0 PUSH1 0x40 MLOAD DUP1 DUP4 SUB DUP2 DUP6 DUP9 DUP9 CALL SWAP4 POP POP POP POP ISZERO DUP1 ISZERO PUSH2 0xE8C JUMPI RETURNDATASIZE PUSH1 0x0 DUP1 RETURNDATACOPY RETURNDATASIZE PUSH1 0x0 REVERT JUMPDEST POP PUSH1 0xA PUSH1 0x2 ADD PUSH1 0x0 SWAP1 SLOAD SWAP1 PUSH2 0x100 EXP SWAP1 DIV PUSH20 0xFFFFFFFFFFFFFFFFFFFFFFFFFFFFFFFFFFFFFFFF AND PUSH20 0xFFFFFFFFFFFFFFFFFFFFFFFFFFFFFFFFFFFFFFFF AND PUSH2 0x8FC PUSH1 0xA PUSH1 0x3 ADD SLOAD SWAP1 DUP2 ISZERO MUL SWAP1 PUSH1 0x40 MLOAD PUSH1 0x0 PUSH1 0x40 MLOAD DUP1 DUP4 SUB DUP2 DUP6 DUP9 DUP9 CALL SWAP4 POP POP POP POP ISZERO DUP1 ISZERO PUSH2 0xEFD JUMPI RETURNDATASIZE PUSH1 0x0 DUP1 RETURNDATACOPY RETURNDATASIZE PUSH1 0x0 REVERT JUMPDEST POP PUSH1 0x1 PUSH1 0xA PUSH1 0x7 ADD PUSH1 0x1 PUSH2 0x100 EXP DUP2 SLOAD DUP2 PUSH1 0xFF MUL NOT AND SWAP1 DUP4 ISZERO ISZERO MUL OR SWAP1 SSTORE POP PUSH1 0x0 PUSH1 0x8 PUSH1 0x0 PUSH1 0xA PUSH1 0x2 ADD PUSH1 0x0 SWAP1 SLOAD SWAP1 PUSH2 0x100 EXP SWAP1 DIV PUSH20 0xFFFFFFFFFFFFFFFFFFFFFFFFFFFFFFFFFFFFFFFF AND PUSH20 0xFFFFFFFFFFFFFFFFFFFFFFFFFFFFFFFFFFFFFFFF AND PUSH20 0xFFFFFFFFFFFFFFFFFFFFFFFFFFFFFFFFFFFFFFFF AND DUP2 MSTORE PUSH1 0x20 ADD SWAP1 DUP2 MSTORE PUSH1 0x20 ADD PUSH1 0x0 KECCAK256 PUSH1 0x0 PUSH2 0x100 EXP DUP2 SLOAD DUP2 PUSH1 0xFF MUL NOT AND SWAP1 DUP4 ISZERO ISZERO MUL OR SWAP1 SSTORE POP PUSH1 0x3 PUSH1 0x4 PUSH1 0x1 PUSH2 0x100 EXP DUP2 SLOAD DUP2 PUSH1 0xFF MUL NOT AND SWAP1 DUP4 PUSH1 0x3 DUP2 GT ISZERO PUSH2 0xFBF JUMPI PUSH2 0xFBE PUSH2 0x204B JUMP JUMPDEST JUMPDEST MUL OR SWAP1 SSTORE POP POP JUMP JUMPDEST PUSH1 0x1 PUSH1 0x0 SWAP1 SLOAD SWAP1 PUSH2 0x100 EXP SWAP1 DIV PUSH20 0xFFFFFFFFFFFFFFFFFFFFFFFFFFFFFFFFFFFFFFFF AND PUSH20 0xFFFFFFFFFFFFFFFFFFFFFFFFFFFFFFFFFFFFFFFF AND CALLER PUSH20 0xFFFFFFFFFFFFFFFFFFFFFFFFFFFFFFFFFFFFFFFF AND EQ PUSH2 0x1057 JUMPI PUSH1 0x40 MLOAD PUSH32 0x8C379A000000000000000000000000000000000000000000000000000000000 DUP2 MSTORE PUSH1 0x4 ADD PUSH2 0x104E SWAP1 PUSH2 0x2A72 JUMP JUMPDEST PUSH1 0x40 MLOAD DUP1 SWAP2 SUB SWAP1 REVERT JUMPDEST PUSH1 0x0 PUSH1 0x5 PUSH1 0x0 DUP4 DUP2 MSTORE PUSH1 0x20 ADD SWAP1 DUP2 MSTORE PUSH1 0x20 ADD PUSH1 0x0 KECCAK256 SWAP1 POP PUSH1 0x1 PUSH1 0x3 DUP2 GT ISZERO PUSH2 0x1082 JUMPI PUSH2 0x1081 PUSH2 0x204B JUMP JUMPDEST JUMPDEST PUSH1 0x4 PUSH1 0x1 SWAP1 SLOAD SWAP1 PUSH2 0x100 EXP SWAP1 DIV PUSH1 0xFF AND PUSH1 0x3 DUP2 GT ISZERO PUSH2 0x10A4 JUMPI PUSH2 0x10A3 PUSH2 0x204B JUMP JUMPDEST JUMPDEST SUB PUSH2 0x10E4 JUMPI PUSH1 0x40 MLOAD PUSH32 0x8C379A000000000000000000000000000000000000000000000000000000000 DUP2 MSTORE PUSH1 0x4 ADD PUSH2 0x10DB SWAP1 PUSH2 0x2B04 JUMP JUMPDEST PUSH1 0x40 MLOAD DUP1 SWAP2 SUB SWAP1 REVERT JUMPDEST PUSH1 0x1 PUSH1 0x0 SWAP1 SLOAD SWAP1 PUSH2 0x100 EXP SWAP1 DIV PUSH20 0xFFFFFFFFFFFFFFFFFFFFFFFFFFFFFFFFFFFFFFFF AND PUSH20 0xFFFFFFFFFFFFFFFFFFFFFFFFFFFFFFFFFFFFFFFF AND CALLER PUSH20 0xFFFFFFFFFFFFFFFFFFFFFFFFFFFFFFFFFFFFFFFF AND EQ PUSH2 0x1174 JUMPI PUSH1 0x40 MLOAD PUSH32 0x8C379A000000000000000000000000000000000000000000000000000000000 DUP2 MSTORE PUSH1 0x4 ADD PUSH2 0x116B SWAP1 PUSH2 0x2B96 JUMP JUMPDEST PUSH1 0x40 MLOAD DUP1 SWAP2 SUB SWAP1 REVERT JUMPDEST PUSH1 0x2 SLOAD TIMESTAMP LT PUSH2 0x11B8 JUMPI PUSH1 0x40 MLOAD PUSH32 0x8C379A000000000000000000000000000000000000000000000000000000000 DUP2 MSTORE PUSH1 0x4 ADD PUSH2 0x11AF SWAP1 PUSH2 0x2C4E JUMP JUMPDEST PUSH1 0x40 MLOAD DUP1 SWAP2 SUB SWAP1 REVERT JUMPDEST TIMESTAMP DUP2 PUSH1 0x6 ADD DUP2 SWAP1 SSTORE POP PUSH1 0x1 DUP2 PUSH1 0x5 ADD PUSH1 0x0 PUSH2 0x100 EXP DUP2 SLOAD DUP2 PUSH1 0xFF MUL NOT AND SWAP1 DUP4 ISZERO ISZERO MUL OR SWAP1 SSTORE POP DUP1 PUSH1 0xA PUSH1 0x0 DUP3 ADD SLOAD DUP2 PUSH1 0x0 ADD SSTORE PUSH1 0x1 DUP3 ADD DUP2 PUSH1 0x1 ADD SWAP1 DUP2 PUSH2 0x11FF SWAP2 SWAP1 PUSH2 0x2C84 JUMP JUMPDEST POP PUSH1 0x2 DUP3 ADD PUSH1 0x0 SWAP1 SLOAD SWAP1 PUSH2 0x100 EXP SWAP1 DIV PUSH20 0xFFFFFFFFFFFFFFFFFFFFFFFFFFFFFFFFFFFFFFFF AND DUP2 PUSH1 0x2 ADD PUSH1 0x0 PUSH2 0x100 EXP DUP2 SLOAD DUP2 PUSH20 0xFFFFFFFFFFFFFFFFFFFFFFFFFFFFFFFFFFFFFFFF MUL NOT AND SWAP1 DUP4 PUSH20 0xFFFFFFFFFFFFFFFFFFFFFFFFFFFFFFFFFFFFFFFF AND MUL OR SWAP1 SSTORE POP PUSH1 0x3 DUP3 ADD SLOAD DUP2 PUSH1 0x3 ADD SSTORE PUSH1 0x4 DUP3 ADD SLOAD DUP2 PUSH1 0x4 ADD SSTORE PUSH1 0x5 DUP3 ADD PUSH1 0x0 SWAP1 SLOAD SWAP1 PUSH2 0x100 EXP SWAP1 DIV PUSH1 0xFF AND DUP2 PUSH1 0x5 ADD PUSH1 0x0 PUSH2 0x100 EXP DUP2 SLOAD DUP2 PUSH1 0xFF MUL NOT AND SWAP1 DUP4 ISZERO ISZERO MUL OR SWAP1 SSTORE POP PUSH1 0x6 DUP3 ADD SLOAD DUP2 PUSH1 0x6 ADD SSTORE PUSH1 0x7 DUP3 ADD PUSH1 0x0 SWAP1 SLOAD SWAP1 PUSH2 0x100 EXP SWAP1 DIV PUSH1 0xFF AND DUP2 PUSH1 0x7 ADD PUSH1 0x0 PUSH2 0x100 EXP DUP2 SLOAD DUP2 PUSH1 0xFF MUL NOT AND SWAP1 DUP4 ISZERO ISZERO MUL OR SWAP1 SSTORE POP PUSH1 0x7 DUP3 ADD PUSH1 0x1 SWAP1 SLOAD SWAP1 PUSH2 0x100 EXP SWAP1 DIV PUSH1 0xFF AND DUP2 PUSH1 0x7 ADD PUSH1 0x1 PUSH2 0x100 EXP DUP2 SLOAD DUP2 PUSH1 0xFF MUL NOT AND SWAP1 DUP4 ISZERO ISZERO MUL OR SWAP1 SSTORE POP SWAP1 POP POP PUSH1 0x1 PUSH1 0x8 PUSH1 0x0 CALLER PUSH20 0xFFFFFFFFFFFFFFFFFFFFFFFFFFFFFFFFFFFFFFFF AND PUSH20 0xFFFFFFFFFFFFFFFFFFFFFFFFFFFFFFFFFFFFFFFF AND DUP2 MSTORE PUSH1 0x20 ADD SWAP1 DUP2 MSTORE PUSH1 0x20 ADD PUSH1 0x0 KECCAK256 PUSH1 0x0 PUSH2 0x100 EXP DUP2 SLOAD DUP2 PUSH1 0xFF MUL NOT AND SWAP1 DUP4 ISZERO ISZERO MUL OR SWAP1 SSTORE POP PUSH1 0x1 PUSH1 0x4 PUSH1 0x1 PUSH2 0x100 EXP DUP2 SLOAD DUP2 PUSH1 0xFF MUL NOT AND SWAP1 DUP4 PUSH1 0x3 DUP2 GT ISZERO PUSH2 0x138D JUMPI PUSH2 0x138C PUSH2 0x204B JUMP JUMPDEST JUMPDEST MUL OR SWAP1 SSTORE POP POP POP JUMP JUMPDEST PUSH1 0x4 PUSH1 0x1 SWAP1 SLOAD SWAP1 PUSH2 0x100 EXP SWAP1 DIV PUSH1 0xFF AND DUP2 JUMP JUMPDEST PUSH1 0x1 PUSH1 0x0 SWAP1 SLOAD SWAP1 PUSH2 0x100 EXP SWAP1 DIV PUSH20 0xFFFFFFFFFFFFFFFFFFFFFFFFFFFFFFFFFFFFFFFF AND DUP2 JUMP JUMPDEST PUSH1 0xA DUP1 PUSH1 0x0 ADD SLOAD SWAP1 DUP1 PUSH1 0x1 ADD DUP1 SLOAD PUSH2 0x13E6 SWAP1 PUSH2 0x2164 JUMP JUMPDEST DUP1 PUSH1 0x1F ADD PUSH1 0x20 DUP1 SWAP2 DIV MUL PUSH1 0x20 ADD PUSH1 0x40 MLOAD SWAP1 DUP2 ADD PUSH1 0x40 MSTORE DUP1 SWAP3 SWAP2 SWAP1 DUP2 DUP2 MSTORE PUSH1 0x20 ADD DUP3 DUP1 SLOAD PUSH2 0x1412 SWAP1 PUSH2 0x2164 JUMP JUMPDEST DUP1 ISZERO PUSH2 0x145F JUMPI DUP1 PUSH1 0x1F LT PUSH2 0x1434 JUMPI PUSH2 0x100 DUP1 DUP4 SLOAD DIV MUL DUP4 MSTORE SWAP2 PUSH1 0x20 ADD SWAP2 PUSH2 0x145F JUMP JUMPDEST DUP3 ADD SWAP2 SWAP1 PUSH1 0x0 MSTORE PUSH1 0x20 PUSH1 0x0 KECCAK256 SWAP1 JUMPDEST DUP2 SLOAD DUP2 MSTORE SWAP1 PUSH1 0x1 ADD SWAP1 PUSH1 0x20 ADD DUP1 DUP4 GT PUSH2 0x1442 JUMPI DUP3 SWAP1 SUB PUSH1 0x1F AND DUP3 ADD SWAP2 JUMPDEST POP POP POP POP POP SWAP1 DUP1 PUSH1 0x2 ADD PUSH1 0x0 SWAP1 SLOAD SWAP1 PUSH2 0x100 EXP SWAP1 DIV PUSH20 0xFFFFFFFFFFFFFFFFFFFFFFFFFFFFFFFFFFFFFFFF AND SWAP1 DUP1 PUSH1 0x3 ADD SLOAD SWAP1 DUP1 PUSH1 0x4 ADD SLOAD SWAP1 DUP1 PUSH1 0x5 ADD PUSH1 0x0 SWAP1 SLOAD SWAP1 PUSH2 0x100 EXP SWAP1 DIV PUSH1 0xFF AND SWAP1 DUP1 PUSH1 0x6 ADD SLOAD SWAP1 DUP1 PUSH1 0x7 ADD PUSH1 0x0 SWAP1 SLOAD SWAP1 PUSH2 0x100 EXP SWAP1 DIV PUSH1 0xFF AND SWAP1 DUP1 PUSH1 0x7 ADD PUSH1 0x1 SWAP1 SLOAD SWAP1 PUSH2 0x100 EXP SWAP1 DIV PUSH1 0xFF AND SWAP1 POP DUP10 JUMP JUMPDEST PUSH1 0x9 PUSH1 0x0 SWAP1 SLOAD SWAP1 PUSH2 0x100 EXP SWAP1 DIV PUSH1 0xFF AND DUP2 JUMP JUMPDEST PUSH1 0x60 PUSH1 0x0 PUSH1 0x3 DUP2 GT ISZERO PUSH2 0x1503 JUMPI PUSH2 0x1502 PUSH2 0x204B JUMP JUMPDEST JUMPDEST PUSH1 0x4 PUSH1 0x1 SWAP1 SLOAD SWAP1 PUSH2 0x100 EXP SWAP1 DIV PUSH1 0xFF AND PUSH1 0x3 DUP2 GT ISZERO PUSH2 0x1525 JUMPI PUSH2 0x1524 PUSH2 0x204B JUMP JUMPDEST JUMPDEST SUB PUSH2 0x1567 JUMPI PUSH1 0x40 MLOAD DUP1 PUSH1 0x40 ADD PUSH1 0x40 MSTORE DUP1 PUSH1 0x4 DUP2 MSTORE PUSH1 0x20 ADD PUSH32 0x4F70656E00000000000000000000000000000000000000000000000000000000 DUP2 MSTORE POP SWAP1 POP PUSH2 0x16CF JUMP JUMPDEST PUSH1 0x1 PUSH1 0x3 DUP2 GT ISZERO PUSH2 0x157B JUMPI PUSH2 0x157A PUSH2 0x204B JUMP JUMPDEST JUMPDEST PUSH1 0x4 PUSH1 0x1 SWAP1 SLOAD SWAP1 PUSH2 0x100 EXP SWAP1 DIV PUSH1 0xFF AND PUSH1 0x3 DUP2 GT ISZERO PUSH2 0x159D JUMPI PUSH2 0x159C PUSH2 0x204B JUMP JUMPDEST JUMPDEST SUB PUSH2 0x15DF JUMPI PUSH1 0x40 MLOAD DUP1 PUSH1 0x40 ADD PUSH1 0x40 MSTORE DUP1 PUSH1 0xB DUP2 MSTORE PUSH1 0x20 ADD PUSH32 0x496E2050726F6772657373000000000000000000000000000000000000000000 DUP2 MSTORE POP SWAP1 POP PUSH2 0x16CF JUMP JUMPDEST PUSH1 0x2 PUSH1 0x3 DUP2 GT ISZERO PUSH2 0x15F3 JUMPI PUSH2 0x15F2 PUSH2 0x204B JUMP JUMPDEST JUMPDEST PUSH1 0x4 PUSH1 0x1 SWAP1 SLOAD SWAP1 PUSH2 0x100 EXP SWAP1 DIV PUSH1 0xFF AND PUSH1 0x3 DUP2 GT ISZERO PUSH2 0x1615 JUMPI PUSH2 0x1614 PUSH2 0x204B JUMP JUMPDEST JUMPDEST SUB PUSH2 0x1657 JUMPI PUSH1 0x40 MLOAD DUP1 PUSH1 0x40 ADD PUSH1 0x40 MSTORE DUP1 PUSH1 0x12 DUP2 MSTORE PUSH1 0x20 ADD PUSH32 0x4D61726B656420417320436F6D706C6574650000000000000000000000000000 DUP2 MSTORE POP SWAP1 POP PUSH2 0x16CF JUMP JUMPDEST PUSH1 0x3 DUP1 DUP2 GT ISZERO PUSH2 0x166A JUMPI PUSH2 0x1669 PUSH2 0x204B JUMP JUMPDEST JUMPDEST PUSH1 0x4 PUSH1 0x1 SWAP1 SLOAD SWAP1 PUSH2 0x100 EXP SWAP1 DIV PUSH1 0xFF AND PUSH1 0x3 DUP2 GT ISZERO PUSH2 0x168C JUMPI PUSH2 0x168B PUSH2 0x204B JUMP JUMPDEST JUMPDEST SUB PUSH2 0x16CE JUMPI PUSH1 0x40 MLOAD DUP1 PUSH1 0x40 ADD PUSH1 0x40 MSTORE DUP1 PUSH1 0x9 DUP2 MSTORE PUSH1 0x20 ADD PUSH32 0x436F6D706C657465640000000000000000000000000000000000000000000000 DUP2 MSTORE POP SWAP1 POP PUSH2 0x16CF JUMP JUMPDEST JUMPDEST SWAP1 JUMP JUMPDEST PUSH1 0x1 PUSH1 0x3 DUP2 GT ISZERO PUSH2 0x16E6 JUMPI PUSH2 0x16E5 PUSH2 0x204B JUMP JUMPDEST JUMPDEST PUSH1 0x4 PUSH1 0x1 SWAP1 SLOAD SWAP1 PUSH2 0x100 EXP SWAP1 DIV PUSH1 0xFF AND PUSH1 0x3 DUP2 GT ISZERO PUSH2 0x1708 JUMPI PUSH2 0x1707 PUSH2 0x204B JUMP JUMPDEST JUMPDEST EQ PUSH2 0x1748 JUMPI PUSH1 0x40 MLOAD PUSH32 0x8C379A000000000000000000000000000000000000000000000000000000000 DUP2 MSTORE PUSH1 0x4 ADD PUSH2 0x173F SWAP1 PUSH2 0x2DDE JUMP JUMPDEST PUSH1 0x40 MLOAD DUP1 SWAP2 SUB SWAP1 REVERT JUMPDEST PUSH1 0x3 DUP1 DUP2 GT ISZERO PUSH2 0x175B JUMPI PUSH2 0x175A PUSH2 0x204B JUMP JUMPDEST JUMPDEST PUSH1 0x4 PUSH1 0x1 SWAP1 SLOAD SWAP1 PUSH2 0x100 EXP SWAP1 DIV PUSH1 0xFF AND PUSH1 0x3 DUP2 GT ISZERO PUSH2 0x177D JUMPI PUSH2 0x177C PUSH2 0x204B JUMP JUMPDEST JUMPDEST SUB PUSH2 0x17BD JUMPI PUSH1 0x40 MLOAD PUSH32 0x8C379A000000000000000000000000000000000000000000000000000000000 DUP2 MSTORE PUSH1 0x4 ADD PUSH2 0x17B4 SWAP1 PUSH2 0x2842 JUMP JUMPDEST PUSH1 0x40 MLOAD DUP1 SWAP2 SUB SWAP1 REVERT JUMPDEST PUSH1 0xA PUSH1 0x2 ADD PUSH1 0x0 SWAP1 SLOAD SWAP1 PUSH2 0x100 EXP SWAP1 DIV PUSH20 0xFFFFFFFFFFFFFFFFFFFFFFFFFFFFFFFFFFFFFFFF AND PUSH20 0xFFFFFFFFFFFFFFFFFFFFFFFFFFFFFFFFFFFFFFFF AND CALLER PUSH20 0xFFFFFFFFFFFFFFFFFFFFFFFFFFFFFFFFFFFFFFFF AND EQ PUSH2 0x1850 JUMPI PUSH1 0x40 MLOAD PUSH32 0x8C379A000000000000000000000000000000000000000000000000000000000 DUP2 MSTORE PUSH1 0x4 ADD PUSH2 0x1847 SWAP1 PUSH2 0x2E70 JUMP JUMPDEST PUSH1 0x40 MLOAD DUP1 SWAP2 SUB SWAP1 REVERT JUMPDEST PUSH1 0x2 PUSH1 0x3 DUP2 GT ISZERO PUSH2 0x1864 JUMPI PUSH2 0x1863 PUSH2 0x204B JUMP JUMPDEST JUMPDEST PUSH1 0x4 PUSH1 0x1 SWAP1 SLOAD SWAP1 PUSH2 0x100 EXP SWAP1 DIV PUSH1 0xFF AND PUSH1 0x3 DUP2 GT ISZERO PUSH2 0x1886 JUMPI PUSH2 0x1885 PUSH2 0x204B JUMP JUMPDEST JUMPDEST SUB PUSH2 0x18C6 JUMPI PUSH1 0x40 MLOAD PUSH32 0x8C379A000000000000000000000000000000000000000000000000000000000 DUP2 MSTORE PUSH1 0x4 ADD PUSH2 0x18BD SWAP1 PUSH2 0x2F02 JUMP JUMPDEST PUSH1 0x40 MLOAD DUP1 SWAP2 SUB SWAP1 REVERT JUMPDEST PUSH1 0x2 PUSH1 0x4 PUSH1 0x1 PUSH2 0x100 EXP DUP2 SLOAD DUP2 PUSH1 0xFF MUL NOT AND SWAP1 DUP4 PUSH1 0x3 DUP2 GT ISZERO PUSH2 0x18EC JUMPI PUSH2 0x18EB PUSH2 0x204B JUMP JUMPDEST JUMPDEST MUL OR SWAP1 SSTORE POP JUMP JUMPDEST PUSH1 0x0 DUP2 PUSH1 0x0 ADD SLOAD SWAP1 POP SWAP2 SWAP1 POP JUMP JUMPDEST PUSH1 0x1 DUP2 PUSH1 0x0 ADD PUSH1 0x0 DUP3 DUP3 SLOAD ADD SWAP3 POP POP DUP2 SWAP1 SSTORE POP POP JUMP JUMPDEST PUSH1 0x40 MLOAD DUP1 PUSH2 0x120 ADD PUSH1 0x40 MSTORE DUP1 PUSH1 0x0 DUP2 MSTORE PUSH1 0x20 ADD PUSH1 0x60 DUP2 MSTORE PUSH1 0x20 ADD PUSH1 0x0 PUSH20 0xFFFFFFFFFFFFFFFFFFFFFFFFFFFFFFFFFFFFFFFF AND DUP2 MSTORE PUSH1 0x20 ADD PUSH1 0x0 DUP2 MSTORE PUSH1 0x20 ADD PUSH1 0x0 DUP2 MSTORE PUSH1 0x20 ADD PUSH1 0x0 ISZERO ISZERO DUP2 MSTORE PUSH1 0x20 ADD PUSH1 0x0 DUP2 MSTORE PUSH1 0x20 ADD PUSH1 0x0 ISZERO ISZERO DUP2 MSTORE PUSH1 0x20 ADD PUSH1 0x0 ISZERO ISZERO DUP2 MSTORE POP SWAP1 JUMP JUMPDEST PUSH1 0x0 PUSH1 0x40 MLOAD SWAP1 POP SWAP1 JUMP JUMPDEST PUSH1 0x0 DUP1 REVERT JUMPDEST PUSH1 0x0 DUP1 REVERT JUMPDEST PUSH1 0x0 DUP2 SWAP1 POP SWAP2 SWAP1 POP JUMP JUMPDEST PUSH2 0x19A6 DUP2 PUSH2 0x1993 JUMP JUMPDEST DUP2 EQ PUSH2 0x19B1 JUMPI PUSH1 0x0 DUP1 REVERT JUMPDEST POP JUMP JUMPDEST PUSH1 0x0 DUP2 CALLDATALOAD SWAP1 POP PUSH2 0x19C3 DUP2 PUSH2 0x199D JUMP JUMPDEST SWAP3 SWAP2 POP POP JUMP JUMPDEST PUSH1 0x0 PUSH1 0x20 DUP3 DUP5 SUB SLT ISZERO PUSH2 0x19DF JUMPI PUSH2 0x19DE PUSH2 0x1989 JUMP JUMPDEST JUMPDEST PUSH1 0x0 PUSH2 0x19ED DUP5 DUP3 DUP6 ADD PUSH2 0x19B4 JUMP JUMPDEST SWAP2 POP POP SWAP3 SWAP2 POP POP JUMP JUMPDEST PUSH2 0x19FF DUP2 PUSH2 0x1993 JUMP JUMPDEST DUP3 MSTORE POP POP JUMP JUMPDEST PUSH1 0x0 DUP2 MLOAD SWAP1 POP SWAP2 SWAP1 POP JUMP JUMPDEST PUSH1 0x0 DUP3 DUP3 MSTORE PUSH1 0x20 DUP3 ADD SWAP1 POP SWAP3 SWAP2 POP POP JUMP JUMPDEST PUSH1 0x0 JUMPDEST DUP4 DUP2 LT ISZERO PUSH2 0x1A3F JUMPI DUP1 DUP3 ADD MLOAD DUP2 DUP5 ADD MSTORE PUSH1 0x20 DUP2 ADD SWAP1 POP PUSH2 0x1A24 JUMP JUMPDEST PUSH1 0x0 DUP5 DUP5 ADD MSTORE POP POP POP POP JUMP JUMPDEST PUSH1 0x0 PUSH1 0x1F NOT PUSH1 0x1F DUP4 ADD AND SWAP1 POP SWAP2 SWAP1 POP JUMP JUMPDEST PUSH1 0x0 PUSH2 0x1A67 DUP3 PUSH2 0x1A05 JUMP JUMPDEST PUSH2 0x1A71 DUP2 DUP6 PUSH2 0x1A10 JUMP JUMPDEST SWAP4 POP PUSH2 0x1A81 DUP2 DUP6 PUSH1 0x20 DUP7 ADD PUSH2 0x1A21 JUMP JUMPDEST PUSH2 0x1A8A DUP2 PUSH2 0x1A4B JUMP JUMPDEST DUP5 ADD SWAP2 POP POP SWAP3 SWAP2 POP POP JUMP JUMPDEST PUSH1 0x0 PUSH20 0xFFFFFFFFFFFFFFFFFFFFFFFFFFFFFFFFFFFFFFFF DUP3 AND SWAP1 POP SWAP2 SWAP1 POP JUMP JUMPDEST PUSH1 0x0 PUSH2 0x1AC0 DUP3 PUSH2 0x1A95 JUMP JUMPDEST SWAP1 POP SWAP2 SWAP1 POP JUMP JUMPDEST PUSH2 0x1AD0 DUP2 PUSH2 0x1AB5 JUMP JUMPDEST DUP3 MSTORE POP POP JUMP JUMPDEST PUSH1 0x0 DUP2 ISZERO ISZERO SWAP1 POP SWAP2 SWAP1 POP JUMP JUMPDEST PUSH2 0x1AEB DUP2 PUSH2 0x1AD6 JUMP JUMPDEST DUP3 MSTORE POP POP JUMP JUMPDEST PUSH1 0x0 PUSH2 0x120 DUP3 ADD SWAP1 POP PUSH2 0x1B07 PUSH1 0x0 DUP4 ADD DUP13 PUSH2 0x19F6 JUMP JUMPDEST DUP2 DUP2 SUB PUSH1 0x20 DUP4 ADD MSTORE PUSH2 0x1B19 DUP2 DUP12 PUSH2 0x1A5C JUMP JUMPDEST SWAP1 POP PUSH2 0x1B28 PUSH1 0x40 DUP4 ADD DUP11 PUSH2 0x1AC7 JUMP JUMPDEST PUSH2 0x1B35 PUSH1 0x60 DUP4 ADD DUP10 PUSH2 0x19F6 JUMP JUMPDEST PUSH2 0x1B42 PUSH1 0x80 DUP4 ADD DUP9 PUSH2 0x19F6 JUMP JUMPDEST PUSH2 0x1B4F PUSH1 0xA0 DUP4 ADD DUP8 PUSH2 0x1AE2 JUMP JUMPDEST PUSH2 0x1B5C PUSH1 0xC0 DUP4 ADD DUP7 PUSH2 0x19F6 JUMP JUMPDEST PUSH2 0x1B69 PUSH1 0xE0 DUP4 ADD DUP6 PUSH2 0x1AE2 JUMP JUMPDEST PUSH2 0x1B77 PUSH2 0x100 DUP4 ADD DUP5 PUSH2 0x1AE2 JUMP JUMPDEST SWAP11 SWAP10 POP POP POP POP POP POP POP POP POP POP JUMP JUMPDEST PUSH1 0x0 PUSH1 0x20 DUP3 ADD SWAP1 POP PUSH2 0x1B9A PUSH1 0x0 DUP4 ADD DUP5 PUSH2 0x19F6 JUMP JUMPDEST SWAP3 SWAP2 POP POP JUMP JUMPDEST PUSH1 0x0 DUP1 REVERT JUMPDEST PUSH1 0x0 DUP1 REVERT JUMPDEST PUSH32 0x4E487B7100000000000000000000000000000000000000000000000000000000 PUSH1 0x0 MSTORE PUSH1 0x41 PUSH1 0x4 MSTORE PUSH1 0x24 PUSH1 0x0 REVERT JUMPDEST PUSH2 0x1BE2 DUP3 PUSH2 0x1A4B JUMP JUMPDEST DUP2 ADD DUP2 DUP2 LT PUSH8 0xFFFFFFFFFFFFFFFF DUP3 GT OR ISZERO PUSH2 0x1C01 JUMPI PUSH2 0x1C00 PUSH2 0x1BAA JUMP JUMPDEST JUMPDEST DUP1 PUSH1 0x40 MSTORE POP POP POP JUMP JUMPDEST PUSH1 0x0 PUSH2 0x1C14 PUSH2 0x197F JUMP JUMPDEST SWAP1 POP PUSH2 0x1C20 DUP3 DUP3 PUSH2 0x1BD9 JUMP JUMPDEST SWAP2 SWAP1 POP JUMP JUMPDEST PUSH1 0x0 PUSH8 0xFFFFFFFFFFFFFFFF DUP3 GT ISZERO PUSH2 0x1C40 JUMPI PUSH2 0x1C3F PUSH2 0x1BAA JUMP JUMPDEST JUMPDEST PUSH2 0x1C49 DUP3 PUSH2 0x1A4B JUMP JUMPDEST SWAP1 POP PUSH1 0x20 DUP2 ADD SWAP1 POP SWAP2 SWAP1 POP JUMP JUMPDEST DUP3 DUP2 DUP4 CALLDATACOPY PUSH1 0x0 DUP4 DUP4 ADD MSTORE POP POP POP JUMP JUMPDEST PUSH1 0x0 PUSH2 0x1C78 PUSH2 0x1C73 DUP5 PUSH2 0x1C25 JUMP JUMPDEST PUSH2 0x1C0A JUMP JUMPDEST SWAP1 POP DUP3 DUP2 MSTORE PUSH1 0x20 DUP2 ADD DUP5 DUP5 DUP5 ADD GT ISZERO PUSH2 0x1C94 JUMPI PUSH2 0x1C93 PUSH2 0x1BA5 JUMP JUMPDEST JUMPDEST PUSH2 0x1C9F DUP5 DUP3 DUP6 PUSH2 0x1C56 JUMP JUMPDEST POP SWAP4 SWAP3 POP POP POP JUMP JUMPDEST PUSH1 0x0 DUP3 PUSH1 0x1F DUP4 ADD SLT PUSH2 0x1CBC JUMPI PUSH2 0x1CBB PUSH2 0x1BA0 JUMP JUMPDEST JUMPDEST DUP2 CALLDATALOAD PUSH2 0x1CCC DUP5 DUP3 PUSH1 0x20 DUP7 ADD PUSH2 0x1C65 JUMP JUMPDEST SWAP2 POP POP SWAP3 SWAP2 POP POP JUMP JUMPDEST PUSH1 0x0 DUP1 PUSH1 0x0 PUSH1 0x60 DUP5 DUP7 SUB SLT ISZERO PUSH2 0x1CEE JUMPI PUSH2 0x1CED PUSH2 0x1989 JUMP JUMPDEST JUMPDEST PUSH1 0x0 DUP5 ADD CALLDATALOAD PUSH8 0xFFFFFFFFFFFFFFFF DUP2 GT ISZERO PUSH2 0x1D0C JUMPI PUSH2 0x1D0B PUSH2 0x198E JUMP JUMPDEST JUMPDEST PUSH2 0x1D18 DUP7 DUP3 DUP8 ADD PUSH2 0x1CA7 JUMP JUMPDEST SWAP4 POP POP PUSH1 0x20 PUSH2 0x1D29 DUP7 DUP3 DUP8 ADD PUSH2 0x19B4 JUMP JUMPDEST SWAP3 POP POP PUSH1 0x40 PUSH2 0x1D3A DUP7 DUP3 DUP8 ADD PUSH2 0x19B4 JUMP JUMPDEST SWAP2 POP POP SWAP3 POP SWAP3 POP SWAP3 JUMP JUMPDEST PUSH2 0x1D4D DUP2 PUSH2 0x1993 JUMP JUMPDEST DUP3 MSTORE POP POP JUMP JUMPDEST PUSH1 0x0 DUP3 DUP3 MSTORE PUSH1 0x20 DUP3 ADD SWAP1 POP SWAP3 SWAP2 POP POP JUMP JUMPDEST PUSH1 0x0 PUSH2 0x1D6F DUP3 PUSH2 0x1A05 JUMP JUMPDEST PUSH2 0x1D79 DUP2 DUP6 PUSH2 0x1D53 JUMP JUMPDEST SWAP4 POP PUSH2 0x1D89 DUP2 DUP6 PUSH1 0x20 DUP7 ADD PUSH2 0x1A21 JUMP JUMPDEST PUSH2 0x1D92 DUP2 PUSH2 0x1A4B JUMP JUMPDEST DUP5 ADD SWAP2 POP POP SWAP3 SWAP2 POP POP JUMP JUMPDEST PUSH2 0x1DA6 DUP2 PUSH2 0x1AB5 JUMP JUMPDEST DUP3 MSTORE POP POP JUMP JUMPDEST PUSH2 0x1DB5 DUP2 PUSH2 0x1AD6 JUMP JUMPDEST DUP3 MSTORE POP POP JUMP JUMPDEST PUSH1 0x0 PUSH2 0x120 DUP4 ADD PUSH1 0x0 DUP4 ADD MLOAD PUSH2 0x1DD4 PUSH1 0x0 DUP7 ADD DUP3 PUSH2 0x1D44 JUMP JUMPDEST POP PUSH1 0x20 DUP4 ADD MLOAD DUP5 DUP3 SUB PUSH1 0x20 DUP7 ADD MSTORE PUSH2 0x1DEC DUP3 DUP3 PUSH2 0x1D64 JUMP JUMPDEST SWAP2 POP POP PUSH1 0x40 DUP4 ADD MLOAD PUSH2 0x1E01 PUSH1 0x40 DUP7 ADD DUP3 PUSH2 0x1D9D JUMP JUMPDEST POP PUSH1 0x60 DUP4 ADD MLOAD PUSH2 0x1E14 PUSH1 0x60 DUP7 ADD DUP3 PUSH2 0x1D44 JUMP JUMPDEST POP PUSH1 0x80 DUP4 ADD MLOAD PUSH2 0x1E27 PUSH1 0x80 DUP7 ADD DUP3 PUSH2 0x1D44 JUMP JUMPDEST POP PUSH1 0xA0 DUP4 ADD MLOAD PUSH2 0x1E3A PUSH1 0xA0 DUP7 ADD DUP3 PUSH2 0x1DAC JUMP JUMPDEST POP PUSH1 0xC0 DUP4 ADD MLOAD PUSH2 0x1E4D PUSH1 0xC0 DUP7 ADD DUP3 PUSH2 0x1D44 JUMP JUMPDEST POP PUSH1 0xE0 DUP4 ADD MLOAD PUSH2 0x1E60 PUSH1 0xE0 DUP7 ADD DUP3 PUSH2 0x1DAC JUMP JUMPDEST POP PUSH2 0x100 DUP4 ADD MLOAD PUSH2 0x1E75 PUSH2 0x100 DUP7 ADD DUP3 PUSH2 0x1DAC JUMP JUMPDEST POP DUP1 SWAP2 POP POP SWAP3 SWAP2 POP POP JUMP JUMPDEST PUSH1 0x0 PUSH1 0x20 DUP3 ADD SWAP1 POP DUP2 DUP2 SUB PUSH1 0x0 DUP4 ADD MSTORE PUSH2 0x1E9A DUP2 DUP5 PUSH2 0x1DBB JUMP JUMPDEST SWAP1 POP SWAP3 SWAP2 POP POP JUMP JUMPDEST PUSH1 0x0 DUP2 MLOAD SWAP1 POP SWAP2 SWAP1 POP JUMP JUMPDEST PUSH1 0x0 DUP3 DUP3 MSTORE PUSH1 0x20 DUP3 ADD SWAP1 POP SWAP3 SWAP2 POP POP JUMP JUMPDEST PUSH1 0x0 DUP2 SWAP1 POP PUSH1 0x20 DUP3 ADD SWAP1 POP SWAP2 SWAP1 POP JUMP JUMPDEST PUSH1 0x0 PUSH2 0x120 DUP4 ADD PUSH1 0x0 DUP4 ADD MLOAD PUSH2 0x1EE7 PUSH1 0x0 DUP7 ADD DUP3 PUSH2 0x1D44 JUMP JUMPDEST POP PUSH1 0x20 DUP4 ADD MLOAD DUP5 DUP3 SUB PUSH1 0x20 DUP7 ADD MSTORE PUSH2 0x1EFF DUP3 DUP3 PUSH2 0x1D64 JUMP JUMPDEST SWAP2 POP POP PUSH1 0x40 DUP4 ADD MLOAD PUSH2 0x1F14 PUSH1 0x40 DUP7 ADD DUP3 PUSH2 0x1D9D JUMP JUMPDEST POP PUSH1 0x60 DUP4 ADD MLOAD PUSH2 0x1F27 PUSH1 0x60 DUP7 ADD DUP3 PUSH2 0x1D44 JUMP JUMPDEST POP PUSH1 0x80 DUP4 ADD MLOAD PUSH2 0x1F3A PUSH1 0x80 DUP7 ADD DUP3 PUSH2 0x1D44 JUMP JUMPDEST POP PUSH1 0xA0 DUP4 ADD MLOAD PUSH2 0x1F4D PUSH1 0xA0 DUP7 ADD DUP3 PUSH2 0x1DAC JUMP JUMPDEST POP PUSH1 0xC0 DUP4 ADD MLOAD PUSH2 0x1F60 PUSH1 0xC0 DUP7 ADD DUP3 PUSH2 0x1D44 JUMP JUMPDEST POP PUSH1 0xE0 DUP4 ADD MLOAD PUSH2 0x1F73 PUSH1 0xE0 DUP7 ADD DUP3 PUSH2 0x1DAC JUMP JUMPDEST POP PUSH2 0x100 DUP4 ADD MLOAD PUSH2 0x1F88 PUSH2 0x100 DUP7 ADD DUP3 PUSH2 0x1DAC JUMP JUMPDEST POP DUP1 SWAP2 POP POP SWAP3 SWAP2 POP POP JUMP JUMPDEST PUSH1 0x0 PUSH2 0x1F9F DUP4 DUP4 PUSH2 0x1ECE JUMP JUMPDEST SWAP1 POP SWAP3 SWAP2 POP POP JUMP JUMPDEST PUSH1 0x0 PUSH1 0x20 DUP3 ADD SWAP1 POP SWAP2 SWAP1 POP JUMP JUMPDEST PUSH1 0x0 PUSH2 0x1FBF DUP3 PUSH2 0x1EA2 JUMP JUMPDEST PUSH2 0x1FC9 DUP2 DUP6 PUSH2 0x1EAD JUMP JUMPDEST SWAP4 POP DUP4 PUSH1 0x20 DUP3 MUL DUP6 ADD PUSH2 0x1FDB DUP6 PUSH2 0x1EBE JUMP JUMPDEST DUP1 PUSH1 0x0 JUMPDEST DUP6 DUP2 LT ISZERO PUSH2 0x2017 JUMPI DUP5 DUP5 SUB DUP10 MSTORE DUP2 MLOAD PUSH2 0x1FF8 DUP6 DUP3 PUSH2 0x1F93 JUMP JUMPDEST SWAP5 POP PUSH2 0x2003 DUP4 PUSH2 0x1FA7 JUMP JUMPDEST SWAP3 POP PUSH1 0x20 DUP11 ADD SWAP10 POP POP PUSH1 0x1 DUP2 ADD SWAP1 POP PUSH2 0x1FDF JUMP JUMPDEST POP DUP3 SWAP8 POP DUP8 SWAP6 POP POP POP POP POP POP SWAP3 SWAP2 POP POP JUMP JUMPDEST PUSH1 0x0 PUSH1 0x20 DUP3 ADD SWAP1 POP DUP2 DUP2 SUB PUSH1 0x0 DUP4 ADD MSTORE PUSH2 0x2043 DUP2 DUP5 PUSH2 0x1FB4 JUMP JUMPDEST SWAP1 POP SWAP3 SWAP2 POP POP JUMP JUMPDEST PUSH32 0x4E487B7100000000000000000000000000000000000000000000000000000000 PUSH1 0x0 MSTORE PUSH1 0x21 PUSH1 0x4 MSTORE PUSH1 0x24 PUSH1 0x0 REVERT JUMPDEST PUSH1 0x4 DUP2 LT PUSH2 0x208B JUMPI PUSH2 0x208A PUSH2 0x204B JUMP JUMPDEST JUMPDEST POP JUMP JUMPDEST PUSH1 0x0 DUP2 SWAP1 POP PUSH2 0x209C DUP3 PUSH2 0x207A JUMP JUMPDEST SWAP2 SWAP1 POP JUMP JUMPDEST PUSH1 0x0 PUSH2 0x20AC DUP3 PUSH2 0x208E JUMP JUMPDEST SWAP1 POP SWAP2 SWAP1 POP JUMP JUMPDEST PUSH2 0x20BC DUP2 PUSH2 0x20A1 JUMP JUMPDEST DUP3 MSTORE POP POP JUMP JUMPDEST PUSH1 0x0 PUSH1 0x20 DUP3 ADD SWAP1 POP PUSH2 0x20D7 PUSH1 0x0 DUP4 ADD DUP5 PUSH2 0x20B3 JUMP JUMPDEST SWAP3 SWAP2 POP POP JUMP JUMPDEST PUSH1 0x0 PUSH1 0x20 DUP3 ADD SWAP1 POP PUSH2 0x20F2 PUSH1 0x0 DUP4 ADD DUP5 PUSH2 0x1AC7 JUMP JUMPDEST SWAP3 SWAP2 POP POP JUMP JUMPDEST PUSH1 0x0 PUSH1 0x20 DUP3 ADD SWAP1 POP PUSH2 0x210D PUSH1 0x0 DUP4 ADD DUP5 PUSH2 0x1AE2 JUMP JUMPDEST SWAP3 SWAP2 POP POP JUMP JUMPDEST PUSH1 0x0 PUSH1 0x20 DUP3 ADD SWAP1 POP DUP2 DUP2 SUB PUSH1 0x0 DUP4 ADD MSTORE PUSH2 0x212D DUP2 DUP5 PUSH2 0x1A5C JUMP JUMPDEST SWAP1 POP SWAP3 SWAP2 POP POP JUMP JUMPDEST PUSH32 0x4E487B7100000000000000000000000000000000000000000000000000000000 PUSH1 0x0 MSTORE PUSH1 0x22 PUSH1 0x4 MSTORE PUSH1 0x24 PUSH1 0x0 REVERT JUMPDEST PUSH1 0x0 PUSH1 0x2 DUP3 DIV SWAP1 POP PUSH1 0x1 DUP3 AND DUP1 PUSH2 0x217C JUMPI PUSH1 0x7F DUP3 AND SWAP2 POP JUMPDEST PUSH1 0x20 DUP3 LT DUP2 SUB PUSH2 0x218F JUMPI PUSH2 0x218E PUSH2 0x2135 JUMP JUMPDEST JUMPDEST POP SWAP2 SWAP1 POP JUMP JUMPDEST PUSH32 0x596F75206861766520616C7265616479206372656174656420612070726F706F PUSH1 0x0 DUP3 ADD MSTORE PUSH32 0x73616C20666F7220746869732070726F6A656374000000000000000000000000 PUSH1 0x20 DUP3 ADD MSTORE POP JUMP JUMPDEST PUSH1 0x0 PUSH2 0x21F1 PUSH1 0x34 DUP4 PUSH2 0x1A10 JUMP JUMPDEST SWAP2 POP PUSH2 0x21FC DUP3 PUSH2 0x2195 JUMP JUMPDEST PUSH1 0x40 DUP3 ADD SWAP1 POP SWAP2 SWAP1 POP JUMP JUMPDEST PUSH1 0x0 PUSH1 0x20 DUP3 ADD SWAP1 POP DUP2 DUP2 SUB PUSH1 0x0 DUP4 ADD MSTORE PUSH2 0x2220 DUP2 PUSH2 0x21E4 JUMP JUMPDEST SWAP1 POP SWAP2 SWAP1 POP JUMP JUMPDEST PUSH32 0x506C6561736520666972737420636F6D706C65746520796F7572207072657669 PUSH1 0x0 DUP3 ADD MSTORE PUSH32 0x6F75732070726F6A656374730000000000000000000000000000000000000000 PUSH1 0x20 DUP3 ADD MSTORE POP JUMP JUMPDEST PUSH1 0x0 PUSH2 0x2283 PUSH1 0x2C DUP4 PUSH2 0x1A10 JUMP JUMPDEST SWAP2 POP PUSH2 0x228E DUP3 PUSH2 0x2227 JUMP JUMPDEST PUSH1 0x40 DUP3 ADD SWAP1 POP SWAP2 SWAP1 POP JUMP JUMPDEST PUSH1 0x0 PUSH1 0x20 DUP3 ADD SWAP1 POP DUP2 DUP2 SUB PUSH1 0x0 DUP4 ADD MSTORE PUSH2 0x22B2 DUP2 PUSH2 0x2276 JUMP JUMPDEST SWAP1 POP SWAP2 SWAP1 POP JUMP JUMPDEST PUSH32 0x546869732070726F6A65637420697320616C726561647920756E646572207072 PUSH1 0x0 DUP3 ADD MSTORE PUSH32 0x6F67726573730000000000000000000000000000000000000000000000000000 PUSH1 0x20 DUP3 ADD MSTORE POP JUMP JUMPDEST PUSH1 0x0 PUSH2 0x2315 PUSH1 0x26 DUP4 PUSH2 0x1A10 JUMP JUMPDEST SWAP2 POP PUSH2 0x2320 DUP3 PUSH2 0x22B9 JUMP JUMPDEST PUSH1 0x40 DUP3 ADD SWAP1 POP SWAP2 SWAP1 POP JUMP JUMPDEST PUSH1 0x0 PUSH1 0x20 DUP3 ADD SWAP1 POP DUP2 DUP2 SUB PUSH1 0x0 DUP4 ADD MSTORE PUSH2 0x2344 DUP2 PUSH2 0x2308 JUMP JUMPDEST SWAP1 POP SWAP2 SWAP1 POP JUMP JUMPDEST PUSH1 0x0 DUP2 SWAP1 POP DUP2 PUSH1 0x0 MSTORE PUSH1 0x20 PUSH1 0x0 KECCAK256 SWAP1 POP SWAP2 SWAP1 POP JUMP JUMPDEST PUSH1 0x0 PUSH1 0x20 PUSH1 0x1F DUP4 ADD DIV SWAP1 POP SWAP2 SWAP1 POP JUMP JUMPDEST PUSH1 0x0 DUP3 DUP3 SHL SWAP1 POP SWAP3 SWAP2 POP POP JUMP JUMPDEST PUSH1 0x0 PUSH1 0x8 DUP4 MUL PUSH2 0x23AD PUSH32 0xFFFFFFFFFFFFFFFFFFFFFFFFFFFFFFFFFFFFFFFFFFFFFFFFFFFFFFFFFFFFFFFF DUP3 PUSH2 0x2370 JUMP JUMPDEST PUSH2 0x23B7 DUP7 DUP4 PUSH2 0x2370 JUMP JUMPDEST SWAP6 POP DUP1 NOT DUP5 AND SWAP4 POP DUP1 DUP7 AND DUP5 OR SWAP3 POP POP POP SWAP4 SWAP3 POP POP POP JUMP JUMPDEST PUSH1 0x0 DUP2 SWAP1 POP SWAP2 SWAP1 POP JUMP JUMPDEST PUSH1 0x0 PUSH2 0x23F4 PUSH2 0x23EF PUSH2 0x23EA DUP5 PUSH2 0x1993 JUMP JUMPDEST PUSH2 0x23CF JUMP JUMPDEST PUSH2 0x1993 JUMP JUMPDEST SWAP1 POP SWAP2 SWAP1 POP JUMP JUMPDEST PUSH1 0x0 DUP2 SWAP1 POP SWAP2 SWAP1 POP JUMP JUMPDEST PUSH2 0x240E DUP4 PUSH2 0x23D9 JUMP JUMPDEST PUSH2 0x2422 PUSH2 0x241A DUP3 PUSH2 0x23FB JUMP JUMPDEST DUP5 DUP5 SLOAD PUSH2 0x237D JUMP JUMPDEST DUP3 SSTORE POP POP POP POP JUMP JUMPDEST PUSH1 0x0 SWAP1 JUMP JUMPDEST PUSH2 0x2437 PUSH2 0x242A JUMP JUMPDEST PUSH2 0x2442 DUP2 DUP5 DUP5 PUSH2 0x2405 JUMP JUMPDEST POP POP POP JUMP JUMPDEST JUMPDEST DUP2 DUP2 LT ISZERO PUSH2 0x2466 JUMPI PUSH2 0x245B PUSH1 0x0 DUP3 PUSH2 0x242F JUMP JUMPDEST PUSH1 0x1 DUP2 ADD SWAP1 POP PUSH2 0x2448 JUMP JUMPDEST POP POP JUMP JUMPDEST PUSH1 0x1F DUP3 GT ISZERO PUSH2 0x24AB JUMPI PUSH2 0x247C DUP2 PUSH2 0x234B JUMP JUMPDEST PUSH2 0x2485 DUP5 PUSH2 0x2360 JUMP JUMPDEST DUP2 ADD PUSH1 0x20 DUP6 LT ISZERO PUSH2 0x2494 JUMPI DUP2 SWAP1 POP JUMPDEST PUSH2 0x24A8 PUSH2 0x24A0 DUP6 PUSH2 0x2360 JUMP JUMPDEST DUP4 ADD DUP3 PUSH2 0x2447 JUMP JUMPDEST POP POP JUMPDEST POP POP POP JUMP JUMPDEST PUSH1 0x0 DUP3 DUP3 SHR SWAP1 POP SWAP3 SWAP2 POP POP JUMP JUMPDEST PUSH1 0x0 PUSH2 0x24CE PUSH1 0x0 NOT DUP5 PUSH1 0x8 MUL PUSH2 0x24B0 JUMP JUMPDEST NOT DUP1 DUP4 AND SWAP2 POP POP SWAP3 SWAP2 POP POP JUMP JUMPDEST PUSH1 0x0 PUSH2 0x24E7 DUP4 DUP4 PUSH2 0x24BD JUMP JUMPDEST SWAP2 POP DUP3 PUSH1 0x2 MUL DUP3 OR SWAP1 POP SWAP3 SWAP2 POP POP JUMP JUMPDEST PUSH2 0x2500 DUP3 PUSH2 0x1A05 JUMP JUMPDEST PUSH8 0xFFFFFFFFFFFFFFFF DUP2 GT ISZERO PUSH2 0x2519 JUMPI PUSH2 0x2518 PUSH2 0x1BAA JUMP JUMPDEST JUMPDEST PUSH2 0x2523 DUP3 SLOAD PUSH2 0x2164 JUMP JUMPDEST PUSH2 0x252E DUP3 DUP3 DUP6 PUSH2 0x246A JUMP JUMPDEST PUSH1 0x0 PUSH1 0x20 SWAP1 POP PUSH1 0x1F DUP4 GT PUSH1 0x1 DUP2 EQ PUSH2 0x2561 JUMPI PUSH1 0x0 DUP5 ISZERO PUSH2 0x254F JUMPI DUP3 DUP8 ADD MLOAD SWAP1 POP JUMPDEST PUSH2 0x2559 DUP6 DUP3 PUSH2 0x24DB JUMP JUMPDEST DUP7 SSTORE POP PUSH2 0x25C1 JUMP JUMPDEST PUSH1 0x1F NOT DUP5 AND PUSH2 0x256F DUP7 PUSH2 0x234B JUMP JUMPDEST PUSH1 0x0 JUMPDEST DUP3 DUP2 LT ISZERO PUSH2 0x2597 JUMPI DUP5 DUP10 ADD MLOAD DUP3 SSTORE PUSH1 0x1 DUP3 ADD SWAP2 POP PUSH1 0x20 DUP6 ADD SWAP5 POP PUSH1 0x20 DUP2 ADD SWAP1 POP PUSH2 0x2572 JUMP JUMPDEST DUP7 DUP4 LT ISZERO PUSH2 0x25B4 JUMPI DUP5 DUP10 ADD MLOAD PUSH2 0x25B0 PUSH1 0x1F DUP10 AND DUP3 PUSH2 0x24BD JUMP JUMPDEST DUP4 SSTORE POP JUMPDEST PUSH1 0x1 PUSH1 0x2 DUP9 MUL ADD DUP9 SSTORE POP POP POP JUMPDEST POP POP POP POP POP POP JUMP JUMPDEST PUSH1 0x0 DUP2 SWAP1 POP SWAP2 SWAP1 POP JUMP JUMPDEST PUSH1 0x0 PUSH2 0x25EE PUSH2 0x25E9 PUSH2 0x25E4 DUP5 PUSH2 0x25C9 JUMP JUMPDEST PUSH2 0x23CF JUMP JUMPDEST PUSH2 0x1993 JUMP JUMPDEST SWAP1 POP SWAP2 SWAP1 POP JUMP JUMPDEST PUSH2 0x25FE DUP2 PUSH2 0x25D3 JUMP JUMPDEST DUP3 MSTORE POP POP JUMP JUMPDEST PUSH1 0x0 PUSH2 0x120 DUP3 ADD SWAP1 POP PUSH2 0x261A PUSH1 0x0 DUP4 ADD DUP13 PUSH2 0x19F6 JUMP JUMPDEST DUP2 DUP2 SUB PUSH1 0x20 DUP4 ADD MSTORE PUSH2 0x262C DUP2 DUP12 PUSH2 0x1A5C JUMP JUMPDEST SWAP1 POP PUSH2 0x263B PUSH1 0x40 DUP4 ADD DUP11 PUSH2 0x1AC7 JUMP JUMPDEST PUSH2 0x2648 PUSH1 0x60 DUP4 ADD DUP10 PUSH2 0x19F6 JUMP JUMPDEST PUSH2 0x2655 PUSH1 0x80 DUP4 ADD DUP9 PUSH2 0x19F6 JUMP JUMPDEST PUSH2 0x2662 PUSH1 0xA0 DUP4 ADD DUP8 PUSH2 0x1AE2 JUMP JUMPDEST PUSH2 0x266F PUSH1 0xC0 DUP4 ADD DUP7 PUSH2 0x25F5 JUMP JUMPDEST PUSH2 0x267C PUSH1 0xE0 DUP4 ADD DUP6 PUSH2 0x1AE2 JUMP JUMPDEST PUSH2 0x268A PUSH2 0x100 DUP4 ADD DUP5 PUSH2 0x1AE2 JUMP JUMPDEST SWAP11 SWAP10 POP POP POP POP POP POP POP POP POP POP JUMP JUMPDEST PUSH32 0x4F6E6C792050726F6A656374206F776E65722063616E20616363657373207365 PUSH1 0x0 DUP3 ADD MSTORE PUSH32 0x6C65637465642070726F706F73616C2773206F776E6572000000000000000000 PUSH1 0x20 DUP3 ADD MSTORE POP JUMP JUMPDEST PUSH1 0x0 PUSH2 0x26F4 PUSH1 0x37 DUP4 PUSH2 0x1A10 JUMP JUMPDEST SWAP2 POP PUSH2 0x26FF DUP3 PUSH2 0x2698 JUMP JUMPDEST PUSH1 0x40 DUP3 ADD SWAP1 POP SWAP2 SWAP1 POP JUMP JUMPDEST PUSH1 0x0 PUSH1 0x20 DUP3 ADD SWAP1 POP DUP2 DUP2 SUB PUSH1 0x0 DUP4 ADD MSTORE PUSH2 0x2723 DUP2 PUSH2 0x26E7 JUMP JUMPDEST SWAP1 POP SWAP2 SWAP1 POP JUMP JUMPDEST PUSH32 0x4E487B7100000000000000000000000000000000000000000000000000000000 PUSH1 0x0 MSTORE PUSH1 0x32 PUSH1 0x4 MSTORE PUSH1 0x24 PUSH1 0x0 REVERT JUMPDEST PUSH32 0x4E487B7100000000000000000000000000000000000000000000000000000000 PUSH1 0x0 MSTORE PUSH1 0x11 PUSH1 0x4 MSTORE PUSH1 0x24 PUSH1 0x0 REVERT JUMPDEST PUSH1 0x0 PUSH2 0x2793 DUP3 PUSH2 0x1993 JUMP JUMPDEST SWAP2 POP PUSH32 0xFFFFFFFFFFFFFFFFFFFFFFFFFFFFFFFFFFFFFFFFFFFFFFFFFFFFFFFFFFFFFFFF DUP3 SUB PUSH2 0x27C5 JUMPI PUSH2 0x27C4 PUSH2 0x2759 JUMP JUMPDEST JUMPDEST PUSH1 0x1 DUP3 ADD SWAP1 POP SWAP2 SWAP1 POP JUMP JUMPDEST PUSH32 0x546869732050726F6A65637420497320416C726561647920436F6D706C657465 PUSH1 0x0 DUP3 ADD MSTORE PUSH32 0x6400000000000000000000000000000000000000000000000000000000000000 PUSH1 0x20 DUP3 ADD MSTORE POP JUMP JUMPDEST PUSH1 0x0 PUSH2 0x282C PUSH1 0x21 DUP4 PUSH2 0x1A10 JUMP JUMPDEST SWAP2 POP PUSH2 0x2837 DUP3 PUSH2 0x27D0 JUMP JUMPDEST PUSH1 0x40 DUP3 ADD SWAP1 POP SWAP2 SWAP1 POP JUMP JUMPDEST PUSH1 0x0 PUSH1 0x20 DUP3 ADD SWAP1 POP DUP2 DUP2 SUB PUSH1 0x0 DUP4 ADD MSTORE PUSH2 0x285B DUP2 PUSH2 0x281F JUMP JUMPDEST SWAP1 POP SWAP2 SWAP1 POP JUMP JUMPDEST PUSH32 0x596F7520417265204E6F7420417574686F72697A656420546F2046696E616C69 PUSH1 0x0 DUP3 ADD MSTORE PUSH32 0x7A6520546869732050726F6A6563740000000000000000000000000000000000 PUSH1 0x20 DUP3 ADD MSTORE POP JUMP JUMPDEST PUSH1 0x0 PUSH2 0x28BE PUSH1 0x2F DUP4 PUSH2 0x1A10 JUMP JUMPDEST SWAP2 POP PUSH2 0x28C9 DUP3 PUSH2 0x2862 JUMP JUMPDEST PUSH1 0x40 DUP3 ADD SWAP1 POP SWAP2 SWAP1 POP JUMP JUMPDEST PUSH1 0x0 PUSH1 0x20 DUP3 ADD SWAP1 POP DUP2 DUP2 SUB PUSH1 0x0 DUP4 ADD MSTORE PUSH2 0x28ED DUP2 PUSH2 0x28B1 JUMP JUMPDEST SWAP1 POP SWAP2 SWAP1 POP JUMP JUMPDEST PUSH32 0x50726F6A656374206973206E6F742079657420636F6D706C6574656400000000 PUSH1 0x0 DUP3 ADD MSTORE POP JUMP JUMPDEST PUSH1 0x0 PUSH2 0x292A PUSH1 0x1C DUP4 PUSH2 0x1A10 JUMP JUMPDEST SWAP2 POP PUSH2 0x2935 DUP3 PUSH2 0x28F4 JUMP JUMPDEST PUSH1 0x20 DUP3 ADD SWAP1 POP SWAP2 SWAP1 POP JUMP JUMPDEST PUSH1 0x0 PUSH1 0x20 DUP3 ADD SWAP1 POP DUP2 DUP2 SUB PUSH1 0x0 DUP4 ADD MSTORE PUSH2 0x2959 DUP2 PUSH2 0x291D JUMP JUMPDEST SWAP1 POP SWAP2 SWAP1 POP JUMP JUMPDEST PUSH32 0x546869732050726F6A656374204973204E6F742059657420417070726F766564 PUSH1 0x0 DUP3 ADD MSTORE POP JUMP JUMPDEST PUSH1 0x0 PUSH2 0x2996 PUSH1 0x20 DUP4 PUSH2 0x1A10 JUMP JUMPDEST SWAP2 POP PUSH2 0x29A1 DUP3 PUSH2 0x2960 JUMP JUMPDEST PUSH1 0x20 DUP3 ADD SWAP1 POP SWAP2 SWAP1 POP JUMP JUMPDEST PUSH1 0x0 PUSH1 0x20 DUP3 ADD SWAP1 POP DUP2 DUP2 SUB PUSH1 0x0 DUP4 ADD MSTORE PUSH2 0x29C5 DUP2 PUSH2 0x2989 JUMP JUMPDEST SWAP1 POP SWAP2 SWAP1 POP JUMP JUMPDEST PUSH1 0x0 PUSH2 0x29D7 DUP3 PUSH2 0x1993 JUMP JUMPDEST SWAP2 POP PUSH2 0x29E2 DUP4 PUSH2 0x1993 JUMP JUMPDEST SWAP3 POP DUP3 DUP3 SUB SWAP1 POP DUP2 DUP2 GT ISZERO PUSH2 0x29FA JUMPI PUSH2 0x29F9 PUSH2 0x2759 JUMP JUMPDEST JUMPDEST SWAP3 SWAP2 POP POP JUMP JUMPDEST PUSH32 0x4F6E6C792050726F6A656374204F776E65722043616E2043616C6C2054686973 PUSH1 0x0 DUP3 ADD MSTORE PUSH32 0x2046756E6374696F6E0000000000000000000000000000000000000000000000 PUSH1 0x20 DUP3 ADD MSTORE POP JUMP JUMPDEST PUSH1 0x0 PUSH2 0x2A5C PUSH1 0x29 DUP4 PUSH2 0x1A10 JUMP JUMPDEST SWAP2 POP PUSH2 0x2A67 DUP3 PUSH2 0x2A00 JUMP JUMPDEST PUSH1 0x40 DUP3 ADD SWAP1 POP SWAP2 SWAP1 POP JUMP JUMPDEST PUSH1 0x0 PUSH1 0x20 DUP3 ADD SWAP1 POP DUP2 DUP2 SUB PUSH1 0x0 DUP4 ADD MSTORE PUSH2 0x2A8B DUP2 PUSH2 0x2A4F JUMP JUMPDEST SWAP1 POP SWAP2 SWAP1 POP JUMP JUMPDEST PUSH32 0x546869732050726F6A65637420497320416C726561647920417070726F766564 PUSH1 0x0 DUP3 ADD MSTORE PUSH32 0x20546F20536F6D656F6E6520656C736500000000000000000000000000000000 PUSH1 0x20 DUP3 ADD MSTORE POP JUMP JUMPDEST PUSH1 0x0 PUSH2 0x2AEE PUSH1 0x30 DUP4 PUSH2 0x1A10 JUMP JUMPDEST SWAP2 POP PUSH2 0x2AF9 DUP3 PUSH2 0x2A92 JUMP JUMPDEST PUSH1 0x40 DUP3 ADD SWAP1 POP SWAP2 SWAP1 POP JUMP JUMPDEST PUSH1 0x0 PUSH1 0x20 DUP3 ADD SWAP1 POP DUP2 DUP2 SUB PUSH1 0x0 DUP4 ADD MSTORE PUSH2 0x2B1D DUP2 PUSH2 0x2AE1 JUMP JUMPDEST SWAP1 POP SWAP2 SWAP1 POP JUMP JUMPDEST PUSH32 0x4F6E6C792050726F6A656374204F776E65722043616E204170726F7665205468 PUSH1 0x0 DUP3 ADD MSTORE PUSH32 0x652050726F706F73616C73000000000000000000000000000000000000000000 PUSH1 0x20 DUP3 ADD MSTORE POP JUMP JUMPDEST PUSH1 0x0 PUSH2 0x2B80 PUSH1 0x2B DUP4 PUSH2 0x1A10 JUMP JUMPDEST SWAP2 POP PUSH2 0x2B8B DUP3 PUSH2 0x2B24 JUMP JUMPDEST PUSH1 0x40 DUP3 ADD SWAP1 POP SWAP2 SWAP1 POP JUMP JUMPDEST PUSH1 0x0 PUSH1 0x20 DUP3 ADD SWAP1 POP DUP2 DUP2 SUB PUSH1 0x0 DUP4 ADD MSTORE PUSH2 0x2BAF DUP2 PUSH2 0x2B73 JUMP JUMPDEST SWAP1 POP SWAP2 SWAP1 POP JUMP JUMPDEST PUSH32 0x546869732050726F6A65637420497320416C726561647920436F6D706C657465 PUSH1 0x0 DUP3 ADD MSTORE PUSH32 0x6420596F752043616E6E6F74204D616B6520416E796D6F726520417070726F76 PUSH1 0x20 DUP3 ADD MSTORE PUSH32 0x616C730000000000000000000000000000000000000000000000000000000000 PUSH1 0x40 DUP3 ADD MSTORE POP JUMP JUMPDEST PUSH1 0x0 PUSH2 0x2C38 PUSH1 0x43 DUP4 PUSH2 0x1A10 JUMP JUMPDEST SWAP2 POP PUSH2 0x2C43 DUP3 PUSH2 0x2BB6 JUMP JUMPDEST PUSH1 0x60 DUP3 ADD SWAP1 POP SWAP2 SWAP1 POP JUMP JUMPDEST PUSH1 0x0 PUSH1 0x20 DUP3 ADD SWAP1 POP DUP2 DUP2 SUB PUSH1 0x0 DUP4 ADD MSTORE PUSH2 0x2C67 DUP2 PUSH2 0x2C2B JUMP JUMPDEST SWAP1 POP SWAP2 SWAP1 POP JUMP JUMPDEST PUSH1 0x0 DUP2 SLOAD SWAP1 POP PUSH2 0x2C7D DUP2 PUSH2 0x2164 JUMP JUMPDEST SWAP1 POP SWAP2 SWAP1 POP JUMP JUMPDEST DUP2 DUP2 SUB PUSH2 0x2C92 JUMPI POP POP PUSH2 0x2D6A JUMP JUMPDEST PUSH2 0x2C9B DUP3 PUSH2 0x2C6E JUMP JUMPDEST PUSH8 0xFFFFFFFFFFFFFFFF DUP2 GT ISZERO PUSH2 0x2CB4 JUMPI PUSH2 0x2CB3 PUSH2 0x1BAA JUMP JUMPDEST JUMPDEST PUSH2 0x2CBE DUP3 SLOAD PUSH2 0x2164 JUMP JUMPDEST PUSH2 0x2CC9 DUP3 DUP3 DUP6 PUSH2 0x246A JUMP JUMPDEST PUSH1 0x0 PUSH1 0x1F DUP4 GT PUSH1 0x1 DUP2 EQ PUSH2 0x2CF8 JUMPI PUSH1 0x0 DUP5 ISZERO PUSH2 0x2CE6 JUMPI DUP3 DUP8 ADD SLOAD SWAP1 POP JUMPDEST PUSH2 0x2CF0 DUP6 DUP3 PUSH2 0x24DB JUMP JUMPDEST DUP7 SSTORE POP PUSH2 0x2D63 JUMP JUMPDEST PUSH1 0x1F NOT DUP5 AND PUSH2 0x2D06 DUP8 PUSH2 0x234B JUMP JUMPDEST SWAP7 POP PUSH2 0x2D11 DUP7 PUSH2 0x234B JUMP JUMPDEST PUSH1 0x0 JUMPDEST DUP3 DUP2 LT ISZERO PUSH2 0x2D39 JUMPI DUP5 DUP10 ADD SLOAD DUP3 SSTORE PUSH1 0x1 DUP3 ADD SWAP2 POP PUSH1 0x1 DUP6 ADD SWAP5 POP PUSH1 0x20 DUP2 ADD SWAP1 POP PUSH2 0x2D14 JUMP JUMPDEST DUP7 DUP4 LT ISZERO PUSH2 0x2D56 JUMPI DUP5 DUP10 ADD SLOAD PUSH2 0x2D52 PUSH1 0x1F DUP10 AND DUP3 PUSH2 0x24BD JUMP JUMPDEST DUP4 SSTORE POP JUMPDEST PUSH1 0x1 PUSH1 0x2 DUP9 MUL ADD DUP9 SSTORE POP POP POP JUMPDEST POP POP POP POP POP POP JUMPDEST JUMP JUMPDEST PUSH32 0x596F757220636F61746174696F6E206973206E6F742079657420617070726F76 PUSH1 0x0 DUP3 ADD MSTORE PUSH32 0x6564000000000000000000000000000000000000000000000000000000000000 PUSH1 0x20 DUP3 ADD MSTORE POP JUMP JUMPDEST PUSH1 0x0 PUSH2 0x2DC8 PUSH1 0x22 DUP4 PUSH2 0x1A10 JUMP JUMPDEST SWAP2 POP PUSH2 0x2DD3 DUP3 PUSH2 0x2D6C JUMP JUMPDEST PUSH1 0x40 DUP3 ADD SWAP1 POP SWAP2 SWAP1 POP JUMP JUMPDEST PUSH1 0x0 PUSH1 0x20 DUP3 ADD SWAP1 POP DUP2 DUP2 SUB PUSH1 0x0 DUP4 ADD MSTORE PUSH2 0x2DF7 DUP2 PUSH2 0x2DBB JUMP JUMPDEST SWAP1 POP SWAP2 SWAP1 POP JUMP JUMPDEST PUSH32 0x4F6E6C792070726F706F73616C206F776E65722063616E206D61726B2070726F PUSH1 0x0 DUP3 ADD MSTORE PUSH32 0x6A65637420617320636F6D706C65746500000000000000000000000000000000 PUSH1 0x20 DUP3 ADD MSTORE POP JUMP JUMPDEST PUSH1 0x0 PUSH2 0x2E5A PUSH1 0x30 DUP4 PUSH2 0x1A10 JUMP JUMPDEST SWAP2 POP PUSH2 0x2E65 DUP3 PUSH2 0x2DFE JUMP JUMPDEST PUSH1 0x40 DUP3 ADD SWAP1 POP SWAP2 SWAP1 POP JUMP JUMPDEST PUSH1 0x0 PUSH1 0x20 DUP3 ADD SWAP1 POP DUP2 DUP2 SUB PUSH1 0x0 DUP4 ADD MSTORE PUSH2 0x2E89 DUP2 PUSH2 0x2E4D JUMP JUMPDEST SWAP1 POP SWAP2 SWAP1 POP JUMP JUMPDEST PUSH32 0x596F75206861766520616C7265616479206D61726B656420746869732070726F PUSH1 0x0 DUP3 ADD MSTORE PUSH32 0x6A65637420617320636F6D706C65746500000000000000000000000000000000 PUSH1 0x20 DUP3 ADD MSTORE POP JUMP JUMPDEST PUSH1 0x0 PUSH2 0x2EEC PUSH1 0x30 DUP4 PUSH2 0x1A10 JUMP JUMPDEST SWAP2 POP PUSH2 0x2EF7 DUP3 PUSH2 0x2E90 JUMP JUMPDEST PUSH1 0x40 DUP3 ADD SWAP1 POP SWAP2 SWAP1 POP JUMP JUMPDEST PUSH1 0x0 PUSH1 0x20 DUP3 ADD SWAP1 POP DUP2 DUP2 SUB PUSH1 0x0 DUP4 ADD MSTORE PUSH2 0x2F1B DUP2 PUSH2 0x2EDF JUMP JUMPDEST SWAP1 POP SWAP2 SWAP1 POP JUMP INVALID LOG2 PUSH5 0x6970667358 0x22 SLT KECCAK256 SHR PUSH19 0x2F44FB416690EEE8530FB5A351706665F941FA MOD 0xCF CREATE2 0xED PUSH24 0x614563200E5664736F6C63430008110033A2646970667358 0x22 SLT KECCAK256 SWAP13 0xB2 PUSH27 0xECAA84B1B6A8B91CE7E3A136E48DC87CF75940FDDC991151A81009 MSTORE8 0x5D PUSH5 0x736F6C6343 STOP ADDMOD GT STOP CALLER "},"methodIdentifiers":{"admin()":"f851a440","createProject(string,string,string,string,string,uint256,uint256)":"a7ee42de","extendDeadline(uint256,uint256)":"2d1fdef6","getAllProjects()":"80d03829","getBalance()":"12065fe0","getProjectbyId(uint256)":"97c414c1","getProjectsByOwner()":"4aae5f4d","projectOwner(address,uint256)":"d61bb76a"}}}}}