{"contracts/ProjectFactory.sol":{"ProjectFactory":{"abi":[{"inputs":[],"stateMutability":"nonpayable","type":"constructor"},{"anonymous":false,"inputs":[{"indexed":false,"internalType":"uint256","name":"id","type":"uint256"},{"indexed":false,"internalType":"string","name":"title","type":"string"},{"indexed":false,"internalType":"string","name":"short_description","type":"string"},{"indexed":false,"internalType":"string","name":"description","type":"string"},{"indexed":false,"internalType":"string","name":"pdf","type":"string"},{"indexed":false,"internalType":"string","name":"images","type":"string"},{"indexed":false,"internalType":"uint256","name":"budget","type":"uint256"},{"indexed":false,"internalType":"uint256","name":"time","type":"uint256"},{"indexed":false,"internalType":"uint256","name":"deadLine","type":"uint256"},{"indexed":false,"internalType":"address payable","name":"owner","type":"address"},{"indexed":false,"internalType":"contract Project","name":"project","type":"address"}],"name":"ProjectCreated","type":"event"},{"inputs":[],"name":"admin","outputs":[{"internalType":"address payable","name":"","type":"address"}],"stateMutability":"view","type":"function"},{"inputs":[{"internalType":"string","name":"_title","type":"string"},{"internalType":"string","name":"_short_description","type":"string"},{"internalType":"string","name":"_description","type":"string"},{"internalType":"string","name":"_pdf","type":"string"},{"internalType":"string","name":"_images","type":"string"},{"internalType":"uint256","name":"_budget","type":"uint256"},{"internalType":"uint256","name":"_deadline","type":"uint256"}],"name":"createProject","outputs":[],"stateMutability":"payable","type":"function"},{"inputs":[{"internalType":"uint256","name":"project_id","type":"uint256"},{"internalType":"uint256","name":"new_deadline","type":"uint256"}],"name":"extendDeadline","outputs":[],"stateMutability":"nonpayable","type":"function"},{"inputs":[],"name":"getAllProjects","outputs":[{"components":[{"internalType":"uint256","name":"id","type":"uint256"},{"internalType":"string","name":"title","type":"string"},{"internalType":"string","name":"short_description","type":"string"},{"internalType":"string","name":"description","type":"string"},{"internalType":"string","name":"pdf","type":"string"},{"internalType":"string","name":"images","type":"string"},{"internalType":"uint256","name":"budget","type":"uint256"},{"internalType":"uint256","name":"time","type":"uint256"},{"internalType":"uint256","name":"deadLine","type":"uint256"},{"internalType":"address payable","name":"owner","type":"address"},{"internalType":"contract Project","name":"project","type":"address"}],"internalType":"struct ProjectFactory.ProjectInfo[]","name":"","type":"tuple[]"}],"stateMutability":"view","type":"function"},{"inputs":[],"name":"getBalance","outputs":[{"internalType":"uint256","name":"","type":"uint256"}],"stateMutability":"view","type":"function"},{"inputs":[],"name":"getLatestPriceMatic","outputs":[{"internalType":"int256","name":"","type":"int256"}],"stateMutability":"view","type":"function"},{"inputs":[{"internalType":"uint256","name":"_id","type":"uint256"}],"name":"getProjectbyId","outputs":[{"components":[{"internalType":"uint256","name":"id","type":"uint256"},{"internalType":"string","name":"title","type":"string"},{"internalType":"string","name":"short_description","type":"string"},{"internalType":"string","name":"description","type":"string"},{"internalType":"string","name":"pdf","type":"string"},{"internalType":"string","name":"images","type":"string"},{"internalType":"uint256","name":"budget","type":"uint256"},{"internalType":"uint256","name":"time","type":"uint256"},{"internalType":"uint256","name":"deadLine","type":"uint256"},{"internalType":"address payable","name":"owner","type":"address"},{"internalType":"contract Project","name":"project","type":"address"}],"internalType":"struct ProjectFactory.ProjectInfo","name":"","type":"tuple"}],"stateMutability":"view","type":"function"},{"inputs":[],"name":"getProjectsByOwner","outputs":[{"components":[{"internalType":"uint256","name":"id","type":"uint256"},{"internalType":"string","name":"title","type":"string"},{"internalType":"string","name":"short_description","type":"string"},{"internalType":"string","name":"description","type":"string"},{"internalType":"string","name":"pdf","type":"string"},{"internalType":"string","name":"images","type":"string"},{"internalType":"uint256","name":"budget","type":"uint256"},{"internalType":"uint256","name":"time","type":"uint256"},{"internalType":"uint256","name":"deadLine","type":"uint256"},{"internalType":"address payable","name":"owner","type":"address"},{"internalType":"contract Project","name":"project","type":"address"}],"internalType":"struct ProjectFactory.ProjectInfo[]","name":"","type":"tuple[]"}],"stateMutability":"view","type":"function"},{"inputs":[{"internalType":"address","name":"","type":"address"},{"internalType":"uint256","name":"","type":"uint256"}],"name":"projectOwner","outputs":[{"internalType":"uint256","name":"id","type":"uint256"},{"internalType":"string","name":"title","type":"string"},{"internalType":"string","name":"short_description","type":"string"},{"internalType":"string","name":"description","type":"string"},{"internalType":"string","name":"pdf","type":"string"},{"internalType":"string","name":"images","type":"string"},{"internalType":"uint256","name":"budget","type":"uint256"},{"internalType":"uint256","name":"time","type":"uint256"},{"internalType":"uint256","name":"deadLine","type":"uint256"},{"internalType":"address payable","name":"owner","type":"address"},{"internalType":"contract Project","name":"project","type":"address"}],"stateMutability":"view","type":"function"},{"stateMutability":"payable","type":"receive"}],"evm":{"bytecode":{"linkReferences":{},"object":"608060405234801561001057600080fd5b5033600160006101000a81548173ffffffffffffffffffffffffffffffffffffffff021916908373ffffffffffffffffffffffffffffffffffffffff16021790555073d0d5e3db44de05e9f294bb0a3beeaf030de24ada600260006101000a81548173ffffffffffffffffffffffffffffffffffffffff021916908373ffffffffffffffffffffffffffffffffffffffff160217905550615d7d806100b66000396000f3fe608060405260043610620000975760003560e01c806397c414c1116200006157806397c414c11462000162578063a7ee42de14620001a6578063c7a1350414620001c6578063d61bb76a14620001f6578063f851a4401462000244576200009f565b806312065fe014620000a45780632d1fdef614620000d45780634aae5f4d146200010257806380d038291462000132576200009f565b366200009f57005b600080fd5b348015620000b157600080fd5b50620000bc62000274565b604051620000cb9190620019ac565b60405180910390f35b348015620000e157600080fd5b50620001006004803603810190620000fa919062001a0e565b6200027c565b005b3480156200010f57600080fd5b506200011a6200037f565b60405162000129919062001da1565b60405180910390f35b3480156200013f57600080fd5b506200014a620008a6565b60405162000159919062001da1565b60405180910390f35b3480156200016f57600080fd5b506200018e600480360381019062000188919062001dc5565b62000d70565b6040516200019d919062001f18565b60405180910390f35b620001c46004803603810190620001be91906200208d565b6200117c565b005b348015620001d357600080fd5b50620001de62001483565b604051620001ed9190620021f6565b60405180910390f35b3480156200020357600080fd5b506200022260048036038101906200021c919062002258565b6200153c565b6040516200023b9b9a9998979695949392919062002313565b60405180910390f35b3480156200025157600080fd5b506200025c620018b3565b6040516200026b9190620023f7565b60405180910390f35b600047905090565b60006003600084815260200190815260200160002090508060090160009054906101000a900473ffffffffffffffffffffffffffffffffffffffff1673ffffffffffffffffffffffffffffffffffffffff163373ffffffffffffffffffffffffffffffffffffffff161462000328576040517f08c379a00000000000000000000000000000000000000000000000000000000081526004016200031f906200248a565b60405180910390fd5b8060080154821162000371576040517f08c379a0000000000000000000000000000000000000000000000000000000008152600401620003689062002522565b60405180910390fd5b818160080181905550505050565b606060006200038f6000620018d9565b905060008167ffffffffffffffff811115620003b057620003af62001f46565b5b604051908082528060200260200182016040528015620003ed57816020015b620003d9620018fd565b815260200190600190039081620003cf5790505b509050600080600090505b838110156200089c5760006003600083815260200190815260200160002090503373ffffffffffffffffffffffffffffffffffffffff168160090160009054906101000a900473ffffffffffffffffffffffffffffffffffffffff1673ffffffffffffffffffffffffffffffffffffffff16036200088557806040518061016001604052908160008201548152602001600182018054620004999062002573565b80601f0160208091040260200160405190810160405280929190818152602001828054620004c79062002573565b8015620005185780601f10620004ec5761010080835404028352916020019162000518565b820191906000526020600020905b815481529060010190602001808311620004fa57829003601f168201915b50505050508152602001600282018054620005339062002573565b80601f0160208091040260200160405190810160405280929190818152602001828054620005619062002573565b8015620005b25780601f106200058657610100808354040283529160200191620005b2565b820191906000526020600020905b8154815290600101906020018083116200059457829003601f168201915b50505050508152602001600382018054620005cd9062002573565b80601f0160208091040260200160405190810160405280929190818152602001828054620005fb9062002573565b80156200064c5780601f1062000620576101008083540402835291602001916200064c565b820191906000526020600020905b8154815290600101906020018083116200062e57829003601f168201915b50505050508152602001600482018054620006679062002573565b80601f0160208091040260200160405190810160405280929190818152602001828054620006959062002573565b8015620006e65780601f10620006ba57610100808354040283529160200191620006e6565b820191906000526020600020905b815481529060010190602001808311620006c857829003601f168201915b50505050508152602001600582018054620007019062002573565b80601f01602080910402602001604051908101604052809291908181526020018280546200072f9062002573565b8015620007805780601f10620007545761010080835404028352916020019162000780565b820191906000526020600020905b8154815290600101906020018083116200076257829003601f168201915b505050505081526020016006820154815260200160078201548152602001600882015481526020016009820160009054906101000a900473ffffffffffffffffffffffffffffffffffffffff1673ffffffffffffffffffffffffffffffffffffffff1673ffffffffffffffffffffffffffffffffffffffff168152602001600a820160009054906101000a900473ffffffffffffffffffffffffffffffffffffffff1673ffffffffffffffffffffffffffffffffffffffff1673ffffffffffffffffffffffffffffffffffffffff1681525050848481518110620008695762000868620025a8565b5b60200260200101819052508280620008819062002606565b9350505b508080620008939062002606565b915050620003f8565b5081935050505090565b60606000620008b66000620018d9565b90506000808267ffffffffffffffff811115620008d857620008d762001f46565b5b6040519080825280602002602001820160405280156200091557816020015b62000901620018fd565b815260200190600190039081620008f75790505b50905060005b8381101562000d66576000600360008381526020019081526020016000206040518061016001604052908160008201548152602001600182018054620009619062002573565b80601f01602080910402602001604051908101604052809291908181526020018280546200098f9062002573565b8015620009e05780601f10620009b457610100808354040283529160200191620009e0565b820191906000526020600020905b815481529060010190602001808311620009c257829003601f168201915b50505050508152602001600282018054620009fb9062002573565b80601f016020809104026020016040519081016040528092919081815260200182805462000a299062002573565b801562000a7a5780601f1062000a4e5761010080835404028352916020019162000a7a565b820191906000526020600020905b81548152906001019060200180831162000a5c57829003601f168201915b5050505050815260200160038201805462000a959062002573565b80601f016020809104026020016040519081016040528092919081815260200182805462000ac39062002573565b801562000b145780601f1062000ae85761010080835404028352916020019162000b14565b820191906000526020600020905b81548152906001019060200180831162000af657829003601f168201915b5050505050815260200160048201805462000b2f9062002573565b80601f016020809104026020016040519081016040528092919081815260200182805462000b5d9062002573565b801562000bae5780601f1062000b825761010080835404028352916020019162000bae565b820191906000526020600020905b81548152906001019060200180831162000b9057829003601f168201915b5050505050815260200160058201805462000bc99062002573565b80601f016020809104026020016040519081016040528092919081815260200182805462000bf79062002573565b801562000c485780601f1062000c1c5761010080835404028352916020019162000c48565b820191906000526020600020905b81548152906001019060200180831162000c2a57829003601f168201915b505050505081526020016006820154815260200160078201548152602001600882015481526020016009820160009054906101000a900473ffffffffffffffffffffffffffffffffffffffff1673ffffffffffffffffffffffffffffffffffffffff1673ffffffffffffffffffffffffffffffffffffffff168152602001600a820160009054906101000a900473ffffffffffffffffffffffffffffffffffffffff1673ffffffffffffffffffffffffffffffffffffffff1673ffffffffffffffffffffffffffffffffffffffff168152505090508083858151811062000d345762000d33620025a8565b5b6020026020010181905250838062000d4c9062002606565b94505050808062000d5d9062002606565b9150506200091b565b5080935050505090565b62000d7a620018fd565b600060036000848152602001908152602001600020604051806101600160405290816000820154815260200160018201805462000db79062002573565b80601f016020809104026020016040519081016040528092919081815260200182805462000de59062002573565b801562000e365780601f1062000e0a5761010080835404028352916020019162000e36565b820191906000526020600020905b81548152906001019060200180831162000e1857829003601f168201915b5050505050815260200160028201805462000e519062002573565b80601f016020809104026020016040519081016040528092919081815260200182805462000e7f9062002573565b801562000ed05780601f1062000ea45761010080835404028352916020019162000ed0565b820191906000526020600020905b81548152906001019060200180831162000eb257829003601f168201915b5050505050815260200160038201805462000eeb9062002573565b80601f016020809104026020016040519081016040528092919081815260200182805462000f199062002573565b801562000f6a5780601f1062000f3e5761010080835404028352916020019162000f6a565b820191906000526020600020905b81548152906001019060200180831162000f4c57829003601f168201915b5050505050815260200160048201805462000f859062002573565b80601f016020809104026020016040519081016040528092919081815260200182805462000fb39062002573565b8015620010045780601f1062000fd85761010080835404028352916020019162001004565b820191906000526020600020905b81548152906001019060200180831162000fe657829003601f168201915b505050505081526020016005820180546200101f9062002573565b80601f01602080910402602001604051908101604052809291908181526020018280546200104d9062002573565b80156200109e5780601f1062001072576101008083540402835291602001916200109e565b820191906000526020600020905b8154815290600101906020018083116200108057829003601f168201915b505050505081526020016006820154815260200160078201548152602001600882015481526020016009820160009054906101000a900473ffffffffffffffffffffffffffffffffffffffff1673ffffffffffffffffffffffffffffffffffffffff1673ffffffffffffffffffffffffffffffffffffffff168152602001600a820160009054906101000a900473ffffffffffffffffffffffffffffffffffffffff1673ffffffffffffffffffffffffffffffffffffffff1673ffffffffffffffffffffffffffffffffffffffff1681525050905080915050919050565b813414620011c1576040517f08c379a0000000000000000000000000000000000000000000000000000000008152600401620011b890620026c9565b60405180910390fd5b6000620011cf6000620018d9565b90506000338385604051620011e49062001983565b620011f293929190620026eb565b604051809103906000f0801580156200120f573d6000803e3d6000fd5b50905060006040518061016001604052808481526020018b81526020018a81526020018981526020018881526020018781526020018681526020014281526020018581526020013373ffffffffffffffffffffffffffffffffffffffff1681526020018373ffffffffffffffffffffffffffffffffffffffff1681525090508060036000858152602001908152602001600020600082015181600001556020820151816001019081620012c39190620028f0565b506040820151816002019081620012db9190620028f0565b506060820151816003019081620012f39190620028f0565b5060808201518160040190816200130b9190620028f0565b5060a0820151816005019081620013239190620028f0565b5060c0820151816006015560e0820151816007015561010082015181600801556101208201518160090160006101000a81548173ffffffffffffffffffffffffffffffffffffffff021916908373ffffffffffffffffffffffffffffffffffffffff16021790555061014082015181600a0160006101000a81548173ffffffffffffffffffffffffffffffffffffffff021916908373ffffffffffffffffffffffffffffffffffffffff160217905550905050620013e26000620018e7565b8173ffffffffffffffffffffffffffffffffffffffff166108fc349081150290604051600060405180830381858888f1935050505015801562001429573d6000803e3d6000fd5b507f71118d02c87017cad0298c6ece1cda0b1bcdb0a412b2a819038f352216c400e3838b8b8b8b8b8b428c338c6040516200146f9b9a9998979695949392919062002313565b60405180910390a150505050505050505050565b600080600260009054906101000a900473ffffffffffffffffffffffffffffffffffffffff1673ffffffffffffffffffffffffffffffffffffffff1663feaf968c6040518163ffffffff1660e01b815260040160a060405180830381865afa158015620014f4573d6000803e3d6000fd5b505050506040513d601f19601f820116820180604052508101906200151a919062002a66565b505050915050670de0b6b3a76400008162001536919062002b1d565b91505090565b600460205281600052604060002060205280600052604060002060009150915050806000015490806001018054620015749062002573565b80601f0160208091040260200160405190810160405280929190818152602001828054620015a29062002573565b8015620015f35780601f10620015c757610100808354040283529160200191620015f3565b820191906000526020600020905b815481529060010190602001808311620015d557829003601f168201915b5050505050908060020180546200160a9062002573565b80601f0160208091040260200160405190810160405280929190818152602001828054620016389062002573565b8015620016895780601f106200165d5761010080835404028352916020019162001689565b820191906000526020600020905b8154815290600101906020018083116200166b57829003601f168201915b505050505090806003018054620016a09062002573565b80601f0160208091040260200160405190810160405280929190818152602001828054620016ce9062002573565b80156200171f5780601f10620016f3576101008083540402835291602001916200171f565b820191906000526020600020905b8154815290600101906020018083116200170157829003601f168201915b505050505090806004018054620017369062002573565b80601f0160208091040260200160405190810160405280929190818152602001828054620017649062002573565b8015620017b55780601f106200178957610100808354040283529160200191620017b5565b820191906000526020600020905b8154815290600101906020018083116200179757829003601f168201915b505050505090806005018054620017cc9062002573565b80601f0160208091040260200160405190810160405280929190818152602001828054620017fa9062002573565b80156200184b5780601f106200181f576101008083540402835291602001916200184b565b820191906000526020600020905b8154815290600101906020018083116200182d57829003601f168201915b5050505050908060060154908060070154908060080154908060090160009054906101000a900473ffffffffffffffffffffffffffffffffffffffff169080600a0160009054906101000a900473ffffffffffffffffffffffffffffffffffffffff1690508b565b600160009054906101000a900473ffffffffffffffffffffffffffffffffffffffff1681565b600081600001549050919050565b6001816000016000828254019250508190555050565b604051806101600160405280600081526020016060815260200160608152602001606081526020016060815260200160608152602001600081526020016000815260200160008152602001600073ffffffffffffffffffffffffffffffffffffffff168152602001600073ffffffffffffffffffffffffffffffffffffffff1681525090565b6131b68062002b9283390190565b6000819050919050565b620019a68162001991565b82525050565b6000602082019050620019c360008301846200199b565b92915050565b6000604051905090565b600080fd5b600080fd5b620019e88162001991565b8114620019f457600080fd5b50565b60008135905062001a0881620019dd565b92915050565b6000806040838503121562001a285762001a27620019d3565b5b600062001a3885828601620019f7565b925050602062001a4b85828601620019f7565b9150509250929050565b600081519050919050565b600082825260208201905092915050565b6000819050602082019050919050565b62001a8c8162001991565b82525050565b600081519050919050565b600082825260208201905092915050565b60005b8381101562001ace57808201518184015260208101905062001ab1565b60008484015250505050565b6000601f19601f8301169050919050565b600062001af88262001a92565b62001b04818562001a9d565b935062001b1681856020860162001aae565b62001b218162001ada565b840191505092915050565b600073ffffffffffffffffffffffffffffffffffffffff82169050919050565b600062001b598262001b2c565b9050919050565b62001b6b8162001b4c565b82525050565b6000819050919050565b600062001b9c62001b9662001b908462001b2c565b62001b71565b62001b2c565b9050919050565b600062001bb08262001b7b565b9050919050565b600062001bc48262001ba3565b9050919050565b62001bd68162001bb7565b82525050565b60006101608301600083015162001bf7600086018262001a81565b506020830151848203602086015262001c11828262001aeb565b9150506040830151848203604086015262001c2d828262001aeb565b9150506060830151848203606086015262001c49828262001aeb565b9150506080830151848203608086015262001c65828262001aeb565b91505060a083015184820360a086015262001c81828262001aeb565b91505060c083015162001c9860c086018262001a81565b5060e083015162001cad60e086018262001a81565b5061010083015162001cc461010086018262001a81565b5061012083015162001cdb61012086018262001b60565b5061014083015162001cf261014086018262001bcb565b508091505092915050565b600062001d0b838362001bdc565b905092915050565b6000602082019050919050565b600062001d2d8262001a55565b62001d39818562001a60565b93508360208202850162001d4d8562001a71565b8060005b8581101562001d8f578484038952815162001d6d858262001cfd565b945062001d7a8362001d13565b925060208a0199505060018101905062001d51565b50829750879550505050505092915050565b6000602082019050818103600083015262001dbd818462001d20565b905092915050565b60006020828403121562001dde5762001ddd620019d3565b5b600062001dee84828501620019f7565b91505092915050565b60006101608301600083015162001e12600086018262001a81565b506020830151848203602086015262001e2c828262001aeb565b9150506040830151848203604086015262001e48828262001aeb565b9150506060830151848203606086015262001e64828262001aeb565b9150506080830151848203608086015262001e80828262001aeb565b91505060a083015184820360a086015262001e9c828262001aeb565b91505060c083015162001eb360c086018262001a81565b5060e083015162001ec860e086018262001a81565b5061010083015162001edf61010086018262001a81565b5061012083015162001ef661012086018262001b60565b5061014083015162001f0d61014086018262001bcb565b508091505092915050565b6000602082019050818103600083015262001f34818462001df7565b905092915050565b600080fd5b600080fd5b7f4e487b7100000000000000000000000000000000000000000000000000000000600052604160045260246000fd5b62001f808262001ada565b810181811067ffffffffffffffff8211171562001fa25762001fa162001f46565b5b80604052505050565b600062001fb7620019c9565b905062001fc5828262001f75565b919050565b600067ffffffffffffffff82111562001fe85762001fe762001f46565b5b62001ff38262001ada565b9050602081019050919050565b82818337600083830152505050565b600062002026620020208462001fca565b62001fab565b90508281526020810184848401111562002045576200204462001f41565b5b6200205284828562002000565b509392505050565b600082601f83011262002072576200207162001f3c565b5b8135620020848482602086016200200f565b91505092915050565b600080600080600080600060e0888a031215620020af57620020ae620019d3565b5b600088013567ffffffffffffffff811115620020d057620020cf620019d8565b5b620020de8a828b016200205a565b975050602088013567ffffffffffffffff811115620021025762002101620019d8565b5b620021108a828b016200205a565b965050604088013567ffffffffffffffff811115620021345762002133620019d8565b5b620021428a828b016200205a565b955050606088013567ffffffffffffffff811115620021665762002165620019d8565b5b620021748a828b016200205a565b945050608088013567ffffffffffffffff811115620021985762002197620019d8565b5b620021a68a828b016200205a565b93505060a0620021b98a828b01620019f7565b92505060c0620021cc8a828b01620019f7565b91505092959891949750929550565b6000819050919050565b620021f081620021db565b82525050565b60006020820190506200220d6000830184620021e5565b92915050565b6000620022208262001b2c565b9050919050565b620022328162002213565b81146200223e57600080fd5b50565b600081359050620022528162002227565b92915050565b60008060408385031215620022725762002271620019d3565b5b6000620022828582860162002241565b92505060206200229585828601620019f7565b9150509250929050565b600082825260208201905092915050565b6000620022bd8262001a92565b620022c981856200229f565b9350620022db81856020860162001aae565b620022e68162001ada565b840191505092915050565b620022fc8162001b4c565b82525050565b6200230d8162001bb7565b82525050565b6000610160820190506200232b600083018e6200199b565b81810360208301526200233f818d620022b0565b9050818103604083015262002355818c620022b0565b905081810360608301526200236b818b620022b0565b9050818103608083015262002381818a620022b0565b905081810360a0830152620023978189620022b0565b9050620023a860c08301886200199b565b620023b760e08301876200199b565b620023c76101008301866200199b565b620023d7610120830185620022f1565b620023e761014083018462002302565b9c9b505050505050505050505050565b60006020820190506200240e6000830184620022f1565b92915050565b7f4f6e6c792070726f6a656374206f776e65722063616e20657874656e6420646560008201527f61646c696e65206f6620746869732070726f6a65637400000000000000000000602082015250565b6000620024726036836200229f565b91506200247f8262002414565b604082019050919050565b60006020820190508181036000830152620024a58162002463565b9050919050565b7f706c656173652067697665206120646561646c696e65206f662067726561746560008201527f72207468616e2063757272656e7420646561646c696e65000000000000000000602082015250565b60006200250a6037836200229f565b91506200251782620024ac565b604082019050919050565b600060208201905081810360008301526200253d81620024fb565b9050919050565b7f4e487b7100000000000000000000000000000000000000000000000000000000600052602260045260246000fd5b600060028204905060018216806200258c57607f821691505b602082108103620025a257620025a162002544565b5b50919050565b7f4e487b7100000000000000000000000000000000000000000000000000000000600052603260045260246000fd5b7f4e487b7100000000000000000000000000000000000000000000000000000000600052601160045260246000fd5b6000620026138262001991565b91507fffffffffffffffffffffffffffffffffffffffffffffffffffffffffffffffff8203620026485762002647620025d7565b5b600182019050919050565b7f506c65617365205472616e736665722054686520416d6f756e7420457175616c60008201527f20546f20596f75722050726f6a65637420427564676574000000000000000000602082015250565b6000620026b16037836200229f565b9150620026be8262002653565b604082019050919050565b60006020820190508181036000830152620026e481620026a2565b9050919050565b6000606082019050620027026000830186620022f1565b6200271160208301856200199b565b6200272060408301846200199b565b949350505050565b60008190508160005260206000209050919050565b60006020601f8301049050919050565b600082821b905092915050565b6000600883026200278c7fffffffffffffffffffffffffffffffffffffffffffffffffffffffffffffffff826200274d565b6200279886836200274d565b95508019841693508086168417925050509392505050565b6000620027d1620027cb620027c58462001991565b62001b71565b62001991565b9050919050565b6000819050919050565b620027ed83620027b0565b62002805620027fc82620027d8565b8484546200275a565b825550505050565b600090565b6200281c6200280d565b62002829818484620027e2565b505050565b5b8181101562002851576200284560008262002812565b6001810190506200282f565b5050565b601f821115620028a0576200286a8162002728565b62002875846200273d565b8101602085101562002885578190505b6200289d62002894856200273d565b8301826200282e565b50505b505050565b600082821c905092915050565b6000620028c560001984600802620028a5565b1980831691505092915050565b6000620028e08383620028b2565b9150826002028217905092915050565b620028fb8262001a92565b67ffffffffffffffff81111562002917576200291662001f46565b5b62002923825462002573565b6200293082828562002855565b600060209050601f83116001811462002968576000841562002953578287015190505b6200295f8582620028d2565b865550620029cf565b601f198416620029788662002728565b60005b82811015620029a2578489015182556001820191506020850194506020810190506200297b565b86831015620029c25784890151620029be601f891682620028b2565b8355505b6001600288020188555050505b505050505050565b600069ffffffffffffffffffff82169050919050565b620029f881620029d7565b811462002a0457600080fd5b50565b60008151905062002a1881620029ed565b92915050565b62002a2981620021db565b811462002a3557600080fd5b50565b60008151905062002a498162002a1e565b92915050565b60008151905062002a6081620019dd565b92915050565b600080600080600060a0868803121562002a855762002a84620019d3565b5b600062002a958882890162002a07565b955050602062002aa88882890162002a38565b945050604062002abb8882890162002a4f565b935050606062002ace8882890162002a4f565b925050608062002ae18882890162002a07565b9150509295509295909350565b7f4e487b7100000000000000000000000000000000000000000000000000000000600052601260045260246000fd5b600062002b2a82620021db565b915062002b3783620021db565b92508262002b4a5762002b4962002aee565b5b600160000383147f80000000000000000000000000000000000000000000000000000000000000008314161562002b865762002b85620025d7565b5b82820590509291505056fe60806040526000600460006101000a81548160ff0219169083151502179055506000600960006101000a81548160ff0219169083151502179055503480156200004757600080fd5b50604051620031b6380380620031b683398181016040528101906200006d919062000198565b82600160006101000a81548173ffffffffffffffffffffffffffffffffffffffff021916908373ffffffffffffffffffffffffffffffffffffffff16021790555081600281905550806003819055506000600460016101000a81548160ff02191690836003811115620000e557620000e4620001f4565b5b021790555050505062000223565b600080fd5b600073ffffffffffffffffffffffffffffffffffffffff82169050919050565b60006200012582620000f8565b9050919050565b620001378162000118565b81146200014357600080fd5b50565b60008151905062000157816200012c565b92915050565b6000819050919050565b62000172816200015d565b81146200017e57600080fd5b50565b600081519050620001928162000167565b92915050565b600080600060608486031215620001b457620001b3620000f3565b5b6000620001c48682870162000146565b9350506020620001d78682870162000181565b9250506040620001ea8682870162000181565b9150509250925092565b7f4e487b7100000000000000000000000000000000000000000000000000000000600052602160045260246000fd5b612f8380620002336000396000f3fe6080604052600436106100e15760003560e01c8063a0a2a6c01161007f578063a6a2cb0511610059578063a6a2cb051461029d578063b19b0afe146102d0578063e7aa3afc146102fb578063ecc254b314610326576100e8565b8063a0a2a6c01461021c578063a1b99fc214610247578063a4475ce414610272576100e8565b80632a9cc141116100bb5780632a9cc1411461018657806362564c48146101b15780637417882c146101dc57806398951b56146101f3576100e8565b8063013cf08b146100ed57806312065fe01461013257806322e2e12d1461015d576100e8565b366100e857005b600080fd5b3480156100f957600080fd5b50610114600480360381019061010f9190611a24565b61033d565b60405161012999989796959493929190611b4c565b60405180910390f35b34801561013e57600080fd5b5061014761045a565b6040516101549190611be0565b60405180910390f35b34801561016957600080fd5b50610184600480360381019061017f9190611d30565b610462565b005b34801561019257600080fd5b5061019b610813565b6040516101a89190611edb565b60405180910390f35b3480156101bd57600080fd5b506101c6610a1f565b6040516101d39190612084565b60405180910390f35b3480156101e857600080fd5b506101f1610c62565b005b3480156101ff57600080fd5b5061021a60048036038101906102159190611a24565b610f97565b005b34801561022857600080fd5b506102316113cb565b60405161023e919061211d565b60405180910390f35b34801561025357600080fd5b5061025c6113de565b6040516102699190612159565b60405180910390f35b34801561027e57600080fd5b50610287611404565b6040516102949190612174565b60405180910390f35b3480156102a957600080fd5b506102b261142a565b6040516102c799989796959493929190611b4c565b60405180910390f35b3480156102dc57600080fd5b506102e5611535565b6040516102f2919061218f565b60405180910390f35b34801561030757600080fd5b50610310611548565b60405161031d91906121aa565b60405180910390f35b34801561033257600080fd5b5061033b61172d565b005b6005602052806000526040600020600091509050806000015490806001018054610366906121fb565b80601f0160208091040260200160405190810160405280929190818152602001828054610392906121fb565b80156103df5780601f106103b4576101008083540402835291602001916103df565b820191906000526020600020905b8154815290600101906020018083116103c257829003601f168201915b5050505050908060020160009054906101000a900473ffffffffffffffffffffffffffffffffffffffff16908060030154908060040154908060050160009054906101000a900460ff16908060060154908060070160009054906101000a900460ff16908060070160019054906101000a900460ff16905089565b600047905090565b600660003373ffffffffffffffffffffffffffffffffffffffff1673ffffffffffffffffffffffffffffffffffffffff16815260200190815260200160002060009054906101000a900460ff16156104ef576040517f08c379a00000000000000000000000000000000000000000000000000000000081526004016104e69061229e565b60405180910390fd5b600860003373ffffffffffffffffffffffffffffffffffffffff1673ffffffffffffffffffffffffffffffffffffffff16815260200190815260200160002060009054906101000a900460ff161561057c576040517f08c379a000000000000000000000000000000000000000000000000000000000815260040161057390612330565b60405180910390fd5b600160038111156105905761058f6120a6565b5b600460019054906101000a900460ff1660038111156105b2576105b16120a6565b5b036105f2576040517f08c379a00000000000000000000000000000000000000000000000000000000081526004016105e9906123c2565b60405180910390fd5b60006105fe600061194e565b905060006040518061012001604052808381526020018681526020013373ffffffffffffffffffffffffffffffffffffffff168152602001858152602001848152602001600015158152602001600081526020016000151581526020016000151581525090506001600660003373ffffffffffffffffffffffffffffffffffffffff1673ffffffffffffffffffffffffffffffffffffffff16815260200190815260200160002060006101000a81548160ff02191690831515021790555080600560008481526020019081526020016000206000820151816000015560208201518160010190816106ef919061258e565b5060408201518160020160006101000a81548173ffffffffffffffffffffffffffffffffffffffff021916908373ffffffffffffffffffffffffffffffffffffffff160217905550606082015181600301556080820151816004015560a08201518160050160006101000a81548160ff02191690831515021790555060c0820151816006015560e08201518160070160006101000a81548160ff0219169083151502179055506101008201518160070160016101000a81548160ff0219169083151502179055509050506107c3600061195c565b7fb3080e016b94f1edbaf8dc52950b1b3debd550a7662d4db0cb404a7217047e8282863387876000806000806040516108049998979695949392919061269b565b60405180910390a15050505050565b61081b611972565b600160009054906101000a900473ffffffffffffffffffffffffffffffffffffffff1673ffffffffffffffffffffffffffffffffffffffff163373ffffffffffffffffffffffffffffffffffffffff16146108ab576040517f08c379a00000000000000000000000000000000000000000000000000000000081526004016108a2906127a1565b60405180910390fd5b600a60405180610120016040529081600082015481526020016001820180546108d3906121fb565b80601f01602080910402602001604051908101604052809291908181526020018280546108ff906121fb565b801561094c5780601f106109215761010080835404028352916020019161094c565b820191906000526020600020905b81548152906001019060200180831161092f57829003601f168201915b505050505081526020016002820160009054906101000a900473ffffffffffffffffffffffffffffffffffffffff1673ffffffffffffffffffffffffffffffffffffffff1673ffffffffffffffffffffffffffffffffffffffff16815260200160038201548152602001600482015481526020016005820160009054906101000a900460ff16151515158152602001600682015481526020016007820160009054906101000a900460ff161515151581526020016007820160019054906101000a900460ff161515151581525050905090565b60606000610a2d600061194e565b905060008167ffffffffffffffff811115610a4b57610a4a611c05565b5b604051908082528060200260200182016040528015610a8457816020015b610a71611972565b815260200190600190039081610a695790505b5090506000805b83811015610c58576000600560008381526020019081526020016000206040518061012001604052908160008201548152602001600182018054610ace906121fb565b80601f0160208091040260200160405190810160405280929190818152602001828054610afa906121fb565b8015610b475780601f10610b1c57610100808354040283529160200191610b47565b820191906000526020600020905b815481529060010190602001808311610b2a57829003601f168201915b505050505081526020016002820160009054906101000a900473ffffffffffffffffffffffffffffffffffffffff1673ffffffffffffffffffffffffffffffffffffffff1673ffffffffffffffffffffffffffffffffffffffff16815260200160038201548152602001600482015481526020016005820160009054906101000a900460ff16151515158152602001600682015481526020016007820160009054906101000a900460ff161515151581526020016007820160019054906101000a900460ff161515151581525050905080848481518110610c2b57610c2a6127c1565b5b60200260200101819052508280610c419061281f565b935050508080610c509061281f565b915050610a8b565b5081935050505090565b600380811115610c7557610c746120a6565b5b600460019054906101000a900460ff166003811115610c9757610c966120a6565b5b03610cd7576040517f08c379a0000000000000000000000000000000000000000000000000000000008152600401610cce906128d9565b60405180910390fd5b600160009054906101000a900473ffffffffffffffffffffffffffffffffffffffff1673ffffffffffffffffffffffffffffffffffffffff163373ffffffffffffffffffffffffffffffffffffffff1614610d67576040517f08c379a0000000000000000000000000000000000000000000000000000000008152600401610d5e9061296b565b60405180910390fd5b60026003811115610d7b57610d7a6120a6565b5b600460019054906101000a900460ff166003811115610d9d57610d9c6120a6565b5b14610ddd576040517f08c379a0000000000000000000000000000000000000000000000000000000008152600401610dd4906129d7565b60405180910390fd5b6000600a60030154600354610df291906129f7565b9050600160009054906101000a900473ffffffffffffffffffffffffffffffffffffffff1673ffffffffffffffffffffffffffffffffffffffff166108fc829081150290604051600060405180830381858888f19350505050158015610e5c573d6000803e3d6000fd5b50600a60020160009054906101000a900473ffffffffffffffffffffffffffffffffffffffff1673ffffffffffffffffffffffffffffffffffffffff166108fc600a600301549081150290604051600060405180830381858888f19350505050158015610ecd573d6000803e3d6000fd5b506001600a60070160016101000a81548160ff021916908315150217905550600060086000600a60020160009054906101000a900473ffffffffffffffffffffffffffffffffffffffff1673ffffffffffffffffffffffffffffffffffffffff1673ffffffffffffffffffffffffffffffffffffffff16815260200190815260200160002060006101000a81548160ff0219169083151502179055506003600460016101000a81548160ff02191690836003811115610f8f57610f8e6120a6565b5b021790555050565b600160009054906101000a900473ffffffffffffffffffffffffffffffffffffffff1673ffffffffffffffffffffffffffffffffffffffff163373ffffffffffffffffffffffffffffffffffffffff1614611027576040517f08c379a000000000000000000000000000000000000000000000000000000000815260040161101e90612a9d565b60405180910390fd5b600060056000838152602001908152602001600020905060016003811115611052576110516120a6565b5b600460019054906101000a900460ff166003811115611074576110736120a6565b5b036110b4576040517f08c379a00000000000000000000000000000000000000000000000000000000081526004016110ab90612b2f565b60405180910390fd5b600160009054906101000a900473ffffffffffffffffffffffffffffffffffffffff1673ffffffffffffffffffffffffffffffffffffffff163373ffffffffffffffffffffffffffffffffffffffff1614611144576040517f08c379a000000000000000000000000000000000000000000000000000000000815260040161113b90612bc1565b60405180910390fd5b6002544210611188576040517f08c379a000000000000000000000000000000000000000000000000000000000815260040161117f90612c79565b60405180910390fd5b42816006018190555060018160050160006101000a81548160ff02191690831515021790555080600a60008201548160000155600182018160010190816111cf9190612caf565b506002820160009054906101000a900473ffffffffffffffffffffffffffffffffffffffff168160020160006101000a81548173ffffffffffffffffffffffffffffffffffffffff021916908373ffffffffffffffffffffffffffffffffffffffff16021790555060038201548160030155600482015481600401556005820160009054906101000a900460ff168160050160006101000a81548160ff021916908315150217905550600682015481600601556007820160009054906101000a900460ff168160070160006101000a81548160ff0219169083151502179055506007820160019054906101000a900460ff168160070160016101000a81548160ff0219169083151502179055509050506001600860003373ffffffffffffffffffffffffffffffffffffffff1673ffffffffffffffffffffffffffffffffffffffff16815260200190815260200160002060006101000a81548160ff0219169083151502179055506001600460016101000a81548160ff0219169083600381111561135d5761135c6120a6565b5b02179055508060020160009054906101000a900473ffffffffffffffffffffffffffffffffffffffff16601260006101000a81548173ffffffffffffffffffffffffffffffffffffffff021916908373ffffffffffffffffffffffffffffffffffffffff1602179055505050565b600460019054906101000a900460ff1681565b601260009054906101000a900473ffffffffffffffffffffffffffffffffffffffff1681565b600160009054906101000a900473ffffffffffffffffffffffffffffffffffffffff1681565b600a806000015490806001018054611441906121fb565b80601f016020809104026020016040519081016040528092919081815260200182805461146d906121fb565b80156114ba5780601f1061148f576101008083540402835291602001916114ba565b820191906000526020600020905b81548152906001019060200180831161149d57829003601f168201915b5050505050908060020160009054906101000a900473ffffffffffffffffffffffffffffffffffffffff16908060030154908060040154908060050160009054906101000a900460ff16908060060154908060070160009054906101000a900460ff16908060070160019054906101000a900460ff16905089565b600960009054906101000a900460ff1681565b60606000600381111561155e5761155d6120a6565b5b600460019054906101000a900460ff1660038111156115805761157f6120a6565b5b036115c2576040518060400160405280600481526020017f4f70656e00000000000000000000000000000000000000000000000000000000815250905061172a565b600160038111156115d6576115d56120a6565b5b600460019054906101000a900460ff1660038111156115f8576115f76120a6565b5b0361163a576040518060400160405280600b81526020017f496e2050726f6772657373000000000000000000000000000000000000000000815250905061172a565b6002600381111561164e5761164d6120a6565b5b600460019054906101000a900460ff1660038111156116705761166f6120a6565b5b036116b2576040518060400160405280601281526020017f4d61726b656420417320436f6d706c6574650000000000000000000000000000815250905061172a565b6003808111156116c5576116c46120a6565b5b600460019054906101000a900460ff1660038111156116e7576116e66120a6565b5b03611729576040518060400160405280600981526020017f436f6d706c657465640000000000000000000000000000000000000000000000815250905061172a565b5b90565b60016003811115611741576117406120a6565b5b600460019054906101000a900460ff166003811115611763576117626120a6565b5b146117a3576040517f08c379a000000000000000000000000000000000000000000000000000000000815260040161179a90612e09565b60405180910390fd5b6003808111156117b6576117b56120a6565b5b600460019054906101000a900460ff1660038111156117d8576117d76120a6565b5b03611818576040517f08c379a000000000000000000000000000000000000000000000000000000000815260040161180f906128d9565b60405180910390fd5b600a60020160009054906101000a900473ffffffffffffffffffffffffffffffffffffffff1673ffffffffffffffffffffffffffffffffffffffff163373ffffffffffffffffffffffffffffffffffffffff16146118ab576040517f08c379a00000000000000000000000000000000000000000000000000000000081526004016118a290612e9b565b60405180910390fd5b600260038111156118bf576118be6120a6565b5b600460019054906101000a900460ff1660038111156118e1576118e06120a6565b5b03611921576040517f08c379a000000000000000000000000000000000000000000000000000000000815260040161191890612f2d565b60405180910390fd5b6002600460016101000a81548160ff02191690836003811115611947576119466120a6565b5b0217905550565b600081600001549050919050565b6001816000016000828254019250508190555050565b6040518061012001604052806000815260200160608152602001600073ffffffffffffffffffffffffffffffffffffffff1681526020016000815260200160008152602001600015158152602001600081526020016000151581526020016000151581525090565b6000604051905090565b600080fd5b600080fd5b6000819050919050565b611a01816119ee565b8114611a0c57600080fd5b50565b600081359050611a1e816119f8565b92915050565b600060208284031215611a3a57611a396119e4565b5b6000611a4884828501611a0f565b91505092915050565b611a5a816119ee565b82525050565b600081519050919050565b600082825260208201905092915050565b60005b83811015611a9a578082015181840152602081019050611a7f565b60008484015250505050565b6000601f19601f8301169050919050565b6000611ac282611a60565b611acc8185611a6b565b9350611adc818560208601611a7c565b611ae581611aa6565b840191505092915050565b600073ffffffffffffffffffffffffffffffffffffffff82169050919050565b6000611b1b82611af0565b9050919050565b611b2b81611b10565b82525050565b60008115159050919050565b611b4681611b31565b82525050565b600061012082019050611b62600083018c611a51565b8181036020830152611b74818b611ab7565b9050611b83604083018a611b22565b611b906060830189611a51565b611b9d6080830188611a51565b611baa60a0830187611b3d565b611bb760c0830186611a51565b611bc460e0830185611b3d565b611bd2610100830184611b3d565b9a9950505050505050505050565b6000602082019050611bf56000830184611a51565b92915050565b600080fd5b600080fd5b7f4e487b7100000000000000000000000000000000000000000000000000000000600052604160045260246000fd5b611c3d82611aa6565b810181811067ffffffffffffffff82111715611c5c57611c5b611c05565b5b80604052505050565b6000611c6f6119da565b9050611c7b8282611c34565b919050565b600067ffffffffffffffff821115611c9b57611c9a611c05565b5b611ca482611aa6565b9050602081019050919050565b82818337600083830152505050565b6000611cd3611cce84611c80565b611c65565b905082815260208101848484011115611cef57611cee611c00565b5b611cfa848285611cb1565b509392505050565b600082601f830112611d1757611d16611bfb565b5b8135611d27848260208601611cc0565b91505092915050565b600080600060608486031215611d4957611d486119e4565b5b600084013567ffffffffffffffff811115611d6757611d666119e9565b5b611d7386828701611d02565b9350506020611d8486828701611a0f565b9250506040611d9586828701611a0f565b9150509250925092565b611da8816119ee565b82525050565b600082825260208201905092915050565b6000611dca82611a60565b611dd48185611dae565b9350611de4818560208601611a7c565b611ded81611aa6565b840191505092915050565b611e0181611b10565b82525050565b611e1081611b31565b82525050565b600061012083016000830151611e2f6000860182611d9f565b5060208301518482036020860152611e478282611dbf565b9150506040830151611e5c6040860182611df8565b506060830151611e6f6060860182611d9f565b506080830151611e826080860182611d9f565b5060a0830151611e9560a0860182611e07565b5060c0830151611ea860c0860182611d9f565b5060e0830151611ebb60e0860182611e07565b50610100830151611ed0610100860182611e07565b508091505092915050565b60006020820190508181036000830152611ef58184611e16565b905092915050565b600081519050919050565b600082825260208201905092915050565b6000819050602082019050919050565b600061012083016000830151611f426000860182611d9f565b5060208301518482036020860152611f5a8282611dbf565b9150506040830151611f6f6040860182611df8565b506060830151611f826060860182611d9f565b506080830151611f956080860182611d9f565b5060a0830151611fa860a0860182611e07565b5060c0830151611fbb60c0860182611d9f565b5060e0830151611fce60e0860182611e07565b50610100830151611fe3610100860182611e07565b508091505092915050565b6000611ffa8383611f29565b905092915050565b6000602082019050919050565b600061201a82611efd565b6120248185611f08565b93508360208202850161203685611f19565b8060005b8581101561207257848403895281516120538582611fee565b945061205e83612002565b925060208a0199505060018101905061203a565b50829750879550505050505092915050565b6000602082019050818103600083015261209e818461200f565b905092915050565b7f4e487b7100000000000000000000000000000000000000000000000000000000600052602160045260246000fd5b600481106120e6576120e56120a6565b5b50565b60008190506120f7826120d5565b919050565b6000612107826120e9565b9050919050565b612117816120fc565b82525050565b6000602082019050612132600083018461210e565b92915050565b600061214382611af0565b9050919050565b61215381612138565b82525050565b600060208201905061216e600083018461214a565b92915050565b60006020820190506121896000830184611b22565b92915050565b60006020820190506121a46000830184611b3d565b92915050565b600060208201905081810360008301526121c48184611ab7565b905092915050565b7f4e487b7100000000000000000000000000000000000000000000000000000000600052602260045260246000fd5b6000600282049050600182168061221357607f821691505b602082108103612226576122256121cc565b5b50919050565b7f596f75206861766520616c7265616479206372656174656420612070726f706f60008201527f73616c20666f7220746869732070726f6a656374000000000000000000000000602082015250565b6000612288603483611a6b565b91506122938261222c565b604082019050919050565b600060208201905081810360008301526122b78161227b565b9050919050565b7f506c6561736520666972737420636f6d706c65746520796f757220707265766960008201527f6f75732070726f6a656374730000000000000000000000000000000000000000602082015250565b600061231a602c83611a6b565b9150612325826122be565b604082019050919050565b600060208201905081810360008301526123498161230d565b9050919050565b7f546869732070726f6a65637420697320616c726561647920756e64657220707260008201527f6f67726573730000000000000000000000000000000000000000000000000000602082015250565b60006123ac602683611a6b565b91506123b782612350565b604082019050919050565b600060208201905081810360008301526123db8161239f565b9050919050565b60008190508160005260206000209050919050565b60006020601f8301049050919050565b600082821b905092915050565b6000600883026124447fffffffffffffffffffffffffffffffffffffffffffffffffffffffffffffffff82612407565b61244e8683612407565b95508019841693508086168417925050509392505050565b6000819050919050565b600061248b612486612481846119ee565b612466565b6119ee565b9050919050565b6000819050919050565b6124a583612470565b6124b96124b182612492565b848454612414565b825550505050565b600090565b6124ce6124c1565b6124d981848461249c565b505050565b5b818110156124fd576124f26000826124c6565b6001810190506124df565b5050565b601f82111561254257612513816123e2565b61251c846123f7565b8101602085101561252b578190505b61253f612537856123f7565b8301826124de565b50505b505050565b600082821c905092915050565b600061256560001984600802612547565b1980831691505092915050565b600061257e8383612554565b9150826002028217905092915050565b61259782611a60565b67ffffffffffffffff8111156125b0576125af611c05565b5b6125ba82546121fb565b6125c5828285612501565b600060209050601f8311600181146125f857600084156125e6578287015190505b6125f08582612572565b865550612658565b601f198416612606866123e2565b60005b8281101561262e57848901518255600182019150602085019450602081019050612609565b8683101561264b5784890151612647601f891682612554565b8355505b6001600288020188555050505b505050505050565b6000819050919050565b600061268561268061267b84612660565b612466565b6119ee565b9050919050565b6126958161266a565b82525050565b6000610120820190506126b1600083018c611a51565b81810360208301526126c3818b611ab7565b90506126d2604083018a611b22565b6126df6060830189611a51565b6126ec6080830188611a51565b6126f960a0830187611b3d565b61270660c083018661268c565b61271360e0830185611b3d565b612721610100830184611b3d565b9a9950505050505050505050565b7f4f6e6c792050726f6a656374206f776e65722063616e2061636365737320736560008201527f6c65637465642070726f706f73616c2773206f776e6572000000000000000000602082015250565b600061278b603783611a6b565b91506127968261272f565b604082019050919050565b600060208201905081810360008301526127ba8161277e565b9050919050565b7f4e487b7100000000000000000000000000000000000000000000000000000000600052603260045260246000fd5b7f4e487b7100000000000000000000000000000000000000000000000000000000600052601160045260246000fd5b600061282a826119ee565b91507fffffffffffffffffffffffffffffffffffffffffffffffffffffffffffffffff820361285c5761285b6127f0565b5b600182019050919050565b7f546869732050726f6a65637420497320416c726561647920436f6d706c65746560008201527f6400000000000000000000000000000000000000000000000000000000000000602082015250565b60006128c3602183611a6b565b91506128ce82612867565b604082019050919050565b600060208201905081810360008301526128f2816128b6565b9050919050565b7f596f7520417265204e6f7420417574686f72697a656420546f2046696e616c6960008201527f7a6520546869732050726f6a6563740000000000000000000000000000000000602082015250565b6000612955602f83611a6b565b9150612960826128f9565b604082019050919050565b6000602082019050818103600083015261298481612948565b9050919050565b7f50726f6a656374206973206e6f742079657420636f6d706c6574656400000000600082015250565b60006129c1601c83611a6b565b91506129cc8261298b565b602082019050919050565b600060208201905081810360008301526129f0816129b4565b9050919050565b6000612a02826119ee565b9150612a0d836119ee565b9250828203905081811115612a2557612a246127f0565b5b92915050565b7f4f6e6c792050726f6a656374204f776e65722043616e2043616c6c205468697360008201527f2046756e6374696f6e0000000000000000000000000000000000000000000000602082015250565b6000612a87602983611a6b565b9150612a9282612a2b565b604082019050919050565b60006020820190508181036000830152612ab681612a7a565b9050919050565b7f546869732050726f6a65637420497320416c726561647920417070726f76656460008201527f20546f20536f6d656f6e6520656c736500000000000000000000000000000000602082015250565b6000612b19603083611a6b565b9150612b2482612abd565b604082019050919050565b60006020820190508181036000830152612b4881612b0c565b9050919050565b7f4f6e6c792050726f6a656374204f776e65722043616e204170726f766520546860008201527f652050726f706f73616c73000000000000000000000000000000000000000000602082015250565b6000612bab602b83611a6b565b9150612bb682612b4f565b604082019050919050565b60006020820190508181036000830152612bda81612b9e565b9050919050565b7f546869732050726f6a65637420497320416c726561647920436f6d706c65746560008201527f6420596f752043616e6e6f74204d616b6520416e796d6f726520417070726f7660208201527f616c730000000000000000000000000000000000000000000000000000000000604082015250565b6000612c63604383611a6b565b9150612c6e82612be1565b606082019050919050565b60006020820190508181036000830152612c9281612c56565b9050919050565b600081549050612ca8816121fb565b9050919050565b818103612cbd575050612d95565b612cc682612c99565b67ffffffffffffffff811115612cdf57612cde611c05565b5b612ce982546121fb565b612cf4828285612501565b6000601f831160018114612d235760008415612d11578287015490505b612d1b8582612572565b865550612d8e565b601f198416612d31876123e2565b9650612d3c866123e2565b60005b82811015612d6457848901548255600182019150600185019450602081019050612d3f565b86831015612d815784890154612d7d601f891682612554565b8355505b6001600288020188555050505b5050505050505b565b7f596f757220636f61746174696f6e206973206e6f742079657420617070726f7660008201527f6564000000000000000000000000000000000000000000000000000000000000602082015250565b6000612df3602283611a6b565b9150612dfe82612d97565b604082019050919050565b60006020820190508181036000830152612e2281612de6565b9050919050565b7f4f6e6c792070726f706f73616c206f776e65722063616e206d61726b2070726f60008201527f6a65637420617320636f6d706c65746500000000000000000000000000000000602082015250565b6000612e85603083611a6b565b9150612e9082612e29565b604082019050919050565b60006020820190508181036000830152612eb481612e78565b9050919050565b7f596f75206861766520616c7265616479206d61726b656420746869732070726f60008201527f6a65637420617320636f6d706c65746500000000000000000000000000000000602082015250565b6000612f17603083611a6b565b9150612f2282612ebb565b604082019050919050565b60006020820190508181036000830152612f4681612f0a565b905091905056fea2646970667358221220fa0b80985deb006511f04a35281ffc271bba2bbc02344edf30148511b997988264736f6c63430008110033a2646970667358221220182d21e7e51c77cc293e6e9b61126a9b0e166d89cba3b8a8dd4bccc6957469af64736f6c63430008110033","opcodes":"PUSH1 0x80 PUSH1 0x40 MSTORE CALLVALUE DUP1 ISZERO PUSH2 0x10 JUMPI PUSH1 0x0 DUP1 REVERT JUMPDEST POP CALLER PUSH1 0x1 PUSH1 0x0 PUSH2 0x100 EXP DUP2 SLOAD DUP2 PUSH20 0xFFFFFFFFFFFFFFFFFFFFFFFFFFFFFFFFFFFFFFFF MUL NOT AND SWAP1 DUP4 PUSH20 0xFFFFFFFFFFFFFFFFFFFFFFFFFFFFFFFFFFFFFFFF AND MUL OR SWAP1 SSTORE POP PUSH20 0xD0D5E3DB44DE05E9F294BB0A3BEEAF030DE24ADA PUSH1 0x2 PUSH1 0x0 PUSH2 0x100 EXP DUP2 SLOAD DUP2 PUSH20 0xFFFFFFFFFFFFFFFFFFFFFFFFFFFFFFFFFFFFFFFF MUL NOT AND SWAP1 DUP4 PUSH20 0xFFFFFFFFFFFFFFFFFFFFFFFFFFFFFFFFFFFFFFFF AND MUL OR SWAP1 SSTORE POP PUSH2 0x5D7D DUP1 PUSH2 0xB6 PUSH1 0x0 CODECOPY PUSH1 0x0 RETURN INVALID PUSH1 0x80 PUSH1 0x40 MSTORE PUSH1 0x4 CALLDATASIZE LT PUSH3 0x97 JUMPI PUSH1 0x0 CALLDATALOAD PUSH1 0xE0 SHR DUP1 PUSH4 0x97C414C1 GT PUSH3 0x61 JUMPI DUP1 PUSH4 0x97C414C1 EQ PUSH3 0x162 JUMPI DUP1 PUSH4 0xA7EE42DE EQ PUSH3 0x1A6 JUMPI DUP1 PUSH4 0xC7A13504 EQ PUSH3 0x1C6 JUMPI DUP1 PUSH4 0xD61BB76A EQ PUSH3 0x1F6 JUMPI DUP1 PUSH4 0xF851A440 EQ PUSH3 0x244 JUMPI PUSH3 0x9F JUMP JUMPDEST DUP1 PUSH4 0x12065FE0 EQ PUSH3 0xA4 JUMPI DUP1 PUSH4 0x2D1FDEF6 EQ PUSH3 0xD4 JUMPI DUP1 PUSH4 0x4AAE5F4D EQ PUSH3 0x102 JUMPI DUP1 PUSH4 0x80D03829 EQ PUSH3 0x132 JUMPI PUSH3 0x9F JUMP JUMPDEST CALLDATASIZE PUSH3 0x9F JUMPI STOP JUMPDEST PUSH1 0x0 DUP1 REVERT JUMPDEST CALLVALUE DUP1 ISZERO PUSH3 0xB1 JUMPI PUSH1 0x0 DUP1 REVERT JUMPDEST POP PUSH3 0xBC PUSH3 0x274 JUMP JUMPDEST PUSH1 0x40 MLOAD PUSH3 0xCB SWAP2 SWAP1 PUSH3 0x19AC JUMP JUMPDEST PUSH1 0x40 MLOAD DUP1 SWAP2 SUB SWAP1 RETURN JUMPDEST CALLVALUE DUP1 ISZERO PUSH3 0xE1 JUMPI PUSH1 0x0 DUP1 REVERT JUMPDEST POP PUSH3 0x100 PUSH1 0x4 DUP1 CALLDATASIZE SUB DUP2 ADD SWAP1 PUSH3 0xFA SWAP2 SWAP1 PUSH3 0x1A0E JUMP JUMPDEST PUSH3 0x27C JUMP JUMPDEST STOP JUMPDEST CALLVALUE DUP1 ISZERO PUSH3 0x10F JUMPI PUSH1 0x0 DUP1 REVERT JUMPDEST POP PUSH3 0x11A PUSH3 0x37F JUMP JUMPDEST PUSH1 0x40 MLOAD PUSH3 0x129 SWAP2 SWAP1 PUSH3 0x1DA1 JUMP JUMPDEST PUSH1 0x40 MLOAD DUP1 SWAP2 SUB SWAP1 RETURN JUMPDEST CALLVALUE DUP1 ISZERO PUSH3 0x13F JUMPI PUSH1 0x0 DUP1 REVERT JUMPDEST POP PUSH3 0x14A PUSH3 0x8A6 JUMP JUMPDEST PUSH1 0x40 MLOAD PUSH3 0x159 SWAP2 SWAP1 PUSH3 0x1DA1 JUMP JUMPDEST PUSH1 0x40 MLOAD DUP1 SWAP2 SUB SWAP1 RETURN JUMPDEST CALLVALUE DUP1 ISZERO PUSH3 0x16F JUMPI PUSH1 0x0 DUP1 REVERT JUMPDEST POP PUSH3 0x18E PUSH1 0x4 DUP1 CALLDATASIZE SUB DUP2 ADD SWAP1 PUSH3 0x188 SWAP2 SWAP1 PUSH3 0x1DC5 JUMP JUMPDEST PUSH3 0xD70 JUMP JUMPDEST PUSH1 0x40 MLOAD PUSH3 0x19D SWAP2 SWAP1 PUSH3 0x1F18 JUMP JUMPDEST PUSH1 0x40 MLOAD DUP1 SWAP2 SUB SWAP1 RETURN JUMPDEST PUSH3 0x1C4 PUSH1 0x4 DUP1 CALLDATASIZE SUB DUP2 ADD SWAP1 PUSH3 0x1BE SWAP2 SWAP1 PUSH3 0x208D JUMP JUMPDEST PUSH3 0x117C JUMP JUMPDEST STOP JUMPDEST CALLVALUE DUP1 ISZERO PUSH3 0x1D3 JUMPI PUSH1 0x0 DUP1 REVERT JUMPDEST POP PUSH3 0x1DE PUSH3 0x1483 JUMP JUMPDEST PUSH1 0x40 MLOAD PUSH3 0x1ED SWAP2 SWAP1 PUSH3 0x21F6 JUMP JUMPDEST PUSH1 0x40 MLOAD DUP1 SWAP2 SUB SWAP1 RETURN JUMPDEST CALLVALUE DUP1 ISZERO PUSH3 0x203 JUMPI PUSH1 0x0 DUP1 REVERT JUMPDEST POP PUSH3 0x222 PUSH1 0x4 DUP1 CALLDATASIZE SUB DUP2 ADD SWAP1 PUSH3 0x21C SWAP2 SWAP1 PUSH3 0x2258 JUMP JUMPDEST PUSH3 0x153C JUMP JUMPDEST PUSH1 0x40 MLOAD PUSH3 0x23B SWAP12 SWAP11 SWAP10 SWAP9 SWAP8 SWAP7 SWAP6 SWAP5 SWAP4 SWAP3 SWAP2 SWAP1 PUSH3 0x2313 JUMP JUMPDEST PUSH1 0x40 MLOAD DUP1 SWAP2 SUB SWAP1 RETURN JUMPDEST CALLVALUE DUP1 ISZERO PUSH3 0x251 JUMPI PUSH1 0x0 DUP1 REVERT JUMPDEST POP PUSH3 0x25C PUSH3 0x18B3 JUMP JUMPDEST PUSH1 0x40 MLOAD PUSH3 0x26B SWAP2 SWAP1 PUSH3 0x23F7 JUMP JUMPDEST PUSH1 0x40 MLOAD DUP1 SWAP2 SUB SWAP1 RETURN JUMPDEST PUSH1 0x0 SELFBALANCE SWAP1 POP SWAP1 JUMP JUMPDEST PUSH1 0x0 PUSH1 0x3 PUSH1 0x0 DUP5 DUP2 MSTORE PUSH1 0x20 ADD SWAP1 DUP2 MSTORE PUSH1 0x20 ADD PUSH1 0x0 KECCAK256 SWAP1 POP DUP1 PUSH1 0x9 ADD PUSH1 0x0 SWAP1 SLOAD SWAP1 PUSH2 0x100 EXP SWAP1 DIV PUSH20 0xFFFFFFFFFFFFFFFFFFFFFFFFFFFFFFFFFFFFFFFF AND PUSH20 0xFFFFFFFFFFFFFFFFFFFFFFFFFFFFFFFFFFFFFFFF AND CALLER PUSH20 0xFFFFFFFFFFFFFFFFFFFFFFFFFFFFFFFFFFFFFFFF AND EQ PUSH3 0x328 JUMPI PUSH1 0x40 MLOAD PUSH32 0x8C379A000000000000000000000000000000000000000000000000000000000 DUP2 MSTORE PUSH1 0x4 ADD PUSH3 0x31F SWAP1 PUSH3 0x248A JUMP JUMPDEST PUSH1 0x40 MLOAD DUP1 SWAP2 SUB SWAP1 REVERT JUMPDEST DUP1 PUSH1 0x8 ADD SLOAD DUP3 GT PUSH3 0x371 JUMPI PUSH1 0x40 MLOAD PUSH32 0x8C379A000000000000000000000000000000000000000000000000000000000 DUP2 MSTORE PUSH1 0x4 ADD PUSH3 0x368 SWAP1 PUSH3 0x2522 JUMP JUMPDEST PUSH1 0x40 MLOAD DUP1 SWAP2 SUB SWAP1 REVERT JUMPDEST DUP2 DUP2 PUSH1 0x8 ADD DUP2 SWAP1 SSTORE POP POP POP POP JUMP JUMPDEST PUSH1 0x60 PUSH1 0x0 PUSH3 0x38F PUSH1 0x0 PUSH3 0x18D9 JUMP JUMPDEST SWAP1 POP PUSH1 0x0 DUP2 PUSH8 0xFFFFFFFFFFFFFFFF DUP2 GT ISZERO PUSH3 0x3B0 JUMPI PUSH3 0x3AF PUSH3 0x1F46 JUMP JUMPDEST JUMPDEST PUSH1 0x40 MLOAD SWAP1 DUP1 DUP3 MSTORE DUP1 PUSH1 0x20 MUL PUSH1 0x20 ADD DUP3 ADD PUSH1 0x40 MSTORE DUP1 ISZERO PUSH3 0x3ED JUMPI DUP2 PUSH1 0x20 ADD JUMPDEST PUSH3 0x3D9 PUSH3 0x18FD JUMP JUMPDEST DUP2 MSTORE PUSH1 0x20 ADD SWAP1 PUSH1 0x1 SWAP1 SUB SWAP1 DUP2 PUSH3 0x3CF JUMPI SWAP1 POP JUMPDEST POP SWAP1 POP PUSH1 0x0 DUP1 PUSH1 0x0 SWAP1 POP JUMPDEST DUP4 DUP2 LT ISZERO PUSH3 0x89C JUMPI PUSH1 0x0 PUSH1 0x3 PUSH1 0x0 DUP4 DUP2 MSTORE PUSH1 0x20 ADD SWAP1 DUP2 MSTORE PUSH1 0x20 ADD PUSH1 0x0 KECCAK256 SWAP1 POP CALLER PUSH20 0xFFFFFFFFFFFFFFFFFFFFFFFFFFFFFFFFFFFFFFFF AND DUP2 PUSH1 0x9 ADD PUSH1 0x0 SWAP1 SLOAD SWAP1 PUSH2 0x100 EXP SWAP1 DIV PUSH20 0xFFFFFFFFFFFFFFFFFFFFFFFFFFFFFFFFFFFFFFFF AND PUSH20 0xFFFFFFFFFFFFFFFFFFFFFFFFFFFFFFFFFFFFFFFF AND SUB PUSH3 0x885 JUMPI DUP1 PUSH1 0x40 MLOAD DUP1 PUSH2 0x160 ADD PUSH1 0x40 MSTORE SWAP1 DUP2 PUSH1 0x0 DUP3 ADD SLOAD DUP2 MSTORE PUSH1 0x20 ADD PUSH1 0x1 DUP3 ADD DUP1 SLOAD PUSH3 0x499 SWAP1 PUSH3 0x2573 JUMP JUMPDEST DUP1 PUSH1 0x1F ADD PUSH1 0x20 DUP1 SWAP2 DIV MUL PUSH1 0x20 ADD PUSH1 0x40 MLOAD SWAP1 DUP2 ADD PUSH1 0x40 MSTORE DUP1 SWAP3 SWAP2 SWAP1 DUP2 DUP2 MSTORE PUSH1 0x20 ADD DUP3 DUP1 SLOAD PUSH3 0x4C7 SWAP1 PUSH3 0x2573 JUMP JUMPDEST DUP1 ISZERO PUSH3 0x518 JUMPI DUP1 PUSH1 0x1F LT PUSH3 0x4EC JUMPI PUSH2 0x100 DUP1 DUP4 SLOAD DIV MUL DUP4 MSTORE SWAP2 PUSH1 0x20 ADD SWAP2 PUSH3 0x518 JUMP JUMPDEST DUP3 ADD SWAP2 SWAP1 PUSH1 0x0 MSTORE PUSH1 0x20 PUSH1 0x0 KECCAK256 SWAP1 JUMPDEST DUP2 SLOAD DUP2 MSTORE SWAP1 PUSH1 0x1 ADD SWAP1 PUSH1 0x20 ADD DUP1 DUP4 GT PUSH3 0x4FA JUMPI DUP3 SWAP1 SUB PUSH1 0x1F AND DUP3 ADD SWAP2 JUMPDEST POP POP POP POP POP DUP2 MSTORE PUSH1 0x20 ADD PUSH1 0x2 DUP3 ADD DUP1 SLOAD PUSH3 0x533 SWAP1 PUSH3 0x2573 JUMP JUMPDEST DUP1 PUSH1 0x1F ADD PUSH1 0x20 DUP1 SWAP2 DIV MUL PUSH1 0x20 ADD PUSH1 0x40 MLOAD SWAP1 DUP2 ADD PUSH1 0x40 MSTORE DUP1 SWAP3 SWAP2 SWAP1 DUP2 DUP2 MSTORE PUSH1 0x20 ADD DUP3 DUP1 SLOAD PUSH3 0x561 SWAP1 PUSH3 0x2573 JUMP JUMPDEST DUP1 ISZERO PUSH3 0x5B2 JUMPI DUP1 PUSH1 0x1F LT PUSH3 0x586 JUMPI PUSH2 0x100 DUP1 DUP4 SLOAD DIV MUL DUP4 MSTORE SWAP2 PUSH1 0x20 ADD SWAP2 PUSH3 0x5B2 JUMP JUMPDEST DUP3 ADD SWAP2 SWAP1 PUSH1 0x0 MSTORE PUSH1 0x20 PUSH1 0x0 KECCAK256 SWAP1 JUMPDEST DUP2 SLOAD DUP2 MSTORE SWAP1 PUSH1 0x1 ADD SWAP1 PUSH1 0x20 ADD DUP1 DUP4 GT PUSH3 0x594 JUMPI DUP3 SWAP1 SUB PUSH1 0x1F AND DUP3 ADD SWAP2 JUMPDEST POP POP POP POP POP DUP2 MSTORE PUSH1 0x20 ADD PUSH1 0x3 DUP3 ADD DUP1 SLOAD PUSH3 0x5CD SWAP1 PUSH3 0x2573 JUMP JUMPDEST DUP1 PUSH1 0x1F ADD PUSH1 0x20 DUP1 SWAP2 DIV MUL PUSH1 0x20 ADD PUSH1 0x40 MLOAD SWAP1 DUP2 ADD PUSH1 0x40 MSTORE DUP1 SWAP3 SWAP2 SWAP1 DUP2 DUP2 MSTORE PUSH1 0x20 ADD DUP3 DUP1 SLOAD PUSH3 0x5FB SWAP1 PUSH3 0x2573 JUMP JUMPDEST DUP1 ISZERO PUSH3 0x64C JUMPI DUP1 PUSH1 0x1F LT PUSH3 0x620 JUMPI PUSH2 0x100 DUP1 DUP4 SLOAD DIV MUL DUP4 MSTORE SWAP2 PUSH1 0x20 ADD SWAP2 PUSH3 0x64C JUMP JUMPDEST DUP3 ADD SWAP2 SWAP1 PUSH1 0x0 MSTORE PUSH1 0x20 PUSH1 0x0 KECCAK256 SWAP1 JUMPDEST DUP2 SLOAD DUP2 MSTORE SWAP1 PUSH1 0x1 ADD SWAP1 PUSH1 0x20 ADD DUP1 DUP4 GT PUSH3 0x62E JUMPI DUP3 SWAP1 SUB PUSH1 0x1F AND DUP3 ADD SWAP2 JUMPDEST POP POP POP POP POP DUP2 MSTORE PUSH1 0x20 ADD PUSH1 0x4 DUP3 ADD DUP1 SLOAD PUSH3 0x667 SWAP1 PUSH3 0x2573 JUMP JUMPDEST DUP1 PUSH1 0x1F ADD PUSH1 0x20 DUP1 SWAP2 DIV MUL PUSH1 0x20 ADD PUSH1 0x40 MLOAD SWAP1 DUP2 ADD PUSH1 0x40 MSTORE DUP1 SWAP3 SWAP2 SWAP1 DUP2 DUP2 MSTORE PUSH1 0x20 ADD DUP3 DUP1 SLOAD PUSH3 0x695 SWAP1 PUSH3 0x2573 JUMP JUMPDEST DUP1 ISZERO PUSH3 0x6E6 JUMPI DUP1 PUSH1 0x1F LT PUSH3 0x6BA JUMPI PUSH2 0x100 DUP1 DUP4 SLOAD DIV MUL DUP4 MSTORE SWAP2 PUSH1 0x20 ADD SWAP2 PUSH3 0x6E6 JUMP JUMPDEST DUP3 ADD SWAP2 SWAP1 PUSH1 0x0 MSTORE PUSH1 0x20 PUSH1 0x0 KECCAK256 SWAP1 JUMPDEST DUP2 SLOAD DUP2 MSTORE SWAP1 PUSH1 0x1 ADD SWAP1 PUSH1 0x20 ADD DUP1 DUP4 GT PUSH3 0x6C8 JUMPI DUP3 SWAP1 SUB PUSH1 0x1F AND DUP3 ADD SWAP2 JUMPDEST POP POP POP POP POP DUP2 MSTORE PUSH1 0x20 ADD PUSH1 0x5 DUP3 ADD DUP1 SLOAD PUSH3 0x701 SWAP1 PUSH3 0x2573 JUMP JUMPDEST DUP1 PUSH1 0x1F ADD PUSH1 0x20 DUP1 SWAP2 DIV MUL PUSH1 0x20 ADD PUSH1 0x40 MLOAD SWAP1 DUP2 ADD PUSH1 0x40 MSTORE DUP1 SWAP3 SWAP2 SWAP1 DUP2 DUP2 MSTORE PUSH1 0x20 ADD DUP3 DUP1 SLOAD PUSH3 0x72F SWAP1 PUSH3 0x2573 JUMP JUMPDEST DUP1 ISZERO PUSH3 0x780 JUMPI DUP1 PUSH1 0x1F LT PUSH3 0x754 JUMPI PUSH2 0x100 DUP1 DUP4 SLOAD DIV MUL DUP4 MSTORE SWAP2 PUSH1 0x20 ADD SWAP2 PUSH3 0x780 JUMP JUMPDEST DUP3 ADD SWAP2 SWAP1 PUSH1 0x0 MSTORE PUSH1 0x20 PUSH1 0x0 KECCAK256 SWAP1 JUMPDEST DUP2 SLOAD DUP2 MSTORE SWAP1 PUSH1 0x1 ADD SWAP1 PUSH1 0x20 ADD DUP1 DUP4 GT PUSH3 0x762 JUMPI DUP3 SWAP1 SUB PUSH1 0x1F AND DUP3 ADD SWAP2 JUMPDEST POP POP POP POP POP DUP2 MSTORE PUSH1 0x20 ADD PUSH1 0x6 DUP3 ADD SLOAD DUP2 MSTORE PUSH1 0x20 ADD PUSH1 0x7 DUP3 ADD SLOAD DUP2 MSTORE PUSH1 0x20 ADD PUSH1 0x8 DUP3 ADD SLOAD DUP2 MSTORE PUSH1 0x20 ADD PUSH1 0x9 DUP3 ADD PUSH1 0x0 SWAP1 SLOAD SWAP1 PUSH2 0x100 EXP SWAP1 DIV PUSH20 0xFFFFFFFFFFFFFFFFFFFFFFFFFFFFFFFFFFFFFFFF AND PUSH20 0xFFFFFFFFFFFFFFFFFFFFFFFFFFFFFFFFFFFFFFFF AND PUSH20 0xFFFFFFFFFFFFFFFFFFFFFFFFFFFFFFFFFFFFFFFF AND DUP2 MSTORE PUSH1 0x20 ADD PUSH1 0xA DUP3 ADD PUSH1 0x0 SWAP1 SLOAD SWAP1 PUSH2 0x100 EXP SWAP1 DIV PUSH20 0xFFFFFFFFFFFFFFFFFFFFFFFFFFFFFFFFFFFFFFFF AND PUSH20 0xFFFFFFFFFFFFFFFFFFFFFFFFFFFFFFFFFFFFFFFF AND PUSH20 0xFFFFFFFFFFFFFFFFFFFFFFFFFFFFFFFFFFFFFFFF AND DUP2 MSTORE POP POP DUP5 DUP5 DUP2 MLOAD DUP2 LT PUSH3 0x869 JUMPI PUSH3 0x868 PUSH3 0x25A8 JUMP JUMPDEST JUMPDEST PUSH1 0x20 MUL PUSH1 0x20 ADD ADD DUP2 SWAP1 MSTORE POP DUP3 DUP1 PUSH3 0x881 SWAP1 PUSH3 0x2606 JUMP JUMPDEST SWAP4 POP POP JUMPDEST POP DUP1 DUP1 PUSH3 0x893 SWAP1 PUSH3 0x2606 JUMP JUMPDEST SWAP2 POP POP PUSH3 0x3F8 JUMP JUMPDEST POP DUP2 SWAP4 POP POP POP POP SWAP1 JUMP JUMPDEST PUSH1 0x60 PUSH1 0x0 PUSH3 0x8B6 PUSH1 0x0 PUSH3 0x18D9 JUMP JUMPDEST SWAP1 POP PUSH1 0x0 DUP1 DUP3 PUSH8 0xFFFFFFFFFFFFFFFF DUP2 GT ISZERO PUSH3 0x8D8 JUMPI PUSH3 0x8D7 PUSH3 0x1F46 JUMP JUMPDEST JUMPDEST PUSH1 0x40 MLOAD SWAP1 DUP1 DUP3 MSTORE DUP1 PUSH1 0x20 MUL PUSH1 0x20 ADD DUP3 ADD PUSH1 0x40 MSTORE DUP1 ISZERO PUSH3 0x915 JUMPI DUP2 PUSH1 0x20 ADD JUMPDEST PUSH3 0x901 PUSH3 0x18FD JUMP JUMPDEST DUP2 MSTORE PUSH1 0x20 ADD SWAP1 PUSH1 0x1 SWAP1 SUB SWAP1 DUP2 PUSH3 0x8F7 JUMPI SWAP1 POP JUMPDEST POP SWAP1 POP PUSH1 0x0 JUMPDEST DUP4 DUP2 LT ISZERO PUSH3 0xD66 JUMPI PUSH1 0x0 PUSH1 0x3 PUSH1 0x0 DUP4 DUP2 MSTORE PUSH1 0x20 ADD SWAP1 DUP2 MSTORE PUSH1 0x20 ADD PUSH1 0x0 KECCAK256 PUSH1 0x40 MLOAD DUP1 PUSH2 0x160 ADD PUSH1 0x40 MSTORE SWAP1 DUP2 PUSH1 0x0 DUP3 ADD SLOAD DUP2 MSTORE PUSH1 0x20 ADD PUSH1 0x1 DUP3 ADD DUP1 SLOAD PUSH3 0x961 SWAP1 PUSH3 0x2573 JUMP JUMPDEST DUP1 PUSH1 0x1F ADD PUSH1 0x20 DUP1 SWAP2 DIV MUL PUSH1 0x20 ADD PUSH1 0x40 MLOAD SWAP1 DUP2 ADD PUSH1 0x40 MSTORE DUP1 SWAP3 SWAP2 SWAP1 DUP2 DUP2 MSTORE PUSH1 0x20 ADD DUP3 DUP1 SLOAD PUSH3 0x98F SWAP1 PUSH3 0x2573 JUMP JUMPDEST DUP1 ISZERO PUSH3 0x9E0 JUMPI DUP1 PUSH1 0x1F LT PUSH3 0x9B4 JUMPI PUSH2 0x100 DUP1 DUP4 SLOAD DIV MUL DUP4 MSTORE SWAP2 PUSH1 0x20 ADD SWAP2 PUSH3 0x9E0 JUMP JUMPDEST DUP3 ADD SWAP2 SWAP1 PUSH1 0x0 MSTORE PUSH1 0x20 PUSH1 0x0 KECCAK256 SWAP1 JUMPDEST DUP2 SLOAD DUP2 MSTORE SWAP1 PUSH1 0x1 ADD SWAP1 PUSH1 0x20 ADD DUP1 DUP4 GT PUSH3 0x9C2 JUMPI DUP3 SWAP1 SUB PUSH1 0x1F AND DUP3 ADD SWAP2 JUMPDEST POP POP POP POP POP DUP2 MSTORE PUSH1 0x20 ADD PUSH1 0x2 DUP3 ADD DUP1 SLOAD PUSH3 0x9FB SWAP1 PUSH3 0x2573 JUMP JUMPDEST DUP1 PUSH1 0x1F ADD PUSH1 0x20 DUP1 SWAP2 DIV MUL PUSH1 0x20 ADD PUSH1 0x40 MLOAD SWAP1 DUP2 ADD PUSH1 0x40 MSTORE DUP1 SWAP3 SWAP2 SWAP1 DUP2 DUP2 MSTORE PUSH1 0x20 ADD DUP3 DUP1 SLOAD PUSH3 0xA29 SWAP1 PUSH3 0x2573 JUMP JUMPDEST DUP1 ISZERO PUSH3 0xA7A JUMPI DUP1 PUSH1 0x1F LT PUSH3 0xA4E JUMPI PUSH2 0x100 DUP1 DUP4 SLOAD DIV MUL DUP4 MSTORE SWAP2 PUSH1 0x20 ADD SWAP2 PUSH3 0xA7A JUMP JUMPDEST DUP3 ADD SWAP2 SWAP1 PUSH1 0x0 MSTORE PUSH1 0x20 PUSH1 0x0 KECCAK256 SWAP1 JUMPDEST DUP2 SLOAD DUP2 MSTORE SWAP1 PUSH1 0x1 ADD SWAP1 PUSH1 0x20 ADD DUP1 DUP4 GT PUSH3 0xA5C JUMPI DUP3 SWAP1 SUB PUSH1 0x1F AND DUP3 ADD SWAP2 JUMPDEST POP POP POP POP POP DUP2 MSTORE PUSH1 0x20 ADD PUSH1 0x3 DUP3 ADD DUP1 SLOAD PUSH3 0xA95 SWAP1 PUSH3 0x2573 JUMP JUMPDEST DUP1 PUSH1 0x1F ADD PUSH1 0x20 DUP1 SWAP2 DIV MUL PUSH1 0x20 ADD PUSH1 0x40 MLOAD SWAP1 DUP2 ADD PUSH1 0x40 MSTORE DUP1 SWAP3 SWAP2 SWAP1 DUP2 DUP2 MSTORE PUSH1 0x20 ADD DUP3 DUP1 SLOAD PUSH3 0xAC3 SWAP1 PUSH3 0x2573 JUMP JUMPDEST DUP1 ISZERO PUSH3 0xB14 JUMPI DUP1 PUSH1 0x1F LT PUSH3 0xAE8 JUMPI PUSH2 0x100 DUP1 DUP4 SLOAD DIV MUL DUP4 MSTORE SWAP2 PUSH1 0x20 ADD SWAP2 PUSH3 0xB14 JUMP JUMPDEST DUP3 ADD SWAP2 SWAP1 PUSH1 0x0 MSTORE PUSH1 0x20 PUSH1 0x0 KECCAK256 SWAP1 JUMPDEST DUP2 SLOAD DUP2 MSTORE SWAP1 PUSH1 0x1 ADD SWAP1 PUSH1 0x20 ADD DUP1 DUP4 GT PUSH3 0xAF6 JUMPI DUP3 SWAP1 SUB PUSH1 0x1F AND DUP3 ADD SWAP2 JUMPDEST POP POP POP POP POP DUP2 MSTORE PUSH1 0x20 ADD PUSH1 0x4 DUP3 ADD DUP1 SLOAD PUSH3 0xB2F SWAP1 PUSH3 0x2573 JUMP JUMPDEST DUP1 PUSH1 0x1F ADD PUSH1 0x20 DUP1 SWAP2 DIV MUL PUSH1 0x20 ADD PUSH1 0x40 MLOAD SWAP1 DUP2 ADD PUSH1 0x40 MSTORE DUP1 SWAP3 SWAP2 SWAP1 DUP2 DUP2 MSTORE PUSH1 0x20 ADD DUP3 DUP1 SLOAD PUSH3 0xB5D SWAP1 PUSH3 0x2573 JUMP JUMPDEST DUP1 ISZERO PUSH3 0xBAE JUMPI DUP1 PUSH1 0x1F LT PUSH3 0xB82 JUMPI PUSH2 0x100 DUP1 DUP4 SLOAD DIV MUL DUP4 MSTORE SWAP2 PUSH1 0x20 ADD SWAP2 PUSH3 0xBAE JUMP JUMPDEST DUP3 ADD SWAP2 SWAP1 PUSH1 0x0 MSTORE PUSH1 0x20 PUSH1 0x0 KECCAK256 SWAP1 JUMPDEST DUP2 SLOAD DUP2 MSTORE SWAP1 PUSH1 0x1 ADD SWAP1 PUSH1 0x20 ADD DUP1 DUP4 GT PUSH3 0xB90 JUMPI DUP3 SWAP1 SUB PUSH1 0x1F AND DUP3 ADD SWAP2 JUMPDEST POP POP POP POP POP DUP2 MSTORE PUSH1 0x20 ADD PUSH1 0x5 DUP3 ADD DUP1 SLOAD PUSH3 0xBC9 SWAP1 PUSH3 0x2573 JUMP JUMPDEST DUP1 PUSH1 0x1F ADD PUSH1 0x20 DUP1 SWAP2 DIV MUL PUSH1 0x20 ADD PUSH1 0x40 MLOAD SWAP1 DUP2 ADD PUSH1 0x40 MSTORE DUP1 SWAP3 SWAP2 SWAP1 DUP2 DUP2 MSTORE PUSH1 0x20 ADD DUP3 DUP1 SLOAD PUSH3 0xBF7 SWAP1 PUSH3 0x2573 JUMP JUMPDEST DUP1 ISZERO PUSH3 0xC48 JUMPI DUP1 PUSH1 0x1F LT PUSH3 0xC1C JUMPI PUSH2 0x100 DUP1 DUP4 SLOAD DIV MUL DUP4 MSTORE SWAP2 PUSH1 0x20 ADD SWAP2 PUSH3 0xC48 JUMP JUMPDEST DUP3 ADD SWAP2 SWAP1 PUSH1 0x0 MSTORE PUSH1 0x20 PUSH1 0x0 KECCAK256 SWAP1 JUMPDEST DUP2 SLOAD DUP2 MSTORE SWAP1 PUSH1 0x1 ADD SWAP1 PUSH1 0x20 ADD DUP1 DUP4 GT PUSH3 0xC2A JUMPI DUP3 SWAP1 SUB PUSH1 0x1F AND DUP3 ADD SWAP2 JUMPDEST POP POP POP POP POP DUP2 MSTORE PUSH1 0x20 ADD PUSH1 0x6 DUP3 ADD SLOAD DUP2 MSTORE PUSH1 0x20 ADD PUSH1 0x7 DUP3 ADD SLOAD DUP2 MSTORE PUSH1 0x20 ADD PUSH1 0x8 DUP3 ADD SLOAD DUP2 MSTORE PUSH1 0x20 ADD PUSH1 0x9 DUP3 ADD PUSH1 0x0 SWAP1 SLOAD SWAP1 PUSH2 0x100 EXP SWAP1 DIV PUSH20 0xFFFFFFFFFFFFFFFFFFFFFFFFFFFFFFFFFFFFFFFF AND PUSH20 0xFFFFFFFFFFFFFFFFFFFFFFFFFFFFFFFFFFFFFFFF AND PUSH20 0xFFFFFFFFFFFFFFFFFFFFFFFFFFFFFFFFFFFFFFFF AND DUP2 MSTORE PUSH1 0x20 ADD PUSH1 0xA DUP3 ADD PUSH1 0x0 SWAP1 SLOAD SWAP1 PUSH2 0x100 EXP SWAP1 DIV PUSH20 0xFFFFFFFFFFFFFFFFFFFFFFFFFFFFFFFFFFFFFFFF AND PUSH20 0xFFFFFFFFFFFFFFFFFFFFFFFFFFFFFFFFFFFFFFFF AND PUSH20 0xFFFFFFFFFFFFFFFFFFFFFFFFFFFFFFFFFFFFFFFF AND DUP2 MSTORE POP POP SWAP1 POP DUP1 DUP4 DUP6 DUP2 MLOAD DUP2 LT PUSH3 0xD34 JUMPI PUSH3 0xD33 PUSH3 0x25A8 JUMP JUMPDEST JUMPDEST PUSH1 0x20 MUL PUSH1 0x20 ADD ADD DUP2 SWAP1 MSTORE POP DUP4 DUP1 PUSH3 0xD4C SWAP1 PUSH3 0x2606 JUMP JUMPDEST SWAP5 POP POP POP DUP1 DUP1 PUSH3 0xD5D SWAP1 PUSH3 0x2606 JUMP JUMPDEST SWAP2 POP POP PUSH3 0x91B JUMP JUMPDEST POP DUP1 SWAP4 POP POP POP POP SWAP1 JUMP JUMPDEST PUSH3 0xD7A PUSH3 0x18FD JUMP JUMPDEST PUSH1 0x0 PUSH1 0x3 PUSH1 0x0 DUP5 DUP2 MSTORE PUSH1 0x20 ADD SWAP1 DUP2 MSTORE PUSH1 0x20 ADD PUSH1 0x0 KECCAK256 PUSH1 0x40 MLOAD DUP1 PUSH2 0x160 ADD PUSH1 0x40 MSTORE SWAP1 DUP2 PUSH1 0x0 DUP3 ADD SLOAD DUP2 MSTORE PUSH1 0x20 ADD PUSH1 0x1 DUP3 ADD DUP1 SLOAD PUSH3 0xDB7 SWAP1 PUSH3 0x2573 JUMP JUMPDEST DUP1 PUSH1 0x1F ADD PUSH1 0x20 DUP1 SWAP2 DIV MUL PUSH1 0x20 ADD PUSH1 0x40 MLOAD SWAP1 DUP2 ADD PUSH1 0x40 MSTORE DUP1 SWAP3 SWAP2 SWAP1 DUP2 DUP2 MSTORE PUSH1 0x20 ADD DUP3 DUP1 SLOAD PUSH3 0xDE5 SWAP1 PUSH3 0x2573 JUMP JUMPDEST DUP1 ISZERO PUSH3 0xE36 JUMPI DUP1 PUSH1 0x1F LT PUSH3 0xE0A JUMPI PUSH2 0x100 DUP1 DUP4 SLOAD DIV MUL DUP4 MSTORE SWAP2 PUSH1 0x20 ADD SWAP2 PUSH3 0xE36 JUMP JUMPDEST DUP3 ADD SWAP2 SWAP1 PUSH1 0x0 MSTORE PUSH1 0x20 PUSH1 0x0 KECCAK256 SWAP1 JUMPDEST DUP2 SLOAD DUP2 MSTORE SWAP1 PUSH1 0x1 ADD SWAP1 PUSH1 0x20 ADD DUP1 DUP4 GT PUSH3 0xE18 JUMPI DUP3 SWAP1 SUB PUSH1 0x1F AND DUP3 ADD SWAP2 JUMPDEST POP POP POP POP POP DUP2 MSTORE PUSH1 0x20 ADD PUSH1 0x2 DUP3 ADD DUP1 SLOAD PUSH3 0xE51 SWAP1 PUSH3 0x2573 JUMP JUMPDEST DUP1 PUSH1 0x1F ADD PUSH1 0x20 DUP1 SWAP2 DIV MUL PUSH1 0x20 ADD PUSH1 0x40 MLOAD SWAP1 DUP2 ADD PUSH1 0x40 MSTORE DUP1 SWAP3 SWAP2 SWAP1 DUP2 DUP2 MSTORE PUSH1 0x20 ADD DUP3 DUP1 SLOAD PUSH3 0xE7F SWAP1 PUSH3 0x2573 JUMP JUMPDEST DUP1 ISZERO PUSH3 0xED0 JUMPI DUP1 PUSH1 0x1F LT PUSH3 0xEA4 JUMPI PUSH2 0x100 DUP1 DUP4 SLOAD DIV MUL DUP4 MSTORE SWAP2 PUSH1 0x20 ADD SWAP2 PUSH3 0xED0 JUMP JUMPDEST DUP3 ADD SWAP2 SWAP1 PUSH1 0x0 MSTORE PUSH1 0x20 PUSH1 0x0 KECCAK256 SWAP1 JUMPDEST DUP2 SLOAD DUP2 MSTORE SWAP1 PUSH1 0x1 ADD SWAP1 PUSH1 0x20 ADD DUP1 DUP4 GT PUSH3 0xEB2 JUMPI DUP3 SWAP1 SUB PUSH1 0x1F AND DUP3 ADD SWAP2 JUMPDEST POP POP POP POP POP DUP2 MSTORE PUSH1 0x20 ADD PUSH1 0x3 DUP3 ADD DUP1 SLOAD PUSH3 0xEEB SWAP1 PUSH3 0x2573 JUMP JUMPDEST DUP1 PUSH1 0x1F ADD PUSH1 0x20 DUP1 SWAP2 DIV MUL PUSH1 0x20 ADD PUSH1 0x40 MLOAD SWAP1 DUP2 ADD PUSH1 0x40 MSTORE DUP1 SWAP3 SWAP2 SWAP1 DUP2 DUP2 MSTORE PUSH1 0x20 ADD DUP3 DUP1 SLOAD PUSH3 0xF19 SWAP1 PUSH3 0x2573 JUMP JUMPDEST DUP1 ISZERO PUSH3 0xF6A JUMPI DUP1 PUSH1 0x1F LT PUSH3 0xF3E JUMPI PUSH2 0x100 DUP1 DUP4 SLOAD DIV MUL DUP4 MSTORE SWAP2 PUSH1 0x20 ADD SWAP2 PUSH3 0xF6A JUMP JUMPDEST DUP3 ADD SWAP2 SWAP1 PUSH1 0x0 MSTORE PUSH1 0x20 PUSH1 0x0 KECCAK256 SWAP1 JUMPDEST DUP2 SLOAD DUP2 MSTORE SWAP1 PUSH1 0x1 ADD SWAP1 PUSH1 0x20 ADD DUP1 DUP4 GT PUSH3 0xF4C JUMPI DUP3 SWAP1 SUB PUSH1 0x1F AND DUP3 ADD SWAP2 JUMPDEST POP POP POP POP POP DUP2 MSTORE PUSH1 0x20 ADD PUSH1 0x4 DUP3 ADD DUP1 SLOAD PUSH3 0xF85 SWAP1 PUSH3 0x2573 JUMP JUMPDEST DUP1 PUSH1 0x1F ADD PUSH1 0x20 DUP1 SWAP2 DIV MUL PUSH1 0x20 ADD PUSH1 0x40 MLOAD SWAP1 DUP2 ADD PUSH1 0x40 MSTORE DUP1 SWAP3 SWAP2 SWAP1 DUP2 DUP2 MSTORE PUSH1 0x20 ADD DUP3 DUP1 SLOAD PUSH3 0xFB3 SWAP1 PUSH3 0x2573 JUMP JUMPDEST DUP1 ISZERO PUSH3 0x1004 JUMPI DUP1 PUSH1 0x1F LT PUSH3 0xFD8 JUMPI PUSH2 0x100 DUP1 DUP4 SLOAD DIV MUL DUP4 MSTORE SWAP2 PUSH1 0x20 ADD SWAP2 PUSH3 0x1004 JUMP JUMPDEST DUP3 ADD SWAP2 SWAP1 PUSH1 0x0 MSTORE PUSH1 0x20 PUSH1 0x0 KECCAK256 SWAP1 JUMPDEST DUP2 SLOAD DUP2 MSTORE SWAP1 PUSH1 0x1 ADD SWAP1 PUSH1 0x20 ADD DUP1 DUP4 GT PUSH3 0xFE6 JUMPI DUP3 SWAP1 SUB PUSH1 0x1F AND DUP3 ADD SWAP2 JUMPDEST POP POP POP POP POP DUP2 MSTORE PUSH1 0x20 ADD PUSH1 0x5 DUP3 ADD DUP1 SLOAD PUSH3 0x101F SWAP1 PUSH3 0x2573 JUMP JUMPDEST DUP1 PUSH1 0x1F ADD PUSH1 0x20 DUP1 SWAP2 DIV MUL PUSH1 0x20 ADD PUSH1 0x40 MLOAD SWAP1 DUP2 ADD PUSH1 0x40 MSTORE DUP1 SWAP3 SWAP2 SWAP1 DUP2 DUP2 MSTORE PUSH1 0x20 ADD DUP3 DUP1 SLOAD PUSH3 0x104D SWAP1 PUSH3 0x2573 JUMP JUMPDEST DUP1 ISZERO PUSH3 0x109E JUMPI DUP1 PUSH1 0x1F LT PUSH3 0x1072 JUMPI PUSH2 0x100 DUP1 DUP4 SLOAD DIV MUL DUP4 MSTORE SWAP2 PUSH1 0x20 ADD SWAP2 PUSH3 0x109E JUMP JUMPDEST DUP3 ADD SWAP2 SWAP1 PUSH1 0x0 MSTORE PUSH1 0x20 PUSH1 0x0 KECCAK256 SWAP1 JUMPDEST DUP2 SLOAD DUP2 MSTORE SWAP1 PUSH1 0x1 ADD SWAP1 PUSH1 0x20 ADD DUP1 DUP4 GT PUSH3 0x1080 JUMPI DUP3 SWAP1 SUB PUSH1 0x1F AND DUP3 ADD SWAP2 JUMPDEST POP POP POP POP POP DUP2 MSTORE PUSH1 0x20 ADD PUSH1 0x6 DUP3 ADD SLOAD DUP2 MSTORE PUSH1 0x20 ADD PUSH1 0x7 DUP3 ADD SLOAD DUP2 MSTORE PUSH1 0x20 ADD PUSH1 0x8 DUP3 ADD SLOAD DUP2 MSTORE PUSH1 0x20 ADD PUSH1 0x9 DUP3 ADD PUSH1 0x0 SWAP1 SLOAD SWAP1 PUSH2 0x100 EXP SWAP1 DIV PUSH20 0xFFFFFFFFFFFFFFFFFFFFFFFFFFFFFFFFFFFFFFFF AND PUSH20 0xFFFFFFFFFFFFFFFFFFFFFFFFFFFFFFFFFFFFFFFF AND PUSH20 0xFFFFFFFFFFFFFFFFFFFFFFFFFFFFFFFFFFFFFFFF AND DUP2 MSTORE PUSH1 0x20 ADD PUSH1 0xA DUP3 ADD PUSH1 0x0 SWAP1 SLOAD SWAP1 PUSH2 0x100 EXP SWAP1 DIV PUSH20 0xFFFFFFFFFFFFFFFFFFFFFFFFFFFFFFFFFFFFFFFF AND PUSH20 0xFFFFFFFFFFFFFFFFFFFFFFFFFFFFFFFFFFFFFFFF AND PUSH20 0xFFFFFFFFFFFFFFFFFFFFFFFFFFFFFFFFFFFFFFFF AND DUP2 MSTORE POP POP SWAP1 POP DUP1 SWAP2 POP POP SWAP2 SWAP1 POP JUMP JUMPDEST DUP2 CALLVALUE EQ PUSH3 0x11C1 JUMPI PUSH1 0x40 MLOAD PUSH32 0x8C379A000000000000000000000000000000000000000000000000000000000 DUP2 MSTORE PUSH1 0x4 ADD PUSH3 0x11B8 SWAP1 PUSH3 0x26C9 JUMP JUMPDEST PUSH1 0x40 MLOAD DUP1 SWAP2 SUB SWAP1 REVERT JUMPDEST PUSH1 0x0 PUSH3 0x11CF PUSH1 0x0 PUSH3 0x18D9 JUMP JUMPDEST SWAP1 POP PUSH1 0x0 CALLER DUP4 DUP6 PUSH1 0x40 MLOAD PUSH3 0x11E4 SWAP1 PUSH3 0x1983 JUMP JUMPDEST PUSH3 0x11F2 SWAP4 SWAP3 SWAP2 SWAP1 PUSH3 0x26EB JUMP JUMPDEST PUSH1 0x40 MLOAD DUP1 SWAP2 SUB SWAP1 PUSH1 0x0 CREATE DUP1 ISZERO DUP1 ISZERO PUSH3 0x120F JUMPI RETURNDATASIZE PUSH1 0x0 DUP1 RETURNDATACOPY RETURNDATASIZE PUSH1 0x0 REVERT JUMPDEST POP SWAP1 POP PUSH1 0x0 PUSH1 0x40 MLOAD DUP1 PUSH2 0x160 ADD PUSH1 0x40 MSTORE DUP1 DUP5 DUP2 MSTORE PUSH1 0x20 ADD DUP12 DUP2 MSTORE PUSH1 0x20 ADD DUP11 DUP2 MSTORE PUSH1 0x20 ADD DUP10 DUP2 MSTORE PUSH1 0x20 ADD DUP9 DUP2 MSTORE PUSH1 0x20 ADD DUP8 DUP2 MSTORE PUSH1 0x20 ADD DUP7 DUP2 MSTORE PUSH1 0x20 ADD TIMESTAMP DUP2 MSTORE PUSH1 0x20 ADD DUP6 DUP2 MSTORE PUSH1 0x20 ADD CALLER PUSH20 0xFFFFFFFFFFFFFFFFFFFFFFFFFFFFFFFFFFFFFFFF AND DUP2 MSTORE PUSH1 0x20 ADD DUP4 PUSH20 0xFFFFFFFFFFFFFFFFFFFFFFFFFFFFFFFFFFFFFFFF AND DUP2 MSTORE POP SWAP1 POP DUP1 PUSH1 0x3 PUSH1 0x0 DUP6 DUP2 MSTORE PUSH1 0x20 ADD SWAP1 DUP2 MSTORE PUSH1 0x20 ADD PUSH1 0x0 KECCAK256 PUSH1 0x0 DUP3 ADD MLOAD DUP2 PUSH1 0x0 ADD SSTORE PUSH1 0x20 DUP3 ADD MLOAD DUP2 PUSH1 0x1 ADD SWAP1 DUP2 PUSH3 0x12C3 SWAP2 SWAP1 PUSH3 0x28F0 JUMP JUMPDEST POP PUSH1 0x40 DUP3 ADD MLOAD DUP2 PUSH1 0x2 ADD SWAP1 DUP2 PUSH3 0x12DB SWAP2 SWAP1 PUSH3 0x28F0 JUMP JUMPDEST POP PUSH1 0x60 DUP3 ADD MLOAD DUP2 PUSH1 0x3 ADD SWAP1 DUP2 PUSH3 0x12F3 SWAP2 SWAP1 PUSH3 0x28F0 JUMP JUMPDEST POP PUSH1 0x80 DUP3 ADD MLOAD DUP2 PUSH1 0x4 ADD SWAP1 DUP2 PUSH3 0x130B SWAP2 SWAP1 PUSH3 0x28F0 JUMP JUMPDEST POP PUSH1 0xA0 DUP3 ADD MLOAD DUP2 PUSH1 0x5 ADD SWAP1 DUP2 PUSH3 0x1323 SWAP2 SWAP1 PUSH3 0x28F0 JUMP JUMPDEST POP PUSH1 0xC0 DUP3 ADD MLOAD DUP2 PUSH1 0x6 ADD SSTORE PUSH1 0xE0 DUP3 ADD MLOAD DUP2 PUSH1 0x7 ADD SSTORE PUSH2 0x100 DUP3 ADD MLOAD DUP2 PUSH1 0x8 ADD SSTORE PUSH2 0x120 DUP3 ADD MLOAD DUP2 PUSH1 0x9 ADD PUSH1 0x0 PUSH2 0x100 EXP DUP2 SLOAD DUP2 PUSH20 0xFFFFFFFFFFFFFFFFFFFFFFFFFFFFFFFFFFFFFFFF MUL NOT AND SWAP1 DUP4 PUSH20 0xFFFFFFFFFFFFFFFFFFFFFFFFFFFFFFFFFFFFFFFF AND MUL OR SWAP1 SSTORE POP PUSH2 0x140 DUP3 ADD MLOAD DUP2 PUSH1 0xA ADD PUSH1 0x0 PUSH2 0x100 EXP DUP2 SLOAD DUP2 PUSH20 0xFFFFFFFFFFFFFFFFFFFFFFFFFFFFFFFFFFFFFFFF MUL NOT AND SWAP1 DUP4 PUSH20 0xFFFFFFFFFFFFFFFFFFFFFFFFFFFFFFFFFFFFFFFF AND MUL OR SWAP1 SSTORE POP SWAP1 POP POP PUSH3 0x13E2 PUSH1 0x0 PUSH3 0x18E7 JUMP JUMPDEST DUP2 PUSH20 0xFFFFFFFFFFFFFFFFFFFFFFFFFFFFFFFFFFFFFFFF AND PUSH2 0x8FC CALLVALUE SWAP1 DUP2 ISZERO MUL SWAP1 PUSH1 0x40 MLOAD PUSH1 0x0 PUSH1 0x40 MLOAD DUP1 DUP4 SUB DUP2 DUP6 DUP9 DUP9 CALL SWAP4 POP POP POP POP ISZERO DUP1 ISZERO PUSH3 0x1429 JUMPI RETURNDATASIZE PUSH1 0x0 DUP1 RETURNDATACOPY RETURNDATASIZE PUSH1 0x0 REVERT JUMPDEST POP PUSH32 0x71118D02C87017CAD0298C6ECE1CDA0B1BCDB0A412B2A819038F352216C400E3 DUP4 DUP12 DUP12 DUP12 DUP12 DUP12 DUP12 TIMESTAMP DUP13 CALLER DUP13 PUSH1 0x40 MLOAD PUSH3 0x146F SWAP12 SWAP11 SWAP10 SWAP9 SWAP8 SWAP7 SWAP6 SWAP5 SWAP4 SWAP3 SWAP2 SWAP1 PUSH3 0x2313 JUMP JUMPDEST PUSH1 0x40 MLOAD DUP1 SWAP2 SUB SWAP1 LOG1 POP POP POP POP POP POP POP POP POP POP JUMP JUMPDEST PUSH1 0x0 DUP1 PUSH1 0x2 PUSH1 0x0 SWAP1 SLOAD SWAP1 PUSH2 0x100 EXP SWAP1 DIV PUSH20 0xFFFFFFFFFFFFFFFFFFFFFFFFFFFFFFFFFFFFFFFF AND PUSH20 0xFFFFFFFFFFFFFFFFFFFFFFFFFFFFFFFFFFFFFFFF AND PUSH4 0xFEAF968C PUSH1 0x40 MLOAD DUP2 PUSH4 0xFFFFFFFF AND PUSH1 0xE0 SHL DUP2 MSTORE PUSH1 0x4 ADD PUSH1 0xA0 PUSH1 0x40 MLOAD DUP1 DUP4 SUB DUP2 DUP7 GAS STATICCALL ISZERO DUP1 ISZERO PUSH3 0x14F4 JUMPI RETURNDATASIZE PUSH1 0x0 DUP1 RETURNDATACOPY RETURNDATASIZE PUSH1 0x0 REVERT JUMPDEST POP POP POP POP PUSH1 0x40 MLOAD RETURNDATASIZE PUSH1 0x1F NOT PUSH1 0x1F DUP3 ADD AND DUP3 ADD DUP1 PUSH1 0x40 MSTORE POP DUP2 ADD SWAP1 PUSH3 0x151A SWAP2 SWAP1 PUSH3 0x2A66 JUMP JUMPDEST POP POP POP SWAP2 POP POP PUSH8 0xDE0B6B3A7640000 DUP2 PUSH3 0x1536 SWAP2 SWAP1 PUSH3 0x2B1D JUMP JUMPDEST SWAP2 POP POP SWAP1 JUMP JUMPDEST PUSH1 0x4 PUSH1 0x20 MSTORE DUP2 PUSH1 0x0 MSTORE PUSH1 0x40 PUSH1 0x0 KECCAK256 PUSH1 0x20 MSTORE DUP1 PUSH1 0x0 MSTORE PUSH1 0x40 PUSH1 0x0 KECCAK256 PUSH1 0x0 SWAP2 POP SWAP2 POP POP DUP1 PUSH1 0x0 ADD SLOAD SWAP1 DUP1 PUSH1 0x1 ADD DUP1 SLOAD PUSH3 0x1574 SWAP1 PUSH3 0x2573 JUMP JUMPDEST DUP1 PUSH1 0x1F ADD PUSH1 0x20 DUP1 SWAP2 DIV MUL PUSH1 0x20 ADD PUSH1 0x40 MLOAD SWAP1 DUP2 ADD PUSH1 0x40 MSTORE DUP1 SWAP3 SWAP2 SWAP1 DUP2 DUP2 MSTORE PUSH1 0x20 ADD DUP3 DUP1 SLOAD PUSH3 0x15A2 SWAP1 PUSH3 0x2573 JUMP JUMPDEST DUP1 ISZERO PUSH3 0x15F3 JUMPI DUP1 PUSH1 0x1F LT PUSH3 0x15C7 JUMPI PUSH2 0x100 DUP1 DUP4 SLOAD DIV MUL DUP4 MSTORE SWAP2 PUSH1 0x20 ADD SWAP2 PUSH3 0x15F3 JUMP JUMPDEST DUP3 ADD SWAP2 SWAP1 PUSH1 0x0 MSTORE PUSH1 0x20 PUSH1 0x0 KECCAK256 SWAP1 JUMPDEST DUP2 SLOAD DUP2 MSTORE SWAP1 PUSH1 0x1 ADD SWAP1 PUSH1 0x20 ADD DUP1 DUP4 GT PUSH3 0x15D5 JUMPI DUP3 SWAP1 SUB PUSH1 0x1F AND DUP3 ADD SWAP2 JUMPDEST POP POP POP POP POP SWAP1 DUP1 PUSH1 0x2 ADD DUP1 SLOAD PUSH3 0x160A SWAP1 PUSH3 0x2573 JUMP JUMPDEST DUP1 PUSH1 0x1F ADD PUSH1 0x20 DUP1 SWAP2 DIV MUL PUSH1 0x20 ADD PUSH1 0x40 MLOAD SWAP1 DUP2 ADD PUSH1 0x40 MSTORE DUP1 SWAP3 SWAP2 SWAP1 DUP2 DUP2 MSTORE PUSH1 0x20 ADD DUP3 DUP1 SLOAD PUSH3 0x1638 SWAP1 PUSH3 0x2573 JUMP JUMPDEST DUP1 ISZERO PUSH3 0x1689 JUMPI DUP1 PUSH1 0x1F LT PUSH3 0x165D JUMPI PUSH2 0x100 DUP1 DUP4 SLOAD DIV MUL DUP4 MSTORE SWAP2 PUSH1 0x20 ADD SWAP2 PUSH3 0x1689 JUMP JUMPDEST DUP3 ADD SWAP2 SWAP1 PUSH1 0x0 MSTORE PUSH1 0x20 PUSH1 0x0 KECCAK256 SWAP1 JUMPDEST DUP2 SLOAD DUP2 MSTORE SWAP1 PUSH1 0x1 ADD SWAP1 PUSH1 0x20 ADD DUP1 DUP4 GT PUSH3 0x166B JUMPI DUP3 SWAP1 SUB PUSH1 0x1F AND DUP3 ADD SWAP2 JUMPDEST POP POP POP POP POP SWAP1 DUP1 PUSH1 0x3 ADD DUP1 SLOAD PUSH3 0x16A0 SWAP1 PUSH3 0x2573 JUMP JUMPDEST DUP1 PUSH1 0x1F ADD PUSH1 0x20 DUP1 SWAP2 DIV MUL PUSH1 0x20 ADD PUSH1 0x40 MLOAD SWAP1 DUP2 ADD PUSH1 0x40 MSTORE DUP1 SWAP3 SWAP2 SWAP1 DUP2 DUP2 MSTORE PUSH1 0x20 ADD DUP3 DUP1 SLOAD PUSH3 0x16CE SWAP1 PUSH3 0x2573 JUMP JUMPDEST DUP1 ISZERO PUSH3 0x171F JUMPI DUP1 PUSH1 0x1F LT PUSH3 0x16F3 JUMPI PUSH2 0x100 DUP1 DUP4 SLOAD DIV MUL DUP4 MSTORE SWAP2 PUSH1 0x20 ADD SWAP2 PUSH3 0x171F JUMP JUMPDEST DUP3 ADD SWAP2 SWAP1 PUSH1 0x0 MSTORE PUSH1 0x20 PUSH1 0x0 KECCAK256 SWAP1 JUMPDEST DUP2 SLOAD DUP2 MSTORE SWAP1 PUSH1 0x1 ADD SWAP1 PUSH1 0x20 ADD DUP1 DUP4 GT PUSH3 0x1701 JUMPI DUP3 SWAP1 SUB PUSH1 0x1F AND DUP3 ADD SWAP2 JUMPDEST POP POP POP POP POP SWAP1 DUP1 PUSH1 0x4 ADD DUP1 SLOAD PUSH3 0x1736 SWAP1 PUSH3 0x2573 JUMP JUMPDEST DUP1 PUSH1 0x1F ADD PUSH1 0x20 DUP1 SWAP2 DIV MUL PUSH1 0x20 ADD PUSH1 0x40 MLOAD SWAP1 DUP2 ADD PUSH1 0x40 MSTORE DUP1 SWAP3 SWAP2 SWAP1 DUP2 DUP2 MSTORE PUSH1 0x20 ADD DUP3 DUP1 SLOAD PUSH3 0x1764 SWAP1 PUSH3 0x2573 JUMP JUMPDEST DUP1 ISZERO PUSH3 0x17B5 JUMPI DUP1 PUSH1 0x1F LT PUSH3 0x1789 JUMPI PUSH2 0x100 DUP1 DUP4 SLOAD DIV MUL DUP4 MSTORE SWAP2 PUSH1 0x20 ADD SWAP2 PUSH3 0x17B5 JUMP JUMPDEST DUP3 ADD SWAP2 SWAP1 PUSH1 0x0 MSTORE PUSH1 0x20 PUSH1 0x0 KECCAK256 SWAP1 JUMPDEST DUP2 SLOAD DUP2 MSTORE SWAP1 PUSH1 0x1 ADD SWAP1 PUSH1 0x20 ADD DUP1 DUP4 GT PUSH3 0x1797 JUMPI DUP3 SWAP1 SUB PUSH1 0x1F AND DUP3 ADD SWAP2 JUMPDEST POP POP POP POP POP SWAP1 DUP1 PUSH1 0x5 ADD DUP1 SLOAD PUSH3 0x17CC SWAP1 PUSH3 0x2573 JUMP JUMPDEST DUP1 PUSH1 0x1F ADD PUSH1 0x20 DUP1 SWAP2 DIV MUL PUSH1 0x20 ADD PUSH1 0x40 MLOAD SWAP1 DUP2 ADD PUSH1 0x40 MSTORE DUP1 SWAP3 SWAP2 SWAP1 DUP2 DUP2 MSTORE PUSH1 0x20 ADD DUP3 DUP1 SLOAD PUSH3 0x17FA SWAP1 PUSH3 0x2573 JUMP JUMPDEST DUP1 ISZERO PUSH3 0x184B JUMPI DUP1 PUSH1 0x1F LT PUSH3 0x181F JUMPI PUSH2 0x100 DUP1 DUP4 SLOAD DIV MUL DUP4 MSTORE SWAP2 PUSH1 0x20 ADD SWAP2 PUSH3 0x184B JUMP JUMPDEST DUP3 ADD SWAP2 SWAP1 PUSH1 0x0 MSTORE PUSH1 0x20 PUSH1 0x0 KECCAK256 SWAP1 JUMPDEST DUP2 SLOAD DUP2 MSTORE SWAP1 PUSH1 0x1 ADD SWAP1 PUSH1 0x20 ADD DUP1 DUP4 GT PUSH3 0x182D JUMPI DUP3 SWAP1 SUB PUSH1 0x1F AND DUP3 ADD SWAP2 JUMPDEST POP POP POP POP POP SWAP1 DUP1 PUSH1 0x6 ADD SLOAD SWAP1 DUP1 PUSH1 0x7 ADD SLOAD SWAP1 DUP1 PUSH1 0x8 ADD SLOAD SWAP1 DUP1 PUSH1 0x9 ADD PUSH1 0x0 SWAP1 SLOAD SWAP1 PUSH2 0x100 EXP SWAP1 DIV PUSH20 0xFFFFFFFFFFFFFFFFFFFFFFFFFFFFFFFFFFFFFFFF AND SWAP1 DUP1 PUSH1 0xA ADD PUSH1 0x0 SWAP1 SLOAD SWAP1 PUSH2 0x100 EXP SWAP1 DIV PUSH20 0xFFFFFFFFFFFFFFFFFFFFFFFFFFFFFFFFFFFFFFFF AND SWAP1 POP DUP12 JUMP JUMPDEST PUSH1 0x1 PUSH1 0x0 SWAP1 SLOAD SWAP1 PUSH2 0x100 EXP SWAP1 DIV PUSH20 0xFFFFFFFFFFFFFFFFFFFFFFFFFFFFFFFFFFFFFFFF AND DUP2 JUMP JUMPDEST PUSH1 0x0 DUP2 PUSH1 0x0 ADD SLOAD SWAP1 POP SWAP2 SWAP1 POP JUMP JUMPDEST PUSH1 0x1 DUP2 PUSH1 0x0 ADD PUSH1 0x0 DUP3 DUP3 SLOAD ADD SWAP3 POP POP DUP2 SWAP1 SSTORE POP POP JUMP JUMPDEST PUSH1 0x40 MLOAD DUP1 PUSH2 0x160 ADD PUSH1 0x40 MSTORE DUP1 PUSH1 0x0 DUP2 MSTORE PUSH1 0x20 ADD PUSH1 0x60 DUP2 MSTORE PUSH1 0x20 ADD PUSH1 0x60 DUP2 MSTORE PUSH1 0x20 ADD PUSH1 0x60 DUP2 MSTORE PUSH1 0x20 ADD PUSH1 0x60 DUP2 MSTORE PUSH1 0x20 ADD PUSH1 0x60 DUP2 MSTORE PUSH1 0x20 ADD PUSH1 0x0 DUP2 MSTORE PUSH1 0x20 ADD PUSH1 0x0 DUP2 MSTORE PUSH1 0x20 ADD PUSH1 0x0 DUP2 MSTORE PUSH1 0x20 ADD PUSH1 0x0 PUSH20 0xFFFFFFFFFFFFFFFFFFFFFFFFFFFFFFFFFFFFFFFF AND DUP2 MSTORE PUSH1 0x20 ADD PUSH1 0x0 PUSH20 0xFFFFFFFFFFFFFFFFFFFFFFFFFFFFFFFFFFFFFFFF AND DUP2 MSTORE POP SWAP1 JUMP JUMPDEST PUSH2 0x31B6 DUP1 PUSH3 0x2B92 DUP4 CODECOPY ADD SWAP1 JUMP JUMPDEST PUSH1 0x0 DUP2 SWAP1 POP SWAP2 SWAP1 POP JUMP JUMPDEST PUSH3 0x19A6 DUP2 PUSH3 0x1991 JUMP JUMPDEST DUP3 MSTORE POP POP JUMP JUMPDEST PUSH1 0x0 PUSH1 0x20 DUP3 ADD SWAP1 POP PUSH3 0x19C3 PUSH1 0x0 DUP4 ADD DUP5 PUSH3 0x199B JUMP JUMPDEST SWAP3 SWAP2 POP POP JUMP JUMPDEST PUSH1 0x0 PUSH1 0x40 MLOAD SWAP1 POP SWAP1 JUMP JUMPDEST PUSH1 0x0 DUP1 REVERT JUMPDEST PUSH1 0x0 DUP1 REVERT JUMPDEST PUSH3 0x19E8 DUP2 PUSH3 0x1991 JUMP JUMPDEST DUP2 EQ PUSH3 0x19F4 JUMPI PUSH1 0x0 DUP1 REVERT JUMPDEST POP JUMP JUMPDEST PUSH1 0x0 DUP2 CALLDATALOAD SWAP1 POP PUSH3 0x1A08 DUP2 PUSH3 0x19DD JUMP JUMPDEST SWAP3 SWAP2 POP POP JUMP JUMPDEST PUSH1 0x0 DUP1 PUSH1 0x40 DUP4 DUP6 SUB SLT ISZERO PUSH3 0x1A28 JUMPI PUSH3 0x1A27 PUSH3 0x19D3 JUMP JUMPDEST JUMPDEST PUSH1 0x0 PUSH3 0x1A38 DUP6 DUP3 DUP7 ADD PUSH3 0x19F7 JUMP JUMPDEST SWAP3 POP POP PUSH1 0x20 PUSH3 0x1A4B DUP6 DUP3 DUP7 ADD PUSH3 0x19F7 JUMP JUMPDEST SWAP2 POP POP SWAP3 POP SWAP3 SWAP1 POP JUMP JUMPDEST PUSH1 0x0 DUP2 MLOAD SWAP1 POP SWAP2 SWAP1 POP JUMP JUMPDEST PUSH1 0x0 DUP3 DUP3 MSTORE PUSH1 0x20 DUP3 ADD SWAP1 POP SWAP3 SWAP2 POP POP JUMP JUMPDEST PUSH1 0x0 DUP2 SWAP1 POP PUSH1 0x20 DUP3 ADD SWAP1 POP SWAP2 SWAP1 POP JUMP JUMPDEST PUSH3 0x1A8C DUP2 PUSH3 0x1991 JUMP JUMPDEST DUP3 MSTORE POP POP JUMP JUMPDEST PUSH1 0x0 DUP2 MLOAD SWAP1 POP SWAP2 SWAP1 POP JUMP JUMPDEST PUSH1 0x0 DUP3 DUP3 MSTORE PUSH1 0x20 DUP3 ADD SWAP1 POP SWAP3 SWAP2 POP POP JUMP JUMPDEST PUSH1 0x0 JUMPDEST DUP4 DUP2 LT ISZERO PUSH3 0x1ACE JUMPI DUP1 DUP3 ADD MLOAD DUP2 DUP5 ADD MSTORE PUSH1 0x20 DUP2 ADD SWAP1 POP PUSH3 0x1AB1 JUMP JUMPDEST PUSH1 0x0 DUP5 DUP5 ADD MSTORE POP POP POP POP JUMP JUMPDEST PUSH1 0x0 PUSH1 0x1F NOT PUSH1 0x1F DUP4 ADD AND SWAP1 POP SWAP2 SWAP1 POP JUMP JUMPDEST PUSH1 0x0 PUSH3 0x1AF8 DUP3 PUSH3 0x1A92 JUMP JUMPDEST PUSH3 0x1B04 DUP2 DUP6 PUSH3 0x1A9D JUMP JUMPDEST SWAP4 POP PUSH3 0x1B16 DUP2 DUP6 PUSH1 0x20 DUP7 ADD PUSH3 0x1AAE JUMP JUMPDEST PUSH3 0x1B21 DUP2 PUSH3 0x1ADA JUMP JUMPDEST DUP5 ADD SWAP2 POP POP SWAP3 SWAP2 POP POP JUMP JUMPDEST PUSH1 0x0 PUSH20 0xFFFFFFFFFFFFFFFFFFFFFFFFFFFFFFFFFFFFFFFF DUP3 AND SWAP1 POP SWAP2 SWAP1 POP JUMP JUMPDEST PUSH1 0x0 PUSH3 0x1B59 DUP3 PUSH3 0x1B2C JUMP JUMPDEST SWAP1 POP SWAP2 SWAP1 POP JUMP JUMPDEST PUSH3 0x1B6B DUP2 PUSH3 0x1B4C JUMP JUMPDEST DUP3 MSTORE POP POP JUMP JUMPDEST PUSH1 0x0 DUP2 SWAP1 POP SWAP2 SWAP1 POP JUMP JUMPDEST PUSH1 0x0 PUSH3 0x1B9C PUSH3 0x1B96 PUSH3 0x1B90 DUP5 PUSH3 0x1B2C JUMP JUMPDEST PUSH3 0x1B71 JUMP JUMPDEST PUSH3 0x1B2C JUMP JUMPDEST SWAP1 POP SWAP2 SWAP1 POP JUMP JUMPDEST PUSH1 0x0 PUSH3 0x1BB0 DUP3 PUSH3 0x1B7B JUMP JUMPDEST SWAP1 POP SWAP2 SWAP1 POP JUMP JUMPDEST PUSH1 0x0 PUSH3 0x1BC4 DUP3 PUSH3 0x1BA3 JUMP JUMPDEST SWAP1 POP SWAP2 SWAP1 POP JUMP JUMPDEST PUSH3 0x1BD6 DUP2 PUSH3 0x1BB7 JUMP JUMPDEST DUP3 MSTORE POP POP JUMP JUMPDEST PUSH1 0x0 PUSH2 0x160 DUP4 ADD PUSH1 0x0 DUP4 ADD MLOAD PUSH3 0x1BF7 PUSH1 0x0 DUP7 ADD DUP3 PUSH3 0x1A81 JUMP JUMPDEST POP PUSH1 0x20 DUP4 ADD MLOAD DUP5 DUP3 SUB PUSH1 0x20 DUP7 ADD MSTORE PUSH3 0x1C11 DUP3 DUP3 PUSH3 0x1AEB JUMP JUMPDEST SWAP2 POP POP PUSH1 0x40 DUP4 ADD MLOAD DUP5 DUP3 SUB PUSH1 0x40 DUP7 ADD MSTORE PUSH3 0x1C2D DUP3 DUP3 PUSH3 0x1AEB JUMP JUMPDEST SWAP2 POP POP PUSH1 0x60 DUP4 ADD MLOAD DUP5 DUP3 SUB PUSH1 0x60 DUP7 ADD MSTORE PUSH3 0x1C49 DUP3 DUP3 PUSH3 0x1AEB JUMP JUMPDEST SWAP2 POP POP PUSH1 0x80 DUP4 ADD MLOAD DUP5 DUP3 SUB PUSH1 0x80 DUP7 ADD MSTORE PUSH3 0x1C65 DUP3 DUP3 PUSH3 0x1AEB JUMP JUMPDEST SWAP2 POP POP PUSH1 0xA0 DUP4 ADD MLOAD DUP5 DUP3 SUB PUSH1 0xA0 DUP7 ADD MSTORE PUSH3 0x1C81 DUP3 DUP3 PUSH3 0x1AEB JUMP JUMPDEST SWAP2 POP POP PUSH1 0xC0 DUP4 ADD MLOAD PUSH3 0x1C98 PUSH1 0xC0 DUP7 ADD DUP3 PUSH3 0x1A81 JUMP JUMPDEST POP PUSH1 0xE0 DUP4 ADD MLOAD PUSH3 0x1CAD PUSH1 0xE0 DUP7 ADD DUP3 PUSH3 0x1A81 JUMP JUMPDEST POP PUSH2 0x100 DUP4 ADD MLOAD PUSH3 0x1CC4 PUSH2 0x100 DUP7 ADD DUP3 PUSH3 0x1A81 JUMP JUMPDEST POP PUSH2 0x120 DUP4 ADD MLOAD PUSH3 0x1CDB PUSH2 0x120 DUP7 ADD DUP3 PUSH3 0x1B60 JUMP JUMPDEST POP PUSH2 0x140 DUP4 ADD MLOAD PUSH3 0x1CF2 PUSH2 0x140 DUP7 ADD DUP3 PUSH3 0x1BCB JUMP JUMPDEST POP DUP1 SWAP2 POP POP SWAP3 SWAP2 POP POP JUMP JUMPDEST PUSH1 0x0 PUSH3 0x1D0B DUP4 DUP4 PUSH3 0x1BDC JUMP JUMPDEST SWAP1 POP SWAP3 SWAP2 POP POP JUMP JUMPDEST PUSH1 0x0 PUSH1 0x20 DUP3 ADD SWAP1 POP SWAP2 SWAP1 POP JUMP JUMPDEST PUSH1 0x0 PUSH3 0x1D2D DUP3 PUSH3 0x1A55 JUMP JUMPDEST PUSH3 0x1D39 DUP2 DUP6 PUSH3 0x1A60 JUMP JUMPDEST SWAP4 POP DUP4 PUSH1 0x20 DUP3 MUL DUP6 ADD PUSH3 0x1D4D DUP6 PUSH3 0x1A71 JUMP JUMPDEST DUP1 PUSH1 0x0 JUMPDEST DUP6 DUP2 LT ISZERO PUSH3 0x1D8F JUMPI DUP5 DUP5 SUB DUP10 MSTORE DUP2 MLOAD PUSH3 0x1D6D DUP6 DUP3 PUSH3 0x1CFD JUMP JUMPDEST SWAP5 POP PUSH3 0x1D7A DUP4 PUSH3 0x1D13 JUMP JUMPDEST SWAP3 POP PUSH1 0x20 DUP11 ADD SWAP10 POP POP PUSH1 0x1 DUP2 ADD SWAP1 POP PUSH3 0x1D51 JUMP JUMPDEST POP DUP3 SWAP8 POP DUP8 SWAP6 POP POP POP POP POP POP SWAP3 SWAP2 POP POP JUMP JUMPDEST PUSH1 0x0 PUSH1 0x20 DUP3 ADD SWAP1 POP DUP2 DUP2 SUB PUSH1 0x0 DUP4 ADD MSTORE PUSH3 0x1DBD DUP2 DUP5 PUSH3 0x1D20 JUMP JUMPDEST SWAP1 POP SWAP3 SWAP2 POP POP JUMP JUMPDEST PUSH1 0x0 PUSH1 0x20 DUP3 DUP5 SUB SLT ISZERO PUSH3 0x1DDE JUMPI PUSH3 0x1DDD PUSH3 0x19D3 JUMP JUMPDEST JUMPDEST PUSH1 0x0 PUSH3 0x1DEE DUP5 DUP3 DUP6 ADD PUSH3 0x19F7 JUMP JUMPDEST SWAP2 POP POP SWAP3 SWAP2 POP POP JUMP JUMPDEST PUSH1 0x0 PUSH2 0x160 DUP4 ADD PUSH1 0x0 DUP4 ADD MLOAD PUSH3 0x1E12 PUSH1 0x0 DUP7 ADD DUP3 PUSH3 0x1A81 JUMP JUMPDEST POP PUSH1 0x20 DUP4 ADD MLOAD DUP5 DUP3 SUB PUSH1 0x20 DUP7 ADD MSTORE PUSH3 0x1E2C DUP3 DUP3 PUSH3 0x1AEB JUMP JUMPDEST SWAP2 POP POP PUSH1 0x40 DUP4 ADD MLOAD DUP5 DUP3 SUB PUSH1 0x40 DUP7 ADD MSTORE PUSH3 0x1E48 DUP3 DUP3 PUSH3 0x1AEB JUMP JUMPDEST SWAP2 POP POP PUSH1 0x60 DUP4 ADD MLOAD DUP5 DUP3 SUB PUSH1 0x60 DUP7 ADD MSTORE PUSH3 0x1E64 DUP3 DUP3 PUSH3 0x1AEB JUMP JUMPDEST SWAP2 POP POP PUSH1 0x80 DUP4 ADD MLOAD DUP5 DUP3 SUB PUSH1 0x80 DUP7 ADD MSTORE PUSH3 0x1E80 DUP3 DUP3 PUSH3 0x1AEB JUMP JUMPDEST SWAP2 POP POP PUSH1 0xA0 DUP4 ADD MLOAD DUP5 DUP3 SUB PUSH1 0xA0 DUP7 ADD MSTORE PUSH3 0x1E9C DUP3 DUP3 PUSH3 0x1AEB JUMP JUMPDEST SWAP2 POP POP PUSH1 0xC0 DUP4 ADD MLOAD PUSH3 0x1EB3 PUSH1 0xC0 DUP7 ADD DUP3 PUSH3 0x1A81 JUMP JUMPDEST POP PUSH1 0xE0 DUP4 ADD MLOAD PUSH3 0x1EC8 PUSH1 0xE0 DUP7 ADD DUP3 PUSH3 0x1A81 JUMP JUMPDEST POP PUSH2 0x100 DUP4 ADD MLOAD PUSH3 0x1EDF PUSH2 0x100 DUP7 ADD DUP3 PUSH3 0x1A81 JUMP JUMPDEST POP PUSH2 0x120 DUP4 ADD MLOAD PUSH3 0x1EF6 PUSH2 0x120 DUP7 ADD DUP3 PUSH3 0x1B60 JUMP JUMPDEST POP PUSH2 0x140 DUP4 ADD MLOAD PUSH3 0x1F0D PUSH2 0x140 DUP7 ADD DUP3 PUSH3 0x1BCB JUMP JUMPDEST POP DUP1 SWAP2 POP POP SWAP3 SWAP2 POP POP JUMP JUMPDEST PUSH1 0x0 PUSH1 0x20 DUP3 ADD SWAP1 POP DUP2 DUP2 SUB PUSH1 0x0 DUP4 ADD MSTORE PUSH3 0x1F34 DUP2 DUP5 PUSH3 0x1DF7 JUMP JUMPDEST SWAP1 POP SWAP3 SWAP2 POP POP JUMP JUMPDEST PUSH1 0x0 DUP1 REVERT JUMPDEST PUSH1 0x0 DUP1 REVERT JUMPDEST PUSH32 0x4E487B7100000000000000000000000000000000000000000000000000000000 PUSH1 0x0 MSTORE PUSH1 0x41 PUSH1 0x4 MSTORE PUSH1 0x24 PUSH1 0x0 REVERT JUMPDEST PUSH3 0x1F80 DUP3 PUSH3 0x1ADA JUMP JUMPDEST DUP2 ADD DUP2 DUP2 LT PUSH8 0xFFFFFFFFFFFFFFFF DUP3 GT OR ISZERO PUSH3 0x1FA2 JUMPI PUSH3 0x1FA1 PUSH3 0x1F46 JUMP JUMPDEST JUMPDEST DUP1 PUSH1 0x40 MSTORE POP POP POP JUMP JUMPDEST PUSH1 0x0 PUSH3 0x1FB7 PUSH3 0x19C9 JUMP JUMPDEST SWAP1 POP PUSH3 0x1FC5 DUP3 DUP3 PUSH3 0x1F75 JUMP JUMPDEST SWAP2 SWAP1 POP JUMP JUMPDEST PUSH1 0x0 PUSH8 0xFFFFFFFFFFFFFFFF DUP3 GT ISZERO PUSH3 0x1FE8 JUMPI PUSH3 0x1FE7 PUSH3 0x1F46 JUMP JUMPDEST JUMPDEST PUSH3 0x1FF3 DUP3 PUSH3 0x1ADA JUMP JUMPDEST SWAP1 POP PUSH1 0x20 DUP2 ADD SWAP1 POP SWAP2 SWAP1 POP JUMP JUMPDEST DUP3 DUP2 DUP4 CALLDATACOPY PUSH1 0x0 DUP4 DUP4 ADD MSTORE POP POP POP JUMP JUMPDEST PUSH1 0x0 PUSH3 0x2026 PUSH3 0x2020 DUP5 PUSH3 0x1FCA JUMP JUMPDEST PUSH3 0x1FAB JUMP JUMPDEST SWAP1 POP DUP3 DUP2 MSTORE PUSH1 0x20 DUP2 ADD DUP5 DUP5 DUP5 ADD GT ISZERO PUSH3 0x2045 JUMPI PUSH3 0x2044 PUSH3 0x1F41 JUMP JUMPDEST JUMPDEST PUSH3 0x2052 DUP5 DUP3 DUP6 PUSH3 0x2000 JUMP JUMPDEST POP SWAP4 SWAP3 POP POP POP JUMP JUMPDEST PUSH1 0x0 DUP3 PUSH1 0x1F DUP4 ADD SLT PUSH3 0x2072 JUMPI PUSH3 0x2071 PUSH3 0x1F3C JUMP JUMPDEST JUMPDEST DUP2 CALLDATALOAD PUSH3 0x2084 DUP5 DUP3 PUSH1 0x20 DUP7 ADD PUSH3 0x200F JUMP JUMPDEST SWAP2 POP POP SWAP3 SWAP2 POP POP JUMP JUMPDEST PUSH1 0x0 DUP1 PUSH1 0x0 DUP1 PUSH1 0x0 DUP1 PUSH1 0x0 PUSH1 0xE0 DUP9 DUP11 SUB SLT ISZERO PUSH3 0x20AF JUMPI PUSH3 0x20AE PUSH3 0x19D3 JUMP JUMPDEST JUMPDEST PUSH1 0x0 DUP9 ADD CALLDATALOAD PUSH8 0xFFFFFFFFFFFFFFFF DUP2 GT ISZERO PUSH3 0x20D0 JUMPI PUSH3 0x20CF PUSH3 0x19D8 JUMP JUMPDEST JUMPDEST PUSH3 0x20DE DUP11 DUP3 DUP12 ADD PUSH3 0x205A JUMP JUMPDEST SWAP8 POP POP PUSH1 0x20 DUP9 ADD CALLDATALOAD PUSH8 0xFFFFFFFFFFFFFFFF DUP2 GT ISZERO PUSH3 0x2102 JUMPI PUSH3 0x2101 PUSH3 0x19D8 JUMP JUMPDEST JUMPDEST PUSH3 0x2110 DUP11 DUP3 DUP12 ADD PUSH3 0x205A JUMP JUMPDEST SWAP7 POP POP PUSH1 0x40 DUP9 ADD CALLDATALOAD PUSH8 0xFFFFFFFFFFFFFFFF DUP2 GT ISZERO PUSH3 0x2134 JUMPI PUSH3 0x2133 PUSH3 0x19D8 JUMP JUMPDEST JUMPDEST PUSH3 0x2142 DUP11 DUP3 DUP12 ADD PUSH3 0x205A JUMP JUMPDEST SWAP6 POP POP PUSH1 0x60 DUP9 ADD CALLDATALOAD PUSH8 0xFFFFFFFFFFFFFFFF DUP2 GT ISZERO PUSH3 0x2166 JUMPI PUSH3 0x2165 PUSH3 0x19D8 JUMP JUMPDEST JUMPDEST PUSH3 0x2174 DUP11 DUP3 DUP12 ADD PUSH3 0x205A JUMP JUMPDEST SWAP5 POP POP PUSH1 0x80 DUP9 ADD CALLDATALOAD PUSH8 0xFFFFFFFFFFFFFFFF DUP2 GT ISZERO PUSH3 0x2198 JUMPI PUSH3 0x2197 PUSH3 0x19D8 JUMP JUMPDEST JUMPDEST PUSH3 0x21A6 DUP11 DUP3 DUP12 ADD PUSH3 0x205A JUMP JUMPDEST SWAP4 POP POP PUSH1 0xA0 PUSH3 0x21B9 DUP11 DUP3 DUP12 ADD PUSH3 0x19F7 JUMP JUMPDEST SWAP3 POP POP PUSH1 0xC0 PUSH3 0x21CC DUP11 DUP3 DUP12 ADD PUSH3 0x19F7 JUMP JUMPDEST SWAP2 POP POP SWAP3 SWAP6 SWAP9 SWAP2 SWAP5 SWAP8 POP SWAP3 SWAP6 POP JUMP JUMPDEST PUSH1 0x0 DUP2 SWAP1 POP SWAP2 SWAP1 POP JUMP JUMPDEST PUSH3 0x21F0 DUP2 PUSH3 0x21DB JUMP JUMPDEST DUP3 MSTORE POP POP JUMP JUMPDEST PUSH1 0x0 PUSH1 0x20 DUP3 ADD SWAP1 POP PUSH3 0x220D PUSH1 0x0 DUP4 ADD DUP5 PUSH3 0x21E5 JUMP JUMPDEST SWAP3 SWAP2 POP POP JUMP JUMPDEST PUSH1 0x0 PUSH3 0x2220 DUP3 PUSH3 0x1B2C JUMP JUMPDEST SWAP1 POP SWAP2 SWAP1 POP JUMP JUMPDEST PUSH3 0x2232 DUP2 PUSH3 0x2213 JUMP JUMPDEST DUP2 EQ PUSH3 0x223E JUMPI PUSH1 0x0 DUP1 REVERT JUMPDEST POP JUMP JUMPDEST PUSH1 0x0 DUP2 CALLDATALOAD SWAP1 POP PUSH3 0x2252 DUP2 PUSH3 0x2227 JUMP JUMPDEST SWAP3 SWAP2 POP POP JUMP JUMPDEST PUSH1 0x0 DUP1 PUSH1 0x40 DUP4 DUP6 SUB SLT ISZERO PUSH3 0x2272 JUMPI PUSH3 0x2271 PUSH3 0x19D3 JUMP JUMPDEST JUMPDEST PUSH1 0x0 PUSH3 0x2282 DUP6 DUP3 DUP7 ADD PUSH3 0x2241 JUMP JUMPDEST SWAP3 POP POP PUSH1 0x20 PUSH3 0x2295 DUP6 DUP3 DUP7 ADD PUSH3 0x19F7 JUMP JUMPDEST SWAP2 POP POP SWAP3 POP SWAP3 SWAP1 POP JUMP JUMPDEST PUSH1 0x0 DUP3 DUP3 MSTORE PUSH1 0x20 DUP3 ADD SWAP1 POP SWAP3 SWAP2 POP POP JUMP JUMPDEST PUSH1 0x0 PUSH3 0x22BD DUP3 PUSH3 0x1A92 JUMP JUMPDEST PUSH3 0x22C9 DUP2 DUP6 PUSH3 0x229F JUMP JUMPDEST SWAP4 POP PUSH3 0x22DB DUP2 DUP6 PUSH1 0x20 DUP7 ADD PUSH3 0x1AAE JUMP JUMPDEST PUSH3 0x22E6 DUP2 PUSH3 0x1ADA JUMP JUMPDEST DUP5 ADD SWAP2 POP POP SWAP3 SWAP2 POP POP JUMP JUMPDEST PUSH3 0x22FC DUP2 PUSH3 0x1B4C JUMP JUMPDEST DUP3 MSTORE POP POP JUMP JUMPDEST PUSH3 0x230D DUP2 PUSH3 0x1BB7 JUMP JUMPDEST DUP3 MSTORE POP POP JUMP JUMPDEST PUSH1 0x0 PUSH2 0x160 DUP3 ADD SWAP1 POP PUSH3 0x232B PUSH1 0x0 DUP4 ADD DUP15 PUSH3 0x199B JUMP JUMPDEST DUP2 DUP2 SUB PUSH1 0x20 DUP4 ADD MSTORE PUSH3 0x233F DUP2 DUP14 PUSH3 0x22B0 JUMP JUMPDEST SWAP1 POP DUP2 DUP2 SUB PUSH1 0x40 DUP4 ADD MSTORE PUSH3 0x2355 DUP2 DUP13 PUSH3 0x22B0 JUMP JUMPDEST SWAP1 POP DUP2 DUP2 SUB PUSH1 0x60 DUP4 ADD MSTORE PUSH3 0x236B DUP2 DUP12 PUSH3 0x22B0 JUMP JUMPDEST SWAP1 POP DUP2 DUP2 SUB PUSH1 0x80 DUP4 ADD MSTORE PUSH3 0x2381 DUP2 DUP11 PUSH3 0x22B0 JUMP JUMPDEST SWAP1 POP DUP2 DUP2 SUB PUSH1 0xA0 DUP4 ADD MSTORE PUSH3 0x2397 DUP2 DUP10 PUSH3 0x22B0 JUMP JUMPDEST SWAP1 POP PUSH3 0x23A8 PUSH1 0xC0 DUP4 ADD DUP9 PUSH3 0x199B JUMP JUMPDEST PUSH3 0x23B7 PUSH1 0xE0 DUP4 ADD DUP8 PUSH3 0x199B JUMP JUMPDEST PUSH3 0x23C7 PUSH2 0x100 DUP4 ADD DUP7 PUSH3 0x199B JUMP JUMPDEST PUSH3 0x23D7 PUSH2 0x120 DUP4 ADD DUP6 PUSH3 0x22F1 JUMP JUMPDEST PUSH3 0x23E7 PUSH2 0x140 DUP4 ADD DUP5 PUSH3 0x2302 JUMP JUMPDEST SWAP13 SWAP12 POP POP POP POP POP POP POP POP POP POP POP POP JUMP JUMPDEST PUSH1 0x0 PUSH1 0x20 DUP3 ADD SWAP1 POP PUSH3 0x240E PUSH1 0x0 DUP4 ADD DUP5 PUSH3 0x22F1 JUMP JUMPDEST SWAP3 SWAP2 POP POP JUMP JUMPDEST PUSH32 0x4F6E6C792070726F6A656374206F776E65722063616E20657874656E64206465 PUSH1 0x0 DUP3 ADD MSTORE PUSH32 0x61646C696E65206F6620746869732070726F6A65637400000000000000000000 PUSH1 0x20 DUP3 ADD MSTORE POP JUMP JUMPDEST PUSH1 0x0 PUSH3 0x2472 PUSH1 0x36 DUP4 PUSH3 0x229F JUMP JUMPDEST SWAP2 POP PUSH3 0x247F DUP3 PUSH3 0x2414 JUMP JUMPDEST PUSH1 0x40 DUP3 ADD SWAP1 POP SWAP2 SWAP1 POP JUMP JUMPDEST PUSH1 0x0 PUSH1 0x20 DUP3 ADD SWAP1 POP DUP2 DUP2 SUB PUSH1 0x0 DUP4 ADD MSTORE PUSH3 0x24A5 DUP2 PUSH3 0x2463 JUMP JUMPDEST SWAP1 POP SWAP2 SWAP1 POP JUMP JUMPDEST PUSH32 0x706C656173652067697665206120646561646C696E65206F6620677265617465 PUSH1 0x0 DUP3 ADD MSTORE PUSH32 0x72207468616E2063757272656E7420646561646C696E65000000000000000000 PUSH1 0x20 DUP3 ADD MSTORE POP JUMP JUMPDEST PUSH1 0x0 PUSH3 0x250A PUSH1 0x37 DUP4 PUSH3 0x229F JUMP JUMPDEST SWAP2 POP PUSH3 0x2517 DUP3 PUSH3 0x24AC JUMP JUMPDEST PUSH1 0x40 DUP3 ADD SWAP1 POP SWAP2 SWAP1 POP JUMP JUMPDEST PUSH1 0x0 PUSH1 0x20 DUP3 ADD SWAP1 POP DUP2 DUP2 SUB PUSH1 0x0 DUP4 ADD MSTORE PUSH3 0x253D DUP2 PUSH3 0x24FB JUMP JUMPDEST SWAP1 POP SWAP2 SWAP1 POP JUMP JUMPDEST PUSH32 0x4E487B7100000000000000000000000000000000000000000000000000000000 PUSH1 0x0 MSTORE PUSH1 0x22 PUSH1 0x4 MSTORE PUSH1 0x24 PUSH1 0x0 REVERT JUMPDEST PUSH1 0x0 PUSH1 0x2 DUP3 DIV SWAP1 POP PUSH1 0x1 DUP3 AND DUP1 PUSH3 0x258C JUMPI PUSH1 0x7F DUP3 AND SWAP2 POP JUMPDEST PUSH1 0x20 DUP3 LT DUP2 SUB PUSH3 0x25A2 JUMPI PUSH3 0x25A1 PUSH3 0x2544 JUMP JUMPDEST JUMPDEST POP SWAP2 SWAP1 POP JUMP JUMPDEST PUSH32 0x4E487B7100000000000000000000000000000000000000000000000000000000 PUSH1 0x0 MSTORE PUSH1 0x32 PUSH1 0x4 MSTORE PUSH1 0x24 PUSH1 0x0 REVERT JUMPDEST PUSH32 0x4E487B7100000000000000000000000000000000000000000000000000000000 PUSH1 0x0 MSTORE PUSH1 0x11 PUSH1 0x4 MSTORE PUSH1 0x24 PUSH1 0x0 REVERT JUMPDEST PUSH1 0x0 PUSH3 0x2613 DUP3 PUSH3 0x1991 JUMP JUMPDEST SWAP2 POP PUSH32 0xFFFFFFFFFFFFFFFFFFFFFFFFFFFFFFFFFFFFFFFFFFFFFFFFFFFFFFFFFFFFFFFF DUP3 SUB PUSH3 0x2648 JUMPI PUSH3 0x2647 PUSH3 0x25D7 JUMP JUMPDEST JUMPDEST PUSH1 0x1 DUP3 ADD SWAP1 POP SWAP2 SWAP1 POP JUMP JUMPDEST PUSH32 0x506C65617365205472616E736665722054686520416D6F756E7420457175616C PUSH1 0x0 DUP3 ADD MSTORE PUSH32 0x20546F20596F75722050726F6A65637420427564676574000000000000000000 PUSH1 0x20 DUP3 ADD MSTORE POP JUMP JUMPDEST PUSH1 0x0 PUSH3 0x26B1 PUSH1 0x37 DUP4 PUSH3 0x229F JUMP JUMPDEST SWAP2 POP PUSH3 0x26BE DUP3 PUSH3 0x2653 JUMP JUMPDEST PUSH1 0x40 DUP3 ADD SWAP1 POP SWAP2 SWAP1 POP JUMP JUMPDEST PUSH1 0x0 PUSH1 0x20 DUP3 ADD SWAP1 POP DUP2 DUP2 SUB PUSH1 0x0 DUP4 ADD MSTORE PUSH3 0x26E4 DUP2 PUSH3 0x26A2 JUMP JUMPDEST SWAP1 POP SWAP2 SWAP1 POP JUMP JUMPDEST PUSH1 0x0 PUSH1 0x60 DUP3 ADD SWAP1 POP PUSH3 0x2702 PUSH1 0x0 DUP4 ADD DUP7 PUSH3 0x22F1 JUMP JUMPDEST PUSH3 0x2711 PUSH1 0x20 DUP4 ADD DUP6 PUSH3 0x199B JUMP JUMPDEST PUSH3 0x2720 PUSH1 0x40 DUP4 ADD DUP5 PUSH3 0x199B JUMP JUMPDEST SWAP5 SWAP4 POP POP POP POP JUMP JUMPDEST PUSH1 0x0 DUP2 SWAP1 POP DUP2 PUSH1 0x0 MSTORE PUSH1 0x20 PUSH1 0x0 KECCAK256 SWAP1 POP SWAP2 SWAP1 POP JUMP JUMPDEST PUSH1 0x0 PUSH1 0x20 PUSH1 0x1F DUP4 ADD DIV SWAP1 POP SWAP2 SWAP1 POP JUMP JUMPDEST PUSH1 0x0 DUP3 DUP3 SHL SWAP1 POP SWAP3 SWAP2 POP POP JUMP JUMPDEST PUSH1 0x0 PUSH1 0x8 DUP4 MUL PUSH3 0x278C PUSH32 0xFFFFFFFFFFFFFFFFFFFFFFFFFFFFFFFFFFFFFFFFFFFFFFFFFFFFFFFFFFFFFFFF DUP3 PUSH3 0x274D JUMP JUMPDEST PUSH3 0x2798 DUP7 DUP4 PUSH3 0x274D JUMP JUMPDEST SWAP6 POP DUP1 NOT DUP5 AND SWAP4 POP DUP1 DUP7 AND DUP5 OR SWAP3 POP POP POP SWAP4 SWAP3 POP POP POP JUMP JUMPDEST PUSH1 0x0 PUSH3 0x27D1 PUSH3 0x27CB PUSH3 0x27C5 DUP5 PUSH3 0x1991 JUMP JUMPDEST PUSH3 0x1B71 JUMP JUMPDEST PUSH3 0x1991 JUMP JUMPDEST SWAP1 POP SWAP2 SWAP1 POP JUMP JUMPDEST PUSH1 0x0 DUP2 SWAP1 POP SWAP2 SWAP1 POP JUMP JUMPDEST PUSH3 0x27ED DUP4 PUSH3 0x27B0 JUMP JUMPDEST PUSH3 0x2805 PUSH3 0x27FC DUP3 PUSH3 0x27D8 JUMP JUMPDEST DUP5 DUP5 SLOAD PUSH3 0x275A JUMP JUMPDEST DUP3 SSTORE POP POP POP POP JUMP JUMPDEST PUSH1 0x0 SWAP1 JUMP JUMPDEST PUSH3 0x281C PUSH3 0x280D JUMP JUMPDEST PUSH3 0x2829 DUP2 DUP5 DUP5 PUSH3 0x27E2 JUMP JUMPDEST POP POP POP JUMP JUMPDEST JUMPDEST DUP2 DUP2 LT ISZERO PUSH3 0x2851 JUMPI PUSH3 0x2845 PUSH1 0x0 DUP3 PUSH3 0x2812 JUMP JUMPDEST PUSH1 0x1 DUP2 ADD SWAP1 POP PUSH3 0x282F JUMP JUMPDEST POP POP JUMP JUMPDEST PUSH1 0x1F DUP3 GT ISZERO PUSH3 0x28A0 JUMPI PUSH3 0x286A DUP2 PUSH3 0x2728 JUMP JUMPDEST PUSH3 0x2875 DUP5 PUSH3 0x273D JUMP JUMPDEST DUP2 ADD PUSH1 0x20 DUP6 LT ISZERO PUSH3 0x2885 JUMPI DUP2 SWAP1 POP JUMPDEST PUSH3 0x289D PUSH3 0x2894 DUP6 PUSH3 0x273D JUMP JUMPDEST DUP4 ADD DUP3 PUSH3 0x282E JUMP JUMPDEST POP POP JUMPDEST POP POP POP JUMP JUMPDEST PUSH1 0x0 DUP3 DUP3 SHR SWAP1 POP SWAP3 SWAP2 POP POP JUMP JUMPDEST PUSH1 0x0 PUSH3 0x28C5 PUSH1 0x0 NOT DUP5 PUSH1 0x8 MUL PUSH3 0x28A5 JUMP JUMPDEST NOT DUP1 DUP4 AND SWAP2 POP POP SWAP3 SWAP2 POP POP JUMP JUMPDEST PUSH1 0x0 PUSH3 0x28E0 DUP4 DUP4 PUSH3 0x28B2 JUMP JUMPDEST SWAP2 POP DUP3 PUSH1 0x2 MUL DUP3 OR SWAP1 POP SWAP3 SWAP2 POP POP JUMP JUMPDEST PUSH3 0x28FB DUP3 PUSH3 0x1A92 JUMP JUMPDEST PUSH8 0xFFFFFFFFFFFFFFFF DUP2 GT ISZERO PUSH3 0x2917 JUMPI PUSH3 0x2916 PUSH3 0x1F46 JUMP JUMPDEST JUMPDEST PUSH3 0x2923 DUP3 SLOAD PUSH3 0x2573 JUMP JUMPDEST PUSH3 0x2930 DUP3 DUP3 DUP6 PUSH3 0x2855 JUMP JUMPDEST PUSH1 0x0 PUSH1 0x20 SWAP1 POP PUSH1 0x1F DUP4 GT PUSH1 0x1 DUP2 EQ PUSH3 0x2968 JUMPI PUSH1 0x0 DUP5 ISZERO PUSH3 0x2953 JUMPI DUP3 DUP8 ADD MLOAD SWAP1 POP JUMPDEST PUSH3 0x295F DUP6 DUP3 PUSH3 0x28D2 JUMP JUMPDEST DUP7 SSTORE POP PUSH3 0x29CF JUMP JUMPDEST PUSH1 0x1F NOT DUP5 AND PUSH3 0x2978 DUP7 PUSH3 0x2728 JUMP JUMPDEST PUSH1 0x0 JUMPDEST DUP3 DUP2 LT ISZERO PUSH3 0x29A2 JUMPI DUP5 DUP10 ADD MLOAD DUP3 SSTORE PUSH1 0x1 DUP3 ADD SWAP2 POP PUSH1 0x20 DUP6 ADD SWAP5 POP PUSH1 0x20 DUP2 ADD SWAP1 POP PUSH3 0x297B JUMP JUMPDEST DUP7 DUP4 LT ISZERO PUSH3 0x29C2 JUMPI DUP5 DUP10 ADD MLOAD PUSH3 0x29BE PUSH1 0x1F DUP10 AND DUP3 PUSH3 0x28B2 JUMP JUMPDEST DUP4 SSTORE POP JUMPDEST PUSH1 0x1 PUSH1 0x2 DUP9 MUL ADD DUP9 SSTORE POP POP POP JUMPDEST POP POP POP POP POP POP JUMP JUMPDEST PUSH1 0x0 PUSH10 0xFFFFFFFFFFFFFFFFFFFF DUP3 AND SWAP1 POP SWAP2 SWAP1 POP JUMP JUMPDEST PUSH3 0x29F8 DUP2 PUSH3 0x29D7 JUMP JUMPDEST DUP2 EQ PUSH3 0x2A04 JUMPI PUSH1 0x0 DUP1 REVERT JUMPDEST POP JUMP JUMPDEST PUSH1 0x0 DUP2 MLOAD SWAP1 POP PUSH3 0x2A18 DUP2 PUSH3 0x29ED JUMP JUMPDEST SWAP3 SWAP2 POP POP JUMP JUMPDEST PUSH3 0x2A29 DUP2 PUSH3 0x21DB JUMP JUMPDEST DUP2 EQ PUSH3 0x2A35 JUMPI PUSH1 0x0 DUP1 REVERT JUMPDEST POP JUMP JUMPDEST PUSH1 0x0 DUP2 MLOAD SWAP1 POP PUSH3 0x2A49 DUP2 PUSH3 0x2A1E JUMP JUMPDEST SWAP3 SWAP2 POP POP JUMP JUMPDEST PUSH1 0x0 DUP2 MLOAD SWAP1 POP PUSH3 0x2A60 DUP2 PUSH3 0x19DD JUMP JUMPDEST SWAP3 SWAP2 POP POP JUMP JUMPDEST PUSH1 0x0 DUP1 PUSH1 0x0 DUP1 PUSH1 0x0 PUSH1 0xA0 DUP7 DUP9 SUB SLT ISZERO PUSH3 0x2A85 JUMPI PUSH3 0x2A84 PUSH3 0x19D3 JUMP JUMPDEST JUMPDEST PUSH1 0x0 PUSH3 0x2A95 DUP9 DUP3 DUP10 ADD PUSH3 0x2A07 JUMP JUMPDEST SWAP6 POP POP PUSH1 0x20 PUSH3 0x2AA8 DUP9 DUP3 DUP10 ADD PUSH3 0x2A38 JUMP JUMPDEST SWAP5 POP POP PUSH1 0x40 PUSH3 0x2ABB DUP9 DUP3 DUP10 ADD PUSH3 0x2A4F JUMP JUMPDEST SWAP4 POP POP PUSH1 0x60 PUSH3 0x2ACE DUP9 DUP3 DUP10 ADD PUSH3 0x2A4F JUMP JUMPDEST SWAP3 POP POP PUSH1 0x80 PUSH3 0x2AE1 DUP9 DUP3 DUP10 ADD PUSH3 0x2A07 JUMP JUMPDEST SWAP2 POP POP SWAP3 SWAP6 POP SWAP3 SWAP6 SWAP1 SWAP4 POP JUMP JUMPDEST PUSH32 0x4E487B7100000000000000000000000000000000000000000000000000000000 PUSH1 0x0 MSTORE PUSH1 0x12 PUSH1 0x4 MSTORE PUSH1 0x24 PUSH1 0x0 REVERT JUMPDEST PUSH1 0x0 PUSH3 0x2B2A DUP3 PUSH3 0x21DB JUMP JUMPDEST SWAP2 POP PUSH3 0x2B37 DUP4 PUSH3 0x21DB JUMP JUMPDEST SWAP3 POP DUP3 PUSH3 0x2B4A JUMPI PUSH3 0x2B49 PUSH3 0x2AEE JUMP JUMPDEST JUMPDEST PUSH1 0x1 PUSH1 0x0 SUB DUP4 EQ PUSH32 0x8000000000000000000000000000000000000000000000000000000000000000 DUP4 EQ AND ISZERO PUSH3 0x2B86 JUMPI PUSH3 0x2B85 PUSH3 0x25D7 JUMP JUMPDEST JUMPDEST DUP3 DUP3 SDIV SWAP1 POP SWAP3 SWAP2 POP POP JUMP INVALID PUSH1 0x80 PUSH1 0x40 MSTORE PUSH1 0x0 PUSH1 0x4 PUSH1 0x0 PUSH2 0x100 EXP DUP2 SLOAD DUP2 PUSH1 0xFF MUL NOT AND SWAP1 DUP4 ISZERO ISZERO MUL OR SWAP1 SSTORE POP PUSH1 0x0 PUSH1 0x9 PUSH1 0x0 PUSH2 0x100 EXP DUP2 SLOAD DUP2 PUSH1 0xFF MUL NOT AND SWAP1 DUP4 ISZERO ISZERO MUL OR SWAP1 SSTORE POP CALLVALUE DUP1 ISZERO PUSH3 0x47 JUMPI PUSH1 0x0 DUP1 REVERT JUMPDEST POP PUSH1 0x40 MLOAD PUSH3 0x31B6 CODESIZE SUB DUP1 PUSH3 0x31B6 DUP4 CODECOPY DUP2 DUP2 ADD PUSH1 0x40 MSTORE DUP2 ADD SWAP1 PUSH3 0x6D SWAP2 SWAP1 PUSH3 0x198 JUMP JUMPDEST DUP3 PUSH1 0x1 PUSH1 0x0 PUSH2 0x100 EXP DUP2 SLOAD DUP2 PUSH20 0xFFFFFFFFFFFFFFFFFFFFFFFFFFFFFFFFFFFFFFFF MUL NOT AND SWAP1 DUP4 PUSH20 0xFFFFFFFFFFFFFFFFFFFFFFFFFFFFFFFFFFFFFFFF AND MUL OR SWAP1 SSTORE POP DUP2 PUSH1 0x2 DUP2 SWAP1 SSTORE POP DUP1 PUSH1 0x3 DUP2 SWAP1 SSTORE POP PUSH1 0x0 PUSH1 0x4 PUSH1 0x1 PUSH2 0x100 EXP DUP2 SLOAD DUP2 PUSH1 0xFF MUL NOT AND SWAP1 DUP4 PUSH1 0x3 DUP2 GT ISZERO PUSH3 0xE5 JUMPI PUSH3 0xE4 PUSH3 0x1F4 JUMP JUMPDEST JUMPDEST MUL OR SWAP1 SSTORE POP POP POP POP PUSH3 0x223 JUMP JUMPDEST PUSH1 0x0 DUP1 REVERT JUMPDEST PUSH1 0x0 PUSH20 0xFFFFFFFFFFFFFFFFFFFFFFFFFFFFFFFFFFFFFFFF DUP3 AND SWAP1 POP SWAP2 SWAP1 POP JUMP JUMPDEST PUSH1 0x0 PUSH3 0x125 DUP3 PUSH3 0xF8 JUMP JUMPDEST SWAP1 POP SWAP2 SWAP1 POP JUMP JUMPDEST PUSH3 0x137 DUP2 PUSH3 0x118 JUMP JUMPDEST DUP2 EQ PUSH3 0x143 JUMPI PUSH1 0x0 DUP1 REVERT JUMPDEST POP JUMP JUMPDEST PUSH1 0x0 DUP2 MLOAD SWAP1 POP PUSH3 0x157 DUP2 PUSH3 0x12C JUMP JUMPDEST SWAP3 SWAP2 POP POP JUMP JUMPDEST PUSH1 0x0 DUP2 SWAP1 POP SWAP2 SWAP1 POP JUMP JUMPDEST PUSH3 0x172 DUP2 PUSH3 0x15D JUMP JUMPDEST DUP2 EQ PUSH3 0x17E JUMPI PUSH1 0x0 DUP1 REVERT JUMPDEST POP JUMP JUMPDEST PUSH1 0x0 DUP2 MLOAD SWAP1 POP PUSH3 0x192 DUP2 PUSH3 0x167 JUMP JUMPDEST SWAP3 SWAP2 POP POP JUMP JUMPDEST PUSH1 0x0 DUP1 PUSH1 0x0 PUSH1 0x60 DUP5 DUP7 SUB SLT ISZERO PUSH3 0x1B4 JUMPI PUSH3 0x1B3 PUSH3 0xF3 JUMP JUMPDEST JUMPDEST PUSH1 0x0 PUSH3 0x1C4 DUP7 DUP3 DUP8 ADD PUSH3 0x146 JUMP JUMPDEST SWAP4 POP POP PUSH1 0x20 PUSH3 0x1D7 DUP7 DUP3 DUP8 ADD PUSH3 0x181 JUMP JUMPDEST SWAP3 POP POP PUSH1 0x40 PUSH3 0x1EA DUP7 DUP3 DUP8 ADD PUSH3 0x181 JUMP JUMPDEST SWAP2 POP POP SWAP3 POP SWAP3 POP SWAP3 JUMP JUMPDEST PUSH32 0x4E487B7100000000000000000000000000000000000000000000000000000000 PUSH1 0x0 MSTORE PUSH1 0x21 PUSH1 0x4 MSTORE PUSH1 0x24 PUSH1 0x0 REVERT JUMPDEST PUSH2 0x2F83 DUP1 PUSH3 0x233 PUSH1 0x0 CODECOPY PUSH1 0x0 RETURN INVALID PUSH1 0x80 PUSH1 0x40 MSTORE PUSH1 0x4 CALLDATASIZE LT PUSH2 0xE1 JUMPI PUSH1 0x0 CALLDATALOAD PUSH1 0xE0 SHR DUP1 PUSH4 0xA0A2A6C0 GT PUSH2 0x7F JUMPI DUP1 PUSH4 0xA6A2CB05 GT PUSH2 0x59 JUMPI DUP1 PUSH4 0xA6A2CB05 EQ PUSH2 0x29D JUMPI DUP1 PUSH4 0xB19B0AFE EQ PUSH2 0x2D0 JUMPI DUP1 PUSH4 0xE7AA3AFC EQ PUSH2 0x2FB JUMPI DUP1 PUSH4 0xECC254B3 EQ PUSH2 0x326 JUMPI PUSH2 0xE8 JUMP JUMPDEST DUP1 PUSH4 0xA0A2A6C0 EQ PUSH2 0x21C JUMPI DUP1 PUSH4 0xA1B99FC2 EQ PUSH2 0x247 JUMPI DUP1 PUSH4 0xA4475CE4 EQ PUSH2 0x272 JUMPI PUSH2 0xE8 JUMP JUMPDEST DUP1 PUSH4 0x2A9CC141 GT PUSH2 0xBB JUMPI DUP1 PUSH4 0x2A9CC141 EQ PUSH2 0x186 JUMPI DUP1 PUSH4 0x62564C48 EQ PUSH2 0x1B1 JUMPI DUP1 PUSH4 0x7417882C EQ PUSH2 0x1DC JUMPI DUP1 PUSH4 0x98951B56 EQ PUSH2 0x1F3 JUMPI PUSH2 0xE8 JUMP JUMPDEST DUP1 PUSH4 0x13CF08B EQ PUSH2 0xED JUMPI DUP1 PUSH4 0x12065FE0 EQ PUSH2 0x132 JUMPI DUP1 PUSH4 0x22E2E12D EQ PUSH2 0x15D JUMPI PUSH2 0xE8 JUMP JUMPDEST CALLDATASIZE PUSH2 0xE8 JUMPI STOP JUMPDEST PUSH1 0x0 DUP1 REVERT JUMPDEST CALLVALUE DUP1 ISZERO PUSH2 0xF9 JUMPI PUSH1 0x0 DUP1 REVERT JUMPDEST POP PUSH2 0x114 PUSH1 0x4 DUP1 CALLDATASIZE SUB DUP2 ADD SWAP1 PUSH2 0x10F SWAP2 SWAP1 PUSH2 0x1A24 JUMP JUMPDEST PUSH2 0x33D JUMP JUMPDEST PUSH1 0x40 MLOAD PUSH2 0x129 SWAP10 SWAP9 SWAP8 SWAP7 SWAP6 SWAP5 SWAP4 SWAP3 SWAP2 SWAP1 PUSH2 0x1B4C JUMP JUMPDEST PUSH1 0x40 MLOAD DUP1 SWAP2 SUB SWAP1 RETURN JUMPDEST CALLVALUE DUP1 ISZERO PUSH2 0x13E JUMPI PUSH1 0x0 DUP1 REVERT JUMPDEST POP PUSH2 0x147 PUSH2 0x45A JUMP JUMPDEST PUSH1 0x40 MLOAD PUSH2 0x154 SWAP2 SWAP1 PUSH2 0x1BE0 JUMP JUMPDEST PUSH1 0x40 MLOAD DUP1 SWAP2 SUB SWAP1 RETURN JUMPDEST CALLVALUE DUP1 ISZERO PUSH2 0x169 JUMPI PUSH1 0x0 DUP1 REVERT JUMPDEST POP PUSH2 0x184 PUSH1 0x4 DUP1 CALLDATASIZE SUB DUP2 ADD SWAP1 PUSH2 0x17F SWAP2 SWAP1 PUSH2 0x1D30 JUMP JUMPDEST PUSH2 0x462 JUMP JUMPDEST STOP JUMPDEST CALLVALUE DUP1 ISZERO PUSH2 0x192 JUMPI PUSH1 0x0 DUP1 REVERT JUMPDEST POP PUSH2 0x19B PUSH2 0x813 JUMP JUMPDEST PUSH1 0x40 MLOAD PUSH2 0x1A8 SWAP2 SWAP1 PUSH2 0x1EDB JUMP JUMPDEST PUSH1 0x40 MLOAD DUP1 SWAP2 SUB SWAP1 RETURN JUMPDEST CALLVALUE DUP1 ISZERO PUSH2 0x1BD JUMPI PUSH1 0x0 DUP1 REVERT JUMPDEST POP PUSH2 0x1C6 PUSH2 0xA1F JUMP JUMPDEST PUSH1 0x40 MLOAD PUSH2 0x1D3 SWAP2 SWAP1 PUSH2 0x2084 JUMP JUMPDEST PUSH1 0x40 MLOAD DUP1 SWAP2 SUB SWAP1 RETURN JUMPDEST CALLVALUE DUP1 ISZERO PUSH2 0x1E8 JUMPI PUSH1 0x0 DUP1 REVERT JUMPDEST POP PUSH2 0x1F1 PUSH2 0xC62 JUMP JUMPDEST STOP JUMPDEST CALLVALUE DUP1 ISZERO PUSH2 0x1FF JUMPI PUSH1 0x0 DUP1 REVERT JUMPDEST POP PUSH2 0x21A PUSH1 0x4 DUP1 CALLDATASIZE SUB DUP2 ADD SWAP1 PUSH2 0x215 SWAP2 SWAP1 PUSH2 0x1A24 JUMP JUMPDEST PUSH2 0xF97 JUMP JUMPDEST STOP JUMPDEST CALLVALUE DUP1 ISZERO PUSH2 0x228 JUMPI PUSH1 0x0 DUP1 REVERT JUMPDEST POP PUSH2 0x231 PUSH2 0x13CB JUMP JUMPDEST PUSH1 0x40 MLOAD PUSH2 0x23E SWAP2 SWAP1 PUSH2 0x211D JUMP JUMPDEST PUSH1 0x40 MLOAD DUP1 SWAP2 SUB SWAP1 RETURN JUMPDEST CALLVALUE DUP1 ISZERO PUSH2 0x253 JUMPI PUSH1 0x0 DUP1 REVERT JUMPDEST POP PUSH2 0x25C PUSH2 0x13DE JUMP JUMPDEST PUSH1 0x40 MLOAD PUSH2 0x269 SWAP2 SWAP1 PUSH2 0x2159 JUMP JUMPDEST PUSH1 0x40 MLOAD DUP1 SWAP2 SUB SWAP1 RETURN JUMPDEST CALLVALUE DUP1 ISZERO PUSH2 0x27E JUMPI PUSH1 0x0 DUP1 REVERT JUMPDEST POP PUSH2 0x287 PUSH2 0x1404 JUMP JUMPDEST PUSH1 0x40 MLOAD PUSH2 0x294 SWAP2 SWAP1 PUSH2 0x2174 JUMP JUMPDEST PUSH1 0x40 MLOAD DUP1 SWAP2 SUB SWAP1 RETURN JUMPDEST CALLVALUE DUP1 ISZERO PUSH2 0x2A9 JUMPI PUSH1 0x0 DUP1 REVERT JUMPDEST POP PUSH2 0x2B2 PUSH2 0x142A JUMP JUMPDEST PUSH1 0x40 MLOAD PUSH2 0x2C7 SWAP10 SWAP9 SWAP8 SWAP7 SWAP6 SWAP5 SWAP4 SWAP3 SWAP2 SWAP1 PUSH2 0x1B4C JUMP JUMPDEST PUSH1 0x40 MLOAD DUP1 SWAP2 SUB SWAP1 RETURN JUMPDEST CALLVALUE DUP1 ISZERO PUSH2 0x2DC JUMPI PUSH1 0x0 DUP1 REVERT JUMPDEST POP PUSH2 0x2E5 PUSH2 0x1535 JUMP JUMPDEST PUSH1 0x40 MLOAD PUSH2 0x2F2 SWAP2 SWAP1 PUSH2 0x218F JUMP JUMPDEST PUSH1 0x40 MLOAD DUP1 SWAP2 SUB SWAP1 RETURN JUMPDEST CALLVALUE DUP1 ISZERO PUSH2 0x307 JUMPI PUSH1 0x0 DUP1 REVERT JUMPDEST POP PUSH2 0x310 PUSH2 0x1548 JUMP JUMPDEST PUSH1 0x40 MLOAD PUSH2 0x31D SWAP2 SWAP1 PUSH2 0x21AA JUMP JUMPDEST PUSH1 0x40 MLOAD DUP1 SWAP2 SUB SWAP1 RETURN JUMPDEST CALLVALUE DUP1 ISZERO PUSH2 0x332 JUMPI PUSH1 0x0 DUP1 REVERT JUMPDEST POP PUSH2 0x33B PUSH2 0x172D JUMP JUMPDEST STOP JUMPDEST PUSH1 0x5 PUSH1 0x20 MSTORE DUP1 PUSH1 0x0 MSTORE PUSH1 0x40 PUSH1 0x0 KECCAK256 PUSH1 0x0 SWAP2 POP SWAP1 POP DUP1 PUSH1 0x0 ADD SLOAD SWAP1 DUP1 PUSH1 0x1 ADD DUP1 SLOAD PUSH2 0x366 SWAP1 PUSH2 0x21FB JUMP JUMPDEST DUP1 PUSH1 0x1F ADD PUSH1 0x20 DUP1 SWAP2 DIV MUL PUSH1 0x20 ADD PUSH1 0x40 MLOAD SWAP1 DUP2 ADD PUSH1 0x40 MSTORE DUP1 SWAP3 SWAP2 SWAP1 DUP2 DUP2 MSTORE PUSH1 0x20 ADD DUP3 DUP1 SLOAD PUSH2 0x392 SWAP1 PUSH2 0x21FB JUMP JUMPDEST DUP1 ISZERO PUSH2 0x3DF JUMPI DUP1 PUSH1 0x1F LT PUSH2 0x3B4 JUMPI PUSH2 0x100 DUP1 DUP4 SLOAD DIV MUL DUP4 MSTORE SWAP2 PUSH1 0x20 ADD SWAP2 PUSH2 0x3DF JUMP JUMPDEST DUP3 ADD SWAP2 SWAP1 PUSH1 0x0 MSTORE PUSH1 0x20 PUSH1 0x0 KECCAK256 SWAP1 JUMPDEST DUP2 SLOAD DUP2 MSTORE SWAP1 PUSH1 0x1 ADD SWAP1 PUSH1 0x20 ADD DUP1 DUP4 GT PUSH2 0x3C2 JUMPI DUP3 SWAP1 SUB PUSH1 0x1F AND DUP3 ADD SWAP2 JUMPDEST POP POP POP POP POP SWAP1 DUP1 PUSH1 0x2 ADD PUSH1 0x0 SWAP1 SLOAD SWAP1 PUSH2 0x100 EXP SWAP1 DIV PUSH20 0xFFFFFFFFFFFFFFFFFFFFFFFFFFFFFFFFFFFFFFFF AND SWAP1 DUP1 PUSH1 0x3 ADD SLOAD SWAP1 DUP1 PUSH1 0x4 ADD SLOAD SWAP1 DUP1 PUSH1 0x5 ADD PUSH1 0x0 SWAP1 SLOAD SWAP1 PUSH2 0x100 EXP SWAP1 DIV PUSH1 0xFF AND SWAP1 DUP1 PUSH1 0x6 ADD SLOAD SWAP1 DUP1 PUSH1 0x7 ADD PUSH1 0x0 SWAP1 SLOAD SWAP1 PUSH2 0x100 EXP SWAP1 DIV PUSH1 0xFF AND SWAP1 DUP1 PUSH1 0x7 ADD PUSH1 0x1 SWAP1 SLOAD SWAP1 PUSH2 0x100 EXP SWAP1 DIV PUSH1 0xFF AND SWAP1 POP DUP10 JUMP JUMPDEST PUSH1 0x0 SELFBALANCE SWAP1 POP SWAP1 JUMP JUMPDEST PUSH1 0x6 PUSH1 0x0 CALLER PUSH20 0xFFFFFFFFFFFFFFFFFFFFFFFFFFFFFFFFFFFFFFFF AND PUSH20 0xFFFFFFFFFFFFFFFFFFFFFFFFFFFFFFFFFFFFFFFF AND DUP2 MSTORE PUSH1 0x20 ADD SWAP1 DUP2 MSTORE PUSH1 0x20 ADD PUSH1 0x0 KECCAK256 PUSH1 0x0 SWAP1 SLOAD SWAP1 PUSH2 0x100 EXP SWAP1 DIV PUSH1 0xFF AND ISZERO PUSH2 0x4EF JUMPI PUSH1 0x40 MLOAD PUSH32 0x8C379A000000000000000000000000000000000000000000000000000000000 DUP2 MSTORE PUSH1 0x4 ADD PUSH2 0x4E6 SWAP1 PUSH2 0x229E JUMP JUMPDEST PUSH1 0x40 MLOAD DUP1 SWAP2 SUB SWAP1 REVERT JUMPDEST PUSH1 0x8 PUSH1 0x0 CALLER PUSH20 0xFFFFFFFFFFFFFFFFFFFFFFFFFFFFFFFFFFFFFFFF AND PUSH20 0xFFFFFFFFFFFFFFFFFFFFFFFFFFFFFFFFFFFFFFFF AND DUP2 MSTORE PUSH1 0x20 ADD SWAP1 DUP2 MSTORE PUSH1 0x20 ADD PUSH1 0x0 KECCAK256 PUSH1 0x0 SWAP1 SLOAD SWAP1 PUSH2 0x100 EXP SWAP1 DIV PUSH1 0xFF AND ISZERO PUSH2 0x57C JUMPI PUSH1 0x40 MLOAD PUSH32 0x8C379A000000000000000000000000000000000000000000000000000000000 DUP2 MSTORE PUSH1 0x4 ADD PUSH2 0x573 SWAP1 PUSH2 0x2330 JUMP JUMPDEST PUSH1 0x40 MLOAD DUP1 SWAP2 SUB SWAP1 REVERT JUMPDEST PUSH1 0x1 PUSH1 0x3 DUP2 GT ISZERO PUSH2 0x590 JUMPI PUSH2 0x58F PUSH2 0x20A6 JUMP JUMPDEST JUMPDEST PUSH1 0x4 PUSH1 0x1 SWAP1 SLOAD SWAP1 PUSH2 0x100 EXP SWAP1 DIV PUSH1 0xFF AND PUSH1 0x3 DUP2 GT ISZERO PUSH2 0x5B2 JUMPI PUSH2 0x5B1 PUSH2 0x20A6 JUMP JUMPDEST JUMPDEST SUB PUSH2 0x5F2 JUMPI PUSH1 0x40 MLOAD PUSH32 0x8C379A000000000000000000000000000000000000000000000000000000000 DUP2 MSTORE PUSH1 0x4 ADD PUSH2 0x5E9 SWAP1 PUSH2 0x23C2 JUMP JUMPDEST PUSH1 0x40 MLOAD DUP1 SWAP2 SUB SWAP1 REVERT JUMPDEST PUSH1 0x0 PUSH2 0x5FE PUSH1 0x0 PUSH2 0x194E JUMP JUMPDEST SWAP1 POP PUSH1 0x0 PUSH1 0x40 MLOAD DUP1 PUSH2 0x120 ADD PUSH1 0x40 MSTORE DUP1 DUP4 DUP2 MSTORE PUSH1 0x20 ADD DUP7 DUP2 MSTORE PUSH1 0x20 ADD CALLER PUSH20 0xFFFFFFFFFFFFFFFFFFFFFFFFFFFFFFFFFFFFFFFF AND DUP2 MSTORE PUSH1 0x20 ADD DUP6 DUP2 MSTORE PUSH1 0x20 ADD DUP5 DUP2 MSTORE PUSH1 0x20 ADD PUSH1 0x0 ISZERO ISZERO DUP2 MSTORE PUSH1 0x20 ADD PUSH1 0x0 DUP2 MSTORE PUSH1 0x20 ADD PUSH1 0x0 ISZERO ISZERO DUP2 MSTORE PUSH1 0x20 ADD PUSH1 0x0 ISZERO ISZERO DUP2 MSTORE POP SWAP1 POP PUSH1 0x1 PUSH1 0x6 PUSH1 0x0 CALLER PUSH20 0xFFFFFFFFFFFFFFFFFFFFFFFFFFFFFFFFFFFFFFFF AND PUSH20 0xFFFFFFFFFFFFFFFFFFFFFFFFFFFFFFFFFFFFFFFF AND DUP2 MSTORE PUSH1 0x20 ADD SWAP1 DUP2 MSTORE PUSH1 0x20 ADD PUSH1 0x0 KECCAK256 PUSH1 0x0 PUSH2 0x100 EXP DUP2 SLOAD DUP2 PUSH1 0xFF MUL NOT AND SWAP1 DUP4 ISZERO ISZERO MUL OR SWAP1 SSTORE POP DUP1 PUSH1 0x5 PUSH1 0x0 DUP5 DUP2 MSTORE PUSH1 0x20 ADD SWAP1 DUP2 MSTORE PUSH1 0x20 ADD PUSH1 0x0 KECCAK256 PUSH1 0x0 DUP3 ADD MLOAD DUP2 PUSH1 0x0 ADD SSTORE PUSH1 0x20 DUP3 ADD MLOAD DUP2 PUSH1 0x1 ADD SWAP1 DUP2 PUSH2 0x6EF SWAP2 SWAP1 PUSH2 0x258E JUMP JUMPDEST POP PUSH1 0x40 DUP3 ADD MLOAD DUP2 PUSH1 0x2 ADD PUSH1 0x0 PUSH2 0x100 EXP DUP2 SLOAD DUP2 PUSH20 0xFFFFFFFFFFFFFFFFFFFFFFFFFFFFFFFFFFFFFFFF MUL NOT AND SWAP1 DUP4 PUSH20 0xFFFFFFFFFFFFFFFFFFFFFFFFFFFFFFFFFFFFFFFF AND MUL OR SWAP1 SSTORE POP PUSH1 0x60 DUP3 ADD MLOAD DUP2 PUSH1 0x3 ADD SSTORE PUSH1 0x80 DUP3 ADD MLOAD DUP2 PUSH1 0x4 ADD SSTORE PUSH1 0xA0 DUP3 ADD MLOAD DUP2 PUSH1 0x5 ADD PUSH1 0x0 PUSH2 0x100 EXP DUP2 SLOAD DUP2 PUSH1 0xFF MUL NOT AND SWAP1 DUP4 ISZERO ISZERO MUL OR SWAP1 SSTORE POP PUSH1 0xC0 DUP3 ADD MLOAD DUP2 PUSH1 0x6 ADD SSTORE PUSH1 0xE0 DUP3 ADD MLOAD DUP2 PUSH1 0x7 ADD PUSH1 0x0 PUSH2 0x100 EXP DUP2 SLOAD DUP2 PUSH1 0xFF MUL NOT AND SWAP1 DUP4 ISZERO ISZERO MUL OR SWAP1 SSTORE POP PUSH2 0x100 DUP3 ADD MLOAD DUP2 PUSH1 0x7 ADD PUSH1 0x1 PUSH2 0x100 EXP DUP2 SLOAD DUP2 PUSH1 0xFF MUL NOT AND SWAP1 DUP4 ISZERO ISZERO MUL OR SWAP1 SSTORE POP SWAP1 POP POP PUSH2 0x7C3 PUSH1 0x0 PUSH2 0x195C JUMP JUMPDEST PUSH32 0xB3080E016B94F1EDBAF8DC52950B1B3DEBD550A7662D4DB0CB404A7217047E82 DUP3 DUP7 CALLER DUP8 DUP8 PUSH1 0x0 DUP1 PUSH1 0x0 DUP1 PUSH1 0x40 MLOAD PUSH2 0x804 SWAP10 SWAP9 SWAP8 SWAP7 SWAP6 SWAP5 SWAP4 SWAP3 SWAP2 SWAP1 PUSH2 0x269B JUMP JUMPDEST PUSH1 0x40 MLOAD DUP1 SWAP2 SUB SWAP1 LOG1 POP POP POP POP POP JUMP JUMPDEST PUSH2 0x81B PUSH2 0x1972 JUMP JUMPDEST PUSH1 0x1 PUSH1 0x0 SWAP1 SLOAD SWAP1 PUSH2 0x100 EXP SWAP1 DIV PUSH20 0xFFFFFFFFFFFFFFFFFFFFFFFFFFFFFFFFFFFFFFFF AND PUSH20 0xFFFFFFFFFFFFFFFFFFFFFFFFFFFFFFFFFFFFFFFF AND CALLER PUSH20 0xFFFFFFFFFFFFFFFFFFFFFFFFFFFFFFFFFFFFFFFF AND EQ PUSH2 0x8AB JUMPI PUSH1 0x40 MLOAD PUSH32 0x8C379A000000000000000000000000000000000000000000000000000000000 DUP2 MSTORE PUSH1 0x4 ADD PUSH2 0x8A2 SWAP1 PUSH2 0x27A1 JUMP JUMPDEST PUSH1 0x40 MLOAD DUP1 SWAP2 SUB SWAP1 REVERT JUMPDEST PUSH1 0xA PUSH1 0x40 MLOAD DUP1 PUSH2 0x120 ADD PUSH1 0x40 MSTORE SWAP1 DUP2 PUSH1 0x0 DUP3 ADD SLOAD DUP2 MSTORE PUSH1 0x20 ADD PUSH1 0x1 DUP3 ADD DUP1 SLOAD PUSH2 0x8D3 SWAP1 PUSH2 0x21FB JUMP JUMPDEST DUP1 PUSH1 0x1F ADD PUSH1 0x20 DUP1 SWAP2 DIV MUL PUSH1 0x20 ADD PUSH1 0x40 MLOAD SWAP1 DUP2 ADD PUSH1 0x40 MSTORE DUP1 SWAP3 SWAP2 SWAP1 DUP2 DUP2 MSTORE PUSH1 0x20 ADD DUP3 DUP1 SLOAD PUSH2 0x8FF SWAP1 PUSH2 0x21FB JUMP JUMPDEST DUP1 ISZERO PUSH2 0x94C JUMPI DUP1 PUSH1 0x1F LT PUSH2 0x921 JUMPI PUSH2 0x100 DUP1 DUP4 SLOAD DIV MUL DUP4 MSTORE SWAP2 PUSH1 0x20 ADD SWAP2 PUSH2 0x94C JUMP JUMPDEST DUP3 ADD SWAP2 SWAP1 PUSH1 0x0 MSTORE PUSH1 0x20 PUSH1 0x0 KECCAK256 SWAP1 JUMPDEST DUP2 SLOAD DUP2 MSTORE SWAP1 PUSH1 0x1 ADD SWAP1 PUSH1 0x20 ADD DUP1 DUP4 GT PUSH2 0x92F JUMPI DUP3 SWAP1 SUB PUSH1 0x1F AND DUP3 ADD SWAP2 JUMPDEST POP POP POP POP POP DUP2 MSTORE PUSH1 0x20 ADD PUSH1 0x2 DUP3 ADD PUSH1 0x0 SWAP1 SLOAD SWAP1 PUSH2 0x100 EXP SWAP1 DIV PUSH20 0xFFFFFFFFFFFFFFFFFFFFFFFFFFFFFFFFFFFFFFFF AND PUSH20 0xFFFFFFFFFFFFFFFFFFFFFFFFFFFFFFFFFFFFFFFF AND PUSH20 0xFFFFFFFFFFFFFFFFFFFFFFFFFFFFFFFFFFFFFFFF AND DUP2 MSTORE PUSH1 0x20 ADD PUSH1 0x3 DUP3 ADD SLOAD DUP2 MSTORE PUSH1 0x20 ADD PUSH1 0x4 DUP3 ADD SLOAD DUP2 MSTORE PUSH1 0x20 ADD PUSH1 0x5 DUP3 ADD PUSH1 0x0 SWAP1 SLOAD SWAP1 PUSH2 0x100 EXP SWAP1 DIV PUSH1 0xFF AND ISZERO ISZERO ISZERO ISZERO DUP2 MSTORE PUSH1 0x20 ADD PUSH1 0x6 DUP3 ADD SLOAD DUP2 MSTORE PUSH1 0x20 ADD PUSH1 0x7 DUP3 ADD PUSH1 0x0 SWAP1 SLOAD SWAP1 PUSH2 0x100 EXP SWAP1 DIV PUSH1 0xFF AND ISZERO ISZERO ISZERO ISZERO DUP2 MSTORE PUSH1 0x20 ADD PUSH1 0x7 DUP3 ADD PUSH1 0x1 SWAP1 SLOAD SWAP1 PUSH2 0x100 EXP SWAP1 DIV PUSH1 0xFF AND ISZERO ISZERO ISZERO ISZERO DUP2 MSTORE POP POP SWAP1 POP SWAP1 JUMP JUMPDEST PUSH1 0x60 PUSH1 0x0 PUSH2 0xA2D PUSH1 0x0 PUSH2 0x194E JUMP JUMPDEST SWAP1 POP PUSH1 0x0 DUP2 PUSH8 0xFFFFFFFFFFFFFFFF DUP2 GT ISZERO PUSH2 0xA4B JUMPI PUSH2 0xA4A PUSH2 0x1C05 JUMP JUMPDEST JUMPDEST PUSH1 0x40 MLOAD SWAP1 DUP1 DUP3 MSTORE DUP1 PUSH1 0x20 MUL PUSH1 0x20 ADD DUP3 ADD PUSH1 0x40 MSTORE DUP1 ISZERO PUSH2 0xA84 JUMPI DUP2 PUSH1 0x20 ADD JUMPDEST PUSH2 0xA71 PUSH2 0x1972 JUMP JUMPDEST DUP2 MSTORE PUSH1 0x20 ADD SWAP1 PUSH1 0x1 SWAP1 SUB SWAP1 DUP2 PUSH2 0xA69 JUMPI SWAP1 POP JUMPDEST POP SWAP1 POP PUSH1 0x0 DUP1 JUMPDEST DUP4 DUP2 LT ISZERO PUSH2 0xC58 JUMPI PUSH1 0x0 PUSH1 0x5 PUSH1 0x0 DUP4 DUP2 MSTORE PUSH1 0x20 ADD SWAP1 DUP2 MSTORE PUSH1 0x20 ADD PUSH1 0x0 KECCAK256 PUSH1 0x40 MLOAD DUP1 PUSH2 0x120 ADD PUSH1 0x40 MSTORE SWAP1 DUP2 PUSH1 0x0 DUP3 ADD SLOAD DUP2 MSTORE PUSH1 0x20 ADD PUSH1 0x1 DUP3 ADD DUP1 SLOAD PUSH2 0xACE SWAP1 PUSH2 0x21FB JUMP JUMPDEST DUP1 PUSH1 0x1F ADD PUSH1 0x20 DUP1 SWAP2 DIV MUL PUSH1 0x20 ADD PUSH1 0x40 MLOAD SWAP1 DUP2 ADD PUSH1 0x40 MSTORE DUP1 SWAP3 SWAP2 SWAP1 DUP2 DUP2 MSTORE PUSH1 0x20 ADD DUP3 DUP1 SLOAD PUSH2 0xAFA SWAP1 PUSH2 0x21FB JUMP JUMPDEST DUP1 ISZERO PUSH2 0xB47 JUMPI DUP1 PUSH1 0x1F LT PUSH2 0xB1C JUMPI PUSH2 0x100 DUP1 DUP4 SLOAD DIV MUL DUP4 MSTORE SWAP2 PUSH1 0x20 ADD SWAP2 PUSH2 0xB47 JUMP JUMPDEST DUP3 ADD SWAP2 SWAP1 PUSH1 0x0 MSTORE PUSH1 0x20 PUSH1 0x0 KECCAK256 SWAP1 JUMPDEST DUP2 SLOAD DUP2 MSTORE SWAP1 PUSH1 0x1 ADD SWAP1 PUSH1 0x20 ADD DUP1 DUP4 GT PUSH2 0xB2A JUMPI DUP3 SWAP1 SUB PUSH1 0x1F AND DUP3 ADD SWAP2 JUMPDEST POP POP POP POP POP DUP2 MSTORE PUSH1 0x20 ADD PUSH1 0x2 DUP3 ADD PUSH1 0x0 SWAP1 SLOAD SWAP1 PUSH2 0x100 EXP SWAP1 DIV PUSH20 0xFFFFFFFFFFFFFFFFFFFFFFFFFFFFFFFFFFFFFFFF AND PUSH20 0xFFFFFFFFFFFFFFFFFFFFFFFFFFFFFFFFFFFFFFFF AND PUSH20 0xFFFFFFFFFFFFFFFFFFFFFFFFFFFFFFFFFFFFFFFF AND DUP2 MSTORE PUSH1 0x20 ADD PUSH1 0x3 DUP3 ADD SLOAD DUP2 MSTORE PUSH1 0x20 ADD PUSH1 0x4 DUP3 ADD SLOAD DUP2 MSTORE PUSH1 0x20 ADD PUSH1 0x5 DUP3 ADD PUSH1 0x0 SWAP1 SLOAD SWAP1 PUSH2 0x100 EXP SWAP1 DIV PUSH1 0xFF AND ISZERO ISZERO ISZERO ISZERO DUP2 MSTORE PUSH1 0x20 ADD PUSH1 0x6 DUP3 ADD SLOAD DUP2 MSTORE PUSH1 0x20 ADD PUSH1 0x7 DUP3 ADD PUSH1 0x0 SWAP1 SLOAD SWAP1 PUSH2 0x100 EXP SWAP1 DIV PUSH1 0xFF AND ISZERO ISZERO ISZERO ISZERO DUP2 MSTORE PUSH1 0x20 ADD PUSH1 0x7 DUP3 ADD PUSH1 0x1 SWAP1 SLOAD SWAP1 PUSH2 0x100 EXP SWAP1 DIV PUSH1 0xFF AND ISZERO ISZERO ISZERO ISZERO DUP2 MSTORE POP POP SWAP1 POP DUP1 DUP5 DUP5 DUP2 MLOAD DUP2 LT PUSH2 0xC2B JUMPI PUSH2 0xC2A PUSH2 0x27C1 JUMP JUMPDEST JUMPDEST PUSH1 0x20 MUL PUSH1 0x20 ADD ADD DUP2 SWAP1 MSTORE POP DUP3 DUP1 PUSH2 0xC41 SWAP1 PUSH2 0x281F JUMP JUMPDEST SWAP4 POP POP POP DUP1 DUP1 PUSH2 0xC50 SWAP1 PUSH2 0x281F JUMP JUMPDEST SWAP2 POP POP PUSH2 0xA8B JUMP JUMPDEST POP DUP2 SWAP4 POP POP POP POP SWAP1 JUMP JUMPDEST PUSH1 0x3 DUP1 DUP2 GT ISZERO PUSH2 0xC75 JUMPI PUSH2 0xC74 PUSH2 0x20A6 JUMP JUMPDEST JUMPDEST PUSH1 0x4 PUSH1 0x1 SWAP1 SLOAD SWAP1 PUSH2 0x100 EXP SWAP1 DIV PUSH1 0xFF AND PUSH1 0x3 DUP2 GT ISZERO PUSH2 0xC97 JUMPI PUSH2 0xC96 PUSH2 0x20A6 JUMP JUMPDEST JUMPDEST SUB PUSH2 0xCD7 JUMPI PUSH1 0x40 MLOAD PUSH32 0x8C379A000000000000000000000000000000000000000000000000000000000 DUP2 MSTORE PUSH1 0x4 ADD PUSH2 0xCCE SWAP1 PUSH2 0x28D9 JUMP JUMPDEST PUSH1 0x40 MLOAD DUP1 SWAP2 SUB SWAP1 REVERT JUMPDEST PUSH1 0x1 PUSH1 0x0 SWAP1 SLOAD SWAP1 PUSH2 0x100 EXP SWAP1 DIV PUSH20 0xFFFFFFFFFFFFFFFFFFFFFFFFFFFFFFFFFFFFFFFF AND PUSH20 0xFFFFFFFFFFFFFFFFFFFFFFFFFFFFFFFFFFFFFFFF AND CALLER PUSH20 0xFFFFFFFFFFFFFFFFFFFFFFFFFFFFFFFFFFFFFFFF AND EQ PUSH2 0xD67 JUMPI PUSH1 0x40 MLOAD PUSH32 0x8C379A000000000000000000000000000000000000000000000000000000000 DUP2 MSTORE PUSH1 0x4 ADD PUSH2 0xD5E SWAP1 PUSH2 0x296B JUMP JUMPDEST PUSH1 0x40 MLOAD DUP1 SWAP2 SUB SWAP1 REVERT JUMPDEST PUSH1 0x2 PUSH1 0x3 DUP2 GT ISZERO PUSH2 0xD7B JUMPI PUSH2 0xD7A PUSH2 0x20A6 JUMP JUMPDEST JUMPDEST PUSH1 0x4 PUSH1 0x1 SWAP1 SLOAD SWAP1 PUSH2 0x100 EXP SWAP1 DIV PUSH1 0xFF AND PUSH1 0x3 DUP2 GT ISZERO PUSH2 0xD9D JUMPI PUSH2 0xD9C PUSH2 0x20A6 JUMP JUMPDEST JUMPDEST EQ PUSH2 0xDDD JUMPI PUSH1 0x40 MLOAD PUSH32 0x8C379A000000000000000000000000000000000000000000000000000000000 DUP2 MSTORE PUSH1 0x4 ADD PUSH2 0xDD4 SWAP1 PUSH2 0x29D7 JUMP JUMPDEST PUSH1 0x40 MLOAD DUP1 SWAP2 SUB SWAP1 REVERT JUMPDEST PUSH1 0x0 PUSH1 0xA PUSH1 0x3 ADD SLOAD PUSH1 0x3 SLOAD PUSH2 0xDF2 SWAP2 SWAP1 PUSH2 0x29F7 JUMP JUMPDEST SWAP1 POP PUSH1 0x1 PUSH1 0x0 SWAP1 SLOAD SWAP1 PUSH2 0x100 EXP SWAP1 DIV PUSH20 0xFFFFFFFFFFFFFFFFFFFFFFFFFFFFFFFFFFFFFFFF AND PUSH20 0xFFFFFFFFFFFFFFFFFFFFFFFFFFFFFFFFFFFFFFFF AND PUSH2 0x8FC DUP3 SWAP1 DUP2 ISZERO MUL SWAP1 PUSH1 0x40 MLOAD PUSH1 0x0 PUSH1 0x40 MLOAD DUP1 DUP4 SUB DUP2 DUP6 DUP9 DUP9 CALL SWAP4 POP POP POP POP ISZERO DUP1 ISZERO PUSH2 0xE5C JUMPI RETURNDATASIZE PUSH1 0x0 DUP1 RETURNDATACOPY RETURNDATASIZE PUSH1 0x0 REVERT JUMPDEST POP PUSH1 0xA PUSH1 0x2 ADD PUSH1 0x0 SWAP1 SLOAD SWAP1 PUSH2 0x100 EXP SWAP1 DIV PUSH20 0xFFFFFFFFFFFFFFFFFFFFFFFFFFFFFFFFFFFFFFFF AND PUSH20 0xFFFFFFFFFFFFFFFFFFFFFFFFFFFFFFFFFFFFFFFF AND PUSH2 0x8FC PUSH1 0xA PUSH1 0x3 ADD SLOAD SWAP1 DUP2 ISZERO MUL SWAP1 PUSH1 0x40 MLOAD PUSH1 0x0 PUSH1 0x40 MLOAD DUP1 DUP4 SUB DUP2 DUP6 DUP9 DUP9 CALL SWAP4 POP POP POP POP ISZERO DUP1 ISZERO PUSH2 0xECD JUMPI RETURNDATASIZE PUSH1 0x0 DUP1 RETURNDATACOPY RETURNDATASIZE PUSH1 0x0 REVERT JUMPDEST POP PUSH1 0x1 PUSH1 0xA PUSH1 0x7 ADD PUSH1 0x1 PUSH2 0x100 EXP DUP2 SLOAD DUP2 PUSH1 0xFF MUL NOT AND SWAP1 DUP4 ISZERO ISZERO MUL OR SWAP1 SSTORE POP PUSH1 0x0 PUSH1 0x8 PUSH1 0x0 PUSH1 0xA PUSH1 0x2 ADD PUSH1 0x0 SWAP1 SLOAD SWAP1 PUSH2 0x100 EXP SWAP1 DIV PUSH20 0xFFFFFFFFFFFFFFFFFFFFFFFFFFFFFFFFFFFFFFFF AND PUSH20 0xFFFFFFFFFFFFFFFFFFFFFFFFFFFFFFFFFFFFFFFF AND PUSH20 0xFFFFFFFFFFFFFFFFFFFFFFFFFFFFFFFFFFFFFFFF AND DUP2 MSTORE PUSH1 0x20 ADD SWAP1 DUP2 MSTORE PUSH1 0x20 ADD PUSH1 0x0 KECCAK256 PUSH1 0x0 PUSH2 0x100 EXP DUP2 SLOAD DUP2 PUSH1 0xFF MUL NOT AND SWAP1 DUP4 ISZERO ISZERO MUL OR SWAP1 SSTORE POP PUSH1 0x3 PUSH1 0x4 PUSH1 0x1 PUSH2 0x100 EXP DUP2 SLOAD DUP2 PUSH1 0xFF MUL NOT AND SWAP1 DUP4 PUSH1 0x3 DUP2 GT ISZERO PUSH2 0xF8F JUMPI PUSH2 0xF8E PUSH2 0x20A6 JUMP JUMPDEST JUMPDEST MUL OR SWAP1 SSTORE POP POP JUMP JUMPDEST PUSH1 0x1 PUSH1 0x0 SWAP1 SLOAD SWAP1 PUSH2 0x100 EXP SWAP1 DIV PUSH20 0xFFFFFFFFFFFFFFFFFFFFFFFFFFFFFFFFFFFFFFFF AND PUSH20 0xFFFFFFFFFFFFFFFFFFFFFFFFFFFFFFFFFFFFFFFF AND CALLER PUSH20 0xFFFFFFFFFFFFFFFFFFFFFFFFFFFFFFFFFFFFFFFF AND EQ PUSH2 0x1027 JUMPI PUSH1 0x40 MLOAD PUSH32 0x8C379A000000000000000000000000000000000000000000000000000000000 DUP2 MSTORE PUSH1 0x4 ADD PUSH2 0x101E SWAP1 PUSH2 0x2A9D JUMP JUMPDEST PUSH1 0x40 MLOAD DUP1 SWAP2 SUB SWAP1 REVERT JUMPDEST PUSH1 0x0 PUSH1 0x5 PUSH1 0x0 DUP4 DUP2 MSTORE PUSH1 0x20 ADD SWAP1 DUP2 MSTORE PUSH1 0x20 ADD PUSH1 0x0 KECCAK256 SWAP1 POP PUSH1 0x1 PUSH1 0x3 DUP2 GT ISZERO PUSH2 0x1052 JUMPI PUSH2 0x1051 PUSH2 0x20A6 JUMP JUMPDEST JUMPDEST PUSH1 0x4 PUSH1 0x1 SWAP1 SLOAD SWAP1 PUSH2 0x100 EXP SWAP1 DIV PUSH1 0xFF AND PUSH1 0x3 DUP2 GT ISZERO PUSH2 0x1074 JUMPI PUSH2 0x1073 PUSH2 0x20A6 JUMP JUMPDEST JUMPDEST SUB PUSH2 0x10B4 JUMPI PUSH1 0x40 MLOAD PUSH32 0x8C379A000000000000000000000000000000000000000000000000000000000 DUP2 MSTORE PUSH1 0x4 ADD PUSH2 0x10AB SWAP1 PUSH2 0x2B2F JUMP JUMPDEST PUSH1 0x40 MLOAD DUP1 SWAP2 SUB SWAP1 REVERT JUMPDEST PUSH1 0x1 PUSH1 0x0 SWAP1 SLOAD SWAP1 PUSH2 0x100 EXP SWAP1 DIV PUSH20 0xFFFFFFFFFFFFFFFFFFFFFFFFFFFFFFFFFFFFFFFF AND PUSH20 0xFFFFFFFFFFFFFFFFFFFFFFFFFFFFFFFFFFFFFFFF AND CALLER PUSH20 0xFFFFFFFFFFFFFFFFFFFFFFFFFFFFFFFFFFFFFFFF AND EQ PUSH2 0x1144 JUMPI PUSH1 0x40 MLOAD PUSH32 0x8C379A000000000000000000000000000000000000000000000000000000000 DUP2 MSTORE PUSH1 0x4 ADD PUSH2 0x113B SWAP1 PUSH2 0x2BC1 JUMP JUMPDEST PUSH1 0x40 MLOAD DUP1 SWAP2 SUB SWAP1 REVERT JUMPDEST PUSH1 0x2 SLOAD TIMESTAMP LT PUSH2 0x1188 JUMPI PUSH1 0x40 MLOAD PUSH32 0x8C379A000000000000000000000000000000000000000000000000000000000 DUP2 MSTORE PUSH1 0x4 ADD PUSH2 0x117F SWAP1 PUSH2 0x2C79 JUMP JUMPDEST PUSH1 0x40 MLOAD DUP1 SWAP2 SUB SWAP1 REVERT JUMPDEST TIMESTAMP DUP2 PUSH1 0x6 ADD DUP2 SWAP1 SSTORE POP PUSH1 0x1 DUP2 PUSH1 0x5 ADD PUSH1 0x0 PUSH2 0x100 EXP DUP2 SLOAD DUP2 PUSH1 0xFF MUL NOT AND SWAP1 DUP4 ISZERO ISZERO MUL OR SWAP1 SSTORE POP DUP1 PUSH1 0xA PUSH1 0x0 DUP3 ADD SLOAD DUP2 PUSH1 0x0 ADD SSTORE PUSH1 0x1 DUP3 ADD DUP2 PUSH1 0x1 ADD SWAP1 DUP2 PUSH2 0x11CF SWAP2 SWAP1 PUSH2 0x2CAF JUMP JUMPDEST POP PUSH1 0x2 DUP3 ADD PUSH1 0x0 SWAP1 SLOAD SWAP1 PUSH2 0x100 EXP SWAP1 DIV PUSH20 0xFFFFFFFFFFFFFFFFFFFFFFFFFFFFFFFFFFFFFFFF AND DUP2 PUSH1 0x2 ADD PUSH1 0x0 PUSH2 0x100 EXP DUP2 SLOAD DUP2 PUSH20 0xFFFFFFFFFFFFFFFFFFFFFFFFFFFFFFFFFFFFFFFF MUL NOT AND SWAP1 DUP4 PUSH20 0xFFFFFFFFFFFFFFFFFFFFFFFFFFFFFFFFFFFFFFFF AND MUL OR SWAP1 SSTORE POP PUSH1 0x3 DUP3 ADD SLOAD DUP2 PUSH1 0x3 ADD SSTORE PUSH1 0x4 DUP3 ADD SLOAD DUP2 PUSH1 0x4 ADD SSTORE PUSH1 0x5 DUP3 ADD PUSH1 0x0 SWAP1 SLOAD SWAP1 PUSH2 0x100 EXP SWAP1 DIV PUSH1 0xFF AND DUP2 PUSH1 0x5 ADD PUSH1 0x0 PUSH2 0x100 EXP DUP2 SLOAD DUP2 PUSH1 0xFF MUL NOT AND SWAP1 DUP4 ISZERO ISZERO MUL OR SWAP1 SSTORE POP PUSH1 0x6 DUP3 ADD SLOAD DUP2 PUSH1 0x6 ADD SSTORE PUSH1 0x7 DUP3 ADD PUSH1 0x0 SWAP1 SLOAD SWAP1 PUSH2 0x100 EXP SWAP1 DIV PUSH1 0xFF AND DUP2 PUSH1 0x7 ADD PUSH1 0x0 PUSH2 0x100 EXP DUP2 SLOAD DUP2 PUSH1 0xFF MUL NOT AND SWAP1 DUP4 ISZERO ISZERO MUL OR SWAP1 SSTORE POP PUSH1 0x7 DUP3 ADD PUSH1 0x1 SWAP1 SLOAD SWAP1 PUSH2 0x100 EXP SWAP1 DIV PUSH1 0xFF AND DUP2 PUSH1 0x7 ADD PUSH1 0x1 PUSH2 0x100 EXP DUP2 SLOAD DUP2 PUSH1 0xFF MUL NOT AND SWAP1 DUP4 ISZERO ISZERO MUL OR SWAP1 SSTORE POP SWAP1 POP POP PUSH1 0x1 PUSH1 0x8 PUSH1 0x0 CALLER PUSH20 0xFFFFFFFFFFFFFFFFFFFFFFFFFFFFFFFFFFFFFFFF AND PUSH20 0xFFFFFFFFFFFFFFFFFFFFFFFFFFFFFFFFFFFFFFFF AND DUP2 MSTORE PUSH1 0x20 ADD SWAP1 DUP2 MSTORE PUSH1 0x20 ADD PUSH1 0x0 KECCAK256 PUSH1 0x0 PUSH2 0x100 EXP DUP2 SLOAD DUP2 PUSH1 0xFF MUL NOT AND SWAP1 DUP4 ISZERO ISZERO MUL OR SWAP1 SSTORE POP PUSH1 0x1 PUSH1 0x4 PUSH1 0x1 PUSH2 0x100 EXP DUP2 SLOAD DUP2 PUSH1 0xFF MUL NOT AND SWAP1 DUP4 PUSH1 0x3 DUP2 GT ISZERO PUSH2 0x135D JUMPI PUSH2 0x135C PUSH2 0x20A6 JUMP JUMPDEST JUMPDEST MUL OR SWAP1 SSTORE POP DUP1 PUSH1 0x2 ADD PUSH1 0x0 SWAP1 SLOAD SWAP1 PUSH2 0x100 EXP SWAP1 DIV PUSH20 0xFFFFFFFFFFFFFFFFFFFFFFFFFFFFFFFFFFFFFFFF AND PUSH1 0x12 PUSH1 0x0 PUSH2 0x100 EXP DUP2 SLOAD DUP2 PUSH20 0xFFFFFFFFFFFFFFFFFFFFFFFFFFFFFFFFFFFFFFFF MUL NOT AND SWAP1 DUP4 PUSH20 0xFFFFFFFFFFFFFFFFFFFFFFFFFFFFFFFFFFFFFFFF AND MUL OR SWAP1 SSTORE POP POP POP JUMP JUMPDEST PUSH1 0x4 PUSH1 0x1 SWAP1 SLOAD SWAP1 PUSH2 0x100 EXP SWAP1 DIV PUSH1 0xFF AND DUP2 JUMP JUMPDEST PUSH1 0x12 PUSH1 0x0 SWAP1 SLOAD SWAP1 PUSH2 0x100 EXP SWAP1 DIV PUSH20 0xFFFFFFFFFFFFFFFFFFFFFFFFFFFFFFFFFFFFFFFF AND DUP2 JUMP JUMPDEST PUSH1 0x1 PUSH1 0x0 SWAP1 SLOAD SWAP1 PUSH2 0x100 EXP SWAP1 DIV PUSH20 0xFFFFFFFFFFFFFFFFFFFFFFFFFFFFFFFFFFFFFFFF AND DUP2 JUMP JUMPDEST PUSH1 0xA DUP1 PUSH1 0x0 ADD SLOAD SWAP1 DUP1 PUSH1 0x1 ADD DUP1 SLOAD PUSH2 0x1441 SWAP1 PUSH2 0x21FB JUMP JUMPDEST DUP1 PUSH1 0x1F ADD PUSH1 0x20 DUP1 SWAP2 DIV MUL PUSH1 0x20 ADD PUSH1 0x40 MLOAD SWAP1 DUP2 ADD PUSH1 0x40 MSTORE DUP1 SWAP3 SWAP2 SWAP1 DUP2 DUP2 MSTORE PUSH1 0x20 ADD DUP3 DUP1 SLOAD PUSH2 0x146D SWAP1 PUSH2 0x21FB JUMP JUMPDEST DUP1 ISZERO PUSH2 0x14BA JUMPI DUP1 PUSH1 0x1F LT PUSH2 0x148F JUMPI PUSH2 0x100 DUP1 DUP4 SLOAD DIV MUL DUP4 MSTORE SWAP2 PUSH1 0x20 ADD SWAP2 PUSH2 0x14BA JUMP JUMPDEST DUP3 ADD SWAP2 SWAP1 PUSH1 0x0 MSTORE PUSH1 0x20 PUSH1 0x0 KECCAK256 SWAP1 JUMPDEST DUP2 SLOAD DUP2 MSTORE SWAP1 PUSH1 0x1 ADD SWAP1 PUSH1 0x20 ADD DUP1 DUP4 GT PUSH2 0x149D JUMPI DUP3 SWAP1 SUB PUSH1 0x1F AND DUP3 ADD SWAP2 JUMPDEST POP POP POP POP POP SWAP1 DUP1 PUSH1 0x2 ADD PUSH1 0x0 SWAP1 SLOAD SWAP1 PUSH2 0x100 EXP SWAP1 DIV PUSH20 0xFFFFFFFFFFFFFFFFFFFFFFFFFFFFFFFFFFFFFFFF AND SWAP1 DUP1 PUSH1 0x3 ADD SLOAD SWAP1 DUP1 PUSH1 0x4 ADD SLOAD SWAP1 DUP1 PUSH1 0x5 ADD PUSH1 0x0 SWAP1 SLOAD SWAP1 PUSH2 0x100 EXP SWAP1 DIV PUSH1 0xFF AND SWAP1 DUP1 PUSH1 0x6 ADD SLOAD SWAP1 DUP1 PUSH1 0x7 ADD PUSH1 0x0 SWAP1 SLOAD SWAP1 PUSH2 0x100 EXP SWAP1 DIV PUSH1 0xFF AND SWAP1 DUP1 PUSH1 0x7 ADD PUSH1 0x1 SWAP1 SLOAD SWAP1 PUSH2 0x100 EXP SWAP1 DIV PUSH1 0xFF AND SWAP1 POP DUP10 JUMP JUMPDEST PUSH1 0x9 PUSH1 0x0 SWAP1 SLOAD SWAP1 PUSH2 0x100 EXP SWAP1 DIV PUSH1 0xFF AND DUP2 JUMP JUMPDEST PUSH1 0x60 PUSH1 0x0 PUSH1 0x3 DUP2 GT ISZERO PUSH2 0x155E JUMPI PUSH2 0x155D PUSH2 0x20A6 JUMP JUMPDEST JUMPDEST PUSH1 0x4 PUSH1 0x1 SWAP1 SLOAD SWAP1 PUSH2 0x100 EXP SWAP1 DIV PUSH1 0xFF AND PUSH1 0x3 DUP2 GT ISZERO PUSH2 0x1580 JUMPI PUSH2 0x157F PUSH2 0x20A6 JUMP JUMPDEST JUMPDEST SUB PUSH2 0x15C2 JUMPI PUSH1 0x40 MLOAD DUP1 PUSH1 0x40 ADD PUSH1 0x40 MSTORE DUP1 PUSH1 0x4 DUP2 MSTORE PUSH1 0x20 ADD PUSH32 0x4F70656E00000000000000000000000000000000000000000000000000000000 DUP2 MSTORE POP SWAP1 POP PUSH2 0x172A JUMP JUMPDEST PUSH1 0x1 PUSH1 0x3 DUP2 GT ISZERO PUSH2 0x15D6 JUMPI PUSH2 0x15D5 PUSH2 0x20A6 JUMP JUMPDEST JUMPDEST PUSH1 0x4 PUSH1 0x1 SWAP1 SLOAD SWAP1 PUSH2 0x100 EXP SWAP1 DIV PUSH1 0xFF AND PUSH1 0x3 DUP2 GT ISZERO PUSH2 0x15F8 JUMPI PUSH2 0x15F7 PUSH2 0x20A6 JUMP JUMPDEST JUMPDEST SUB PUSH2 0x163A JUMPI PUSH1 0x40 MLOAD DUP1 PUSH1 0x40 ADD PUSH1 0x40 MSTORE DUP1 PUSH1 0xB DUP2 MSTORE PUSH1 0x20 ADD PUSH32 0x496E2050726F6772657373000000000000000000000000000000000000000000 DUP2 MSTORE POP SWAP1 POP PUSH2 0x172A JUMP JUMPDEST PUSH1 0x2 PUSH1 0x3 DUP2 GT ISZERO PUSH2 0x164E JUMPI PUSH2 0x164D PUSH2 0x20A6 JUMP JUMPDEST JUMPDEST PUSH1 0x4 PUSH1 0x1 SWAP1 SLOAD SWAP1 PUSH2 0x100 EXP SWAP1 DIV PUSH1 0xFF AND PUSH1 0x3 DUP2 GT ISZERO PUSH2 0x1670 JUMPI PUSH2 0x166F PUSH2 0x20A6 JUMP JUMPDEST JUMPDEST SUB PUSH2 0x16B2 JUMPI PUSH1 0x40 MLOAD DUP1 PUSH1 0x40 ADD PUSH1 0x40 MSTORE DUP1 PUSH1 0x12 DUP2 MSTORE PUSH1 0x20 ADD PUSH32 0x4D61726B656420417320436F6D706C6574650000000000000000000000000000 DUP2 MSTORE POP SWAP1 POP PUSH2 0x172A JUMP JUMPDEST PUSH1 0x3 DUP1 DUP2 GT ISZERO PUSH2 0x16C5 JUMPI PUSH2 0x16C4 PUSH2 0x20A6 JUMP JUMPDEST JUMPDEST PUSH1 0x4 PUSH1 0x1 SWAP1 SLOAD SWAP1 PUSH2 0x100 EXP SWAP1 DIV PUSH1 0xFF AND PUSH1 0x3 DUP2 GT ISZERO PUSH2 0x16E7 JUMPI PUSH2 0x16E6 PUSH2 0x20A6 JUMP JUMPDEST JUMPDEST SUB PUSH2 0x1729 JUMPI PUSH1 0x40 MLOAD DUP1 PUSH1 0x40 ADD PUSH1 0x40 MSTORE DUP1 PUSH1 0x9 DUP2 MSTORE PUSH1 0x20 ADD PUSH32 0x436F6D706C657465640000000000000000000000000000000000000000000000 DUP2 MSTORE POP SWAP1 POP PUSH2 0x172A JUMP JUMPDEST JUMPDEST SWAP1 JUMP JUMPDEST PUSH1 0x1 PUSH1 0x3 DUP2 GT ISZERO PUSH2 0x1741 JUMPI PUSH2 0x1740 PUSH2 0x20A6 JUMP JUMPDEST JUMPDEST PUSH1 0x4 PUSH1 0x1 SWAP1 SLOAD SWAP1 PUSH2 0x100 EXP SWAP1 DIV PUSH1 0xFF AND PUSH1 0x3 DUP2 GT ISZERO PUSH2 0x1763 JUMPI PUSH2 0x1762 PUSH2 0x20A6 JUMP JUMPDEST JUMPDEST EQ PUSH2 0x17A3 JUMPI PUSH1 0x40 MLOAD PUSH32 0x8C379A000000000000000000000000000000000000000000000000000000000 DUP2 MSTORE PUSH1 0x4 ADD PUSH2 0x179A SWAP1 PUSH2 0x2E09 JUMP JUMPDEST PUSH1 0x40 MLOAD DUP1 SWAP2 SUB SWAP1 REVERT JUMPDEST PUSH1 0x3 DUP1 DUP2 GT ISZERO PUSH2 0x17B6 JUMPI PUSH2 0x17B5 PUSH2 0x20A6 JUMP JUMPDEST JUMPDEST PUSH1 0x4 PUSH1 0x1 SWAP1 SLOAD SWAP1 PUSH2 0x100 EXP SWAP1 DIV PUSH1 0xFF AND PUSH1 0x3 DUP2 GT ISZERO PUSH2 0x17D8 JUMPI PUSH2 0x17D7 PUSH2 0x20A6 JUMP JUMPDEST JUMPDEST SUB PUSH2 0x1818 JUMPI PUSH1 0x40 MLOAD PUSH32 0x8C379A000000000000000000000000000000000000000000000000000000000 DUP2 MSTORE PUSH1 0x4 ADD PUSH2 0x180F SWAP1 PUSH2 0x28D9 JUMP JUMPDEST PUSH1 0x40 MLOAD DUP1 SWAP2 SUB SWAP1 REVERT JUMPDEST PUSH1 0xA PUSH1 0x2 ADD PUSH1 0x0 SWAP1 SLOAD SWAP1 PUSH2 0x100 EXP SWAP1 DIV PUSH20 0xFFFFFFFFFFFFFFFFFFFFFFFFFFFFFFFFFFFFFFFF AND PUSH20 0xFFFFFFFFFFFFFFFFFFFFFFFFFFFFFFFFFFFFFFFF AND CALLER PUSH20 0xFFFFFFFFFFFFFFFFFFFFFFFFFFFFFFFFFFFFFFFF AND EQ PUSH2 0x18AB JUMPI PUSH1 0x40 MLOAD PUSH32 0x8C379A000000000000000000000000000000000000000000000000000000000 DUP2 MSTORE PUSH1 0x4 ADD PUSH2 0x18A2 SWAP1 PUSH2 0x2E9B JUMP JUMPDEST PUSH1 0x40 MLOAD DUP1 SWAP2 SUB SWAP1 REVERT JUMPDEST PUSH1 0x2 PUSH1 0x3 DUP2 GT ISZERO PUSH2 0x18BF JUMPI PUSH2 0x18BE PUSH2 0x20A6 JUMP JUMPDEST JUMPDEST PUSH1 0x4 PUSH1 0x1 SWAP1 SLOAD SWAP1 PUSH2 0x100 EXP SWAP1 DIV PUSH1 0xFF AND PUSH1 0x3 DUP2 GT ISZERO PUSH2 0x18E1 JUMPI PUSH2 0x18E0 PUSH2 0x20A6 JUMP JUMPDEST JUMPDEST SUB PUSH2 0x1921 JUMPI PUSH1 0x40 MLOAD PUSH32 0x8C379A000000000000000000000000000000000000000000000000000000000 DUP2 MSTORE PUSH1 0x4 ADD PUSH2 0x1918 SWAP1 PUSH2 0x2F2D JUMP JUMPDEST PUSH1 0x40 MLOAD DUP1 SWAP2 SUB SWAP1 REVERT JUMPDEST PUSH1 0x2 PUSH1 0x4 PUSH1 0x1 PUSH2 0x100 EXP DUP2 SLOAD DUP2 PUSH1 0xFF MUL NOT AND SWAP1 DUP4 PUSH1 0x3 DUP2 GT ISZERO PUSH2 0x1947 JUMPI PUSH2 0x1946 PUSH2 0x20A6 JUMP JUMPDEST JUMPDEST MUL OR SWAP1 SSTORE POP JUMP JUMPDEST PUSH1 0x0 DUP2 PUSH1 0x0 ADD SLOAD SWAP1 POP SWAP2 SWAP1 POP JUMP JUMPDEST PUSH1 0x1 DUP2 PUSH1 0x0 ADD PUSH1 0x0 DUP3 DUP3 SLOAD ADD SWAP3 POP POP DUP2 SWAP1 SSTORE POP POP JUMP JUMPDEST PUSH1 0x40 MLOAD DUP1 PUSH2 0x120 ADD PUSH1 0x40 MSTORE DUP1 PUSH1 0x0 DUP2 MSTORE PUSH1 0x20 ADD PUSH1 0x60 DUP2 MSTORE PUSH1 0x20 ADD PUSH1 0x0 PUSH20 0xFFFFFFFFFFFFFFFFFFFFFFFFFFFFFFFFFFFFFFFF AND DUP2 MSTORE PUSH1 0x20 ADD PUSH1 0x0 DUP2 MSTORE PUSH1 0x20 ADD PUSH1 0x0 DUP2 MSTORE PUSH1 0x20 ADD PUSH1 0x0 ISZERO ISZERO DUP2 MSTORE PUSH1 0x20 ADD PUSH1 0x0 DUP2 MSTORE PUSH1 0x20 ADD PUSH1 0x0 ISZERO ISZERO DUP2 MSTORE PUSH1 0x20 ADD PUSH1 0x0 ISZERO ISZERO DUP2 MSTORE POP SWAP1 JUMP JUMPDEST PUSH1 0x0 PUSH1 0x40 MLOAD SWAP1 POP SWAP1 JUMP JUMPDEST PUSH1 0x0 DUP1 REVERT JUMPDEST PUSH1 0x0 DUP1 REVERT JUMPDEST PUSH1 0x0 DUP2 SWAP1 POP SWAP2 SWAP1 POP JUMP JUMPDEST PUSH2 0x1A01 DUP2 PUSH2 0x19EE JUMP JUMPDEST DUP2 EQ PUSH2 0x1A0C JUMPI PUSH1 0x0 DUP1 REVERT JUMPDEST POP JUMP JUMPDEST PUSH1 0x0 DUP2 CALLDATALOAD SWAP1 POP PUSH2 0x1A1E DUP2 PUSH2 0x19F8 JUMP JUMPDEST SWAP3 SWAP2 POP POP JUMP JUMPDEST PUSH1 0x0 PUSH1 0x20 DUP3 DUP5 SUB SLT ISZERO PUSH2 0x1A3A JUMPI PUSH2 0x1A39 PUSH2 0x19E4 JUMP JUMPDEST JUMPDEST PUSH1 0x0 PUSH2 0x1A48 DUP5 DUP3 DUP6 ADD PUSH2 0x1A0F JUMP JUMPDEST SWAP2 POP POP SWAP3 SWAP2 POP POP JUMP JUMPDEST PUSH2 0x1A5A DUP2 PUSH2 0x19EE JUMP JUMPDEST DUP3 MSTORE POP POP JUMP JUMPDEST PUSH1 0x0 DUP2 MLOAD SWAP1 POP SWAP2 SWAP1 POP JUMP JUMPDEST PUSH1 0x0 DUP3 DUP3 MSTORE PUSH1 0x20 DUP3 ADD SWAP1 POP SWAP3 SWAP2 POP POP JUMP JUMPDEST PUSH1 0x0 JUMPDEST DUP4 DUP2 LT ISZERO PUSH2 0x1A9A JUMPI DUP1 DUP3 ADD MLOAD DUP2 DUP5 ADD MSTORE PUSH1 0x20 DUP2 ADD SWAP1 POP PUSH2 0x1A7F JUMP JUMPDEST PUSH1 0x0 DUP5 DUP5 ADD MSTORE POP POP POP POP JUMP JUMPDEST PUSH1 0x0 PUSH1 0x1F NOT PUSH1 0x1F DUP4 ADD AND SWAP1 POP SWAP2 SWAP1 POP JUMP JUMPDEST PUSH1 0x0 PUSH2 0x1AC2 DUP3 PUSH2 0x1A60 JUMP JUMPDEST PUSH2 0x1ACC DUP2 DUP6 PUSH2 0x1A6B JUMP JUMPDEST SWAP4 POP PUSH2 0x1ADC DUP2 DUP6 PUSH1 0x20 DUP7 ADD PUSH2 0x1A7C JUMP JUMPDEST PUSH2 0x1AE5 DUP2 PUSH2 0x1AA6 JUMP JUMPDEST DUP5 ADD SWAP2 POP POP SWAP3 SWAP2 POP POP JUMP JUMPDEST PUSH1 0x0 PUSH20 0xFFFFFFFFFFFFFFFFFFFFFFFFFFFFFFFFFFFFFFFF DUP3 AND SWAP1 POP SWAP2 SWAP1 POP JUMP JUMPDEST PUSH1 0x0 PUSH2 0x1B1B DUP3 PUSH2 0x1AF0 JUMP JUMPDEST SWAP1 POP SWAP2 SWAP1 POP JUMP JUMPDEST PUSH2 0x1B2B DUP2 PUSH2 0x1B10 JUMP JUMPDEST DUP3 MSTORE POP POP JUMP JUMPDEST PUSH1 0x0 DUP2 ISZERO ISZERO SWAP1 POP SWAP2 SWAP1 POP JUMP JUMPDEST PUSH2 0x1B46 DUP2 PUSH2 0x1B31 JUMP JUMPDEST DUP3 MSTORE POP POP JUMP JUMPDEST PUSH1 0x0 PUSH2 0x120 DUP3 ADD SWAP1 POP PUSH2 0x1B62 PUSH1 0x0 DUP4 ADD DUP13 PUSH2 0x1A51 JUMP JUMPDEST DUP2 DUP2 SUB PUSH1 0x20 DUP4 ADD MSTORE PUSH2 0x1B74 DUP2 DUP12 PUSH2 0x1AB7 JUMP JUMPDEST SWAP1 POP PUSH2 0x1B83 PUSH1 0x40 DUP4 ADD DUP11 PUSH2 0x1B22 JUMP JUMPDEST PUSH2 0x1B90 PUSH1 0x60 DUP4 ADD DUP10 PUSH2 0x1A51 JUMP JUMPDEST PUSH2 0x1B9D PUSH1 0x80 DUP4 ADD DUP9 PUSH2 0x1A51 JUMP JUMPDEST PUSH2 0x1BAA PUSH1 0xA0 DUP4 ADD DUP8 PUSH2 0x1B3D JUMP JUMPDEST PUSH2 0x1BB7 PUSH1 0xC0 DUP4 ADD DUP7 PUSH2 0x1A51 JUMP JUMPDEST PUSH2 0x1BC4 PUSH1 0xE0 DUP4 ADD DUP6 PUSH2 0x1B3D JUMP JUMPDEST PUSH2 0x1BD2 PUSH2 0x100 DUP4 ADD DUP5 PUSH2 0x1B3D JUMP JUMPDEST SWAP11 SWAP10 POP POP POP POP POP POP POP POP POP POP JUMP JUMPDEST PUSH1 0x0 PUSH1 0x20 DUP3 ADD SWAP1 POP PUSH2 0x1BF5 PUSH1 0x0 DUP4 ADD DUP5 PUSH2 0x1A51 JUMP JUMPDEST SWAP3 SWAP2 POP POP JUMP JUMPDEST PUSH1 0x0 DUP1 REVERT JUMPDEST PUSH1 0x0 DUP1 REVERT JUMPDEST PUSH32 0x4E487B7100000000000000000000000000000000000000000000000000000000 PUSH1 0x0 MSTORE PUSH1 0x41 PUSH1 0x4 MSTORE PUSH1 0x24 PUSH1 0x0 REVERT JUMPDEST PUSH2 0x1C3D DUP3 PUSH2 0x1AA6 JUMP JUMPDEST DUP2 ADD DUP2 DUP2 LT PUSH8 0xFFFFFFFFFFFFFFFF DUP3 GT OR ISZERO PUSH2 0x1C5C JUMPI PUSH2 0x1C5B PUSH2 0x1C05 JUMP JUMPDEST JUMPDEST DUP1 PUSH1 0x40 MSTORE POP POP POP JUMP JUMPDEST PUSH1 0x0 PUSH2 0x1C6F PUSH2 0x19DA JUMP JUMPDEST SWAP1 POP PUSH2 0x1C7B DUP3 DUP3 PUSH2 0x1C34 JUMP JUMPDEST SWAP2 SWAP1 POP JUMP JUMPDEST PUSH1 0x0 PUSH8 0xFFFFFFFFFFFFFFFF DUP3 GT ISZERO PUSH2 0x1C9B JUMPI PUSH2 0x1C9A PUSH2 0x1C05 JUMP JUMPDEST JUMPDEST PUSH2 0x1CA4 DUP3 PUSH2 0x1AA6 JUMP JUMPDEST SWAP1 POP PUSH1 0x20 DUP2 ADD SWAP1 POP SWAP2 SWAP1 POP JUMP JUMPDEST DUP3 DUP2 DUP4 CALLDATACOPY PUSH1 0x0 DUP4 DUP4 ADD MSTORE POP POP POP JUMP JUMPDEST PUSH1 0x0 PUSH2 0x1CD3 PUSH2 0x1CCE DUP5 PUSH2 0x1C80 JUMP JUMPDEST PUSH2 0x1C65 JUMP JUMPDEST SWAP1 POP DUP3 DUP2 MSTORE PUSH1 0x20 DUP2 ADD DUP5 DUP5 DUP5 ADD GT ISZERO PUSH2 0x1CEF JUMPI PUSH2 0x1CEE PUSH2 0x1C00 JUMP JUMPDEST JUMPDEST PUSH2 0x1CFA DUP5 DUP3 DUP6 PUSH2 0x1CB1 JUMP JUMPDEST POP SWAP4 SWAP3 POP POP POP JUMP JUMPDEST PUSH1 0x0 DUP3 PUSH1 0x1F DUP4 ADD SLT PUSH2 0x1D17 JUMPI PUSH2 0x1D16 PUSH2 0x1BFB JUMP JUMPDEST JUMPDEST DUP2 CALLDATALOAD PUSH2 0x1D27 DUP5 DUP3 PUSH1 0x20 DUP7 ADD PUSH2 0x1CC0 JUMP JUMPDEST SWAP2 POP POP SWAP3 SWAP2 POP POP JUMP JUMPDEST PUSH1 0x0 DUP1 PUSH1 0x0 PUSH1 0x60 DUP5 DUP7 SUB SLT ISZERO PUSH2 0x1D49 JUMPI PUSH2 0x1D48 PUSH2 0x19E4 JUMP JUMPDEST JUMPDEST PUSH1 0x0 DUP5 ADD CALLDATALOAD PUSH8 0xFFFFFFFFFFFFFFFF DUP2 GT ISZERO PUSH2 0x1D67 JUMPI PUSH2 0x1D66 PUSH2 0x19E9 JUMP JUMPDEST JUMPDEST PUSH2 0x1D73 DUP7 DUP3 DUP8 ADD PUSH2 0x1D02 JUMP JUMPDEST SWAP4 POP POP PUSH1 0x20 PUSH2 0x1D84 DUP7 DUP3 DUP8 ADD PUSH2 0x1A0F JUMP JUMPDEST SWAP3 POP POP PUSH1 0x40 PUSH2 0x1D95 DUP7 DUP3 DUP8 ADD PUSH2 0x1A0F JUMP JUMPDEST SWAP2 POP POP SWAP3 POP SWAP3 POP SWAP3 JUMP JUMPDEST PUSH2 0x1DA8 DUP2 PUSH2 0x19EE JUMP JUMPDEST DUP3 MSTORE POP POP JUMP JUMPDEST PUSH1 0x0 DUP3 DUP3 MSTORE PUSH1 0x20 DUP3 ADD SWAP1 POP SWAP3 SWAP2 POP POP JUMP JUMPDEST PUSH1 0x0 PUSH2 0x1DCA DUP3 PUSH2 0x1A60 JUMP JUMPDEST PUSH2 0x1DD4 DUP2 DUP6 PUSH2 0x1DAE JUMP JUMPDEST SWAP4 POP PUSH2 0x1DE4 DUP2 DUP6 PUSH1 0x20 DUP7 ADD PUSH2 0x1A7C JUMP JUMPDEST PUSH2 0x1DED DUP2 PUSH2 0x1AA6 JUMP JUMPDEST DUP5 ADD SWAP2 POP POP SWAP3 SWAP2 POP POP JUMP JUMPDEST PUSH2 0x1E01 DUP2 PUSH2 0x1B10 JUMP JUMPDEST DUP3 MSTORE POP POP JUMP JUMPDEST PUSH2 0x1E10 DUP2 PUSH2 0x1B31 JUMP JUMPDEST DUP3 MSTORE POP POP JUMP JUMPDEST PUSH1 0x0 PUSH2 0x120 DUP4 ADD PUSH1 0x0 DUP4 ADD MLOAD PUSH2 0x1E2F PUSH1 0x0 DUP7 ADD DUP3 PUSH2 0x1D9F JUMP JUMPDEST POP PUSH1 0x20 DUP4 ADD MLOAD DUP5 DUP3 SUB PUSH1 0x20 DUP7 ADD MSTORE PUSH2 0x1E47 DUP3 DUP3 PUSH2 0x1DBF JUMP JUMPDEST SWAP2 POP POP PUSH1 0x40 DUP4 ADD MLOAD PUSH2 0x1E5C PUSH1 0x40 DUP7 ADD DUP3 PUSH2 0x1DF8 JUMP JUMPDEST POP PUSH1 0x60 DUP4 ADD MLOAD PUSH2 0x1E6F PUSH1 0x60 DUP7 ADD DUP3 PUSH2 0x1D9F JUMP JUMPDEST POP PUSH1 0x80 DUP4 ADD MLOAD PUSH2 0x1E82 PUSH1 0x80 DUP7 ADD DUP3 PUSH2 0x1D9F JUMP JUMPDEST POP PUSH1 0xA0 DUP4 ADD MLOAD PUSH2 0x1E95 PUSH1 0xA0 DUP7 ADD DUP3 PUSH2 0x1E07 JUMP JUMPDEST POP PUSH1 0xC0 DUP4 ADD MLOAD PUSH2 0x1EA8 PUSH1 0xC0 DUP7 ADD DUP3 PUSH2 0x1D9F JUMP JUMPDEST POP PUSH1 0xE0 DUP4 ADD MLOAD PUSH2 0x1EBB PUSH1 0xE0 DUP7 ADD DUP3 PUSH2 0x1E07 JUMP JUMPDEST POP PUSH2 0x100 DUP4 ADD MLOAD PUSH2 0x1ED0 PUSH2 0x100 DUP7 ADD DUP3 PUSH2 0x1E07 JUMP JUMPDEST POP DUP1 SWAP2 POP POP SWAP3 SWAP2 POP POP JUMP JUMPDEST PUSH1 0x0 PUSH1 0x20 DUP3 ADD SWAP1 POP DUP2 DUP2 SUB PUSH1 0x0 DUP4 ADD MSTORE PUSH2 0x1EF5 DUP2 DUP5 PUSH2 0x1E16 JUMP JUMPDEST SWAP1 POP SWAP3 SWAP2 POP POP JUMP JUMPDEST PUSH1 0x0 DUP2 MLOAD SWAP1 POP SWAP2 SWAP1 POP JUMP JUMPDEST PUSH1 0x0 DUP3 DUP3 MSTORE PUSH1 0x20 DUP3 ADD SWAP1 POP SWAP3 SWAP2 POP POP JUMP JUMPDEST PUSH1 0x0 DUP2 SWAP1 POP PUSH1 0x20 DUP3 ADD SWAP1 POP SWAP2 SWAP1 POP JUMP JUMPDEST PUSH1 0x0 PUSH2 0x120 DUP4 ADD PUSH1 0x0 DUP4 ADD MLOAD PUSH2 0x1F42 PUSH1 0x0 DUP7 ADD DUP3 PUSH2 0x1D9F JUMP JUMPDEST POP PUSH1 0x20 DUP4 ADD MLOAD DUP5 DUP3 SUB PUSH1 0x20 DUP7 ADD MSTORE PUSH2 0x1F5A DUP3 DUP3 PUSH2 0x1DBF JUMP JUMPDEST SWAP2 POP POP PUSH1 0x40 DUP4 ADD MLOAD PUSH2 0x1F6F PUSH1 0x40 DUP7 ADD DUP3 PUSH2 0x1DF8 JUMP JUMPDEST POP PUSH1 0x60 DUP4 ADD MLOAD PUSH2 0x1F82 PUSH1 0x60 DUP7 ADD DUP3 PUSH2 0x1D9F JUMP JUMPDEST POP PUSH1 0x80 DUP4 ADD MLOAD PUSH2 0x1F95 PUSH1 0x80 DUP7 ADD DUP3 PUSH2 0x1D9F JUMP JUMPDEST POP PUSH1 0xA0 DUP4 ADD MLOAD PUSH2 0x1FA8 PUSH1 0xA0 DUP7 ADD DUP3 PUSH2 0x1E07 JUMP JUMPDEST POP PUSH1 0xC0 DUP4 ADD MLOAD PUSH2 0x1FBB PUSH1 0xC0 DUP7 ADD DUP3 PUSH2 0x1D9F JUMP JUMPDEST POP PUSH1 0xE0 DUP4 ADD MLOAD PUSH2 0x1FCE PUSH1 0xE0 DUP7 ADD DUP3 PUSH2 0x1E07 JUMP JUMPDEST POP PUSH2 0x100 DUP4 ADD MLOAD PUSH2 0x1FE3 PUSH2 0x100 DUP7 ADD DUP3 PUSH2 0x1E07 JUMP JUMPDEST POP DUP1 SWAP2 POP POP SWAP3 SWAP2 POP POP JUMP JUMPDEST PUSH1 0x0 PUSH2 0x1FFA DUP4 DUP4 PUSH2 0x1F29 JUMP JUMPDEST SWAP1 POP SWAP3 SWAP2 POP POP JUMP JUMPDEST PUSH1 0x0 PUSH1 0x20 DUP3 ADD SWAP1 POP SWAP2 SWAP1 POP JUMP JUMPDEST PUSH1 0x0 PUSH2 0x201A DUP3 PUSH2 0x1EFD JUMP JUMPDEST PUSH2 0x2024 DUP2 DUP6 PUSH2 0x1F08 JUMP JUMPDEST SWAP4 POP DUP4 PUSH1 0x20 DUP3 MUL DUP6 ADD PUSH2 0x2036 DUP6 PUSH2 0x1F19 JUMP JUMPDEST DUP1 PUSH1 0x0 JUMPDEST DUP6 DUP2 LT ISZERO PUSH2 0x2072 JUMPI DUP5 DUP5 SUB DUP10 MSTORE DUP2 MLOAD PUSH2 0x2053 DUP6 DUP3 PUSH2 0x1FEE JUMP JUMPDEST SWAP5 POP PUSH2 0x205E DUP4 PUSH2 0x2002 JUMP JUMPDEST SWAP3 POP PUSH1 0x20 DUP11 ADD SWAP10 POP POP PUSH1 0x1 DUP2 ADD SWAP1 POP PUSH2 0x203A JUMP JUMPDEST POP DUP3 SWAP8 POP DUP8 SWAP6 POP POP POP POP POP POP SWAP3 SWAP2 POP POP JUMP JUMPDEST PUSH1 0x0 PUSH1 0x20 DUP3 ADD SWAP1 POP DUP2 DUP2 SUB PUSH1 0x0 DUP4 ADD MSTORE PUSH2 0x209E DUP2 DUP5 PUSH2 0x200F JUMP JUMPDEST SWAP1 POP SWAP3 SWAP2 POP POP JUMP JUMPDEST PUSH32 0x4E487B7100000000000000000000000000000000000000000000000000000000 PUSH1 0x0 MSTORE PUSH1 0x21 PUSH1 0x4 MSTORE PUSH1 0x24 PUSH1 0x0 REVERT JUMPDEST PUSH1 0x4 DUP2 LT PUSH2 0x20E6 JUMPI PUSH2 0x20E5 PUSH2 0x20A6 JUMP JUMPDEST JUMPDEST POP JUMP JUMPDEST PUSH1 0x0 DUP2 SWAP1 POP PUSH2 0x20F7 DUP3 PUSH2 0x20D5 JUMP JUMPDEST SWAP2 SWAP1 POP JUMP JUMPDEST PUSH1 0x0 PUSH2 0x2107 DUP3 PUSH2 0x20E9 JUMP JUMPDEST SWAP1 POP SWAP2 SWAP1 POP JUMP JUMPDEST PUSH2 0x2117 DUP2 PUSH2 0x20FC JUMP JUMPDEST DUP3 MSTORE POP POP JUMP JUMPDEST PUSH1 0x0 PUSH1 0x20 DUP3 ADD SWAP1 POP PUSH2 0x2132 PUSH1 0x0 DUP4 ADD DUP5 PUSH2 0x210E JUMP JUMPDEST SWAP3 SWAP2 POP POP JUMP JUMPDEST PUSH1 0x0 PUSH2 0x2143 DUP3 PUSH2 0x1AF0 JUMP JUMPDEST SWAP1 POP SWAP2 SWAP1 POP JUMP JUMPDEST PUSH2 0x2153 DUP2 PUSH2 0x2138 JUMP JUMPDEST DUP3 MSTORE POP POP JUMP JUMPDEST PUSH1 0x0 PUSH1 0x20 DUP3 ADD SWAP1 POP PUSH2 0x216E PUSH1 0x0 DUP4 ADD DUP5 PUSH2 0x214A JUMP JUMPDEST SWAP3 SWAP2 POP POP JUMP JUMPDEST PUSH1 0x0 PUSH1 0x20 DUP3 ADD SWAP1 POP PUSH2 0x2189 PUSH1 0x0 DUP4 ADD DUP5 PUSH2 0x1B22 JUMP JUMPDEST SWAP3 SWAP2 POP POP JUMP JUMPDEST PUSH1 0x0 PUSH1 0x20 DUP3 ADD SWAP1 POP PUSH2 0x21A4 PUSH1 0x0 DUP4 ADD DUP5 PUSH2 0x1B3D JUMP JUMPDEST SWAP3 SWAP2 POP POP JUMP JUMPDEST PUSH1 0x0 PUSH1 0x20 DUP3 ADD SWAP1 POP DUP2 DUP2 SUB PUSH1 0x0 DUP4 ADD MSTORE PUSH2 0x21C4 DUP2 DUP5 PUSH2 0x1AB7 JUMP JUMPDEST SWAP1 POP SWAP3 SWAP2 POP POP JUMP JUMPDEST PUSH32 0x4E487B7100000000000000000000000000000000000000000000000000000000 PUSH1 0x0 MSTORE PUSH1 0x22 PUSH1 0x4 MSTORE PUSH1 0x24 PUSH1 0x0 REVERT JUMPDEST PUSH1 0x0 PUSH1 0x2 DUP3 DIV SWAP1 POP PUSH1 0x1 DUP3 AND DUP1 PUSH2 0x2213 JUMPI PUSH1 0x7F DUP3 AND SWAP2 POP JUMPDEST PUSH1 0x20 DUP3 LT DUP2 SUB PUSH2 0x2226 JUMPI PUSH2 0x2225 PUSH2 0x21CC JUMP JUMPDEST JUMPDEST POP SWAP2 SWAP1 POP JUMP JUMPDEST PUSH32 0x596F75206861766520616C7265616479206372656174656420612070726F706F PUSH1 0x0 DUP3 ADD MSTORE PUSH32 0x73616C20666F7220746869732070726F6A656374000000000000000000000000 PUSH1 0x20 DUP3 ADD MSTORE POP JUMP JUMPDEST PUSH1 0x0 PUSH2 0x2288 PUSH1 0x34 DUP4 PUSH2 0x1A6B JUMP JUMPDEST SWAP2 POP PUSH2 0x2293 DUP3 PUSH2 0x222C JUMP JUMPDEST PUSH1 0x40 DUP3 ADD SWAP1 POP SWAP2 SWAP1 POP JUMP JUMPDEST PUSH1 0x0 PUSH1 0x20 DUP3 ADD SWAP1 POP DUP2 DUP2 SUB PUSH1 0x0 DUP4 ADD MSTORE PUSH2 0x22B7 DUP2 PUSH2 0x227B JUMP JUMPDEST SWAP1 POP SWAP2 SWAP1 POP JUMP JUMPDEST PUSH32 0x506C6561736520666972737420636F6D706C65746520796F7572207072657669 PUSH1 0x0 DUP3 ADD MSTORE PUSH32 0x6F75732070726F6A656374730000000000000000000000000000000000000000 PUSH1 0x20 DUP3 ADD MSTORE POP JUMP JUMPDEST PUSH1 0x0 PUSH2 0x231A PUSH1 0x2C DUP4 PUSH2 0x1A6B JUMP JUMPDEST SWAP2 POP PUSH2 0x2325 DUP3 PUSH2 0x22BE JUMP JUMPDEST PUSH1 0x40 DUP3 ADD SWAP1 POP SWAP2 SWAP1 POP JUMP JUMPDEST PUSH1 0x0 PUSH1 0x20 DUP3 ADD SWAP1 POP DUP2 DUP2 SUB PUSH1 0x0 DUP4 ADD MSTORE PUSH2 0x2349 DUP2 PUSH2 0x230D JUMP JUMPDEST SWAP1 POP SWAP2 SWAP1 POP JUMP JUMPDEST PUSH32 0x546869732070726F6A65637420697320616C726561647920756E646572207072 PUSH1 0x0 DUP3 ADD MSTORE PUSH32 0x6F67726573730000000000000000000000000000000000000000000000000000 PUSH1 0x20 DUP3 ADD MSTORE POP JUMP JUMPDEST PUSH1 0x0 PUSH2 0x23AC PUSH1 0x26 DUP4 PUSH2 0x1A6B JUMP JUMPDEST SWAP2 POP PUSH2 0x23B7 DUP3 PUSH2 0x2350 JUMP JUMPDEST PUSH1 0x40 DUP3 ADD SWAP1 POP SWAP2 SWAP1 POP JUMP JUMPDEST PUSH1 0x0 PUSH1 0x20 DUP3 ADD SWAP1 POP DUP2 DUP2 SUB PUSH1 0x0 DUP4 ADD MSTORE PUSH2 0x23DB DUP2 PUSH2 0x239F JUMP JUMPDEST SWAP1 POP SWAP2 SWAP1 POP JUMP JUMPDEST PUSH1 0x0 DUP2 SWAP1 POP DUP2 PUSH1 0x0 MSTORE PUSH1 0x20 PUSH1 0x0 KECCAK256 SWAP1 POP SWAP2 SWAP1 POP JUMP JUMPDEST PUSH1 0x0 PUSH1 0x20 PUSH1 0x1F DUP4 ADD DIV SWAP1 POP SWAP2 SWAP1 POP JUMP JUMPDEST PUSH1 0x0 DUP3 DUP3 SHL SWAP1 POP SWAP3 SWAP2 POP POP JUMP JUMPDEST PUSH1 0x0 PUSH1 0x8 DUP4 MUL PUSH2 0x2444 PUSH32 0xFFFFFFFFFFFFFFFFFFFFFFFFFFFFFFFFFFFFFFFFFFFFFFFFFFFFFFFFFFFFFFFF DUP3 PUSH2 0x2407 JUMP JUMPDEST PUSH2 0x244E DUP7 DUP4 PUSH2 0x2407 JUMP JUMPDEST SWAP6 POP DUP1 NOT DUP5 AND SWAP4 POP DUP1 DUP7 AND DUP5 OR SWAP3 POP POP POP SWAP4 SWAP3 POP POP POP JUMP JUMPDEST PUSH1 0x0 DUP2 SWAP1 POP SWAP2 SWAP1 POP JUMP JUMPDEST PUSH1 0x0 PUSH2 0x248B PUSH2 0x2486 PUSH2 0x2481 DUP5 PUSH2 0x19EE JUMP JUMPDEST PUSH2 0x2466 JUMP JUMPDEST PUSH2 0x19EE JUMP JUMPDEST SWAP1 POP SWAP2 SWAP1 POP JUMP JUMPDEST PUSH1 0x0 DUP2 SWAP1 POP SWAP2 SWAP1 POP JUMP JUMPDEST PUSH2 0x24A5 DUP4 PUSH2 0x2470 JUMP JUMPDEST PUSH2 0x24B9 PUSH2 0x24B1 DUP3 PUSH2 0x2492 JUMP JUMPDEST DUP5 DUP5 SLOAD PUSH2 0x2414 JUMP JUMPDEST DUP3 SSTORE POP POP POP POP JUMP JUMPDEST PUSH1 0x0 SWAP1 JUMP JUMPDEST PUSH2 0x24CE PUSH2 0x24C1 JUMP JUMPDEST PUSH2 0x24D9 DUP2 DUP5 DUP5 PUSH2 0x249C JUMP JUMPDEST POP POP POP JUMP JUMPDEST JUMPDEST DUP2 DUP2 LT ISZERO PUSH2 0x24FD JUMPI PUSH2 0x24F2 PUSH1 0x0 DUP3 PUSH2 0x24C6 JUMP JUMPDEST PUSH1 0x1 DUP2 ADD SWAP1 POP PUSH2 0x24DF JUMP JUMPDEST POP POP JUMP JUMPDEST PUSH1 0x1F DUP3 GT ISZERO PUSH2 0x2542 JUMPI PUSH2 0x2513 DUP2 PUSH2 0x23E2 JUMP JUMPDEST PUSH2 0x251C DUP5 PUSH2 0x23F7 JUMP JUMPDEST DUP2 ADD PUSH1 0x20 DUP6 LT ISZERO PUSH2 0x252B JUMPI DUP2 SWAP1 POP JUMPDEST PUSH2 0x253F PUSH2 0x2537 DUP6 PUSH2 0x23F7 JUMP JUMPDEST DUP4 ADD DUP3 PUSH2 0x24DE JUMP JUMPDEST POP POP JUMPDEST POP POP POP JUMP JUMPDEST PUSH1 0x0 DUP3 DUP3 SHR SWAP1 POP SWAP3 SWAP2 POP POP JUMP JUMPDEST PUSH1 0x0 PUSH2 0x2565 PUSH1 0x0 NOT DUP5 PUSH1 0x8 MUL PUSH2 0x2547 JUMP JUMPDEST NOT DUP1 DUP4 AND SWAP2 POP POP SWAP3 SWAP2 POP POP JUMP JUMPDEST PUSH1 0x0 PUSH2 0x257E DUP4 DUP4 PUSH2 0x2554 JUMP JUMPDEST SWAP2 POP DUP3 PUSH1 0x2 MUL DUP3 OR SWAP1 POP SWAP3 SWAP2 POP POP JUMP JUMPDEST PUSH2 0x2597 DUP3 PUSH2 0x1A60 JUMP JUMPDEST PUSH8 0xFFFFFFFFFFFFFFFF DUP2 GT ISZERO PUSH2 0x25B0 JUMPI PUSH2 0x25AF PUSH2 0x1C05 JUMP JUMPDEST JUMPDEST PUSH2 0x25BA DUP3 SLOAD PUSH2 0x21FB JUMP JUMPDEST PUSH2 0x25C5 DUP3 DUP3 DUP6 PUSH2 0x2501 JUMP JUMPDEST PUSH1 0x0 PUSH1 0x20 SWAP1 POP PUSH1 0x1F DUP4 GT PUSH1 0x1 DUP2 EQ PUSH2 0x25F8 JUMPI PUSH1 0x0 DUP5 ISZERO PUSH2 0x25E6 JUMPI DUP3 DUP8 ADD MLOAD SWAP1 POP JUMPDEST PUSH2 0x25F0 DUP6 DUP3 PUSH2 0x2572 JUMP JUMPDEST DUP7 SSTORE POP PUSH2 0x2658 JUMP JUMPDEST PUSH1 0x1F NOT DUP5 AND PUSH2 0x2606 DUP7 PUSH2 0x23E2 JUMP JUMPDEST PUSH1 0x0 JUMPDEST DUP3 DUP2 LT ISZERO PUSH2 0x262E JUMPI DUP5 DUP10 ADD MLOAD DUP3 SSTORE PUSH1 0x1 DUP3 ADD SWAP2 POP PUSH1 0x20 DUP6 ADD SWAP5 POP PUSH1 0x20 DUP2 ADD SWAP1 POP PUSH2 0x2609 JUMP JUMPDEST DUP7 DUP4 LT ISZERO PUSH2 0x264B JUMPI DUP5 DUP10 ADD MLOAD PUSH2 0x2647 PUSH1 0x1F DUP10 AND DUP3 PUSH2 0x2554 JUMP JUMPDEST DUP4 SSTORE POP JUMPDEST PUSH1 0x1 PUSH1 0x2 DUP9 MUL ADD DUP9 SSTORE POP POP POP JUMPDEST POP POP POP POP POP POP JUMP JUMPDEST PUSH1 0x0 DUP2 SWAP1 POP SWAP2 SWAP1 POP JUMP JUMPDEST PUSH1 0x0 PUSH2 0x2685 PUSH2 0x2680 PUSH2 0x267B DUP5 PUSH2 0x2660 JUMP JUMPDEST PUSH2 0x2466 JUMP JUMPDEST PUSH2 0x19EE JUMP JUMPDEST SWAP1 POP SWAP2 SWAP1 POP JUMP JUMPDEST PUSH2 0x2695 DUP2 PUSH2 0x266A JUMP JUMPDEST DUP3 MSTORE POP POP JUMP JUMPDEST PUSH1 0x0 PUSH2 0x120 DUP3 ADD SWAP1 POP PUSH2 0x26B1 PUSH1 0x0 DUP4 ADD DUP13 PUSH2 0x1A51 JUMP JUMPDEST DUP2 DUP2 SUB PUSH1 0x20 DUP4 ADD MSTORE PUSH2 0x26C3 DUP2 DUP12 PUSH2 0x1AB7 JUMP JUMPDEST SWAP1 POP PUSH2 0x26D2 PUSH1 0x40 DUP4 ADD DUP11 PUSH2 0x1B22 JUMP JUMPDEST PUSH2 0x26DF PUSH1 0x60 DUP4 ADD DUP10 PUSH2 0x1A51 JUMP JUMPDEST PUSH2 0x26EC PUSH1 0x80 DUP4 ADD DUP9 PUSH2 0x1A51 JUMP JUMPDEST PUSH2 0x26F9 PUSH1 0xA0 DUP4 ADD DUP8 PUSH2 0x1B3D JUMP JUMPDEST PUSH2 0x2706 PUSH1 0xC0 DUP4 ADD DUP7 PUSH2 0x268C JUMP JUMPDEST PUSH2 0x2713 PUSH1 0xE0 DUP4 ADD DUP6 PUSH2 0x1B3D JUMP JUMPDEST PUSH2 0x2721 PUSH2 0x100 DUP4 ADD DUP5 PUSH2 0x1B3D JUMP JUMPDEST SWAP11 SWAP10 POP POP POP POP POP POP POP POP POP POP JUMP JUMPDEST PUSH32 0x4F6E6C792050726F6A656374206F776E65722063616E20616363657373207365 PUSH1 0x0 DUP3 ADD MSTORE PUSH32 0x6C65637465642070726F706F73616C2773206F776E6572000000000000000000 PUSH1 0x20 DUP3 ADD MSTORE POP JUMP JUMPDEST PUSH1 0x0 PUSH2 0x278B PUSH1 0x37 DUP4 PUSH2 0x1A6B JUMP JUMPDEST SWAP2 POP PUSH2 0x2796 DUP3 PUSH2 0x272F JUMP JUMPDEST PUSH1 0x40 DUP3 ADD SWAP1 POP SWAP2 SWAP1 POP JUMP JUMPDEST PUSH1 0x0 PUSH1 0x20 DUP3 ADD SWAP1 POP DUP2 DUP2 SUB PUSH1 0x0 DUP4 ADD MSTORE PUSH2 0x27BA DUP2 PUSH2 0x277E JUMP JUMPDEST SWAP1 POP SWAP2 SWAP1 POP JUMP JUMPDEST PUSH32 0x4E487B7100000000000000000000000000000000000000000000000000000000 PUSH1 0x0 MSTORE PUSH1 0x32 PUSH1 0x4 MSTORE PUSH1 0x24 PUSH1 0x0 REVERT JUMPDEST PUSH32 0x4E487B7100000000000000000000000000000000000000000000000000000000 PUSH1 0x0 MSTORE PUSH1 0x11 PUSH1 0x4 MSTORE PUSH1 0x24 PUSH1 0x0 REVERT JUMPDEST PUSH1 0x0 PUSH2 0x282A DUP3 PUSH2 0x19EE JUMP JUMPDEST SWAP2 POP PUSH32 0xFFFFFFFFFFFFFFFFFFFFFFFFFFFFFFFFFFFFFFFFFFFFFFFFFFFFFFFFFFFFFFFF DUP3 SUB PUSH2 0x285C JUMPI PUSH2 0x285B PUSH2 0x27F0 JUMP JUMPDEST JUMPDEST PUSH1 0x1 DUP3 ADD SWAP1 POP SWAP2 SWAP1 POP JUMP JUMPDEST PUSH32 0x546869732050726F6A65637420497320416C726561647920436F6D706C657465 PUSH1 0x0 DUP3 ADD MSTORE PUSH32 0x6400000000000000000000000000000000000000000000000000000000000000 PUSH1 0x20 DUP3 ADD MSTORE POP JUMP JUMPDEST PUSH1 0x0 PUSH2 0x28C3 PUSH1 0x21 DUP4 PUSH2 0x1A6B JUMP JUMPDEST SWAP2 POP PUSH2 0x28CE DUP3 PUSH2 0x2867 JUMP JUMPDEST PUSH1 0x40 DUP3 ADD SWAP1 POP SWAP2 SWAP1 POP JUMP JUMPDEST PUSH1 0x0 PUSH1 0x20 DUP3 ADD SWAP1 POP DUP2 DUP2 SUB PUSH1 0x0 DUP4 ADD MSTORE PUSH2 0x28F2 DUP2 PUSH2 0x28B6 JUMP JUMPDEST SWAP1 POP SWAP2 SWAP1 POP JUMP JUMPDEST PUSH32 0x596F7520417265204E6F7420417574686F72697A656420546F2046696E616C69 PUSH1 0x0 DUP3 ADD MSTORE PUSH32 0x7A6520546869732050726F6A6563740000000000000000000000000000000000 PUSH1 0x20 DUP3 ADD MSTORE POP JUMP JUMPDEST PUSH1 0x0 PUSH2 0x2955 PUSH1 0x2F DUP4 PUSH2 0x1A6B JUMP JUMPDEST SWAP2 POP PUSH2 0x2960 DUP3 PUSH2 0x28F9 JUMP JUMPDEST PUSH1 0x40 DUP3 ADD SWAP1 POP SWAP2 SWAP1 POP JUMP JUMPDEST PUSH1 0x0 PUSH1 0x20 DUP3 ADD SWAP1 POP DUP2 DUP2 SUB PUSH1 0x0 DUP4 ADD MSTORE PUSH2 0x2984 DUP2 PUSH2 0x2948 JUMP JUMPDEST SWAP1 POP SWAP2 SWAP1 POP JUMP JUMPDEST PUSH32 0x50726F6A656374206973206E6F742079657420636F6D706C6574656400000000 PUSH1 0x0 DUP3 ADD MSTORE POP JUMP JUMPDEST PUSH1 0x0 PUSH2 0x29C1 PUSH1 0x1C DUP4 PUSH2 0x1A6B JUMP JUMPDEST SWAP2 POP PUSH2 0x29CC DUP3 PUSH2 0x298B JUMP JUMPDEST PUSH1 0x20 DUP3 ADD SWAP1 POP SWAP2 SWAP1 POP JUMP JUMPDEST PUSH1 0x0 PUSH1 0x20 DUP3 ADD SWAP1 POP DUP2 DUP2 SUB PUSH1 0x0 DUP4 ADD MSTORE PUSH2 0x29F0 DUP2 PUSH2 0x29B4 JUMP JUMPDEST SWAP1 POP SWAP2 SWAP1 POP JUMP JUMPDEST PUSH1 0x0 PUSH2 0x2A02 DUP3 PUSH2 0x19EE JUMP JUMPDEST SWAP2 POP PUSH2 0x2A0D DUP4 PUSH2 0x19EE JUMP JUMPDEST SWAP3 POP DUP3 DUP3 SUB SWAP1 POP DUP2 DUP2 GT ISZERO PUSH2 0x2A25 JUMPI PUSH2 0x2A24 PUSH2 0x27F0 JUMP JUMPDEST JUMPDEST SWAP3 SWAP2 POP POP JUMP JUMPDEST PUSH32 0x4F6E6C792050726F6A656374204F776E65722043616E2043616C6C2054686973 PUSH1 0x0 DUP3 ADD MSTORE PUSH32 0x2046756E6374696F6E0000000000000000000000000000000000000000000000 PUSH1 0x20 DUP3 ADD MSTORE POP JUMP JUMPDEST PUSH1 0x0 PUSH2 0x2A87 PUSH1 0x29 DUP4 PUSH2 0x1A6B JUMP JUMPDEST SWAP2 POP PUSH2 0x2A92 DUP3 PUSH2 0x2A2B JUMP JUMPDEST PUSH1 0x40 DUP3 ADD SWAP1 POP SWAP2 SWAP1 POP JUMP JUMPDEST PUSH1 0x0 PUSH1 0x20 DUP3 ADD SWAP1 POP DUP2 DUP2 SUB PUSH1 0x0 DUP4 ADD MSTORE PUSH2 0x2AB6 DUP2 PUSH2 0x2A7A JUMP JUMPDEST SWAP1 POP SWAP2 SWAP1 POP JUMP JUMPDEST PUSH32 0x546869732050726F6A65637420497320416C726561647920417070726F766564 PUSH1 0x0 DUP3 ADD MSTORE PUSH32 0x20546F20536F6D656F6E6520656C736500000000000000000000000000000000 PUSH1 0x20 DUP3 ADD MSTORE POP JUMP JUMPDEST PUSH1 0x0 PUSH2 0x2B19 PUSH1 0x30 DUP4 PUSH2 0x1A6B JUMP JUMPDEST SWAP2 POP PUSH2 0x2B24 DUP3 PUSH2 0x2ABD JUMP JUMPDEST PUSH1 0x40 DUP3 ADD SWAP1 POP SWAP2 SWAP1 POP JUMP JUMPDEST PUSH1 0x0 PUSH1 0x20 DUP3 ADD SWAP1 POP DUP2 DUP2 SUB PUSH1 0x0 DUP4 ADD MSTORE PUSH2 0x2B48 DUP2 PUSH2 0x2B0C JUMP JUMPDEST SWAP1 POP SWAP2 SWAP1 POP JUMP JUMPDEST PUSH32 0x4F6E6C792050726F6A656374204F776E65722043616E204170726F7665205468 PUSH1 0x0 DUP3 ADD MSTORE PUSH32 0x652050726F706F73616C73000000000000000000000000000000000000000000 PUSH1 0x20 DUP3 ADD MSTORE POP JUMP JUMPDEST PUSH1 0x0 PUSH2 0x2BAB PUSH1 0x2B DUP4 PUSH2 0x1A6B JUMP JUMPDEST SWAP2 POP PUSH2 0x2BB6 DUP3 PUSH2 0x2B4F JUMP JUMPDEST PUSH1 0x40 DUP3 ADD SWAP1 POP SWAP2 SWAP1 POP JUMP JUMPDEST PUSH1 0x0 PUSH1 0x20 DUP3 ADD SWAP1 POP DUP2 DUP2 SUB PUSH1 0x0 DUP4 ADD MSTORE PUSH2 0x2BDA DUP2 PUSH2 0x2B9E JUMP JUMPDEST SWAP1 POP SWAP2 SWAP1 POP JUMP JUMPDEST PUSH32 0x546869732050726F6A65637420497320416C726561647920436F6D706C657465 PUSH1 0x0 DUP3 ADD MSTORE PUSH32 0x6420596F752043616E6E6F74204D616B6520416E796D6F726520417070726F76 PUSH1 0x20 DUP3 ADD MSTORE PUSH32 0x616C730000000000000000000000000000000000000000000000000000000000 PUSH1 0x40 DUP3 ADD MSTORE POP JUMP JUMPDEST PUSH1 0x0 PUSH2 0x2C63 PUSH1 0x43 DUP4 PUSH2 0x1A6B JUMP JUMPDEST SWAP2 POP PUSH2 0x2C6E DUP3 PUSH2 0x2BE1 JUMP JUMPDEST PUSH1 0x60 DUP3 ADD SWAP1 POP SWAP2 SWAP1 POP JUMP JUMPDEST PUSH1 0x0 PUSH1 0x20 DUP3 ADD SWAP1 POP DUP2 DUP2 SUB PUSH1 0x0 DUP4 ADD MSTORE PUSH2 0x2C92 DUP2 PUSH2 0x2C56 JUMP JUMPDEST SWAP1 POP SWAP2 SWAP1 POP JUMP JUMPDEST PUSH1 0x0 DUP2 SLOAD SWAP1 POP PUSH2 0x2CA8 DUP2 PUSH2 0x21FB JUMP JUMPDEST SWAP1 POP SWAP2 SWAP1 POP JUMP JUMPDEST DUP2 DUP2 SUB PUSH2 0x2CBD JUMPI POP POP PUSH2 0x2D95 JUMP JUMPDEST PUSH2 0x2CC6 DUP3 PUSH2 0x2C99 JUMP JUMPDEST PUSH8 0xFFFFFFFFFFFFFFFF DUP2 GT ISZERO PUSH2 0x2CDF JUMPI PUSH2 0x2CDE PUSH2 0x1C05 JUMP JUMPDEST JUMPDEST PUSH2 0x2CE9 DUP3 SLOAD PUSH2 0x21FB JUMP JUMPDEST PUSH2 0x2CF4 DUP3 DUP3 DUP6 PUSH2 0x2501 JUMP JUMPDEST PUSH1 0x0 PUSH1 0x1F DUP4 GT PUSH1 0x1 DUP2 EQ PUSH2 0x2D23 JUMPI PUSH1 0x0 DUP5 ISZERO PUSH2 0x2D11 JUMPI DUP3 DUP8 ADD SLOAD SWAP1 POP JUMPDEST PUSH2 0x2D1B DUP6 DUP3 PUSH2 0x2572 JUMP JUMPDEST DUP7 SSTORE POP PUSH2 0x2D8E JUMP JUMPDEST PUSH1 0x1F NOT DUP5 AND PUSH2 0x2D31 DUP8 PUSH2 0x23E2 JUMP JUMPDEST SWAP7 POP PUSH2 0x2D3C DUP7 PUSH2 0x23E2 JUMP JUMPDEST PUSH1 0x0 JUMPDEST DUP3 DUP2 LT ISZERO PUSH2 0x2D64 JUMPI DUP5 DUP10 ADD SLOAD DUP3 SSTORE PUSH1 0x1 DUP3 ADD SWAP2 POP PUSH1 0x1 DUP6 ADD SWAP5 POP PUSH1 0x20 DUP2 ADD SWAP1 POP PUSH2 0x2D3F JUMP JUMPDEST DUP7 DUP4 LT ISZERO PUSH2 0x2D81 JUMPI DUP5 DUP10 ADD SLOAD PUSH2 0x2D7D PUSH1 0x1F DUP10 AND DUP3 PUSH2 0x2554 JUMP JUMPDEST DUP4 SSTORE POP JUMPDEST PUSH1 0x1 PUSH1 0x2 DUP9 MUL ADD DUP9 SSTORE POP POP POP JUMPDEST POP POP POP POP POP POP JUMPDEST JUMP JUMPDEST PUSH32 0x596F757220636F61746174696F6E206973206E6F742079657420617070726F76 PUSH1 0x0 DUP3 ADD MSTORE PUSH32 0x6564000000000000000000000000000000000000000000000000000000000000 PUSH1 0x20 DUP3 ADD MSTORE POP JUMP JUMPDEST PUSH1 0x0 PUSH2 0x2DF3 PUSH1 0x22 DUP4 PUSH2 0x1A6B JUMP JUMPDEST SWAP2 POP PUSH2 0x2DFE DUP3 PUSH2 0x2D97 JUMP JUMPDEST PUSH1 0x40 DUP3 ADD SWAP1 POP SWAP2 SWAP1 POP JUMP JUMPDEST PUSH1 0x0 PUSH1 0x20 DUP3 ADD SWAP1 POP DUP2 DUP2 SUB PUSH1 0x0 DUP4 ADD MSTORE PUSH2 0x2E22 DUP2 PUSH2 0x2DE6 JUMP JUMPDEST SWAP1 POP SWAP2 SWAP1 POP JUMP JUMPDEST PUSH32 0x4F6E6C792070726F706F73616C206F776E65722063616E206D61726B2070726F PUSH1 0x0 DUP3 ADD MSTORE PUSH32 0x6A65637420617320636F6D706C65746500000000000000000000000000000000 PUSH1 0x20 DUP3 ADD MSTORE POP JUMP JUMPDEST PUSH1 0x0 PUSH2 0x2E85 PUSH1 0x30 DUP4 PUSH2 0x1A6B JUMP JUMPDEST SWAP2 POP PUSH2 0x2E90 DUP3 PUSH2 0x2E29 JUMP JUMPDEST PUSH1 0x40 DUP3 ADD SWAP1 POP SWAP2 SWAP1 POP JUMP JUMPDEST PUSH1 0x0 PUSH1 0x20 DUP3 ADD SWAP1 POP DUP2 DUP2 SUB PUSH1 0x0 DUP4 ADD MSTORE PUSH2 0x2EB4 DUP2 PUSH2 0x2E78 JUMP JUMPDEST SWAP1 POP SWAP2 SWAP1 POP JUMP JUMPDEST PUSH32 0x596F75206861766520616C7265616479206D61726B656420746869732070726F PUSH1 0x0 DUP3 ADD MSTORE PUSH32 0x6A65637420617320636F6D706C65746500000000000000000000000000000000 PUSH1 0x20 DUP3 ADD MSTORE POP JUMP JUMPDEST PUSH1 0x0 PUSH2 0x2F17 PUSH1 0x30 DUP4 PUSH2 0x1A6B JUMP JUMPDEST SWAP2 POP PUSH2 0x2F22 DUP3 PUSH2 0x2EBB JUMP JUMPDEST PUSH1 0x40 DUP3 ADD SWAP1 POP SWAP2 SWAP1 POP JUMP JUMPDEST PUSH1 0x0 PUSH1 0x20 DUP3 ADD SWAP1 POP DUP2 DUP2 SUB PUSH1 0x0 DUP4 ADD MSTORE PUSH2 0x2F46 DUP2 PUSH2 0x2F0A JUMP JUMPDEST SWAP1 POP SWAP2 SWAP1 POP JUMP INVALID LOG2 PUSH5 0x6970667358 0x22 SLT KECCAK256 STATICCALL SIGNEXTEND DUP1 SWAP9 0x5D 0xEB STOP PUSH6 0x11F04A35281F 0xFC 0x27 SHL 0xBA 0x2B 0xBC MUL CALLVALUE 0x4E 0xDF ADDRESS EQ DUP6 GT 0xB9 SWAP8 SWAP9 DUP3 PUSH5 0x736F6C6343 STOP ADDMOD GT STOP CALLER LOG2 PUSH5 0x6970667358 0x22 SLT KECCAK256 XOR 0x2D 0x21 0xE7 0xE5 SHR PUSH24 0xCC293E6E9B61126A9B0E166D89CBA3B8A8DD4BCCC6957469 0xAF PUSH5 0x736F6C6343 STOP ADDMOD GT STOP CALLER "},"methodIdentifiers":{"admin()":"f851a440","createProject(string,string,string,string,string,uint256,uint256)":"a7ee42de","extendDeadline(uint256,uint256)":"2d1fdef6","getAllProjects()":"80d03829","getBalance()":"12065fe0","getLatestPriceMatic()":"c7a13504","getProjectbyId(uint256)":"97c414c1","getProjectsByOwner()":"4aae5f4d","projectOwner(address,uint256)":"d61bb76a"}}}}}