{
  "_format": "hh-sol-artifact-1",
  "contractName": "ProjectFactory",
  "sourceName": "contracts/ProjectFactory.sol",
  "abi": [
    {
      "inputs": [],
      "stateMutability": "nonpayable",
      "type": "constructor"
    },
    {
      "anonymous": false,
      "inputs": [
        {
          "indexed": false,
          "internalType": "uint256",
          "name": "id",
          "type": "uint256"
        },
        {
          "indexed": false,
          "internalType": "string",
          "name": "title",
          "type": "string"
        },
        {
          "indexed": false,
          "internalType": "string",
          "name": "short_description",
          "type": "string"
        },
        {
          "indexed": false,
          "internalType": "string",
          "name": "description",
          "type": "string"
        },
        {
          "indexed": false,
          "internalType": "string",
          "name": "pdf",
          "type": "string"
        },
        {
          "indexed": false,
          "internalType": "string",
          "name": "images",
          "type": "string"
        },
        {
          "indexed": false,
          "internalType": "uint256",
          "name": "budget",
          "type": "uint256"
        },
        {
          "indexed": false,
          "internalType": "uint256",
          "name": "time",
          "type": "uint256"
        },
        {
          "indexed": false,
          "internalType": "uint256",
          "name": "deadLine",
          "type": "uint256"
        },
        {
          "indexed": false,
          "internalType": "address payable",
          "name": "owner",
          "type": "address"
        },
        {
          "indexed": false,
          "internalType": "contract Project",
          "name": "project",
          "type": "address"
        }
      ],
      "name": "ProjectCreated",
      "type": "event"
    },
    {
      "inputs": [],
      "name": "admin",
      "outputs": [
        {
          "internalType": "address payable",
          "name": "",
          "type": "address"
        }
      ],
      "stateMutability": "view",
      "type": "function"
    },
    {
      "inputs": [
        {
          "internalType": "string",
          "name": "_title",
          "type": "string"
        },
        {
          "internalType": "string",
          "name": "_short_description",
          "type": "string"
        },
        {
          "internalType": "string",
          "name": "_description",
          "type": "string"
        },
        {
          "internalType": "string",
          "name": "_pdf",
          "type": "string"
        },
        {
          "internalType": "string",
          "name": "_images",
          "type": "string"
        },
        {
          "internalType": "uint256",
          "name": "_budget",
          "type": "uint256"
        },
        {
          "internalType": "uint256",
          "name": "_deadline",
          "type": "uint256"
        }
      ],
      "name": "createProject",
      "outputs": [],
      "stateMutability": "payable",
      "type": "function"
    },
    {
      "inputs": [
        {
          "internalType": "uint256",
          "name": "project_id",
          "type": "uint256"
        },
        {
          "internalType": "uint256",
          "name": "new_deadline",
          "type": "uint256"
        }
      ],
      "name": "extendDeadline",
      "outputs": [],
      "stateMutability": "nonpayable",
      "type": "function"
    },
    {
      "inputs": [],
      "name": "getAllProjects",
      "outputs": [
        {
          "components": [
            {
              "internalType": "uint256",
              "name": "id",
              "type": "uint256"
            },
            {
              "internalType": "string",
              "name": "title",
              "type": "string"
            },
            {
              "internalType": "string",
              "name": "short_description",
              "type": "string"
            },
            {
              "internalType": "string",
              "name": "description",
              "type": "string"
            },
            {
              "internalType": "string",
              "name": "pdf",
              "type": "string"
            },
            {
              "internalType": "string",
              "name": "images",
              "type": "string"
            },
            {
              "internalType": "uint256",
              "name": "budget",
              "type": "uint256"
            },
            {
              "internalType": "uint256",
              "name": "time",
              "type": "uint256"
            },
            {
              "internalType": "uint256",
              "name": "deadLine",
              "type": "uint256"
            },
            {
              "internalType": "address payable",
              "name": "owner",
              "type": "address"
            },
            {
              "internalType": "contract Project",
              "name": "project",
              "type": "address"
            }
          ],
          "internalType": "struct ProjectFactory.ProjectInfo[]",
          "name": "",
          "type": "tuple[]"
        }
      ],
      "stateMutability": "view",
      "type": "function"
    },
    {
      "inputs": [],
      "name": "getBalance",
      "outputs": [
        {
          "internalType": "uint256",
          "name": "",
          "type": "uint256"
        }
      ],
      "stateMutability": "view",
      "type": "function"
    },
    {
      "inputs": [
        {
          "internalType": "uint256",
          "name": "_id",
          "type": "uint256"
        }
      ],
      "name": "getProjectbyId",
      "outputs": [
        {
          "components": [
            {
              "internalType": "uint256",
              "name": "id",
              "type": "uint256"
            },
            {
              "internalType": "string",
              "name": "title",
              "type": "string"
            },
            {
              "internalType": "string",
              "name": "short_description",
              "type": "string"
            },
            {
              "internalType": "string",
              "name": "description",
              "type": "string"
            },
            {
              "internalType": "string",
              "name": "pdf",
              "type": "string"
            },
            {
              "internalType": "string",
              "name": "images",
              "type": "string"
            },
            {
              "internalType": "uint256",
              "name": "budget",
              "type": "uint256"
            },
            {
              "internalType": "uint256",
              "name": "time",
              "type": "uint256"
            },
            {
              "internalType": "uint256",
              "name": "deadLine",
              "type": "uint256"
            },
            {
              "internalType": "address payable",
              "name": "owner",
              "type": "address"
            },
            {
              "internalType": "contract Project",
              "name": "project",
              "type": "address"
            }
          ],
          "internalType": "struct ProjectFactory.ProjectInfo",
          "name": "",
          "type": "tuple"
        }
      ],
      "stateMutability": "view",
      "type": "function"
    },
    {
      "inputs": [],
      "name": "getProjectsByOwner",
      "outputs": [
        {
          "components": [
            {
              "internalType": "uint256",
              "name": "id",
              "type": "uint256"
            },
            {
              "internalType": "string",
              "name": "title",
              "type": "string"
            },
            {
              "internalType": "string",
              "name": "short_description",
              "type": "string"
            },
            {
              "internalType": "string",
              "name": "description",
              "type": "string"
            },
            {
              "internalType": "string",
              "name": "pdf",
              "type": "string"
            },
            {
              "internalType": "string",
              "name": "images",
              "type": "string"
            },
            {
              "internalType": "uint256",
              "name": "budget",
              "type": "uint256"
            },
            {
              "internalType": "uint256",
              "name": "time",
              "type": "uint256"
            },
            {
              "internalType": "uint256",
              "name": "deadLine",
              "type": "uint256"
            },
            {
              "internalType": "address payable",
              "name": "owner",
              "type": "address"
            },
            {
              "internalType": "contract Project",
              "name": "project",
              "type": "address"
            }
          ],
          "internalType": "struct ProjectFactory.ProjectInfo[]",
          "name": "",
          "type": "tuple[]"
        }
      ],
      "stateMutability": "view",
      "type": "function"
    },
    {
      "inputs": [
        {
          "internalType": "address",
          "name": "",
          "type": "address"
        },
        {
          "internalType": "uint256",
          "name": "",
          "type": "uint256"
        }
      ],
      "name": "projectOwner",
      "outputs": [
        {
          "internalType": "uint256",
          "name": "id",
          "type": "uint256"
        },
        {
          "internalType": "string",
          "name": "title",
          "type": "string"
        },
        {
          "internalType": "string",
          "name": "short_description",
          "type": "string"
        },
        {
          "internalType": "string",
          "name": "description",
          "type": "string"
        },
        {
          "internalType": "string",
          "name": "pdf",
          "type": "string"
        },
        {
          "internalType": "string",
          "name": "images",
          "type": "string"
        },
        {
          "internalType": "uint256",
          "name": "budget",
          "type": "uint256"
        },
        {
          "internalType": "uint256",
          "name": "time",
          "type": "uint256"
        },
        {
          "internalType": "uint256",
          "name": "deadLine",
          "type": "uint256"
        },
        {
          "internalType": "address payable",
          "name": "owner",
          "type": "address"
        },
        {
          "internalType": "contract Project",
          "name": "project",
          "type": "address"
        }
      ],
      "stateMutability": "view",
      "type": "function"
    },
    {
      "stateMutability": "payable",
      "type": "receive"
    }
  ],
  "bytecode": "0x608060405234801561001057600080fd5b5033600160006101000a81548173ffffffffffffffffffffffffffffffffffffffff021916908373ffffffffffffffffffffffffffffffffffffffff160217905550615a6b806100616000396000f3fe6080604052600436106200008b5760003560e01c806397c414c1116200005557806397c414c11462000156578063a7ee42de146200019a578063d61bb76a14620001ba578063f851a44014620002085762000093565b806312065fe014620000985780632d1fdef614620000c85780634aae5f4d14620000f657806380d0382914620001265762000093565b366200009357005b600080fd5b348015620000a557600080fd5b50620000b062000238565b604051620000bf9190620018b7565b60405180910390f35b348015620000d557600080fd5b50620000f46004803603810190620000ee919062001919565b62000240565b005b3480156200010357600080fd5b506200010e62000343565b6040516200011d919062001cac565b60405180910390f35b3480156200013357600080fd5b506200013e6200086a565b6040516200014d919062001cac565b60405180910390f35b3480156200016357600080fd5b506200018260048036038101906200017c919062001cd0565b62000d34565b60405162000191919062001e23565b60405180910390f35b620001b86004803603810190620001b2919062001f98565b62001140565b005b348015620001c757600080fd5b50620001e66004803603810190620001e091906200212b565b62001447565b604051620001ff9b9a99989796959493929190620021e6565b60405180910390f35b3480156200021557600080fd5b5062000220620017be565b6040516200022f9190620022ca565b60405180910390f35b600047905090565b60006002600084815260200190815260200160002090508060090160009054906101000a900473ffffffffffffffffffffffffffffffffffffffff1673ffffffffffffffffffffffffffffffffffffffff163373ffffffffffffffffffffffffffffffffffffffff1614620002ec576040517f08c379a0000000000000000000000000000000000000000000000000000000008152600401620002e3906200235d565b60405180910390fd5b8060080154821162000335576040517f08c379a00000000000000000000000000000000000000000000000000000000081526004016200032c90620023f5565b60405180910390fd5b818160080181905550505050565b60606000620003536000620017e4565b905060008167ffffffffffffffff81111562000374576200037362001e51565b5b604051908082528060200260200182016040528015620003b157816020015b6200039d62001808565b815260200190600190039081620003935790505b509050600080600090505b83811015620008605760006002600083815260200190815260200160002090503373ffffffffffffffffffffffffffffffffffffffff168160090160009054906101000a900473ffffffffffffffffffffffffffffffffffffffff1673ffffffffffffffffffffffffffffffffffffffff160362000849578060405180610160016040529081600082015481526020016001820180546200045d9062002446565b80601f01602080910402602001604051908101604052809291908181526020018280546200048b9062002446565b8015620004dc5780601f10620004b057610100808354040283529160200191620004dc565b820191906000526020600020905b815481529060010190602001808311620004be57829003601f168201915b50505050508152602001600282018054620004f79062002446565b80601f0160208091040260200160405190810160405280929190818152602001828054620005259062002446565b8015620005765780601f106200054a5761010080835404028352916020019162000576565b820191906000526020600020905b8154815290600101906020018083116200055857829003601f168201915b50505050508152602001600382018054620005919062002446565b80601f0160208091040260200160405190810160405280929190818152602001828054620005bf9062002446565b8015620006105780601f10620005e45761010080835404028352916020019162000610565b820191906000526020600020905b815481529060010190602001808311620005f257829003601f168201915b505050505081526020016004820180546200062b9062002446565b80601f0160208091040260200160405190810160405280929190818152602001828054620006599062002446565b8015620006aa5780601f106200067e57610100808354040283529160200191620006aa565b820191906000526020600020905b8154815290600101906020018083116200068c57829003601f168201915b50505050508152602001600582018054620006c59062002446565b80601f0160208091040260200160405190810160405280929190818152602001828054620006f39062002446565b8015620007445780601f10620007185761010080835404028352916020019162000744565b820191906000526020600020905b8154815290600101906020018083116200072657829003601f168201915b505050505081526020016006820154815260200160078201548152602001600882015481526020016009820160009054906101000a900473ffffffffffffffffffffffffffffffffffffffff1673ffffffffffffffffffffffffffffffffffffffff1673ffffffffffffffffffffffffffffffffffffffff168152602001600a820160009054906101000a900473ffffffffffffffffffffffffffffffffffffffff1673ffffffffffffffffffffffffffffffffffffffff1673ffffffffffffffffffffffffffffffffffffffff16815250508484815181106200082d576200082c6200247b565b5b602002602001018190525082806200084590620024d9565b9350505b5080806200085790620024d9565b915050620003bc565b5081935050505090565b606060006200087a6000620017e4565b90506000808267ffffffffffffffff8111156200089c576200089b62001e51565b5b604051908082528060200260200182016040528015620008d957816020015b620008c562001808565b815260200190600190039081620008bb5790505b50905060005b8381101562000d2a576000600260008381526020019081526020016000206040518061016001604052908160008201548152602001600182018054620009259062002446565b80601f0160208091040260200160405190810160405280929190818152602001828054620009539062002446565b8015620009a45780601f106200097857610100808354040283529160200191620009a4565b820191906000526020600020905b8154815290600101906020018083116200098657829003601f168201915b50505050508152602001600282018054620009bf9062002446565b80601f0160208091040260200160405190810160405280929190818152602001828054620009ed9062002446565b801562000a3e5780601f1062000a125761010080835404028352916020019162000a3e565b820191906000526020600020905b81548152906001019060200180831162000a2057829003601f168201915b5050505050815260200160038201805462000a599062002446565b80601f016020809104026020016040519081016040528092919081815260200182805462000a879062002446565b801562000ad85780601f1062000aac5761010080835404028352916020019162000ad8565b820191906000526020600020905b81548152906001019060200180831162000aba57829003601f168201915b5050505050815260200160048201805462000af39062002446565b80601f016020809104026020016040519081016040528092919081815260200182805462000b219062002446565b801562000b725780601f1062000b465761010080835404028352916020019162000b72565b820191906000526020600020905b81548152906001019060200180831162000b5457829003601f168201915b5050505050815260200160058201805462000b8d9062002446565b80601f016020809104026020016040519081016040528092919081815260200182805462000bbb9062002446565b801562000c0c5780601f1062000be05761010080835404028352916020019162000c0c565b820191906000526020600020905b81548152906001019060200180831162000bee57829003601f168201915b505050505081526020016006820154815260200160078201548152602001600882015481526020016009820160009054906101000a900473ffffffffffffffffffffffffffffffffffffffff1673ffffffffffffffffffffffffffffffffffffffff1673ffffffffffffffffffffffffffffffffffffffff168152602001600a820160009054906101000a900473ffffffffffffffffffffffffffffffffffffffff1673ffffffffffffffffffffffffffffffffffffffff1673ffffffffffffffffffffffffffffffffffffffff168152505090508083858151811062000cf85762000cf76200247b565b5b6020026020010181905250838062000d1090620024d9565b94505050808062000d2190620024d9565b915050620008df565b5080935050505090565b62000d3e62001808565b600060026000848152602001908152602001600020604051806101600160405290816000820154815260200160018201805462000d7b9062002446565b80601f016020809104026020016040519081016040528092919081815260200182805462000da99062002446565b801562000dfa5780601f1062000dce5761010080835404028352916020019162000dfa565b820191906000526020600020905b81548152906001019060200180831162000ddc57829003601f168201915b5050505050815260200160028201805462000e159062002446565b80601f016020809104026020016040519081016040528092919081815260200182805462000e439062002446565b801562000e945780601f1062000e685761010080835404028352916020019162000e94565b820191906000526020600020905b81548152906001019060200180831162000e7657829003601f168201915b5050505050815260200160038201805462000eaf9062002446565b80601f016020809104026020016040519081016040528092919081815260200182805462000edd9062002446565b801562000f2e5780601f1062000f025761010080835404028352916020019162000f2e565b820191906000526020600020905b81548152906001019060200180831162000f1057829003601f168201915b5050505050815260200160048201805462000f499062002446565b80601f016020809104026020016040519081016040528092919081815260200182805462000f779062002446565b801562000fc85780601f1062000f9c5761010080835404028352916020019162000fc8565b820191906000526020600020905b81548152906001019060200180831162000faa57829003601f168201915b5050505050815260200160058201805462000fe39062002446565b80601f0160208091040260200160405190810160405280929190818152602001828054620010119062002446565b8015620010625780601f10620010365761010080835404028352916020019162001062565b820191906000526020600020905b8154815290600101906020018083116200104457829003601f168201915b505050505081526020016006820154815260200160078201548152602001600882015481526020016009820160009054906101000a900473ffffffffffffffffffffffffffffffffffffffff1673ffffffffffffffffffffffffffffffffffffffff1673ffffffffffffffffffffffffffffffffffffffff168152602001600a820160009054906101000a900473ffffffffffffffffffffffffffffffffffffffff1673ffffffffffffffffffffffffffffffffffffffff1673ffffffffffffffffffffffffffffffffffffffff1681525050905080915050919050565b81341462001185576040517f08c379a00000000000000000000000000000000000000000000000000000000081526004016200117c906200259c565b60405180910390fd5b6000620011936000620017e4565b90506000338385604051620011a8906200188e565b620011b693929190620025be565b604051809103906000f080158015620011d3573d6000803e3d6000fd5b50905060006040518061016001604052808481526020018b81526020018a81526020018981526020018881526020018781526020018681526020014281526020018581526020013373ffffffffffffffffffffffffffffffffffffffff1681526020018373ffffffffffffffffffffffffffffffffffffffff1681525090508060026000858152602001908152602001600020600082015181600001556020820151816001019081620012879190620027c3565b5060408201518160020190816200129f9190620027c3565b506060820151816003019081620012b79190620027c3565b506080820151816004019081620012cf9190620027c3565b5060a0820151816005019081620012e79190620027c3565b5060c0820151816006015560e0820151816007015561010082015181600801556101208201518160090160006101000a81548173ffffffffffffffffffffffffffffffffffffffff021916908373ffffffffffffffffffffffffffffffffffffffff16021790555061014082015181600a0160006101000a81548173ffffffffffffffffffffffffffffffffffffffff021916908373ffffffffffffffffffffffffffffffffffffffff160217905550905050620013a66000620017f2565b8173ffffffffffffffffffffffffffffffffffffffff166108fc349081150290604051600060405180830381858888f19350505050158015620013ed573d6000803e3d6000fd5b507f71118d02c87017cad0298c6ece1cda0b1bcdb0a412b2a819038f352216c400e3838b8b8b8b8b8b428c338c604051620014339b9a99989796959493929190620021e6565b60405180910390a150505050505050505050565b6003602052816000526040600020602052806000526040600020600091509150508060000154908060010180546200147f9062002446565b80601f0160208091040260200160405190810160405280929190818152602001828054620014ad9062002446565b8015620014fe5780601f10620014d257610100808354040283529160200191620014fe565b820191906000526020600020905b815481529060010190602001808311620014e057829003601f168201915b505050505090806002018054620015159062002446565b80601f0160208091040260200160405190810160405280929190818152602001828054620015439062002446565b8015620015945780601f10620015685761010080835404028352916020019162001594565b820191906000526020600020905b8154815290600101906020018083116200157657829003601f168201915b505050505090806003018054620015ab9062002446565b80601f0160208091040260200160405190810160405280929190818152602001828054620015d99062002446565b80156200162a5780601f10620015fe576101008083540402835291602001916200162a565b820191906000526020600020905b8154815290600101906020018083116200160c57829003601f168201915b505050505090806004018054620016419062002446565b80601f01602080910402602001604051908101604052809291908181526020018280546200166f9062002446565b8015620016c05780601f106200169457610100808354040283529160200191620016c0565b820191906000526020600020905b815481529060010190602001808311620016a257829003601f168201915b505050505090806005018054620016d79062002446565b80601f0160208091040260200160405190810160405280929190818152602001828054620017059062002446565b8015620017565780601f106200172a5761010080835404028352916020019162001756565b820191906000526020600020905b8154815290600101906020018083116200173857829003601f168201915b5050505050908060060154908060070154908060080154908060090160009054906101000a900473ffffffffffffffffffffffffffffffffffffffff169080600a0160009054906101000a900473ffffffffffffffffffffffffffffffffffffffff1690508b565b600160009054906101000a900473ffffffffffffffffffffffffffffffffffffffff1681565b600081600001549050919050565b6001816000016000828254019250508190555050565b604051806101600160405280600081526020016060815260200160608152602001606081526020016060815260200160608152602001600081526020016000815260200160008152602001600073ffffffffffffffffffffffffffffffffffffffff168152602001600073ffffffffffffffffffffffffffffffffffffffff1681525090565b61318b80620028ab83390190565b6000819050919050565b620018b1816200189c565b82525050565b6000602082019050620018ce6000830184620018a6565b92915050565b6000604051905090565b600080fd5b600080fd5b620018f3816200189c565b8114620018ff57600080fd5b50565b6000813590506200191381620018e8565b92915050565b60008060408385031215620019335762001932620018de565b5b6000620019438582860162001902565b9250506020620019568582860162001902565b9150509250929050565b600081519050919050565b600082825260208201905092915050565b6000819050602082019050919050565b62001997816200189c565b82525050565b600081519050919050565b600082825260208201905092915050565b60005b83811015620019d9578082015181840152602081019050620019bc565b60008484015250505050565b6000601f19601f8301169050919050565b600062001a03826200199d565b62001a0f8185620019a8565b935062001a21818560208601620019b9565b62001a2c81620019e5565b840191505092915050565b600073ffffffffffffffffffffffffffffffffffffffff82169050919050565b600062001a648262001a37565b9050919050565b62001a768162001a57565b82525050565b6000819050919050565b600062001aa762001aa162001a9b8462001a37565b62001a7c565b62001a37565b9050919050565b600062001abb8262001a86565b9050919050565b600062001acf8262001aae565b9050919050565b62001ae18162001ac2565b82525050565b60006101608301600083015162001b0260008601826200198c565b506020830151848203602086015262001b1c8282620019f6565b9150506040830151848203604086015262001b388282620019f6565b9150506060830151848203606086015262001b548282620019f6565b9150506080830151848203608086015262001b708282620019f6565b91505060a083015184820360a086015262001b8c8282620019f6565b91505060c083015162001ba360c08601826200198c565b5060e083015162001bb860e08601826200198c565b5061010083015162001bcf6101008601826200198c565b5061012083015162001be661012086018262001a6b565b5061014083015162001bfd61014086018262001ad6565b508091505092915050565b600062001c16838362001ae7565b905092915050565b6000602082019050919050565b600062001c388262001960565b62001c4481856200196b565b93508360208202850162001c58856200197c565b8060005b8581101562001c9a578484038952815162001c78858262001c08565b945062001c858362001c1e565b925060208a0199505060018101905062001c5c565b50829750879550505050505092915050565b6000602082019050818103600083015262001cc8818462001c2b565b905092915050565b60006020828403121562001ce95762001ce8620018de565b5b600062001cf98482850162001902565b91505092915050565b60006101608301600083015162001d1d60008601826200198c565b506020830151848203602086015262001d378282620019f6565b9150506040830151848203604086015262001d538282620019f6565b9150506060830151848203606086015262001d6f8282620019f6565b9150506080830151848203608086015262001d8b8282620019f6565b91505060a083015184820360a086015262001da78282620019f6565b91505060c083015162001dbe60c08601826200198c565b5060e083015162001dd360e08601826200198c565b5061010083015162001dea6101008601826200198c565b5061012083015162001e0161012086018262001a6b565b5061014083015162001e1861014086018262001ad6565b508091505092915050565b6000602082019050818103600083015262001e3f818462001d02565b905092915050565b600080fd5b600080fd5b7f4e487b7100000000000000000000000000000000000000000000000000000000600052604160045260246000fd5b62001e8b82620019e5565b810181811067ffffffffffffffff8211171562001ead5762001eac62001e51565b5b80604052505050565b600062001ec2620018d4565b905062001ed0828262001e80565b919050565b600067ffffffffffffffff82111562001ef35762001ef262001e51565b5b62001efe82620019e5565b9050602081019050919050565b82818337600083830152505050565b600062001f3162001f2b8462001ed5565b62001eb6565b90508281526020810184848401111562001f505762001f4f62001e4c565b5b62001f5d84828562001f0b565b509392505050565b600082601f83011262001f7d5762001f7c62001e47565b5b813562001f8f84826020860162001f1a565b91505092915050565b600080600080600080600060e0888a03121562001fba5762001fb9620018de565b5b600088013567ffffffffffffffff81111562001fdb5762001fda620018e3565b5b62001fe98a828b0162001f65565b975050602088013567ffffffffffffffff8111156200200d576200200c620018e3565b5b6200201b8a828b0162001f65565b965050604088013567ffffffffffffffff8111156200203f576200203e620018e3565b5b6200204d8a828b0162001f65565b955050606088013567ffffffffffffffff811115620020715762002070620018e3565b5b6200207f8a828b0162001f65565b945050608088013567ffffffffffffffff811115620020a357620020a2620018e3565b5b620020b18a828b0162001f65565b93505060a0620020c48a828b0162001902565b92505060c0620020d78a828b0162001902565b91505092959891949750929550565b6000620020f38262001a37565b9050919050565b6200210581620020e6565b81146200211157600080fd5b50565b6000813590506200212581620020fa565b92915050565b60008060408385031215620021455762002144620018de565b5b6000620021558582860162002114565b9250506020620021688582860162001902565b9150509250929050565b600082825260208201905092915050565b600062002190826200199d565b6200219c818562002172565b9350620021ae818560208601620019b9565b620021b981620019e5565b840191505092915050565b620021cf8162001a57565b82525050565b620021e08162001ac2565b82525050565b600061016082019050620021fe600083018e620018a6565b818103602083015262002212818d62002183565b9050818103604083015262002228818c62002183565b905081810360608301526200223e818b62002183565b9050818103608083015262002254818a62002183565b905081810360a08301526200226a818962002183565b90506200227b60c0830188620018a6565b6200228a60e0830187620018a6565b6200229a610100830186620018a6565b620022aa610120830185620021c4565b620022ba610140830184620021d5565b9c9b505050505050505050505050565b6000602082019050620022e16000830184620021c4565b92915050565b7f4f6e6c792070726f6a656374206f776e65722063616e20657874656e6420646560008201527f61646c696e65206f6620746869732070726f6a65637400000000000000000000602082015250565b60006200234560368362002172565b91506200235282620022e7565b604082019050919050565b60006020820190508181036000830152620023788162002336565b9050919050565b7f706c656173652067697665206120646561646c696e65206f662067726561746560008201527f72207468616e2063757272656e7420646561646c696e65000000000000000000602082015250565b6000620023dd60378362002172565b9150620023ea826200237f565b604082019050919050565b600060208201905081810360008301526200241081620023ce565b9050919050565b7f4e487b7100000000000000000000000000000000000000000000000000000000600052602260045260246000fd5b600060028204905060018216806200245f57607f821691505b60208210810362002475576200247462002417565b5b50919050565b7f4e487b7100000000000000000000000000000000000000000000000000000000600052603260045260246000fd5b7f4e487b7100000000000000000000000000000000000000000000000000000000600052601160045260246000fd5b6000620024e6826200189c565b91507fffffffffffffffffffffffffffffffffffffffffffffffffffffffffffffffff82036200251b576200251a620024aa565b5b600182019050919050565b7f506c65617365205472616e736665722054686520416d6f756e7420457175616c60008201527f20546f20596f75722050726f6a65637420427564676574000000000000000000602082015250565b60006200258460378362002172565b9150620025918262002526565b604082019050919050565b60006020820190508181036000830152620025b78162002575565b9050919050565b6000606082019050620025d56000830186620021c4565b620025e46020830185620018a6565b620025f36040830184620018a6565b949350505050565b60008190508160005260206000209050919050565b60006020601f8301049050919050565b600082821b905092915050565b6000600883026200265f7fffffffffffffffffffffffffffffffffffffffffffffffffffffffffffffffff8262002620565b6200266b868362002620565b95508019841693508086168417925050509392505050565b6000620026a46200269e62002698846200189c565b62001a7c565b6200189c565b9050919050565b6000819050919050565b620026c08362002683565b620026d8620026cf82620026ab565b8484546200262d565b825550505050565b600090565b620026ef620026e0565b620026fc818484620026b5565b505050565b5b81811015620027245762002718600082620026e5565b60018101905062002702565b5050565b601f82111562002773576200273d81620025fb565b620027488462002610565b8101602085101562002758578190505b62002770620027678562002610565b83018262002701565b50505b505050565b600082821c905092915050565b6000620027986000198460080262002778565b1980831691505092915050565b6000620027b3838362002785565b9150826002028217905092915050565b620027ce826200199d565b67ffffffffffffffff811115620027ea57620027e962001e51565b5b620027f6825462002446565b6200280382828562002728565b600060209050601f8311600181146200283b576000841562002826578287015190505b620028328582620027a5565b865550620028a2565b601f1984166200284b86620025fb565b60005b8281101562002875578489015182556001820191506020850194506020810190506200284e565b8683101562002895578489015162002891601f89168262002785565b8355505b6001600288020188555050505b50505050505056fe60806040526000600460006101000a81548160ff0219169083151502179055506000600960006101000a81548160ff0219169083151502179055503480156200004757600080fd5b506040516200318b3803806200318b83398181016040528101906200006d919062000198565b82600160006101000a81548173ffffffffffffffffffffffffffffffffffffffff021916908373ffffffffffffffffffffffffffffffffffffffff16021790555081600281905550806003819055506000600460016101000a81548160ff02191690836003811115620000e557620000e4620001f4565b5b021790555050505062000223565b600080fd5b600073ffffffffffffffffffffffffffffffffffffffff82169050919050565b60006200012582620000f8565b9050919050565b620001378162000118565b81146200014357600080fd5b50565b60008151905062000157816200012c565b92915050565b6000819050919050565b62000172816200015d565b81146200017e57600080fd5b50565b600081519050620001928162000167565b92915050565b600080600060608486031215620001b457620001b3620000f3565b5b6000620001c48682870162000146565b9350506020620001d78682870162000181565b9250506040620001ea8682870162000181565b9150509250925092565b7f4e487b7100000000000000000000000000000000000000000000000000000000600052602160045260246000fd5b612f5880620002336000396000f3fe6080604052600436106100c65760003560e01c806398951b561161007f578063a6a2cb0511610059578063a6a2cb0514610257578063b19b0afe1461028a578063e7aa3afc146102b5578063ecc254b3146102e0576100cd565b806398951b56146101d8578063a0a2a6c014610201578063a4475ce41461022c576100cd565b8063013cf08b146100d257806312065fe01461011757806322e2e12d146101425780632a9cc1411461016b57806362564c48146101965780637417882c146101c1576100cd565b366100cd57005b600080fd5b3480156100de57600080fd5b506100f960048036038101906100f491906119c9565b6102f7565b60405161010e99989796959493929190611af1565b60405180910390f35b34801561012357600080fd5b5061012c610414565b6040516101399190611b85565b60405180910390f35b34801561014e57600080fd5b5061016960048036038101906101649190611cd5565b61041c565b005b34801561017757600080fd5b506101806107cd565b60405161018d9190611e80565b60405180910390f35b3480156101a257600080fd5b506101ab6109d9565b6040516101b89190612029565b60405180910390f35b3480156101cd57600080fd5b506101d6610c1c565b005b3480156101e457600080fd5b506101ff60048036038101906101fa91906119c9565b610fc7565b005b34801561020d57600080fd5b50610216611396565b60405161022391906120c2565b60405180910390f35b34801561023857600080fd5b506102416113a9565b60405161024e91906120dd565b60405180910390f35b34801561026357600080fd5b5061026c6113cf565b60405161028199989796959493929190611af1565b60405180910390f35b34801561029657600080fd5b5061029f6114da565b6040516102ac91906120f8565b60405180910390f35b3480156102c157600080fd5b506102ca6114ed565b6040516102d79190612113565b60405180910390f35b3480156102ec57600080fd5b506102f56116d2565b005b600560205280600052604060002060009150905080600001549080600101805461032090612164565b80601f016020809104026020016040519081016040528092919081815260200182805461034c90612164565b80156103995780601f1061036e57610100808354040283529160200191610399565b820191906000526020600020905b81548152906001019060200180831161037c57829003601f168201915b5050505050908060020160009054906101000a900473ffffffffffffffffffffffffffffffffffffffff16908060030154908060040154908060050160009054906101000a900460ff16908060060154908060070160009054906101000a900460ff16908060070160019054906101000a900460ff16905089565b600047905090565b600660003373ffffffffffffffffffffffffffffffffffffffff1673ffffffffffffffffffffffffffffffffffffffff16815260200190815260200160002060009054906101000a900460ff16156104a9576040517f08c379a00000000000000000000000000000000000000000000000000000000081526004016104a090612207565b60405180910390fd5b600860003373ffffffffffffffffffffffffffffffffffffffff1673ffffffffffffffffffffffffffffffffffffffff16815260200190815260200160002060009054906101000a900460ff1615610536576040517f08c379a000000000000000000000000000000000000000000000000000000000815260040161052d90612299565b60405180910390fd5b6001600381111561054a5761054961204b565b5b600460019054906101000a900460ff16600381111561056c5761056b61204b565b5b036105ac576040517f08c379a00000000000000000000000000000000000000000000000000000000081526004016105a39061232b565b60405180910390fd5b60006105b860006118f3565b905060006040518061012001604052808381526020018681526020013373ffffffffffffffffffffffffffffffffffffffff168152602001858152602001848152602001600015158152602001600081526020016000151581526020016000151581525090506001600660003373ffffffffffffffffffffffffffffffffffffffff1673ffffffffffffffffffffffffffffffffffffffff16815260200190815260200160002060006101000a81548160ff02191690831515021790555080600560008481526020019081526020016000206000820151816000015560208201518160010190816106a991906124f7565b5060408201518160020160006101000a81548173ffffffffffffffffffffffffffffffffffffffff021916908373ffffffffffffffffffffffffffffffffffffffff160217905550606082015181600301556080820151816004015560a08201518160050160006101000a81548160ff02191690831515021790555060c0820151816006015560e08201518160070160006101000a81548160ff0219169083151502179055506101008201518160070160016101000a81548160ff02191690831515021790555090505061077d6000611901565b7fb3080e016b94f1edbaf8dc52950b1b3debd550a7662d4db0cb404a7217047e8282863387876000806000806040516107be99989796959493929190612604565b60405180910390a15050505050565b6107d5611917565b600160009054906101000a900473ffffffffffffffffffffffffffffffffffffffff1673ffffffffffffffffffffffffffffffffffffffff163373ffffffffffffffffffffffffffffffffffffffff1614610865576040517f08c379a000000000000000000000000000000000000000000000000000000000815260040161085c9061270a565b60405180910390fd5b600a604051806101200160405290816000820154815260200160018201805461088d90612164565b80601f01602080910402602001604051908101604052809291908181526020018280546108b990612164565b80156109065780601f106108db57610100808354040283529160200191610906565b820191906000526020600020905b8154815290600101906020018083116108e957829003601f168201915b505050505081526020016002820160009054906101000a900473ffffffffffffffffffffffffffffffffffffffff1673ffffffffffffffffffffffffffffffffffffffff1673ffffffffffffffffffffffffffffffffffffffff16815260200160038201548152602001600482015481526020016005820160009054906101000a900460ff16151515158152602001600682015481526020016007820160009054906101000a900460ff161515151581526020016007820160019054906101000a900460ff161515151581525050905090565b606060006109e760006118f3565b905060008167ffffffffffffffff811115610a0557610a04611baa565b5b604051908082528060200260200182016040528015610a3e57816020015b610a2b611917565b815260200190600190039081610a235790505b5090506000805b83811015610c12576000600560008381526020019081526020016000206040518061012001604052908160008201548152602001600182018054610a8890612164565b80601f0160208091040260200160405190810160405280929190818152602001828054610ab490612164565b8015610b015780601f10610ad657610100808354040283529160200191610b01565b820191906000526020600020905b815481529060010190602001808311610ae457829003601f168201915b505050505081526020016002820160009054906101000a900473ffffffffffffffffffffffffffffffffffffffff1673ffffffffffffffffffffffffffffffffffffffff1673ffffffffffffffffffffffffffffffffffffffff16815260200160038201548152602001600482015481526020016005820160009054906101000a900460ff16151515158152602001600682015481526020016007820160009054906101000a900460ff161515151581526020016007820160019054906101000a900460ff161515151581525050905080848481518110610be557610be461272a565b5b60200260200101819052508280610bfb90612788565b935050508080610c0a90612788565b915050610a45565b5081935050505090565b600380811115610c2f57610c2e61204b565b5b600460019054906101000a900460ff166003811115610c5157610c5061204b565b5b03610c91576040517f08c379a0000000000000000000000000000000000000000000000000000000008152600401610c8890612842565b60405180910390fd5b600160009054906101000a900473ffffffffffffffffffffffffffffffffffffffff1673ffffffffffffffffffffffffffffffffffffffff163373ffffffffffffffffffffffffffffffffffffffff1614610d21576040517f08c379a0000000000000000000000000000000000000000000000000000000008152600401610d18906128d4565b60405180910390fd5b60026003811115610d3557610d3461204b565b5b600460019054906101000a900460ff166003811115610d5757610d5661204b565b5b14610d97576040517f08c379a0000000000000000000000000000000000000000000000000000000008152600401610d8e90612940565b60405180910390fd5b60016003811115610dab57610daa61204b565b5b600460019054906101000a900460ff166003811115610dcd57610dcc61204b565b5b14610e0d576040517f08c379a0000000000000000000000000000000000000000000000000000000008152600401610e04906129ac565b60405180910390fd5b6000600a60030154600354610e2291906129cc565b9050600160009054906101000a900473ffffffffffffffffffffffffffffffffffffffff1673ffffffffffffffffffffffffffffffffffffffff166108fc829081150290604051600060405180830381858888f19350505050158015610e8c573d6000803e3d6000fd5b50600a60020160009054906101000a900473ffffffffffffffffffffffffffffffffffffffff1673ffffffffffffffffffffffffffffffffffffffff166108fc600a600301549081150290604051600060405180830381858888f19350505050158015610efd573d6000803e3d6000fd5b506001600a60070160016101000a81548160ff021916908315150217905550600060086000600a60020160009054906101000a900473ffffffffffffffffffffffffffffffffffffffff1673ffffffffffffffffffffffffffffffffffffffff1673ffffffffffffffffffffffffffffffffffffffff16815260200190815260200160002060006101000a81548160ff0219169083151502179055506003600460016101000a81548160ff02191690836003811115610fbf57610fbe61204b565b5b021790555050565b600160009054906101000a900473ffffffffffffffffffffffffffffffffffffffff1673ffffffffffffffffffffffffffffffffffffffff163373ffffffffffffffffffffffffffffffffffffffff1614611057576040517f08c379a000000000000000000000000000000000000000000000000000000000815260040161104e90612a72565b60405180910390fd5b6000600560008381526020019081526020016000209050600160038111156110825761108161204b565b5b600460019054906101000a900460ff1660038111156110a4576110a361204b565b5b036110e4576040517f08c379a00000000000000000000000000000000000000000000000000000000081526004016110db90612b04565b60405180910390fd5b600160009054906101000a900473ffffffffffffffffffffffffffffffffffffffff1673ffffffffffffffffffffffffffffffffffffffff163373ffffffffffffffffffffffffffffffffffffffff1614611174576040517f08c379a000000000000000000000000000000000000000000000000000000000815260040161116b90612b96565b60405180910390fd5b60025442106111b8576040517f08c379a00000000000000000000000000000000000000000000000000000000081526004016111af90612c4e565b60405180910390fd5b42816006018190555060018160050160006101000a81548160ff02191690831515021790555080600a60008201548160000155600182018160010190816111ff9190612c84565b506002820160009054906101000a900473ffffffffffffffffffffffffffffffffffffffff168160020160006101000a81548173ffffffffffffffffffffffffffffffffffffffff021916908373ffffffffffffffffffffffffffffffffffffffff16021790555060038201548160030155600482015481600401556005820160009054906101000a900460ff168160050160006101000a81548160ff021916908315150217905550600682015481600601556007820160009054906101000a900460ff168160070160006101000a81548160ff0219169083151502179055506007820160019054906101000a900460ff168160070160016101000a81548160ff0219169083151502179055509050506001600860003373ffffffffffffffffffffffffffffffffffffffff1673ffffffffffffffffffffffffffffffffffffffff16815260200190815260200160002060006101000a81548160ff0219169083151502179055506001600460016101000a81548160ff0219169083600381111561138d5761138c61204b565b5b02179055505050565b600460019054906101000a900460ff1681565b600160009054906101000a900473ffffffffffffffffffffffffffffffffffffffff1681565b600a8060000154908060010180546113e690612164565b80601f016020809104026020016040519081016040528092919081815260200182805461141290612164565b801561145f5780601f106114345761010080835404028352916020019161145f565b820191906000526020600020905b81548152906001019060200180831161144257829003601f168201915b5050505050908060020160009054906101000a900473ffffffffffffffffffffffffffffffffffffffff16908060030154908060040154908060050160009054906101000a900460ff16908060060154908060070160009054906101000a900460ff16908060070160019054906101000a900460ff16905089565b600960009054906101000a900460ff1681565b6060600060038111156115035761150261204b565b5b600460019054906101000a900460ff1660038111156115255761152461204b565b5b03611567576040518060400160405280600481526020017f4f70656e0000000000000000000000000000000000000000000000000000000081525090506116cf565b6001600381111561157b5761157a61204b565b5b600460019054906101000a900460ff16600381111561159d5761159c61204b565b5b036115df576040518060400160405280600b81526020017f496e2050726f677265737300000000000000000000000000000000000000000081525090506116cf565b600260038111156115f3576115f261204b565b5b600460019054906101000a900460ff1660038111156116155761161461204b565b5b03611657576040518060400160405280601281526020017f4d61726b656420417320436f6d706c657465000000000000000000000000000081525090506116cf565b60038081111561166a5761166961204b565b5b600460019054906101000a900460ff16600381111561168c5761168b61204b565b5b036116ce576040518060400160405280600981526020017f436f6d706c65746564000000000000000000000000000000000000000000000081525090506116cf565b5b90565b600160038111156116e6576116e561204b565b5b600460019054906101000a900460ff1660038111156117085761170761204b565b5b14611748576040517f08c379a000000000000000000000000000000000000000000000000000000000815260040161173f90612dde565b60405180910390fd5b60038081111561175b5761175a61204b565b5b600460019054906101000a900460ff16600381111561177d5761177c61204b565b5b036117bd576040517f08c379a00000000000000000000000000000000000000000000000000000000081526004016117b490612842565b60405180910390fd5b600a60020160009054906101000a900473ffffffffffffffffffffffffffffffffffffffff1673ffffffffffffffffffffffffffffffffffffffff163373ffffffffffffffffffffffffffffffffffffffff1614611850576040517f08c379a000000000000000000000000000000000000000000000000000000000815260040161184790612e70565b60405180910390fd5b600260038111156118645761186361204b565b5b600460019054906101000a900460ff1660038111156118865761188561204b565b5b036118c6576040517f08c379a00000000000000000000000000000000000000000000000000000000081526004016118bd90612f02565b60405180910390fd5b6002600460016101000a81548160ff021916908360038111156118ec576118eb61204b565b5b0217905550565b600081600001549050919050565b6001816000016000828254019250508190555050565b6040518061012001604052806000815260200160608152602001600073ffffffffffffffffffffffffffffffffffffffff1681526020016000815260200160008152602001600015158152602001600081526020016000151581526020016000151581525090565b6000604051905090565b600080fd5b600080fd5b6000819050919050565b6119a681611993565b81146119b157600080fd5b50565b6000813590506119c38161199d565b92915050565b6000602082840312156119df576119de611989565b5b60006119ed848285016119b4565b91505092915050565b6119ff81611993565b82525050565b600081519050919050565b600082825260208201905092915050565b60005b83811015611a3f578082015181840152602081019050611a24565b60008484015250505050565b6000601f19601f8301169050919050565b6000611a6782611a05565b611a718185611a10565b9350611a81818560208601611a21565b611a8a81611a4b565b840191505092915050565b600073ffffffffffffffffffffffffffffffffffffffff82169050919050565b6000611ac082611a95565b9050919050565b611ad081611ab5565b82525050565b60008115159050919050565b611aeb81611ad6565b82525050565b600061012082019050611b07600083018c6119f6565b8181036020830152611b19818b611a5c565b9050611b28604083018a611ac7565b611b3560608301896119f6565b611b4260808301886119f6565b611b4f60a0830187611ae2565b611b5c60c08301866119f6565b611b6960e0830185611ae2565b611b77610100830184611ae2565b9a9950505050505050505050565b6000602082019050611b9a60008301846119f6565b92915050565b600080fd5b600080fd5b7f4e487b7100000000000000000000000000000000000000000000000000000000600052604160045260246000fd5b611be282611a4b565b810181811067ffffffffffffffff82111715611c0157611c00611baa565b5b80604052505050565b6000611c1461197f565b9050611c208282611bd9565b919050565b600067ffffffffffffffff821115611c4057611c3f611baa565b5b611c4982611a4b565b9050602081019050919050565b82818337600083830152505050565b6000611c78611c7384611c25565b611c0a565b905082815260208101848484011115611c9457611c93611ba5565b5b611c9f848285611c56565b509392505050565b600082601f830112611cbc57611cbb611ba0565b5b8135611ccc848260208601611c65565b91505092915050565b600080600060608486031215611cee57611ced611989565b5b600084013567ffffffffffffffff811115611d0c57611d0b61198e565b5b611d1886828701611ca7565b9350506020611d29868287016119b4565b9250506040611d3a868287016119b4565b9150509250925092565b611d4d81611993565b82525050565b600082825260208201905092915050565b6000611d6f82611a05565b611d798185611d53565b9350611d89818560208601611a21565b611d9281611a4b565b840191505092915050565b611da681611ab5565b82525050565b611db581611ad6565b82525050565b600061012083016000830151611dd46000860182611d44565b5060208301518482036020860152611dec8282611d64565b9150506040830151611e016040860182611d9d565b506060830151611e146060860182611d44565b506080830151611e276080860182611d44565b5060a0830151611e3a60a0860182611dac565b5060c0830151611e4d60c0860182611d44565b5060e0830151611e6060e0860182611dac565b50610100830151611e75610100860182611dac565b508091505092915050565b60006020820190508181036000830152611e9a8184611dbb565b905092915050565b600081519050919050565b600082825260208201905092915050565b6000819050602082019050919050565b600061012083016000830151611ee76000860182611d44565b5060208301518482036020860152611eff8282611d64565b9150506040830151611f146040860182611d9d565b506060830151611f276060860182611d44565b506080830151611f3a6080860182611d44565b5060a0830151611f4d60a0860182611dac565b5060c0830151611f6060c0860182611d44565b5060e0830151611f7360e0860182611dac565b50610100830151611f88610100860182611dac565b508091505092915050565b6000611f9f8383611ece565b905092915050565b6000602082019050919050565b6000611fbf82611ea2565b611fc98185611ead565b935083602082028501611fdb85611ebe565b8060005b858110156120175784840389528151611ff88582611f93565b945061200383611fa7565b925060208a01995050600181019050611fdf565b50829750879550505050505092915050565b600060208201905081810360008301526120438184611fb4565b905092915050565b7f4e487b7100000000000000000000000000000000000000000000000000000000600052602160045260246000fd5b6004811061208b5761208a61204b565b5b50565b600081905061209c8261207a565b919050565b60006120ac8261208e565b9050919050565b6120bc816120a1565b82525050565b60006020820190506120d760008301846120b3565b92915050565b60006020820190506120f26000830184611ac7565b92915050565b600060208201905061210d6000830184611ae2565b92915050565b6000602082019050818103600083015261212d8184611a5c565b905092915050565b7f4e487b7100000000000000000000000000000000000000000000000000000000600052602260045260246000fd5b6000600282049050600182168061217c57607f821691505b60208210810361218f5761218e612135565b5b50919050565b7f596f75206861766520616c7265616479206372656174656420612070726f706f60008201527f73616c20666f7220746869732070726f6a656374000000000000000000000000602082015250565b60006121f1603483611a10565b91506121fc82612195565b604082019050919050565b60006020820190508181036000830152612220816121e4565b9050919050565b7f506c6561736520666972737420636f6d706c65746520796f757220707265766960008201527f6f75732070726f6a656374730000000000000000000000000000000000000000602082015250565b6000612283602c83611a10565b915061228e82612227565b604082019050919050565b600060208201905081810360008301526122b281612276565b9050919050565b7f546869732070726f6a65637420697320616c726561647920756e64657220707260008201527f6f67726573730000000000000000000000000000000000000000000000000000602082015250565b6000612315602683611a10565b9150612320826122b9565b604082019050919050565b6000602082019050818103600083015261234481612308565b9050919050565b60008190508160005260206000209050919050565b60006020601f8301049050919050565b600082821b905092915050565b6000600883026123ad7fffffffffffffffffffffffffffffffffffffffffffffffffffffffffffffffff82612370565b6123b78683612370565b95508019841693508086168417925050509392505050565b6000819050919050565b60006123f46123ef6123ea84611993565b6123cf565b611993565b9050919050565b6000819050919050565b61240e836123d9565b61242261241a826123fb565b84845461237d565b825550505050565b600090565b61243761242a565b612442818484612405565b505050565b5b818110156124665761245b60008261242f565b600181019050612448565b5050565b601f8211156124ab5761247c8161234b565b61248584612360565b81016020851015612494578190505b6124a86124a085612360565b830182612447565b50505b505050565b600082821c905092915050565b60006124ce600019846008026124b0565b1980831691505092915050565b60006124e783836124bd565b9150826002028217905092915050565b61250082611a05565b67ffffffffffffffff81111561251957612518611baa565b5b6125238254612164565b61252e82828561246a565b600060209050601f831160018114612561576000841561254f578287015190505b61255985826124db565b8655506125c1565b601f19841661256f8661234b565b60005b8281101561259757848901518255600182019150602085019450602081019050612572565b868310156125b457848901516125b0601f8916826124bd565b8355505b6001600288020188555050505b505050505050565b6000819050919050565b60006125ee6125e96125e4846125c9565b6123cf565b611993565b9050919050565b6125fe816125d3565b82525050565b60006101208201905061261a600083018c6119f6565b818103602083015261262c818b611a5c565b905061263b604083018a611ac7565b61264860608301896119f6565b61265560808301886119f6565b61266260a0830187611ae2565b61266f60c08301866125f5565b61267c60e0830185611ae2565b61268a610100830184611ae2565b9a9950505050505050505050565b7f4f6e6c792050726f6a656374206f776e65722063616e2061636365737320736560008201527f6c65637465642070726f706f73616c2773206f776e6572000000000000000000602082015250565b60006126f4603783611a10565b91506126ff82612698565b604082019050919050565b60006020820190508181036000830152612723816126e7565b9050919050565b7f4e487b7100000000000000000000000000000000000000000000000000000000600052603260045260246000fd5b7f4e487b7100000000000000000000000000000000000000000000000000000000600052601160045260246000fd5b600061279382611993565b91507fffffffffffffffffffffffffffffffffffffffffffffffffffffffffffffffff82036127c5576127c4612759565b5b600182019050919050565b7f546869732050726f6a65637420497320416c726561647920436f6d706c65746560008201527f6400000000000000000000000000000000000000000000000000000000000000602082015250565b600061282c602183611a10565b9150612837826127d0565b604082019050919050565b6000602082019050818103600083015261285b8161281f565b9050919050565b7f596f7520417265204e6f7420417574686f72697a656420546f2046696e616c6960008201527f7a6520546869732050726f6a6563740000000000000000000000000000000000602082015250565b60006128be602f83611a10565b91506128c982612862565b604082019050919050565b600060208201905081810360008301526128ed816128b1565b9050919050565b7f50726f6a656374206973206e6f742079657420636f6d706c6574656400000000600082015250565b600061292a601c83611a10565b9150612935826128f4565b602082019050919050565b600060208201905081810360008301526129598161291d565b9050919050565b7f546869732050726f6a656374204973204e6f742059657420417070726f766564600082015250565b6000612996602083611a10565b91506129a182612960565b602082019050919050565b600060208201905081810360008301526129c581612989565b9050919050565b60006129d782611993565b91506129e283611993565b92508282039050818111156129fa576129f9612759565b5b92915050565b7f4f6e6c792050726f6a656374204f776e65722043616e2043616c6c205468697360008201527f2046756e6374696f6e0000000000000000000000000000000000000000000000602082015250565b6000612a5c602983611a10565b9150612a6782612a00565b604082019050919050565b60006020820190508181036000830152612a8b81612a4f565b9050919050565b7f546869732050726f6a65637420497320416c726561647920417070726f76656460008201527f20546f20536f6d656f6e6520656c736500000000000000000000000000000000602082015250565b6000612aee603083611a10565b9150612af982612a92565b604082019050919050565b60006020820190508181036000830152612b1d81612ae1565b9050919050565b7f4f6e6c792050726f6a656374204f776e65722043616e204170726f766520546860008201527f652050726f706f73616c73000000000000000000000000000000000000000000602082015250565b6000612b80602b83611a10565b9150612b8b82612b24565b604082019050919050565b60006020820190508181036000830152612baf81612b73565b9050919050565b7f546869732050726f6a65637420497320416c726561647920436f6d706c65746560008201527f6420596f752043616e6e6f74204d616b6520416e796d6f726520417070726f7660208201527f616c730000000000000000000000000000000000000000000000000000000000604082015250565b6000612c38604383611a10565b9150612c4382612bb6565b606082019050919050565b60006020820190508181036000830152612c6781612c2b565b9050919050565b600081549050612c7d81612164565b9050919050565b818103612c92575050612d6a565b612c9b82612c6e565b67ffffffffffffffff811115612cb457612cb3611baa565b5b612cbe8254612164565b612cc982828561246a565b6000601f831160018114612cf85760008415612ce6578287015490505b612cf085826124db565b865550612d63565b601f198416612d068761234b565b9650612d118661234b565b60005b82811015612d3957848901548255600182019150600185019450602081019050612d14565b86831015612d565784890154612d52601f8916826124bd565b8355505b6001600288020188555050505b5050505050505b565b7f596f757220636f61746174696f6e206973206e6f742079657420617070726f7660008201527f6564000000000000000000000000000000000000000000000000000000000000602082015250565b6000612dc8602283611a10565b9150612dd382612d6c565b604082019050919050565b60006020820190508181036000830152612df781612dbb565b9050919050565b7f4f6e6c792070726f706f73616c206f776e65722063616e206d61726b2070726f60008201527f6a65637420617320636f6d706c65746500000000000000000000000000000000602082015250565b6000612e5a603083611a10565b9150612e6582612dfe565b604082019050919050565b60006020820190508181036000830152612e8981612e4d565b9050919050565b7f596f75206861766520616c7265616479206d61726b656420746869732070726f60008201527f6a65637420617320636f6d706c65746500000000000000000000000000000000602082015250565b6000612eec603083611a10565b9150612ef782612e90565b604082019050919050565b60006020820190508181036000830152612f1b81612edf565b905091905056fea26469706673582212201c722f44fb416690eee8530fb5a351706665f941fa06cff5ed77614563200e5664736f6c63430008110033a26469706673582212209cb27aecaa84b1b6a8b91ce7e3a136e48dc87cf75940fddc991151a81009535d64736f6c63430008110033",
  "linkReferences": {},
  "deployedLinkReferences": {}
}