{
  "_format": "hh-sol-artifact-1",
  "contractName": "ProjectFactory",
  "sourceName": "contracts/ProjectFactory.sol",
  "abi": [
    {
      "inputs": [],
      "stateMutability": "nonpayable",
      "type": "constructor"
    },
    {
      "anonymous": false,
      "inputs": [
        {
          "indexed": false,
          "internalType": "uint256",
          "name": "id",
          "type": "uint256"
        },
        {
          "indexed": false,
          "internalType": "string",
          "name": "title",
          "type": "string"
        },
        {
          "indexed": false,
          "internalType": "string",
          "name": "short_description",
          "type": "string"
        },
        {
          "indexed": false,
          "internalType": "string",
          "name": "description",
          "type": "string"
        },
        {
          "indexed": false,
          "internalType": "string",
          "name": "pdf",
          "type": "string"
        },
        {
          "indexed": false,
          "internalType": "string",
          "name": "images",
          "type": "string"
        },
        {
          "indexed": false,
          "internalType": "uint256",
          "name": "budget",
          "type": "uint256"
        },
        {
          "indexed": false,
          "internalType": "uint256",
          "name": "time",
          "type": "uint256"
        },
        {
          "indexed": false,
          "internalType": "uint256",
          "name": "deadLine",
          "type": "uint256"
        },
        {
          "indexed": false,
          "internalType": "address payable",
          "name": "owner",
          "type": "address"
        },
        {
          "indexed": false,
          "internalType": "contract Project",
          "name": "project",
          "type": "address"
        }
      ],
      "name": "ProjectCreated",
      "type": "event"
    },
    {
      "inputs": [],
      "name": "admin",
      "outputs": [
        {
          "internalType": "address payable",
          "name": "",
          "type": "address"
        }
      ],
      "stateMutability": "view",
      "type": "function"
    },
    {
      "inputs": [
        {
          "internalType": "string",
          "name": "_title",
          "type": "string"
        },
        {
          "internalType": "string",
          "name": "_short_description",
          "type": "string"
        },
        {
          "internalType": "string",
          "name": "_description",
          "type": "string"
        },
        {
          "internalType": "string",
          "name": "_pdf",
          "type": "string"
        },
        {
          "internalType": "string",
          "name": "_images",
          "type": "string"
        },
        {
          "internalType": "uint256",
          "name": "_budget",
          "type": "uint256"
        },
        {
          "internalType": "uint256",
          "name": "_deadline",
          "type": "uint256"
        }
      ],
      "name": "createProject",
      "outputs": [],
      "stateMutability": "payable",
      "type": "function"
    },
    {
      "inputs": [
        {
          "internalType": "uint256",
          "name": "project_id",
          "type": "uint256"
        },
        {
          "internalType": "uint256",
          "name": "new_deadline",
          "type": "uint256"
        }
      ],
      "name": "extendDeadline",
      "outputs": [],
      "stateMutability": "nonpayable",
      "type": "function"
    },
    {
      "inputs": [],
      "name": "getAllProjects",
      "outputs": [
        {
          "components": [
            {
              "internalType": "uint256",
              "name": "id",
              "type": "uint256"
            },
            {
              "internalType": "string",
              "name": "title",
              "type": "string"
            },
            {
              "internalType": "string",
              "name": "short_description",
              "type": "string"
            },
            {
              "internalType": "string",
              "name": "description",
              "type": "string"
            },
            {
              "internalType": "string",
              "name": "pdf",
              "type": "string"
            },
            {
              "internalType": "string",
              "name": "images",
              "type": "string"
            },
            {
              "internalType": "uint256",
              "name": "budget",
              "type": "uint256"
            },
            {
              "internalType": "uint256",
              "name": "time",
              "type": "uint256"
            },
            {
              "internalType": "uint256",
              "name": "deadLine",
              "type": "uint256"
            },
            {
              "internalType": "address payable",
              "name": "owner",
              "type": "address"
            },
            {
              "internalType": "contract Project",
              "name": "project",
              "type": "address"
            }
          ],
          "internalType": "struct ProjectFactory.ProjectInfo[]",
          "name": "",
          "type": "tuple[]"
        }
      ],
      "stateMutability": "view",
      "type": "function"
    },
    {
      "inputs": [],
      "name": "getBalance",
      "outputs": [
        {
          "internalType": "uint256",
          "name": "",
          "type": "uint256"
        }
      ],
      "stateMutability": "view",
      "type": "function"
    },
    {
      "inputs": [
        {
          "internalType": "uint256",
          "name": "_id",
          "type": "uint256"
        }
      ],
      "name": "getProjectbyId",
      "outputs": [
        {
          "components": [
            {
              "internalType": "uint256",
              "name": "id",
              "type": "uint256"
            },
            {
              "internalType": "string",
              "name": "title",
              "type": "string"
            },
            {
              "internalType": "string",
              "name": "short_description",
              "type": "string"
            },
            {
              "internalType": "string",
              "name": "description",
              "type": "string"
            },
            {
              "internalType": "string",
              "name": "pdf",
              "type": "string"
            },
            {
              "internalType": "string",
              "name": "images",
              "type": "string"
            },
            {
              "internalType": "uint256",
              "name": "budget",
              "type": "uint256"
            },
            {
              "internalType": "uint256",
              "name": "time",
              "type": "uint256"
            },
            {
              "internalType": "uint256",
              "name": "deadLine",
              "type": "uint256"
            },
            {
              "internalType": "address payable",
              "name": "owner",
              "type": "address"
            },
            {
              "internalType": "contract Project",
              "name": "project",
              "type": "address"
            }
          ],
          "internalType": "struct ProjectFactory.ProjectInfo",
          "name": "",
          "type": "tuple"
        }
      ],
      "stateMutability": "view",
      "type": "function"
    },
    {
      "inputs": [],
      "name": "getProjectsByOwner",
      "outputs": [
        {
          "components": [
            {
              "internalType": "uint256",
              "name": "id",
              "type": "uint256"
            },
            {
              "internalType": "string",
              "name": "title",
              "type": "string"
            },
            {
              "internalType": "string",
              "name": "short_description",
              "type": "string"
            },
            {
              "internalType": "string",
              "name": "description",
              "type": "string"
            },
            {
              "internalType": "string",
              "name": "pdf",
              "type": "string"
            },
            {
              "internalType": "string",
              "name": "images",
              "type": "string"
            },
            {
              "internalType": "uint256",
              "name": "budget",
              "type": "uint256"
            },
            {
              "internalType": "uint256",
              "name": "time",
              "type": "uint256"
            },
            {
              "internalType": "uint256",
              "name": "deadLine",
              "type": "uint256"
            },
            {
              "internalType": "address payable",
              "name": "owner",
              "type": "address"
            },
            {
              "internalType": "contract Project",
              "name": "project",
              "type": "address"
            }
          ],
          "internalType": "struct ProjectFactory.ProjectInfo[]",
          "name": "",
          "type": "tuple[]"
        }
      ],
      "stateMutability": "view",
      "type": "function"
    },
    {
      "inputs": [
        {
          "internalType": "address",
          "name": "",
          "type": "address"
        },
        {
          "internalType": "uint256",
          "name": "",
          "type": "uint256"
        }
      ],
      "name": "projectOwner",
      "outputs": [
        {
          "internalType": "uint256",
          "name": "id",
          "type": "uint256"
        },
        {
          "internalType": "string",
          "name": "title",
          "type": "string"
        },
        {
          "internalType": "string",
          "name": "short_description",
          "type": "string"
        },
        {
          "internalType": "string",
          "name": "description",
          "type": "string"
        },
        {
          "internalType": "string",
          "name": "pdf",
          "type": "string"
        },
        {
          "internalType": "string",
          "name": "images",
          "type": "string"
        },
        {
          "internalType": "uint256",
          "name": "budget",
          "type": "uint256"
        },
        {
          "internalType": "uint256",
          "name": "time",
          "type": "uint256"
        },
        {
          "internalType": "uint256",
          "name": "deadLine",
          "type": "uint256"
        },
        {
          "internalType": "address payable",
          "name": "owner",
          "type": "address"
        },
        {
          "internalType": "contract Project",
          "name": "project",
          "type": "address"
        }
      ],
      "stateMutability": "view",
      "type": "function"
    },
    {
      "stateMutability": "payable",
      "type": "receive"
    }
  ],
  "bytecode": "0x608060405234801561001057600080fd5b5033600160006101000a81548173ffffffffffffffffffffffffffffffffffffffff021916908373ffffffffffffffffffffffffffffffffffffffff160217905550615766806100616000396000f3fe6080604052600436106200008b5760003560e01c806397c414c1116200005557806397c414c11462000156578063a7ee42de146200019a578063d61bb76a14620001ba578063f851a44014620002085762000093565b806312065fe014620000985780632d1fdef614620000c85780634aae5f4d14620000f657806380d0382914620001265762000093565b366200009357005b600080fd5b348015620000a557600080fd5b50620000b062000238565b604051620000bf9190620018b7565b60405180910390f35b348015620000d557600080fd5b50620000f46004803603810190620000ee919062001919565b62000240565b005b3480156200010357600080fd5b506200010e62000343565b6040516200011d919062001cac565b60405180910390f35b3480156200013357600080fd5b506200013e6200086a565b6040516200014d919062001cac565b60405180910390f35b3480156200016357600080fd5b506200018260048036038101906200017c919062001cd0565b62000d34565b60405162000191919062001e23565b60405180910390f35b620001b86004803603810190620001b2919062001f98565b62001140565b005b348015620001c757600080fd5b50620001e66004803603810190620001e091906200212b565b62001447565b604051620001ff9b9a99989796959493929190620021e6565b60405180910390f35b3480156200021557600080fd5b5062000220620017be565b6040516200022f9190620022ca565b60405180910390f35b600047905090565b60006002600084815260200190815260200160002090508060090160009054906101000a900473ffffffffffffffffffffffffffffffffffffffff1673ffffffffffffffffffffffffffffffffffffffff163373ffffffffffffffffffffffffffffffffffffffff1614620002ec576040517f08c379a0000000000000000000000000000000000000000000000000000000008152600401620002e3906200235d565b60405180910390fd5b8060080154821162000335576040517f08c379a00000000000000000000000000000000000000000000000000000000081526004016200032c90620023f5565b60405180910390fd5b818160080181905550505050565b60606000620003536000620017e4565b905060008167ffffffffffffffff81111562000374576200037362001e51565b5b604051908082528060200260200182016040528015620003b157816020015b6200039d62001808565b815260200190600190039081620003935790505b509050600080600090505b83811015620008605760006002600083815260200190815260200160002090503373ffffffffffffffffffffffffffffffffffffffff168160090160009054906101000a900473ffffffffffffffffffffffffffffffffffffffff1673ffffffffffffffffffffffffffffffffffffffff160362000849578060405180610160016040529081600082015481526020016001820180546200045d9062002446565b80601f01602080910402602001604051908101604052809291908181526020018280546200048b9062002446565b8015620004dc5780601f10620004b057610100808354040283529160200191620004dc565b820191906000526020600020905b815481529060010190602001808311620004be57829003601f168201915b50505050508152602001600282018054620004f79062002446565b80601f0160208091040260200160405190810160405280929190818152602001828054620005259062002446565b8015620005765780601f106200054a5761010080835404028352916020019162000576565b820191906000526020600020905b8154815290600101906020018083116200055857829003601f168201915b50505050508152602001600382018054620005919062002446565b80601f0160208091040260200160405190810160405280929190818152602001828054620005bf9062002446565b8015620006105780601f10620005e45761010080835404028352916020019162000610565b820191906000526020600020905b815481529060010190602001808311620005f257829003601f168201915b505050505081526020016004820180546200062b9062002446565b80601f0160208091040260200160405190810160405280929190818152602001828054620006599062002446565b8015620006aa5780601f106200067e57610100808354040283529160200191620006aa565b820191906000526020600020905b8154815290600101906020018083116200068c57829003601f168201915b50505050508152602001600582018054620006c59062002446565b80601f0160208091040260200160405190810160405280929190818152602001828054620006f39062002446565b8015620007445780601f10620007185761010080835404028352916020019162000744565b820191906000526020600020905b8154815290600101906020018083116200072657829003601f168201915b505050505081526020016006820154815260200160078201548152602001600882015481526020016009820160009054906101000a900473ffffffffffffffffffffffffffffffffffffffff1673ffffffffffffffffffffffffffffffffffffffff1673ffffffffffffffffffffffffffffffffffffffff168152602001600a820160009054906101000a900473ffffffffffffffffffffffffffffffffffffffff1673ffffffffffffffffffffffffffffffffffffffff1673ffffffffffffffffffffffffffffffffffffffff16815250508484815181106200082d576200082c6200247b565b5b602002602001018190525082806200084590620024d9565b9350505b5080806200085790620024d9565b915050620003bc565b5081935050505090565b606060006200087a6000620017e4565b90506000808267ffffffffffffffff8111156200089c576200089b62001e51565b5b604051908082528060200260200182016040528015620008d957816020015b620008c562001808565b815260200190600190039081620008bb5790505b50905060005b8381101562000d2a576000600260008381526020019081526020016000206040518061016001604052908160008201548152602001600182018054620009259062002446565b80601f0160208091040260200160405190810160405280929190818152602001828054620009539062002446565b8015620009a45780601f106200097857610100808354040283529160200191620009a4565b820191906000526020600020905b8154815290600101906020018083116200098657829003601f168201915b50505050508152602001600282018054620009bf9062002446565b80601f0160208091040260200160405190810160405280929190818152602001828054620009ed9062002446565b801562000a3e5780601f1062000a125761010080835404028352916020019162000a3e565b820191906000526020600020905b81548152906001019060200180831162000a2057829003601f168201915b5050505050815260200160038201805462000a599062002446565b80601f016020809104026020016040519081016040528092919081815260200182805462000a879062002446565b801562000ad85780601f1062000aac5761010080835404028352916020019162000ad8565b820191906000526020600020905b81548152906001019060200180831162000aba57829003601f168201915b5050505050815260200160048201805462000af39062002446565b80601f016020809104026020016040519081016040528092919081815260200182805462000b219062002446565b801562000b725780601f1062000b465761010080835404028352916020019162000b72565b820191906000526020600020905b81548152906001019060200180831162000b5457829003601f168201915b5050505050815260200160058201805462000b8d9062002446565b80601f016020809104026020016040519081016040528092919081815260200182805462000bbb9062002446565b801562000c0c5780601f1062000be05761010080835404028352916020019162000c0c565b820191906000526020600020905b81548152906001019060200180831162000bee57829003601f168201915b505050505081526020016006820154815260200160078201548152602001600882015481526020016009820160009054906101000a900473ffffffffffffffffffffffffffffffffffffffff1673ffffffffffffffffffffffffffffffffffffffff1673ffffffffffffffffffffffffffffffffffffffff168152602001600a820160009054906101000a900473ffffffffffffffffffffffffffffffffffffffff1673ffffffffffffffffffffffffffffffffffffffff1673ffffffffffffffffffffffffffffffffffffffff168152505090508083858151811062000cf85762000cf76200247b565b5b6020026020010181905250838062000d1090620024d9565b94505050808062000d2190620024d9565b915050620008df565b5080935050505090565b62000d3e62001808565b600060026000848152602001908152602001600020604051806101600160405290816000820154815260200160018201805462000d7b9062002446565b80601f016020809104026020016040519081016040528092919081815260200182805462000da99062002446565b801562000dfa5780601f1062000dce5761010080835404028352916020019162000dfa565b820191906000526020600020905b81548152906001019060200180831162000ddc57829003601f168201915b5050505050815260200160028201805462000e159062002446565b80601f016020809104026020016040519081016040528092919081815260200182805462000e439062002446565b801562000e945780601f1062000e685761010080835404028352916020019162000e94565b820191906000526020600020905b81548152906001019060200180831162000e7657829003601f168201915b5050505050815260200160038201805462000eaf9062002446565b80601f016020809104026020016040519081016040528092919081815260200182805462000edd9062002446565b801562000f2e5780601f1062000f025761010080835404028352916020019162000f2e565b820191906000526020600020905b81548152906001019060200180831162000f1057829003601f168201915b5050505050815260200160048201805462000f499062002446565b80601f016020809104026020016040519081016040528092919081815260200182805462000f779062002446565b801562000fc85780601f1062000f9c5761010080835404028352916020019162000fc8565b820191906000526020600020905b81548152906001019060200180831162000faa57829003601f168201915b5050505050815260200160058201805462000fe39062002446565b80601f0160208091040260200160405190810160405280929190818152602001828054620010119062002446565b8015620010625780601f10620010365761010080835404028352916020019162001062565b820191906000526020600020905b8154815290600101906020018083116200104457829003601f168201915b505050505081526020016006820154815260200160078201548152602001600882015481526020016009820160009054906101000a900473ffffffffffffffffffffffffffffffffffffffff1673ffffffffffffffffffffffffffffffffffffffff1673ffffffffffffffffffffffffffffffffffffffff168152602001600a820160009054906101000a900473ffffffffffffffffffffffffffffffffffffffff1673ffffffffffffffffffffffffffffffffffffffff1673ffffffffffffffffffffffffffffffffffffffff1681525050905080915050919050565b81341462001185576040517f08c379a00000000000000000000000000000000000000000000000000000000081526004016200117c906200259c565b60405180910390fd5b6000620011936000620017e4565b90506000338385604051620011a8906200188e565b620011b693929190620025be565b604051809103906000f080158015620011d3573d6000803e3d6000fd5b50905060006040518061016001604052808481526020018b81526020018a81526020018981526020018881526020018781526020018681526020014281526020018581526020013373ffffffffffffffffffffffffffffffffffffffff1681526020018373ffffffffffffffffffffffffffffffffffffffff1681525090508060026000858152602001908152602001600020600082015181600001556020820151816001019081620012879190620027c3565b5060408201518160020190816200129f9190620027c3565b506060820151816003019081620012b79190620027c3565b506080820151816004019081620012cf9190620027c3565b5060a0820151816005019081620012e79190620027c3565b5060c0820151816006015560e0820151816007015561010082015181600801556101208201518160090160006101000a81548173ffffffffffffffffffffffffffffffffffffffff021916908373ffffffffffffffffffffffffffffffffffffffff16021790555061014082015181600a0160006101000a81548173ffffffffffffffffffffffffffffffffffffffff021916908373ffffffffffffffffffffffffffffffffffffffff160217905550905050620013a66000620017f2565b8173ffffffffffffffffffffffffffffffffffffffff166108fc349081150290604051600060405180830381858888f19350505050158015620013ed573d6000803e3d6000fd5b507f71118d02c87017cad0298c6ece1cda0b1bcdb0a412b2a819038f352216c400e3838b8b8b8b8b8b428c338c604051620014339b9a99989796959493929190620021e6565b60405180910390a150505050505050505050565b6003602052816000526040600020602052806000526040600020600091509150508060000154908060010180546200147f9062002446565b80601f0160208091040260200160405190810160405280929190818152602001828054620014ad9062002446565b8015620014fe5780601f10620014d257610100808354040283529160200191620014fe565b820191906000526020600020905b815481529060010190602001808311620014e057829003601f168201915b505050505090806002018054620015159062002446565b80601f0160208091040260200160405190810160405280929190818152602001828054620015439062002446565b8015620015945780601f10620015685761010080835404028352916020019162001594565b820191906000526020600020905b8154815290600101906020018083116200157657829003601f168201915b505050505090806003018054620015ab9062002446565b80601f0160208091040260200160405190810160405280929190818152602001828054620015d99062002446565b80156200162a5780601f10620015fe576101008083540402835291602001916200162a565b820191906000526020600020905b8154815290600101906020018083116200160c57829003601f168201915b505050505090806004018054620016419062002446565b80601f01602080910402602001604051908101604052809291908181526020018280546200166f9062002446565b8015620016c05780601f106200169457610100808354040283529160200191620016c0565b820191906000526020600020905b815481529060010190602001808311620016a257829003601f168201915b505050505090806005018054620016d79062002446565b80601f0160208091040260200160405190810160405280929190818152602001828054620017059062002446565b8015620017565780601f106200172a5761010080835404028352916020019162001756565b820191906000526020600020905b8154815290600101906020018083116200173857829003601f168201915b5050505050908060060154908060070154908060080154908060090160009054906101000a900473ffffffffffffffffffffffffffffffffffffffff169080600a0160009054906101000a900473ffffffffffffffffffffffffffffffffffffffff1690508b565b600160009054906101000a900473ffffffffffffffffffffffffffffffffffffffff1681565b600081600001549050919050565b6001816000016000828254019250508190555050565b604051806101600160405280600081526020016060815260200160608152602001606081526020016060815260200160608152602001600081526020016000815260200160008152602001600073ffffffffffffffffffffffffffffffffffffffff168152602001600073ffffffffffffffffffffffffffffffffffffffff1681525090565b612e8680620028ab83390190565b6000819050919050565b620018b1816200189c565b82525050565b6000602082019050620018ce6000830184620018a6565b92915050565b6000604051905090565b600080fd5b600080fd5b620018f3816200189c565b8114620018ff57600080fd5b50565b6000813590506200191381620018e8565b92915050565b60008060408385031215620019335762001932620018de565b5b6000620019438582860162001902565b9250506020620019568582860162001902565b9150509250929050565b600081519050919050565b600082825260208201905092915050565b6000819050602082019050919050565b62001997816200189c565b82525050565b600081519050919050565b600082825260208201905092915050565b60005b83811015620019d9578082015181840152602081019050620019bc565b60008484015250505050565b6000601f19601f8301169050919050565b600062001a03826200199d565b62001a0f8185620019a8565b935062001a21818560208601620019b9565b62001a2c81620019e5565b840191505092915050565b600073ffffffffffffffffffffffffffffffffffffffff82169050919050565b600062001a648262001a37565b9050919050565b62001a768162001a57565b82525050565b6000819050919050565b600062001aa762001aa162001a9b8462001a37565b62001a7c565b62001a37565b9050919050565b600062001abb8262001a86565b9050919050565b600062001acf8262001aae565b9050919050565b62001ae18162001ac2565b82525050565b60006101608301600083015162001b0260008601826200198c565b506020830151848203602086015262001b1c8282620019f6565b9150506040830151848203604086015262001b388282620019f6565b9150506060830151848203606086015262001b548282620019f6565b9150506080830151848203608086015262001b708282620019f6565b91505060a083015184820360a086015262001b8c8282620019f6565b91505060c083015162001ba360c08601826200198c565b5060e083015162001bb860e08601826200198c565b5061010083015162001bcf6101008601826200198c565b5061012083015162001be661012086018262001a6b565b5061014083015162001bfd61014086018262001ad6565b508091505092915050565b600062001c16838362001ae7565b905092915050565b6000602082019050919050565b600062001c388262001960565b62001c4481856200196b565b93508360208202850162001c58856200197c565b8060005b8581101562001c9a578484038952815162001c78858262001c08565b945062001c858362001c1e565b925060208a0199505060018101905062001c5c565b50829750879550505050505092915050565b6000602082019050818103600083015262001cc8818462001c2b565b905092915050565b60006020828403121562001ce95762001ce8620018de565b5b600062001cf98482850162001902565b91505092915050565b60006101608301600083015162001d1d60008601826200198c565b506020830151848203602086015262001d378282620019f6565b9150506040830151848203604086015262001d538282620019f6565b9150506060830151848203606086015262001d6f8282620019f6565b9150506080830151848203608086015262001d8b8282620019f6565b91505060a083015184820360a086015262001da78282620019f6565b91505060c083015162001dbe60c08601826200198c565b5060e083015162001dd360e08601826200198c565b5061010083015162001dea6101008601826200198c565b5061012083015162001e0161012086018262001a6b565b5061014083015162001e1861014086018262001ad6565b508091505092915050565b6000602082019050818103600083015262001e3f818462001d02565b905092915050565b600080fd5b600080fd5b7f4e487b7100000000000000000000000000000000000000000000000000000000600052604160045260246000fd5b62001e8b82620019e5565b810181811067ffffffffffffffff8211171562001ead5762001eac62001e51565b5b80604052505050565b600062001ec2620018d4565b905062001ed0828262001e80565b919050565b600067ffffffffffffffff82111562001ef35762001ef262001e51565b5b62001efe82620019e5565b9050602081019050919050565b82818337600083830152505050565b600062001f3162001f2b8462001ed5565b62001eb6565b90508281526020810184848401111562001f505762001f4f62001e4c565b5b62001f5d84828562001f0b565b509392505050565b600082601f83011262001f7d5762001f7c62001e47565b5b813562001f8f84826020860162001f1a565b91505092915050565b600080600080600080600060e0888a03121562001fba5762001fb9620018de565b5b600088013567ffffffffffffffff81111562001fdb5762001fda620018e3565b5b62001fe98a828b0162001f65565b975050602088013567ffffffffffffffff8111156200200d576200200c620018e3565b5b6200201b8a828b0162001f65565b965050604088013567ffffffffffffffff8111156200203f576200203e620018e3565b5b6200204d8a828b0162001f65565b955050606088013567ffffffffffffffff811115620020715762002070620018e3565b5b6200207f8a828b0162001f65565b945050608088013567ffffffffffffffff811115620020a357620020a2620018e3565b5b620020b18a828b0162001f65565b93505060a0620020c48a828b0162001902565b92505060c0620020d78a828b0162001902565b91505092959891949750929550565b6000620020f38262001a37565b9050919050565b6200210581620020e6565b81146200211157600080fd5b50565b6000813590506200212581620020fa565b92915050565b60008060408385031215620021455762002144620018de565b5b6000620021558582860162002114565b9250506020620021688582860162001902565b9150509250929050565b600082825260208201905092915050565b600062002190826200199d565b6200219c818562002172565b9350620021ae818560208601620019b9565b620021b981620019e5565b840191505092915050565b620021cf8162001a57565b82525050565b620021e08162001ac2565b82525050565b600061016082019050620021fe600083018e620018a6565b818103602083015262002212818d62002183565b9050818103604083015262002228818c62002183565b905081810360608301526200223e818b62002183565b9050818103608083015262002254818a62002183565b905081810360a08301526200226a818962002183565b90506200227b60c0830188620018a6565b6200228a60e0830187620018a6565b6200229a610100830186620018a6565b620022aa610120830185620021c4565b620022ba610140830184620021d5565b9c9b505050505050505050505050565b6000602082019050620022e16000830184620021c4565b92915050565b7f4f6e6c792070726f6a656374206f776e65722063616e20657874656e6420646560008201527f61646c696e65206f6620746869732070726f6a65637400000000000000000000602082015250565b60006200234560368362002172565b91506200235282620022e7565b604082019050919050565b60006020820190508181036000830152620023788162002336565b9050919050565b7f706c656173652067697665206120646561646c696e65206f662067726561746560008201527f72207468616e2063757272656e7420646561646c696e65000000000000000000602082015250565b6000620023dd60378362002172565b9150620023ea826200237f565b604082019050919050565b600060208201905081810360008301526200241081620023ce565b9050919050565b7f4e487b7100000000000000000000000000000000000000000000000000000000600052602260045260246000fd5b600060028204905060018216806200245f57607f821691505b60208210810362002475576200247462002417565b5b50919050565b7f4e487b7100000000000000000000000000000000000000000000000000000000600052603260045260246000fd5b7f4e487b7100000000000000000000000000000000000000000000000000000000600052601160045260246000fd5b6000620024e6826200189c565b91507fffffffffffffffffffffffffffffffffffffffffffffffffffffffffffffffff82036200251b576200251a620024aa565b5b600182019050919050565b7f506c65617365205472616e736665722054686520416d6f756e7420457175616c60008201527f20546f20596f75722050726f6a65637420427564676574000000000000000000602082015250565b60006200258460378362002172565b9150620025918262002526565b604082019050919050565b60006020820190508181036000830152620025b78162002575565b9050919050565b6000606082019050620025d56000830186620021c4565b620025e46020830185620018a6565b620025f36040830184620018a6565b949350505050565b60008190508160005260206000209050919050565b60006020601f8301049050919050565b600082821b905092915050565b6000600883026200265f7fffffffffffffffffffffffffffffffffffffffffffffffffffffffffffffffff8262002620565b6200266b868362002620565b95508019841693508086168417925050509392505050565b6000620026a46200269e62002698846200189c565b62001a7c565b6200189c565b9050919050565b6000819050919050565b620026c08362002683565b620026d8620026cf82620026ab565b8484546200262d565b825550505050565b600090565b620026ef620026e0565b620026fc818484620026b5565b505050565b5b81811015620027245762002718600082620026e5565b60018101905062002702565b5050565b601f82111562002773576200273d81620025fb565b620027488462002610565b8101602085101562002758578190505b62002770620027678562002610565b83018262002701565b50505b505050565b600082821c905092915050565b6000620027986000198460080262002778565b1980831691505092915050565b6000620027b3838362002785565b9150826002028217905092915050565b620027ce826200199d565b67ffffffffffffffff811115620027ea57620027e962001e51565b5b620027f6825462002446565b6200280382828562002728565b600060209050601f8311600181146200283b576000841562002826578287015190505b620028328582620027a5565b865550620028a2565b601f1984166200284b86620025fb565b60005b8281101562002875578489015182556001820191506020850194506020810190506200284e565b8683101562002895578489015162002891601f89168262002785565b8355505b6001600288020188555050505b50505050505056fe60806040526000600460006101000a81548160ff0219169083151502179055506000600960006101000a81548160ff0219169083151502179055503480156200004757600080fd5b5060405162002e8638038062002e8683398181016040528101906200006d91906200016a565b82600160006101000a81548173ffffffffffffffffffffffffffffffffffffffff021916908373ffffffffffffffffffffffffffffffffffffffff1602179055508160028190555080600381905550505050620001c6565b600080fd5b600073ffffffffffffffffffffffffffffffffffffffff82169050919050565b6000620000f782620000ca565b9050919050565b6200010981620000ea565b81146200011557600080fd5b50565b6000815190506200012981620000fe565b92915050565b6000819050919050565b62000144816200012f565b81146200015057600080fd5b50565b600081519050620001648162000139565b92915050565b600080600060608486031215620001865762000185620000c5565b5b6000620001968682870162000118565b9350506020620001a98682870162000153565b9250506040620001bc8682870162000153565b9150509250925092565b612cb080620001d66000396000f3fe6080604052600436106100ab5760003560e01c806398951b561161006457806398951b56146101bd578063a4475ce4146101e6578063a6a2cb0514610211578063b19b0afe14610244578063e7aa3afc1461026f578063ecc254b31461029a576100b2565b8063013cf08b146100b757806312065fe0146100fc57806322e2e12d146101275780632a9cc1411461015057806362564c481461017b5780637417882c146101a6576100b2565b366100b257005b600080fd5b3480156100c357600080fd5b506100de60048036038101906100d991906117af565b6102b1565b6040516100f3999897969594939291906118d7565b60405180910390f35b34801561010857600080fd5b506101116103ce565b60405161011e919061196b565b60405180910390f35b34801561013357600080fd5b5061014e60048036038101906101499190611abb565b6103d6565b005b34801561015c57600080fd5b50610165610711565b6040516101729190611c66565b60405180910390f35b34801561018757600080fd5b5061019061091d565b60405161019d9190611e0f565b60405180910390f35b3480156101b257600080fd5b506101bb610b60565b005b3480156101c957600080fd5b506101e460048036038101906101df91906117af565b610f24565b005b3480156101f257600080fd5b506101fb6112bd565b6040516102089190611e31565b60405180910390f35b34801561021d57600080fd5b506102266112e3565b60405161023b999897969594939291906118d7565b60405180910390f35b34801561025057600080fd5b506102596113ee565b6040516102669190611e4c565b60405180910390f35b34801561027b57600080fd5b50610284611401565b6040516102919190611e4c565b60405180910390f35b3480156102a657600080fd5b506102af61147a565b005b60056020528060005260406000206000915090508060000154908060010180546102da90611e96565b80601f016020809104026020016040519081016040528092919081815260200182805461030690611e96565b80156103535780601f1061032857610100808354040283529160200191610353565b820191906000526020600020905b81548152906001019060200180831161033657829003601f168201915b5050505050908060020160009054906101000a900473ffffffffffffffffffffffffffffffffffffffff16908060030154908060040154908060050160009054906101000a900460ff16908060060154908060070160009054906101000a900460ff16908060070160019054906101000a900460ff16905089565b600047905090565b600660003373ffffffffffffffffffffffffffffffffffffffff1673ffffffffffffffffffffffffffffffffffffffff16815260200190815260200160002060009054906101000a900460ff1615610463576040517f08c379a000000000000000000000000000000000000000000000000000000000815260040161045a90611f39565b60405180910390fd5b600860003373ffffffffffffffffffffffffffffffffffffffff1673ffffffffffffffffffffffffffffffffffffffff16815260200190815260200160002060009054906101000a900460ff16156104f0576040517f08c379a00000000000000000000000000000000000000000000000000000000081526004016104e790611fcb565b60405180910390fd5b60006104fc60006116d9565b905060006040518061012001604052808381526020018681526020013373ffffffffffffffffffffffffffffffffffffffff168152602001858152602001848152602001600015158152602001600081526020016000151581526020016000151581525090506001600660003373ffffffffffffffffffffffffffffffffffffffff1673ffffffffffffffffffffffffffffffffffffffff16815260200190815260200160002060006101000a81548160ff02191690831515021790555080600560008481526020019081526020016000206000820151816000015560208201518160010190816105ed9190612197565b5060408201518160020160006101000a81548173ffffffffffffffffffffffffffffffffffffffff021916908373ffffffffffffffffffffffffffffffffffffffff160217905550606082015181600301556080820151816004015560a08201518160050160006101000a81548160ff02191690831515021790555060c0820151816006015560e08201518160070160006101000a81548160ff0219169083151502179055506101008201518160070160016101000a81548160ff0219169083151502179055509050506106c160006116e7565b7fb3080e016b94f1edbaf8dc52950b1b3debd550a7662d4db0cb404a7217047e828286338787600080600080604051610702999897969594939291906122a4565b60405180910390a15050505050565b6107196116fd565b600160009054906101000a900473ffffffffffffffffffffffffffffffffffffffff1673ffffffffffffffffffffffffffffffffffffffff163373ffffffffffffffffffffffffffffffffffffffff16146107a9576040517f08c379a00000000000000000000000000000000000000000000000000000000081526004016107a0906123aa565b60405180910390fd5b600a60405180610120016040529081600082015481526020016001820180546107d190611e96565b80601f01602080910402602001604051908101604052809291908181526020018280546107fd90611e96565b801561084a5780601f1061081f5761010080835404028352916020019161084a565b820191906000526020600020905b81548152906001019060200180831161082d57829003601f168201915b505050505081526020016002820160009054906101000a900473ffffffffffffffffffffffffffffffffffffffff1673ffffffffffffffffffffffffffffffffffffffff1673ffffffffffffffffffffffffffffffffffffffff16815260200160038201548152602001600482015481526020016005820160009054906101000a900460ff16151515158152602001600682015481526020016007820160009054906101000a900460ff161515151581526020016007820160019054906101000a900460ff161515151581525050905090565b6060600061092b60006116d9565b905060008167ffffffffffffffff81111561094957610948611990565b5b60405190808252806020026020018201604052801561098257816020015b61096f6116fd565b8152602001906001900390816109675790505b5090506000805b83811015610b565760006005600083815260200190815260200160002060405180610120016040529081600082015481526020016001820180546109cc90611e96565b80601f01602080910402602001604051908101604052809291908181526020018280546109f890611e96565b8015610a455780601f10610a1a57610100808354040283529160200191610a45565b820191906000526020600020905b815481529060010190602001808311610a2857829003601f168201915b505050505081526020016002820160009054906101000a900473ffffffffffffffffffffffffffffffffffffffff1673ffffffffffffffffffffffffffffffffffffffff1673ffffffffffffffffffffffffffffffffffffffff16815260200160038201548152602001600482015481526020016005820160009054906101000a900460ff16151515158152602001600682015481526020016007820160009054906101000a900460ff161515151581526020016007820160019054906101000a900460ff161515151581525050905080848481518110610b2957610b286123ca565b5b60200260200101819052508280610b3f90612428565b935050508080610b4e90612428565b915050610989565b5081935050505090565b600460009054906101000a900460ff1615610bb0576040517f08c379a0000000000000000000000000000000000000000000000000000000008152600401610ba7906124e2565b60405180910390fd5b600160009054906101000a900473ffffffffffffffffffffffffffffffffffffffff1673ffffffffffffffffffffffffffffffffffffffff163373ffffffffffffffffffffffffffffffffffffffff1614610c40576040517f08c379a0000000000000000000000000000000000000000000000000000000008152600401610c3790612574565b60405180910390fd5b600a60070160009054906101000a900460ff16610c92576040517f08c379a0000000000000000000000000000000000000000000000000000000008152600401610c8990612606565b60405180910390fd5b600a60050160009054906101000a900460ff16610ce4576040517f08c379a0000000000000000000000000000000000000000000000000000000008152600401610cdb90612672565b60405180910390fd5b60076000600a60020160009054906101000a900473ffffffffffffffffffffffffffffffffffffffff1673ffffffffffffffffffffffffffffffffffffffff1673ffffffffffffffffffffffffffffffffffffffff16815260200190815260200160002060009054906101000a900460ff16610d95576040517f08c379a0000000000000000000000000000000000000000000000000000000008152600401610d8c90612704565b60405180910390fd5b6000600a60030154600354610daa9190612724565b9050600160009054906101000a900473ffffffffffffffffffffffffffffffffffffffff1673ffffffffffffffffffffffffffffffffffffffff166108fc829081150290604051600060405180830381858888f19350505050158015610e14573d6000803e3d6000fd5b50600a60020160009054906101000a900473ffffffffffffffffffffffffffffffffffffffff1673ffffffffffffffffffffffffffffffffffffffff166108fc600a600301549081150290604051600060405180830381858888f19350505050158015610e85573d6000803e3d6000fd5b506001600a60070160016101000a81548160ff021916908315150217905550600060086000600a60020160009054906101000a900473ffffffffffffffffffffffffffffffffffffffff1673ffffffffffffffffffffffffffffffffffffffff1673ffffffffffffffffffffffffffffffffffffffff16815260200190815260200160002060006101000a81548160ff02191690831515021790555050565b600160009054906101000a900473ffffffffffffffffffffffffffffffffffffffff1673ffffffffffffffffffffffffffffffffffffffff163373ffffffffffffffffffffffffffffffffffffffff1614610fb4576040517f08c379a0000000000000000000000000000000000000000000000000000000008152600401610fab906127ca565b60405180910390fd5b6000600560008381526020019081526020016000209050600960009054906101000a900460ff161561101b576040517f08c379a00000000000000000000000000000000000000000000000000000000081526004016110129061285c565b60405180910390fd5b600160009054906101000a900473ffffffffffffffffffffffffffffffffffffffff1673ffffffffffffffffffffffffffffffffffffffff163373ffffffffffffffffffffffffffffffffffffffff16146110ab576040517f08c379a00000000000000000000000000000000000000000000000000000000081526004016110a2906128ee565b60405180910390fd5b60025442106110ef576040517f08c379a00000000000000000000000000000000000000000000000000000000081526004016110e6906129a6565b60405180910390fd5b42816006018190555060018160050160006101000a81548160ff0219169083151502179055506001600960006101000a81548160ff02191690831515021790555080600a600082015481600001556001820181600101908161115191906129dc565b506002820160009054906101000a900473ffffffffffffffffffffffffffffffffffffffff168160020160006101000a81548173ffffffffffffffffffffffffffffffffffffffff021916908373ffffffffffffffffffffffffffffffffffffffff16021790555060038201548160030155600482015481600401556005820160009054906101000a900460ff168160050160006101000a81548160ff021916908315150217905550600682015481600601556007820160009054906101000a900460ff168160070160006101000a81548160ff0219169083151502179055506007820160019054906101000a900460ff168160070160016101000a81548160ff0219169083151502179055509050506001600860003373ffffffffffffffffffffffffffffffffffffffff1673ffffffffffffffffffffffffffffffffffffffff16815260200190815260200160002060006101000a81548160ff0219169083151502179055505050565b600160009054906101000a900473ffffffffffffffffffffffffffffffffffffffff1681565b600a8060000154908060010180546112fa90611e96565b80601f016020809104026020016040519081016040528092919081815260200182805461132690611e96565b80156113735780601f1061134857610100808354040283529160200191611373565b820191906000526020600020905b81548152906001019060200180831161135657829003601f168201915b5050505050908060020160009054906101000a900473ffffffffffffffffffffffffffffffffffffffff16908060030154908060040154908060050160009054906101000a900460ff16908060060154908060070160009054906101000a900460ff16908060070160019054906101000a900460ff16905089565b600960009054906101000a900460ff1681565b600060076000600a60020160009054906101000a900473ffffffffffffffffffffffffffffffffffffffff1673ffffffffffffffffffffffffffffffffffffffff1673ffffffffffffffffffffffffffffffffffffffff16815260200190815260200160002060009054906101000a900460ff16905090565b600a60050160009054906101000a900460ff166114cc576040517f08c379a00000000000000000000000000000000000000000000000000000000081526004016114c390612b36565b60405180910390fd5b600460009054906101000a900460ff161561151c576040517f08c379a0000000000000000000000000000000000000000000000000000000008152600401611513906124e2565b60405180910390fd5b600a60020160009054906101000a900473ffffffffffffffffffffffffffffffffffffffff1673ffffffffffffffffffffffffffffffffffffffff163373ffffffffffffffffffffffffffffffffffffffff16146115af576040517f08c379a00000000000000000000000000000000000000000000000000000000081526004016115a690612bc8565b60405180910390fd5b600760003373ffffffffffffffffffffffffffffffffffffffff1673ffffffffffffffffffffffffffffffffffffffff16815260200190815260200160002060009054906101000a900460ff161561163c576040517f08c379a000000000000000000000000000000000000000000000000000000000815260040161163390612c5a565b60405180910390fd5b600160076000600a60020160009054906101000a900473ffffffffffffffffffffffffffffffffffffffff1673ffffffffffffffffffffffffffffffffffffffff1673ffffffffffffffffffffffffffffffffffffffff16815260200190815260200160002060006101000a81548160ff0219169083151502179055506001600a60070160006101000a81548160ff021916908315150217905550565b600081600001549050919050565b6001816000016000828254019250508190555050565b6040518061012001604052806000815260200160608152602001600073ffffffffffffffffffffffffffffffffffffffff1681526020016000815260200160008152602001600015158152602001600081526020016000151581526020016000151581525090565b6000604051905090565b600080fd5b600080fd5b6000819050919050565b61178c81611779565b811461179757600080fd5b50565b6000813590506117a981611783565b92915050565b6000602082840312156117c5576117c461176f565b5b60006117d38482850161179a565b91505092915050565b6117e581611779565b82525050565b600081519050919050565b600082825260208201905092915050565b60005b8381101561182557808201518184015260208101905061180a565b60008484015250505050565b6000601f19601f8301169050919050565b600061184d826117eb565b61185781856117f6565b9350611867818560208601611807565b61187081611831565b840191505092915050565b600073ffffffffffffffffffffffffffffffffffffffff82169050919050565b60006118a68261187b565b9050919050565b6118b68161189b565b82525050565b60008115159050919050565b6118d1816118bc565b82525050565b6000610120820190506118ed600083018c6117dc565b81810360208301526118ff818b611842565b905061190e604083018a6118ad565b61191b60608301896117dc565b61192860808301886117dc565b61193560a08301876118c8565b61194260c08301866117dc565b61194f60e08301856118c8565b61195d6101008301846118c8565b9a9950505050505050505050565b600060208201905061198060008301846117dc565b92915050565b600080fd5b600080fd5b7f4e487b7100000000000000000000000000000000000000000000000000000000600052604160045260246000fd5b6119c882611831565b810181811067ffffffffffffffff821117156119e7576119e6611990565b5b80604052505050565b60006119fa611765565b9050611a0682826119bf565b919050565b600067ffffffffffffffff821115611a2657611a25611990565b5b611a2f82611831565b9050602081019050919050565b82818337600083830152505050565b6000611a5e611a5984611a0b565b6119f0565b905082815260208101848484011115611a7a57611a7961198b565b5b611a85848285611a3c565b509392505050565b600082601f830112611aa257611aa1611986565b5b8135611ab2848260208601611a4b565b91505092915050565b600080600060608486031215611ad457611ad361176f565b5b600084013567ffffffffffffffff811115611af257611af1611774565b5b611afe86828701611a8d565b9350506020611b0f8682870161179a565b9250506040611b208682870161179a565b9150509250925092565b611b3381611779565b82525050565b600082825260208201905092915050565b6000611b55826117eb565b611b5f8185611b39565b9350611b6f818560208601611807565b611b7881611831565b840191505092915050565b611b8c8161189b565b82525050565b611b9b816118bc565b82525050565b600061012083016000830151611bba6000860182611b2a565b5060208301518482036020860152611bd28282611b4a565b9150506040830151611be76040860182611b83565b506060830151611bfa6060860182611b2a565b506080830151611c0d6080860182611b2a565b5060a0830151611c2060a0860182611b92565b5060c0830151611c3360c0860182611b2a565b5060e0830151611c4660e0860182611b92565b50610100830151611c5b610100860182611b92565b508091505092915050565b60006020820190508181036000830152611c808184611ba1565b905092915050565b600081519050919050565b600082825260208201905092915050565b6000819050602082019050919050565b600061012083016000830151611ccd6000860182611b2a565b5060208301518482036020860152611ce58282611b4a565b9150506040830151611cfa6040860182611b83565b506060830151611d0d6060860182611b2a565b506080830151611d206080860182611b2a565b5060a0830151611d3360a0860182611b92565b5060c0830151611d4660c0860182611b2a565b5060e0830151611d5960e0860182611b92565b50610100830151611d6e610100860182611b92565b508091505092915050565b6000611d858383611cb4565b905092915050565b6000602082019050919050565b6000611da582611c88565b611daf8185611c93565b935083602082028501611dc185611ca4565b8060005b85811015611dfd5784840389528151611dde8582611d79565b9450611de983611d8d565b925060208a01995050600181019050611dc5565b50829750879550505050505092915050565b60006020820190508181036000830152611e298184611d9a565b905092915050565b6000602082019050611e4660008301846118ad565b92915050565b6000602082019050611e6160008301846118c8565b92915050565b7f4e487b7100000000000000000000000000000000000000000000000000000000600052602260045260246000fd5b60006002820490506001821680611eae57607f821691505b602082108103611ec157611ec0611e67565b5b50919050565b7f596f75206861766520616c7265616479206372656174656420612070726f706f60008201527f73616c20666f7220746869732070726f6a656374000000000000000000000000602082015250565b6000611f236034836117f6565b9150611f2e82611ec7565b604082019050919050565b60006020820190508181036000830152611f5281611f16565b9050919050565b7f506c6561736520666972737420636f6d706c65746520796f757220707265766960008201527f6f75732070726f6a656374730000000000000000000000000000000000000000602082015250565b6000611fb5602c836117f6565b9150611fc082611f59565b604082019050919050565b60006020820190508181036000830152611fe481611fa8565b9050919050565b60008190508160005260206000209050919050565b60006020601f8301049050919050565b600082821b905092915050565b60006008830261204d7fffffffffffffffffffffffffffffffffffffffffffffffffffffffffffffffff82612010565b6120578683612010565b95508019841693508086168417925050509392505050565b6000819050919050565b600061209461208f61208a84611779565b61206f565b611779565b9050919050565b6000819050919050565b6120ae83612079565b6120c26120ba8261209b565b84845461201d565b825550505050565b600090565b6120d76120ca565b6120e28184846120a5565b505050565b5b81811015612106576120fb6000826120cf565b6001810190506120e8565b5050565b601f82111561214b5761211c81611feb565b61212584612000565b81016020851015612134578190505b61214861214085612000565b8301826120e7565b50505b505050565b600082821c905092915050565b600061216e60001984600802612150565b1980831691505092915050565b6000612187838361215d565b9150826002028217905092915050565b6121a0826117eb565b67ffffffffffffffff8111156121b9576121b8611990565b5b6121c38254611e96565b6121ce82828561210a565b600060209050601f83116001811461220157600084156121ef578287015190505b6121f9858261217b565b865550612261565b601f19841661220f86611feb565b60005b8281101561223757848901518255600182019150602085019450602081019050612212565b868310156122545784890151612250601f89168261215d565b8355505b6001600288020188555050505b505050505050565b6000819050919050565b600061228e61228961228484612269565b61206f565b611779565b9050919050565b61229e81612273565b82525050565b6000610120820190506122ba600083018c6117dc565b81810360208301526122cc818b611842565b90506122db604083018a6118ad565b6122e860608301896117dc565b6122f560808301886117dc565b61230260a08301876118c8565b61230f60c0830186612295565b61231c60e08301856118c8565b61232a6101008301846118c8565b9a9950505050505050505050565b7f4f6e6c792050726f6a656374206f776e65722063616e2061636365737320736560008201527f6c65637465642070726f706f73616c2773206f776e6572000000000000000000602082015250565b60006123946037836117f6565b915061239f82612338565b604082019050919050565b600060208201905081810360008301526123c381612387565b9050919050565b7f4e487b7100000000000000000000000000000000000000000000000000000000600052603260045260246000fd5b7f4e487b7100000000000000000000000000000000000000000000000000000000600052601160045260246000fd5b600061243382611779565b91507fffffffffffffffffffffffffffffffffffffffffffffffffffffffffffffffff8203612465576124646123f9565b5b600182019050919050565b7f546869732050726f6a65637420497320416c726561647920436f6d706c65746560008201527f6400000000000000000000000000000000000000000000000000000000000000602082015250565b60006124cc6021836117f6565b91506124d782612470565b604082019050919050565b600060208201905081810360008301526124fb816124bf565b9050919050565b7f596f7520417265204e6f7420417574686f72697a656420546f2046696e616c6960008201527f7a6520546869732050726f6a6563740000000000000000000000000000000000602082015250565b600061255e602f836117f6565b915061256982612502565b604082019050919050565b6000602082019050818103600083015261258d81612551565b9050919050565b7f506c6561736520466972737420436f6d70656c657465205468652050726f6a6560008201527f6374204265666f72652046696e616c697a696e67204974000000000000000000602082015250565b60006125f06037836117f6565b91506125fb82612594565b604082019050919050565b6000602082019050818103600083015261261f816125e3565b9050919050565b7f546869732050726f6a656374204973204e6f742059657420417070726f766564600082015250565b600061265c6020836117f6565b915061266782612626565b602082019050919050565b6000602082019050818103600083015261268b8161264f565b9050919050565b7f467265656c616e63657220686173206e6f742079657420436f6d706c6574656460008201527f20746869732070726f6a65637400000000000000000000000000000000000000602082015250565b60006126ee602d836117f6565b91506126f982612692565b604082019050919050565b6000602082019050818103600083015261271d816126e1565b9050919050565b600061272f82611779565b915061273a83611779565b9250828203905081811115612752576127516123f9565b5b92915050565b7f4f6e6c792050726f6a656374204f776e65722043616e2043616c6c205468697360008201527f2046756e6374696f6e0000000000000000000000000000000000000000000000602082015250565b60006127b46029836117f6565b91506127bf82612758565b604082019050919050565b600060208201905081810360008301526127e3816127a7565b9050919050565b7f546869732050726f6a65637420497320416c726561647920417070726f76656460008201527f20546f20536f6d656f6e6520656c736500000000000000000000000000000000602082015250565b60006128466030836117f6565b9150612851826127ea565b604082019050919050565b6000602082019050818103600083015261287581612839565b9050919050565b7f4f6e6c792050726f6a656374204f776e65722043616e204170726f766520546860008201527f652050726f706f73616c73000000000000000000000000000000000000000000602082015250565b60006128d8602b836117f6565b91506128e38261287c565b604082019050919050565b60006020820190508181036000830152612907816128cb565b9050919050565b7f546869732050726f6a65637420497320416c726561647920436f6d706c65746560008201527f6420596f752043616e6e6f74204d616b6520416e796d6f726520417070726f7660208201527f616c730000000000000000000000000000000000000000000000000000000000604082015250565b60006129906043836117f6565b915061299b8261290e565b606082019050919050565b600060208201905081810360008301526129bf81612983565b9050919050565b6000815490506129d581611e96565b9050919050565b8181036129ea575050612ac2565b6129f3826129c6565b67ffffffffffffffff811115612a0c57612a0b611990565b5b612a168254611e96565b612a2182828561210a565b6000601f831160018114612a505760008415612a3e578287015490505b612a48858261217b565b865550612abb565b601f198416612a5e87611feb565b9650612a6986611feb565b60005b82811015612a9157848901548255600182019150600185019450602081019050612a6c565b86831015612aae5784890154612aaa601f89168261215d565b8355505b6001600288020188555050505b5050505050505b565b7f506c6561736520466972737420417070726f766520546869732050726f6a656360008201527f7400000000000000000000000000000000000000000000000000000000000000602082015250565b6000612b206021836117f6565b9150612b2b82612ac4565b604082019050919050565b60006020820190508181036000830152612b4f81612b13565b9050919050565b7f4f6e6c792070726f706f73616c206f776e65722063616e206d61726b2070726f60008201527f6a65637420617320636f6d706c65746500000000000000000000000000000000602082015250565b6000612bb26030836117f6565b9150612bbd82612b56565b604082019050919050565b60006020820190508181036000830152612be181612ba5565b9050919050565b7f596f75206861766520616c7265616479206d61726b656420746869732070726f60008201527f6a65637420617320636f6d706c65746500000000000000000000000000000000602082015250565b6000612c446030836117f6565b9150612c4f82612be8565b604082019050919050565b60006020820190508181036000830152612c7381612c37565b905091905056fea264697066735822122017bcb635d1dd184c949c24f09817ed8cf49ab58c0ea5a56b21efe7d41e74c95364736f6c63430008110033a2646970667358221220d5e0c1687d2c85b2a140f181fcbf018c9f88cdd65f1d794d881a1930a9f704cc64736f6c63430008110033",
  "linkReferences": {},
  "deployedLinkReferences": {}
}