{
  "_format": "hh-sol-artifact-1",
  "contractName": "ProjectFactory",
  "sourceName": "contracts/ProjectFactory.sol",
  "abi": [
    {
      "inputs": [],
      "stateMutability": "nonpayable",
      "type": "constructor"
    },
    {
      "anonymous": false,
      "inputs": [
        {
          "indexed": false,
          "internalType": "uint256",
          "name": "id",
          "type": "uint256"
        },
        {
          "indexed": false,
          "internalType": "string",
          "name": "title",
          "type": "string"
        },
        {
          "indexed": false,
          "internalType": "string",
          "name": "short_description",
          "type": "string"
        },
        {
          "indexed": false,
          "internalType": "string",
          "name": "description",
          "type": "string"
        },
        {
          "indexed": false,
          "internalType": "string",
          "name": "pdf",
          "type": "string"
        },
        {
          "indexed": false,
          "internalType": "string",
          "name": "images",
          "type": "string"
        },
        {
          "indexed": false,
          "internalType": "uint256",
          "name": "budget",
          "type": "uint256"
        },
        {
          "indexed": false,
          "internalType": "uint256",
          "name": "time",
          "type": "uint256"
        },
        {
          "indexed": false,
          "internalType": "uint256",
          "name": "deadLine",
          "type": "uint256"
        },
        {
          "indexed": false,
          "internalType": "address payable",
          "name": "owner",
          "type": "address"
        },
        {
          "indexed": false,
          "internalType": "contract Project",
          "name": "project",
          "type": "address"
        }
      ],
      "name": "ProjectCreated",
      "type": "event"
    },
    {
      "inputs": [],
      "name": "admin",
      "outputs": [
        {
          "internalType": "address payable",
          "name": "",
          "type": "address"
        }
      ],
      "stateMutability": "view",
      "type": "function"
    },
    {
      "inputs": [
        {
          "internalType": "string",
          "name": "_title",
          "type": "string"
        },
        {
          "internalType": "string",
          "name": "_short_description",
          "type": "string"
        },
        {
          "internalType": "string",
          "name": "_description",
          "type": "string"
        },
        {
          "internalType": "string",
          "name": "_pdf",
          "type": "string"
        },
        {
          "internalType": "string",
          "name": "_images",
          "type": "string"
        },
        {
          "internalType": "uint256",
          "name": "_budget",
          "type": "uint256"
        },
        {
          "internalType": "uint256",
          "name": "_deadline",
          "type": "uint256"
        }
      ],
      "name": "createProject",
      "outputs": [],
      "stateMutability": "payable",
      "type": "function"
    },
    {
      "inputs": [
        {
          "internalType": "uint256",
          "name": "project_id",
          "type": "uint256"
        },
        {
          "internalType": "uint256",
          "name": "new_deadline",
          "type": "uint256"
        }
      ],
      "name": "extendDeadline",
      "outputs": [],
      "stateMutability": "nonpayable",
      "type": "function"
    },
    {
      "inputs": [],
      "name": "getAllProjects",
      "outputs": [
        {
          "components": [
            {
              "internalType": "uint256",
              "name": "id",
              "type": "uint256"
            },
            {
              "internalType": "string",
              "name": "title",
              "type": "string"
            },
            {
              "internalType": "string",
              "name": "short_description",
              "type": "string"
            },
            {
              "internalType": "string",
              "name": "description",
              "type": "string"
            },
            {
              "internalType": "string",
              "name": "pdf",
              "type": "string"
            },
            {
              "internalType": "string",
              "name": "images",
              "type": "string"
            },
            {
              "internalType": "uint256",
              "name": "budget",
              "type": "uint256"
            },
            {
              "internalType": "uint256",
              "name": "time",
              "type": "uint256"
            },
            {
              "internalType": "uint256",
              "name": "deadLine",
              "type": "uint256"
            },
            {
              "internalType": "address payable",
              "name": "owner",
              "type": "address"
            },
            {
              "internalType": "contract Project",
              "name": "project",
              "type": "address"
            }
          ],
          "internalType": "struct ProjectFactory.ProjectInfo[]",
          "name": "",
          "type": "tuple[]"
        }
      ],
      "stateMutability": "view",
      "type": "function"
    },
    {
      "inputs": [],
      "name": "getBalance",
      "outputs": [
        {
          "internalType": "uint256",
          "name": "",
          "type": "uint256"
        }
      ],
      "stateMutability": "view",
      "type": "function"
    },
    {
      "inputs": [
        {
          "internalType": "uint256",
          "name": "projectId",
          "type": "uint256"
        }
      ],
      "name": "getLatestPriceMatic",
      "outputs": [
        {
          "internalType": "int256",
          "name": "",
          "type": "int256"
        }
      ],
      "stateMutability": "view",
      "type": "function"
    },
    {
      "inputs": [
        {
          "internalType": "uint256",
          "name": "_id",
          "type": "uint256"
        }
      ],
      "name": "getProjectbyId",
      "outputs": [
        {
          "components": [
            {
              "internalType": "uint256",
              "name": "id",
              "type": "uint256"
            },
            {
              "internalType": "string",
              "name": "title",
              "type": "string"
            },
            {
              "internalType": "string",
              "name": "short_description",
              "type": "string"
            },
            {
              "internalType": "string",
              "name": "description",
              "type": "string"
            },
            {
              "internalType": "string",
              "name": "pdf",
              "type": "string"
            },
            {
              "internalType": "string",
              "name": "images",
              "type": "string"
            },
            {
              "internalType": "uint256",
              "name": "budget",
              "type": "uint256"
            },
            {
              "internalType": "uint256",
              "name": "time",
              "type": "uint256"
            },
            {
              "internalType": "uint256",
              "name": "deadLine",
              "type": "uint256"
            },
            {
              "internalType": "address payable",
              "name": "owner",
              "type": "address"
            },
            {
              "internalType": "contract Project",
              "name": "project",
              "type": "address"
            }
          ],
          "internalType": "struct ProjectFactory.ProjectInfo",
          "name": "",
          "type": "tuple"
        }
      ],
      "stateMutability": "view",
      "type": "function"
    },
    {
      "inputs": [],
      "name": "getProjectsByOwner",
      "outputs": [
        {
          "components": [
            {
              "internalType": "uint256",
              "name": "id",
              "type": "uint256"
            },
            {
              "internalType": "string",
              "name": "title",
              "type": "string"
            },
            {
              "internalType": "string",
              "name": "short_description",
              "type": "string"
            },
            {
              "internalType": "string",
              "name": "description",
              "type": "string"
            },
            {
              "internalType": "string",
              "name": "pdf",
              "type": "string"
            },
            {
              "internalType": "string",
              "name": "images",
              "type": "string"
            },
            {
              "internalType": "uint256",
              "name": "budget",
              "type": "uint256"
            },
            {
              "internalType": "uint256",
              "name": "time",
              "type": "uint256"
            },
            {
              "internalType": "uint256",
              "name": "deadLine",
              "type": "uint256"
            },
            {
              "internalType": "address payable",
              "name": "owner",
              "type": "address"
            },
            {
              "internalType": "contract Project",
              "name": "project",
              "type": "address"
            }
          ],
          "internalType": "struct ProjectFactory.ProjectInfo[]",
          "name": "",
          "type": "tuple[]"
        }
      ],
      "stateMutability": "view",
      "type": "function"
    },
    {
      "inputs": [
        {
          "internalType": "address",
          "name": "",
          "type": "address"
        },
        {
          "internalType": "uint256",
          "name": "",
          "type": "uint256"
        }
      ],
      "name": "projectOwner",
      "outputs": [
        {
          "internalType": "uint256",
          "name": "id",
          "type": "uint256"
        },
        {
          "internalType": "string",
          "name": "title",
          "type": "string"
        },
        {
          "internalType": "string",
          "name": "short_description",
          "type": "string"
        },
        {
          "internalType": "string",
          "name": "description",
          "type": "string"
        },
        {
          "internalType": "string",
          "name": "pdf",
          "type": "string"
        },
        {
          "internalType": "string",
          "name": "images",
          "type": "string"
        },
        {
          "internalType": "uint256",
          "name": "budget",
          "type": "uint256"
        },
        {
          "internalType": "uint256",
          "name": "time",
          "type": "uint256"
        },
        {
          "internalType": "uint256",
          "name": "deadLine",
          "type": "uint256"
        },
        {
          "internalType": "address payable",
          "name": "owner",
          "type": "address"
        },
        {
          "internalType": "contract Project",
          "name": "project",
          "type": "address"
        }
      ],
      "stateMutability": "view",
      "type": "function"
    },
    {
      "stateMutability": "payable",
      "type": "receive"
    }
  ],
  "bytecode": "0x608060405234801561001057600080fd5b5033600160006101000a81548173ffffffffffffffffffffffffffffffffffffffff021916908373ffffffffffffffffffffffffffffffffffffffff16021790555073d0d5e3db44de05e9f294bb0a3beeaf030de24ada600260006101000a81548173ffffffffffffffffffffffffffffffffffffffff021916908373ffffffffffffffffffffffffffffffffffffffff160217905550615cdb806100b66000396000f3fe608060405260043610620000975760003560e01c806397c414c1116200006157806397c414c11462000162578063a7ee42de14620001a6578063b155db8814620001c6578063d61bb76a146200020a578063f851a4401462000258576200009f565b806312065fe014620000a45780632d1fdef614620000d45780634aae5f4d146200010257806380d038291462000132576200009f565b366200009f57005b600080fd5b348015620000b157600080fd5b50620000bc62000288565b604051620000cb9190620019ad565b60405180910390f35b348015620000e157600080fd5b50620001006004803603810190620000fa919062001a0f565b62000290565b005b3480156200010f57600080fd5b506200011a62000393565b60405162000129919062001da2565b60405180910390f35b3480156200013f57600080fd5b506200014a620008ba565b60405162000159919062001da2565b60405180910390f35b3480156200016f57600080fd5b506200018e600480360381019062000188919062001dc6565b62000d84565b6040516200019d919062001f19565b60405180910390f35b620001c46004803603810190620001be91906200208e565b62001190565b005b348015620001d357600080fd5b50620001f26004803603810190620001ec919062001dc6565b62001497565b604051620002019190620021f7565b60405180910390f35b3480156200021757600080fd5b5062000236600480360381019062000230919062002259565b6200153d565b6040516200024f9b9a9998979695949392919062002314565b60405180910390f35b3480156200026557600080fd5b5062000270620018b4565b6040516200027f9190620023f8565b60405180910390f35b600047905090565b60006003600084815260200190815260200160002090508060090160009054906101000a900473ffffffffffffffffffffffffffffffffffffffff1673ffffffffffffffffffffffffffffffffffffffff163373ffffffffffffffffffffffffffffffffffffffff16146200033c576040517f08c379a000000000000000000000000000000000000000000000000000000000815260040162000333906200248b565b60405180910390fd5b8060080154821162000385576040517f08c379a00000000000000000000000000000000000000000000000000000000081526004016200037c9062002523565b60405180910390fd5b818160080181905550505050565b60606000620003a36000620018da565b905060008167ffffffffffffffff811115620003c457620003c362001f47565b5b6040519080825280602002602001820160405280156200040157816020015b620003ed620018fe565b815260200190600190039081620003e35790505b509050600080600090505b83811015620008b05760006003600083815260200190815260200160002090503373ffffffffffffffffffffffffffffffffffffffff168160090160009054906101000a900473ffffffffffffffffffffffffffffffffffffffff1673ffffffffffffffffffffffffffffffffffffffff16036200089957806040518061016001604052908160008201548152602001600182018054620004ad9062002574565b80601f0160208091040260200160405190810160405280929190818152602001828054620004db9062002574565b80156200052c5780601f1062000500576101008083540402835291602001916200052c565b820191906000526020600020905b8154815290600101906020018083116200050e57829003601f168201915b50505050508152602001600282018054620005479062002574565b80601f0160208091040260200160405190810160405280929190818152602001828054620005759062002574565b8015620005c65780601f106200059a57610100808354040283529160200191620005c6565b820191906000526020600020905b815481529060010190602001808311620005a857829003601f168201915b50505050508152602001600382018054620005e19062002574565b80601f01602080910402602001604051908101604052809291908181526020018280546200060f9062002574565b8015620006605780601f10620006345761010080835404028352916020019162000660565b820191906000526020600020905b8154815290600101906020018083116200064257829003601f168201915b505050505081526020016004820180546200067b9062002574565b80601f0160208091040260200160405190810160405280929190818152602001828054620006a99062002574565b8015620006fa5780601f10620006ce57610100808354040283529160200191620006fa565b820191906000526020600020905b815481529060010190602001808311620006dc57829003601f168201915b50505050508152602001600582018054620007159062002574565b80601f0160208091040260200160405190810160405280929190818152602001828054620007439062002574565b8015620007945780601f10620007685761010080835404028352916020019162000794565b820191906000526020600020905b8154815290600101906020018083116200077657829003601f168201915b505050505081526020016006820154815260200160078201548152602001600882015481526020016009820160009054906101000a900473ffffffffffffffffffffffffffffffffffffffff1673ffffffffffffffffffffffffffffffffffffffff1673ffffffffffffffffffffffffffffffffffffffff168152602001600a820160009054906101000a900473ffffffffffffffffffffffffffffffffffffffff1673ffffffffffffffffffffffffffffffffffffffff1673ffffffffffffffffffffffffffffffffffffffff16815250508484815181106200087d576200087c620025a9565b5b60200260200101819052508280620008959062002607565b9350505b508080620008a79062002607565b9150506200040c565b5081935050505090565b60606000620008ca6000620018da565b90506000808267ffffffffffffffff811115620008ec57620008eb62001f47565b5b6040519080825280602002602001820160405280156200092957816020015b62000915620018fe565b8152602001906001900390816200090b5790505b50905060005b8381101562000d7a576000600360008381526020019081526020016000206040518061016001604052908160008201548152602001600182018054620009759062002574565b80601f0160208091040260200160405190810160405280929190818152602001828054620009a39062002574565b8015620009f45780601f10620009c857610100808354040283529160200191620009f4565b820191906000526020600020905b815481529060010190602001808311620009d657829003601f168201915b5050505050815260200160028201805462000a0f9062002574565b80601f016020809104026020016040519081016040528092919081815260200182805462000a3d9062002574565b801562000a8e5780601f1062000a625761010080835404028352916020019162000a8e565b820191906000526020600020905b81548152906001019060200180831162000a7057829003601f168201915b5050505050815260200160038201805462000aa99062002574565b80601f016020809104026020016040519081016040528092919081815260200182805462000ad79062002574565b801562000b285780601f1062000afc5761010080835404028352916020019162000b28565b820191906000526020600020905b81548152906001019060200180831162000b0a57829003601f168201915b5050505050815260200160048201805462000b439062002574565b80601f016020809104026020016040519081016040528092919081815260200182805462000b719062002574565b801562000bc25780601f1062000b965761010080835404028352916020019162000bc2565b820191906000526020600020905b81548152906001019060200180831162000ba457829003601f168201915b5050505050815260200160058201805462000bdd9062002574565b80601f016020809104026020016040519081016040528092919081815260200182805462000c0b9062002574565b801562000c5c5780601f1062000c305761010080835404028352916020019162000c5c565b820191906000526020600020905b81548152906001019060200180831162000c3e57829003601f168201915b505050505081526020016006820154815260200160078201548152602001600882015481526020016009820160009054906101000a900473ffffffffffffffffffffffffffffffffffffffff1673ffffffffffffffffffffffffffffffffffffffff1673ffffffffffffffffffffffffffffffffffffffff168152602001600a820160009054906101000a900473ffffffffffffffffffffffffffffffffffffffff1673ffffffffffffffffffffffffffffffffffffffff1673ffffffffffffffffffffffffffffffffffffffff168152505090508083858151811062000d485762000d47620025a9565b5b6020026020010181905250838062000d609062002607565b94505050808062000d719062002607565b9150506200092f565b5080935050505090565b62000d8e620018fe565b600060036000848152602001908152602001600020604051806101600160405290816000820154815260200160018201805462000dcb9062002574565b80601f016020809104026020016040519081016040528092919081815260200182805462000df99062002574565b801562000e4a5780601f1062000e1e5761010080835404028352916020019162000e4a565b820191906000526020600020905b81548152906001019060200180831162000e2c57829003601f168201915b5050505050815260200160028201805462000e659062002574565b80601f016020809104026020016040519081016040528092919081815260200182805462000e939062002574565b801562000ee45780601f1062000eb85761010080835404028352916020019162000ee4565b820191906000526020600020905b81548152906001019060200180831162000ec657829003601f168201915b5050505050815260200160038201805462000eff9062002574565b80601f016020809104026020016040519081016040528092919081815260200182805462000f2d9062002574565b801562000f7e5780601f1062000f525761010080835404028352916020019162000f7e565b820191906000526020600020905b81548152906001019060200180831162000f6057829003601f168201915b5050505050815260200160048201805462000f999062002574565b80601f016020809104026020016040519081016040528092919081815260200182805462000fc79062002574565b8015620010185780601f1062000fec5761010080835404028352916020019162001018565b820191906000526020600020905b81548152906001019060200180831162000ffa57829003601f168201915b50505050508152602001600582018054620010339062002574565b80601f0160208091040260200160405190810160405280929190818152602001828054620010619062002574565b8015620010b25780601f106200108657610100808354040283529160200191620010b2565b820191906000526020600020905b8154815290600101906020018083116200109457829003601f168201915b505050505081526020016006820154815260200160078201548152602001600882015481526020016009820160009054906101000a900473ffffffffffffffffffffffffffffffffffffffff1673ffffffffffffffffffffffffffffffffffffffff1673ffffffffffffffffffffffffffffffffffffffff168152602001600a820160009054906101000a900473ffffffffffffffffffffffffffffffffffffffff1673ffffffffffffffffffffffffffffffffffffffff1673ffffffffffffffffffffffffffffffffffffffff1681525050905080915050919050565b813414620011d5576040517f08c379a0000000000000000000000000000000000000000000000000000000008152600401620011cc90620026ca565b60405180910390fd5b6000620011e36000620018da565b90506000338385604051620011f89062001984565b6200120693929190620026ec565b604051809103906000f08015801562001223573d6000803e3d6000fd5b50905060006040518061016001604052808481526020018b81526020018a81526020018981526020018881526020018781526020018681526020014281526020018581526020013373ffffffffffffffffffffffffffffffffffffffff1681526020018373ffffffffffffffffffffffffffffffffffffffff1681525090508060036000858152602001908152602001600020600082015181600001556020820151816001019081620012d79190620028f1565b506040820151816002019081620012ef9190620028f1565b506060820151816003019081620013079190620028f1565b5060808201518160040190816200131f9190620028f1565b5060a0820151816005019081620013379190620028f1565b5060c0820151816006015560e0820151816007015561010082015181600801556101208201518160090160006101000a81548173ffffffffffffffffffffffffffffffffffffffff021916908373ffffffffffffffffffffffffffffffffffffffff16021790555061014082015181600a0160006101000a81548173ffffffffffffffffffffffffffffffffffffffff021916908373ffffffffffffffffffffffffffffffffffffffff160217905550905050620013f66000620018e8565b8173ffffffffffffffffffffffffffffffffffffffff166108fc349081150290604051600060405180830381858888f193505050501580156200143d573d6000803e3d6000fd5b507f71118d02c87017cad0298c6ece1cda0b1bcdb0a412b2a819038f352216c400e3838b8b8b8b8b8b428c338c604051620014839b9a9998979695949392919062002314565b60405180910390a150505050505050505050565b600080600260009054906101000a900473ffffffffffffffffffffffffffffffffffffffff1673ffffffffffffffffffffffffffffffffffffffff1663feaf968c6040518163ffffffff1660e01b815260040160a060405180830381865afa15801562001508573d6000803e3d6000fd5b505050506040513d601f19601f820116820180604052508101906200152e919062002a67565b50505091505080915050919050565b600460205281600052604060002060205280600052604060002060009150915050806000015490806001018054620015759062002574565b80601f0160208091040260200160405190810160405280929190818152602001828054620015a39062002574565b8015620015f45780601f10620015c857610100808354040283529160200191620015f4565b820191906000526020600020905b815481529060010190602001808311620015d657829003601f168201915b5050505050908060020180546200160b9062002574565b80601f0160208091040260200160405190810160405280929190818152602001828054620016399062002574565b80156200168a5780601f106200165e576101008083540402835291602001916200168a565b820191906000526020600020905b8154815290600101906020018083116200166c57829003601f168201915b505050505090806003018054620016a19062002574565b80601f0160208091040260200160405190810160405280929190818152602001828054620016cf9062002574565b8015620017205780601f10620016f45761010080835404028352916020019162001720565b820191906000526020600020905b8154815290600101906020018083116200170257829003601f168201915b505050505090806004018054620017379062002574565b80601f0160208091040260200160405190810160405280929190818152602001828054620017659062002574565b8015620017b65780601f106200178a57610100808354040283529160200191620017b6565b820191906000526020600020905b8154815290600101906020018083116200179857829003601f168201915b505050505090806005018054620017cd9062002574565b80601f0160208091040260200160405190810160405280929190818152602001828054620017fb9062002574565b80156200184c5780601f1062001820576101008083540402835291602001916200184c565b820191906000526020600020905b8154815290600101906020018083116200182e57829003601f168201915b5050505050908060060154908060070154908060080154908060090160009054906101000a900473ffffffffffffffffffffffffffffffffffffffff169080600a0160009054906101000a900473ffffffffffffffffffffffffffffffffffffffff1690508b565b600160009054906101000a900473ffffffffffffffffffffffffffffffffffffffff1681565b600081600001549050919050565b6001816000016000828254019250508190555050565b604051806101600160405280600081526020016060815260200160608152602001606081526020016060815260200160608152602001600081526020016000815260200160008152602001600073ffffffffffffffffffffffffffffffffffffffff168152602001600073ffffffffffffffffffffffffffffffffffffffff1681525090565b6131b68062002af083390190565b6000819050919050565b620019a78162001992565b82525050565b6000602082019050620019c460008301846200199c565b92915050565b6000604051905090565b600080fd5b600080fd5b620019e98162001992565b8114620019f557600080fd5b50565b60008135905062001a0981620019de565b92915050565b6000806040838503121562001a295762001a28620019d4565b5b600062001a3985828601620019f8565b925050602062001a4c85828601620019f8565b9150509250929050565b600081519050919050565b600082825260208201905092915050565b6000819050602082019050919050565b62001a8d8162001992565b82525050565b600081519050919050565b600082825260208201905092915050565b60005b8381101562001acf57808201518184015260208101905062001ab2565b60008484015250505050565b6000601f19601f8301169050919050565b600062001af98262001a93565b62001b05818562001a9e565b935062001b1781856020860162001aaf565b62001b228162001adb565b840191505092915050565b600073ffffffffffffffffffffffffffffffffffffffff82169050919050565b600062001b5a8262001b2d565b9050919050565b62001b6c8162001b4d565b82525050565b6000819050919050565b600062001b9d62001b9762001b918462001b2d565b62001b72565b62001b2d565b9050919050565b600062001bb18262001b7c565b9050919050565b600062001bc58262001ba4565b9050919050565b62001bd78162001bb8565b82525050565b60006101608301600083015162001bf8600086018262001a82565b506020830151848203602086015262001c12828262001aec565b9150506040830151848203604086015262001c2e828262001aec565b9150506060830151848203606086015262001c4a828262001aec565b9150506080830151848203608086015262001c66828262001aec565b91505060a083015184820360a086015262001c82828262001aec565b91505060c083015162001c9960c086018262001a82565b5060e083015162001cae60e086018262001a82565b5061010083015162001cc561010086018262001a82565b5061012083015162001cdc61012086018262001b61565b5061014083015162001cf361014086018262001bcc565b508091505092915050565b600062001d0c838362001bdd565b905092915050565b6000602082019050919050565b600062001d2e8262001a56565b62001d3a818562001a61565b93508360208202850162001d4e8562001a72565b8060005b8581101562001d90578484038952815162001d6e858262001cfe565b945062001d7b8362001d14565b925060208a0199505060018101905062001d52565b50829750879550505050505092915050565b6000602082019050818103600083015262001dbe818462001d21565b905092915050565b60006020828403121562001ddf5762001dde620019d4565b5b600062001def84828501620019f8565b91505092915050565b60006101608301600083015162001e13600086018262001a82565b506020830151848203602086015262001e2d828262001aec565b9150506040830151848203604086015262001e49828262001aec565b9150506060830151848203606086015262001e65828262001aec565b9150506080830151848203608086015262001e81828262001aec565b91505060a083015184820360a086015262001e9d828262001aec565b91505060c083015162001eb460c086018262001a82565b5060e083015162001ec960e086018262001a82565b5061010083015162001ee061010086018262001a82565b5061012083015162001ef761012086018262001b61565b5061014083015162001f0e61014086018262001bcc565b508091505092915050565b6000602082019050818103600083015262001f35818462001df8565b905092915050565b600080fd5b600080fd5b7f4e487b7100000000000000000000000000000000000000000000000000000000600052604160045260246000fd5b62001f818262001adb565b810181811067ffffffffffffffff8211171562001fa35762001fa262001f47565b5b80604052505050565b600062001fb8620019ca565b905062001fc6828262001f76565b919050565b600067ffffffffffffffff82111562001fe95762001fe862001f47565b5b62001ff48262001adb565b9050602081019050919050565b82818337600083830152505050565b600062002027620020218462001fcb565b62001fac565b90508281526020810184848401111562002046576200204562001f42565b5b6200205384828562002001565b509392505050565b600082601f83011262002073576200207262001f3d565b5b81356200208584826020860162002010565b91505092915050565b600080600080600080600060e0888a031215620020b057620020af620019d4565b5b600088013567ffffffffffffffff811115620020d157620020d0620019d9565b5b620020df8a828b016200205b565b975050602088013567ffffffffffffffff811115620021035762002102620019d9565b5b620021118a828b016200205b565b965050604088013567ffffffffffffffff811115620021355762002134620019d9565b5b620021438a828b016200205b565b955050606088013567ffffffffffffffff811115620021675762002166620019d9565b5b620021758a828b016200205b565b945050608088013567ffffffffffffffff811115620021995762002198620019d9565b5b620021a78a828b016200205b565b93505060a0620021ba8a828b01620019f8565b92505060c0620021cd8a828b01620019f8565b91505092959891949750929550565b6000819050919050565b620021f181620021dc565b82525050565b60006020820190506200220e6000830184620021e6565b92915050565b6000620022218262001b2d565b9050919050565b620022338162002214565b81146200223f57600080fd5b50565b600081359050620022538162002228565b92915050565b60008060408385031215620022735762002272620019d4565b5b6000620022838582860162002242565b92505060206200229685828601620019f8565b9150509250929050565b600082825260208201905092915050565b6000620022be8262001a93565b620022ca8185620022a0565b9350620022dc81856020860162001aaf565b620022e78162001adb565b840191505092915050565b620022fd8162001b4d565b82525050565b6200230e8162001bb8565b82525050565b6000610160820190506200232c600083018e6200199c565b818103602083015262002340818d620022b1565b9050818103604083015262002356818c620022b1565b905081810360608301526200236c818b620022b1565b9050818103608083015262002382818a620022b1565b905081810360a0830152620023988189620022b1565b9050620023a960c08301886200199c565b620023b860e08301876200199c565b620023c86101008301866200199c565b620023d8610120830185620022f2565b620023e861014083018462002303565b9c9b505050505050505050505050565b60006020820190506200240f6000830184620022f2565b92915050565b7f4f6e6c792070726f6a656374206f776e65722063616e20657874656e6420646560008201527f61646c696e65206f6620746869732070726f6a65637400000000000000000000602082015250565b600062002473603683620022a0565b9150620024808262002415565b604082019050919050565b60006020820190508181036000830152620024a68162002464565b9050919050565b7f706c656173652067697665206120646561646c696e65206f662067726561746560008201527f72207468616e2063757272656e7420646561646c696e65000000000000000000602082015250565b60006200250b603783620022a0565b91506200251882620024ad565b604082019050919050565b600060208201905081810360008301526200253e81620024fc565b9050919050565b7f4e487b7100000000000000000000000000000000000000000000000000000000600052602260045260246000fd5b600060028204905060018216806200258d57607f821691505b602082108103620025a357620025a262002545565b5b50919050565b7f4e487b7100000000000000000000000000000000000000000000000000000000600052603260045260246000fd5b7f4e487b7100000000000000000000000000000000000000000000000000000000600052601160045260246000fd5b6000620026148262001992565b91507fffffffffffffffffffffffffffffffffffffffffffffffffffffffffffffffff8203620026495762002648620025d8565b5b600182019050919050565b7f506c65617365205472616e736665722054686520416d6f756e7420457175616c60008201527f20546f20596f75722050726f6a65637420427564676574000000000000000000602082015250565b6000620026b2603783620022a0565b9150620026bf8262002654565b604082019050919050565b60006020820190508181036000830152620026e581620026a3565b9050919050565b6000606082019050620027036000830186620022f2565b6200271260208301856200199c565b6200272160408301846200199c565b949350505050565b60008190508160005260206000209050919050565b60006020601f8301049050919050565b600082821b905092915050565b6000600883026200278d7fffffffffffffffffffffffffffffffffffffffffffffffffffffffffffffffff826200274e565b6200279986836200274e565b95508019841693508086168417925050509392505050565b6000620027d2620027cc620027c68462001992565b62001b72565b62001992565b9050919050565b6000819050919050565b620027ee83620027b1565b62002806620027fd82620027d9565b8484546200275b565b825550505050565b600090565b6200281d6200280e565b6200282a818484620027e3565b505050565b5b8181101562002852576200284660008262002813565b60018101905062002830565b5050565b601f821115620028a1576200286b8162002729565b62002876846200273e565b8101602085101562002886578190505b6200289e62002895856200273e565b8301826200282f565b50505b505050565b600082821c905092915050565b6000620028c660001984600802620028a6565b1980831691505092915050565b6000620028e18383620028b3565b9150826002028217905092915050565b620028fc8262001a93565b67ffffffffffffffff81111562002918576200291762001f47565b5b62002924825462002574565b6200293182828562002856565b600060209050601f83116001811462002969576000841562002954578287015190505b620029608582620028d3565b865550620029d0565b601f198416620029798662002729565b60005b82811015620029a3578489015182556001820191506020850194506020810190506200297c565b86831015620029c35784890151620029bf601f891682620028b3565b8355505b6001600288020188555050505b505050505050565b600069ffffffffffffffffffff82169050919050565b620029f981620029d8565b811462002a0557600080fd5b50565b60008151905062002a1981620029ee565b92915050565b62002a2a81620021dc565b811462002a3657600080fd5b50565b60008151905062002a4a8162002a1f565b92915050565b60008151905062002a6181620019de565b92915050565b600080600080600060a0868803121562002a865762002a85620019d4565b5b600062002a968882890162002a08565b955050602062002aa98882890162002a39565b945050604062002abc8882890162002a50565b935050606062002acf8882890162002a50565b925050608062002ae28882890162002a08565b915050929550929590935056fe60806040526000600460006101000a81548160ff0219169083151502179055506000600960006101000a81548160ff0219169083151502179055503480156200004757600080fd5b50604051620031b6380380620031b683398181016040528101906200006d919062000198565b82600160006101000a81548173ffffffffffffffffffffffffffffffffffffffff021916908373ffffffffffffffffffffffffffffffffffffffff16021790555081600281905550806003819055506000600460016101000a81548160ff02191690836003811115620000e557620000e4620001f4565b5b021790555050505062000223565b600080fd5b600073ffffffffffffffffffffffffffffffffffffffff82169050919050565b60006200012582620000f8565b9050919050565b620001378162000118565b81146200014357600080fd5b50565b60008151905062000157816200012c565b92915050565b6000819050919050565b62000172816200015d565b81146200017e57600080fd5b50565b600081519050620001928162000167565b92915050565b600080600060608486031215620001b457620001b3620000f3565b5b6000620001c48682870162000146565b9350506020620001d78682870162000181565b9250506040620001ea8682870162000181565b9150509250925092565b7f4e487b7100000000000000000000000000000000000000000000000000000000600052602160045260246000fd5b612f8380620002336000396000f3fe6080604052600436106100e15760003560e01c8063a0a2a6c01161007f578063a6a2cb0511610059578063a6a2cb051461029d578063b19b0afe146102d0578063e7aa3afc146102fb578063ecc254b314610326576100e8565b8063a0a2a6c01461021c578063a1b99fc214610247578063a4475ce414610272576100e8565b80632a9cc141116100bb5780632a9cc1411461018657806362564c48146101b15780637417882c146101dc57806398951b56146101f3576100e8565b8063013cf08b146100ed57806312065fe01461013257806322e2e12d1461015d576100e8565b366100e857005b600080fd5b3480156100f957600080fd5b50610114600480360381019061010f9190611a24565b61033d565b60405161012999989796959493929190611b4c565b60405180910390f35b34801561013e57600080fd5b5061014761045a565b6040516101549190611be0565b60405180910390f35b34801561016957600080fd5b50610184600480360381019061017f9190611d30565b610462565b005b34801561019257600080fd5b5061019b610813565b6040516101a89190611edb565b60405180910390f35b3480156101bd57600080fd5b506101c6610a1f565b6040516101d39190612084565b60405180910390f35b3480156101e857600080fd5b506101f1610c62565b005b3480156101ff57600080fd5b5061021a60048036038101906102159190611a24565b610f97565b005b34801561022857600080fd5b506102316113cb565b60405161023e919061211d565b60405180910390f35b34801561025357600080fd5b5061025c6113de565b6040516102699190612159565b60405180910390f35b34801561027e57600080fd5b50610287611404565b6040516102949190612174565b60405180910390f35b3480156102a957600080fd5b506102b261142a565b6040516102c799989796959493929190611b4c565b60405180910390f35b3480156102dc57600080fd5b506102e5611535565b6040516102f2919061218f565b60405180910390f35b34801561030757600080fd5b50610310611548565b60405161031d91906121aa565b60405180910390f35b34801561033257600080fd5b5061033b61172d565b005b6005602052806000526040600020600091509050806000015490806001018054610366906121fb565b80601f0160208091040260200160405190810160405280929190818152602001828054610392906121fb565b80156103df5780601f106103b4576101008083540402835291602001916103df565b820191906000526020600020905b8154815290600101906020018083116103c257829003601f168201915b5050505050908060020160009054906101000a900473ffffffffffffffffffffffffffffffffffffffff16908060030154908060040154908060050160009054906101000a900460ff16908060060154908060070160009054906101000a900460ff16908060070160019054906101000a900460ff16905089565b600047905090565b600660003373ffffffffffffffffffffffffffffffffffffffff1673ffffffffffffffffffffffffffffffffffffffff16815260200190815260200160002060009054906101000a900460ff16156104ef576040517f08c379a00000000000000000000000000000000000000000000000000000000081526004016104e69061229e565b60405180910390fd5b600860003373ffffffffffffffffffffffffffffffffffffffff1673ffffffffffffffffffffffffffffffffffffffff16815260200190815260200160002060009054906101000a900460ff161561057c576040517f08c379a000000000000000000000000000000000000000000000000000000000815260040161057390612330565b60405180910390fd5b600160038111156105905761058f6120a6565b5b600460019054906101000a900460ff1660038111156105b2576105b16120a6565b5b036105f2576040517f08c379a00000000000000000000000000000000000000000000000000000000081526004016105e9906123c2565b60405180910390fd5b60006105fe600061194e565b905060006040518061012001604052808381526020018681526020013373ffffffffffffffffffffffffffffffffffffffff168152602001858152602001848152602001600015158152602001600081526020016000151581526020016000151581525090506001600660003373ffffffffffffffffffffffffffffffffffffffff1673ffffffffffffffffffffffffffffffffffffffff16815260200190815260200160002060006101000a81548160ff02191690831515021790555080600560008481526020019081526020016000206000820151816000015560208201518160010190816106ef919061258e565b5060408201518160020160006101000a81548173ffffffffffffffffffffffffffffffffffffffff021916908373ffffffffffffffffffffffffffffffffffffffff160217905550606082015181600301556080820151816004015560a08201518160050160006101000a81548160ff02191690831515021790555060c0820151816006015560e08201518160070160006101000a81548160ff0219169083151502179055506101008201518160070160016101000a81548160ff0219169083151502179055509050506107c3600061195c565b7fb3080e016b94f1edbaf8dc52950b1b3debd550a7662d4db0cb404a7217047e8282863387876000806000806040516108049998979695949392919061269b565b60405180910390a15050505050565b61081b611972565b600160009054906101000a900473ffffffffffffffffffffffffffffffffffffffff1673ffffffffffffffffffffffffffffffffffffffff163373ffffffffffffffffffffffffffffffffffffffff16146108ab576040517f08c379a00000000000000000000000000000000000000000000000000000000081526004016108a2906127a1565b60405180910390fd5b600a60405180610120016040529081600082015481526020016001820180546108d3906121fb565b80601f01602080910402602001604051908101604052809291908181526020018280546108ff906121fb565b801561094c5780601f106109215761010080835404028352916020019161094c565b820191906000526020600020905b81548152906001019060200180831161092f57829003601f168201915b505050505081526020016002820160009054906101000a900473ffffffffffffffffffffffffffffffffffffffff1673ffffffffffffffffffffffffffffffffffffffff1673ffffffffffffffffffffffffffffffffffffffff16815260200160038201548152602001600482015481526020016005820160009054906101000a900460ff16151515158152602001600682015481526020016007820160009054906101000a900460ff161515151581526020016007820160019054906101000a900460ff161515151581525050905090565b60606000610a2d600061194e565b905060008167ffffffffffffffff811115610a4b57610a4a611c05565b5b604051908082528060200260200182016040528015610a8457816020015b610a71611972565b815260200190600190039081610a695790505b5090506000805b83811015610c58576000600560008381526020019081526020016000206040518061012001604052908160008201548152602001600182018054610ace906121fb565b80601f0160208091040260200160405190810160405280929190818152602001828054610afa906121fb565b8015610b475780601f10610b1c57610100808354040283529160200191610b47565b820191906000526020600020905b815481529060010190602001808311610b2a57829003601f168201915b505050505081526020016002820160009054906101000a900473ffffffffffffffffffffffffffffffffffffffff1673ffffffffffffffffffffffffffffffffffffffff1673ffffffffffffffffffffffffffffffffffffffff16815260200160038201548152602001600482015481526020016005820160009054906101000a900460ff16151515158152602001600682015481526020016007820160009054906101000a900460ff161515151581526020016007820160019054906101000a900460ff161515151581525050905080848481518110610c2b57610c2a6127c1565b5b60200260200101819052508280610c419061281f565b935050508080610c509061281f565b915050610a8b565b5081935050505090565b600380811115610c7557610c746120a6565b5b600460019054906101000a900460ff166003811115610c9757610c966120a6565b5b03610cd7576040517f08c379a0000000000000000000000000000000000000000000000000000000008152600401610cce906128d9565b60405180910390fd5b600160009054906101000a900473ffffffffffffffffffffffffffffffffffffffff1673ffffffffffffffffffffffffffffffffffffffff163373ffffffffffffffffffffffffffffffffffffffff1614610d67576040517f08c379a0000000000000000000000000000000000000000000000000000000008152600401610d5e9061296b565b60405180910390fd5b60026003811115610d7b57610d7a6120a6565b5b600460019054906101000a900460ff166003811115610d9d57610d9c6120a6565b5b14610ddd576040517f08c379a0000000000000000000000000000000000000000000000000000000008152600401610dd4906129d7565b60405180910390fd5b6000600a60030154600354610df291906129f7565b9050600160009054906101000a900473ffffffffffffffffffffffffffffffffffffffff1673ffffffffffffffffffffffffffffffffffffffff166108fc829081150290604051600060405180830381858888f19350505050158015610e5c573d6000803e3d6000fd5b50600a60020160009054906101000a900473ffffffffffffffffffffffffffffffffffffffff1673ffffffffffffffffffffffffffffffffffffffff166108fc600a600301549081150290604051600060405180830381858888f19350505050158015610ecd573d6000803e3d6000fd5b506001600a60070160016101000a81548160ff021916908315150217905550600060086000600a60020160009054906101000a900473ffffffffffffffffffffffffffffffffffffffff1673ffffffffffffffffffffffffffffffffffffffff1673ffffffffffffffffffffffffffffffffffffffff16815260200190815260200160002060006101000a81548160ff0219169083151502179055506003600460016101000a81548160ff02191690836003811115610f8f57610f8e6120a6565b5b021790555050565b600160009054906101000a900473ffffffffffffffffffffffffffffffffffffffff1673ffffffffffffffffffffffffffffffffffffffff163373ffffffffffffffffffffffffffffffffffffffff1614611027576040517f08c379a000000000000000000000000000000000000000000000000000000000815260040161101e90612a9d565b60405180910390fd5b600060056000838152602001908152602001600020905060016003811115611052576110516120a6565b5b600460019054906101000a900460ff166003811115611074576110736120a6565b5b036110b4576040517f08c379a00000000000000000000000000000000000000000000000000000000081526004016110ab90612b2f565b60405180910390fd5b600160009054906101000a900473ffffffffffffffffffffffffffffffffffffffff1673ffffffffffffffffffffffffffffffffffffffff163373ffffffffffffffffffffffffffffffffffffffff1614611144576040517f08c379a000000000000000000000000000000000000000000000000000000000815260040161113b90612bc1565b60405180910390fd5b6002544210611188576040517f08c379a000000000000000000000000000000000000000000000000000000000815260040161117f90612c79565b60405180910390fd5b42816006018190555060018160050160006101000a81548160ff02191690831515021790555080600a60008201548160000155600182018160010190816111cf9190612caf565b506002820160009054906101000a900473ffffffffffffffffffffffffffffffffffffffff168160020160006101000a81548173ffffffffffffffffffffffffffffffffffffffff021916908373ffffffffffffffffffffffffffffffffffffffff16021790555060038201548160030155600482015481600401556005820160009054906101000a900460ff168160050160006101000a81548160ff021916908315150217905550600682015481600601556007820160009054906101000a900460ff168160070160006101000a81548160ff0219169083151502179055506007820160019054906101000a900460ff168160070160016101000a81548160ff0219169083151502179055509050506001600860003373ffffffffffffffffffffffffffffffffffffffff1673ffffffffffffffffffffffffffffffffffffffff16815260200190815260200160002060006101000a81548160ff0219169083151502179055506001600460016101000a81548160ff0219169083600381111561135d5761135c6120a6565b5b02179055508060020160009054906101000a900473ffffffffffffffffffffffffffffffffffffffff16601260006101000a81548173ffffffffffffffffffffffffffffffffffffffff021916908373ffffffffffffffffffffffffffffffffffffffff1602179055505050565b600460019054906101000a900460ff1681565b601260009054906101000a900473ffffffffffffffffffffffffffffffffffffffff1681565b600160009054906101000a900473ffffffffffffffffffffffffffffffffffffffff1681565b600a806000015490806001018054611441906121fb565b80601f016020809104026020016040519081016040528092919081815260200182805461146d906121fb565b80156114ba5780601f1061148f576101008083540402835291602001916114ba565b820191906000526020600020905b81548152906001019060200180831161149d57829003601f168201915b5050505050908060020160009054906101000a900473ffffffffffffffffffffffffffffffffffffffff16908060030154908060040154908060050160009054906101000a900460ff16908060060154908060070160009054906101000a900460ff16908060070160019054906101000a900460ff16905089565b600960009054906101000a900460ff1681565b60606000600381111561155e5761155d6120a6565b5b600460019054906101000a900460ff1660038111156115805761157f6120a6565b5b036115c2576040518060400160405280600481526020017f4f70656e00000000000000000000000000000000000000000000000000000000815250905061172a565b600160038111156115d6576115d56120a6565b5b600460019054906101000a900460ff1660038111156115f8576115f76120a6565b5b0361163a576040518060400160405280600b81526020017f496e2050726f6772657373000000000000000000000000000000000000000000815250905061172a565b6002600381111561164e5761164d6120a6565b5b600460019054906101000a900460ff1660038111156116705761166f6120a6565b5b036116b2576040518060400160405280601281526020017f4d61726b656420417320436f6d706c6574650000000000000000000000000000815250905061172a565b6003808111156116c5576116c46120a6565b5b600460019054906101000a900460ff1660038111156116e7576116e66120a6565b5b03611729576040518060400160405280600981526020017f436f6d706c657465640000000000000000000000000000000000000000000000815250905061172a565b5b90565b60016003811115611741576117406120a6565b5b600460019054906101000a900460ff166003811115611763576117626120a6565b5b146117a3576040517f08c379a000000000000000000000000000000000000000000000000000000000815260040161179a90612e09565b60405180910390fd5b6003808111156117b6576117b56120a6565b5b600460019054906101000a900460ff1660038111156117d8576117d76120a6565b5b03611818576040517f08c379a000000000000000000000000000000000000000000000000000000000815260040161180f906128d9565b60405180910390fd5b600a60020160009054906101000a900473ffffffffffffffffffffffffffffffffffffffff1673ffffffffffffffffffffffffffffffffffffffff163373ffffffffffffffffffffffffffffffffffffffff16146118ab576040517f08c379a00000000000000000000000000000000000000000000000000000000081526004016118a290612e9b565b60405180910390fd5b600260038111156118bf576118be6120a6565b5b600460019054906101000a900460ff1660038111156118e1576118e06120a6565b5b03611921576040517f08c379a000000000000000000000000000000000000000000000000000000000815260040161191890612f2d565b60405180910390fd5b6002600460016101000a81548160ff02191690836003811115611947576119466120a6565b5b0217905550565b600081600001549050919050565b6001816000016000828254019250508190555050565b6040518061012001604052806000815260200160608152602001600073ffffffffffffffffffffffffffffffffffffffff1681526020016000815260200160008152602001600015158152602001600081526020016000151581526020016000151581525090565b6000604051905090565b600080fd5b600080fd5b6000819050919050565b611a01816119ee565b8114611a0c57600080fd5b50565b600081359050611a1e816119f8565b92915050565b600060208284031215611a3a57611a396119e4565b5b6000611a4884828501611a0f565b91505092915050565b611a5a816119ee565b82525050565b600081519050919050565b600082825260208201905092915050565b60005b83811015611a9a578082015181840152602081019050611a7f565b60008484015250505050565b6000601f19601f8301169050919050565b6000611ac282611a60565b611acc8185611a6b565b9350611adc818560208601611a7c565b611ae581611aa6565b840191505092915050565b600073ffffffffffffffffffffffffffffffffffffffff82169050919050565b6000611b1b82611af0565b9050919050565b611b2b81611b10565b82525050565b60008115159050919050565b611b4681611b31565b82525050565b600061012082019050611b62600083018c611a51565b8181036020830152611b74818b611ab7565b9050611b83604083018a611b22565b611b906060830189611a51565b611b9d6080830188611a51565b611baa60a0830187611b3d565b611bb760c0830186611a51565b611bc460e0830185611b3d565b611bd2610100830184611b3d565b9a9950505050505050505050565b6000602082019050611bf56000830184611a51565b92915050565b600080fd5b600080fd5b7f4e487b7100000000000000000000000000000000000000000000000000000000600052604160045260246000fd5b611c3d82611aa6565b810181811067ffffffffffffffff82111715611c5c57611c5b611c05565b5b80604052505050565b6000611c6f6119da565b9050611c7b8282611c34565b919050565b600067ffffffffffffffff821115611c9b57611c9a611c05565b5b611ca482611aa6565b9050602081019050919050565b82818337600083830152505050565b6000611cd3611cce84611c80565b611c65565b905082815260208101848484011115611cef57611cee611c00565b5b611cfa848285611cb1565b509392505050565b600082601f830112611d1757611d16611bfb565b5b8135611d27848260208601611cc0565b91505092915050565b600080600060608486031215611d4957611d486119e4565b5b600084013567ffffffffffffffff811115611d6757611d666119e9565b5b611d7386828701611d02565b9350506020611d8486828701611a0f565b9250506040611d9586828701611a0f565b9150509250925092565b611da8816119ee565b82525050565b600082825260208201905092915050565b6000611dca82611a60565b611dd48185611dae565b9350611de4818560208601611a7c565b611ded81611aa6565b840191505092915050565b611e0181611b10565b82525050565b611e1081611b31565b82525050565b600061012083016000830151611e2f6000860182611d9f565b5060208301518482036020860152611e478282611dbf565b9150506040830151611e5c6040860182611df8565b506060830151611e6f6060860182611d9f565b506080830151611e826080860182611d9f565b5060a0830151611e9560a0860182611e07565b5060c0830151611ea860c0860182611d9f565b5060e0830151611ebb60e0860182611e07565b50610100830151611ed0610100860182611e07565b508091505092915050565b60006020820190508181036000830152611ef58184611e16565b905092915050565b600081519050919050565b600082825260208201905092915050565b6000819050602082019050919050565b600061012083016000830151611f426000860182611d9f565b5060208301518482036020860152611f5a8282611dbf565b9150506040830151611f6f6040860182611df8565b506060830151611f826060860182611d9f565b506080830151611f956080860182611d9f565b5060a0830151611fa860a0860182611e07565b5060c0830151611fbb60c0860182611d9f565b5060e0830151611fce60e0860182611e07565b50610100830151611fe3610100860182611e07565b508091505092915050565b6000611ffa8383611f29565b905092915050565b6000602082019050919050565b600061201a82611efd565b6120248185611f08565b93508360208202850161203685611f19565b8060005b8581101561207257848403895281516120538582611fee565b945061205e83612002565b925060208a0199505060018101905061203a565b50829750879550505050505092915050565b6000602082019050818103600083015261209e818461200f565b905092915050565b7f4e487b7100000000000000000000000000000000000000000000000000000000600052602160045260246000fd5b600481106120e6576120e56120a6565b5b50565b60008190506120f7826120d5565b919050565b6000612107826120e9565b9050919050565b612117816120fc565b82525050565b6000602082019050612132600083018461210e565b92915050565b600061214382611af0565b9050919050565b61215381612138565b82525050565b600060208201905061216e600083018461214a565b92915050565b60006020820190506121896000830184611b22565b92915050565b60006020820190506121a46000830184611b3d565b92915050565b600060208201905081810360008301526121c48184611ab7565b905092915050565b7f4e487b7100000000000000000000000000000000000000000000000000000000600052602260045260246000fd5b6000600282049050600182168061221357607f821691505b602082108103612226576122256121cc565b5b50919050565b7f596f75206861766520616c7265616479206372656174656420612070726f706f60008201527f73616c20666f7220746869732070726f6a656374000000000000000000000000602082015250565b6000612288603483611a6b565b91506122938261222c565b604082019050919050565b600060208201905081810360008301526122b78161227b565b9050919050565b7f506c6561736520666972737420636f6d706c65746520796f757220707265766960008201527f6f75732070726f6a656374730000000000000000000000000000000000000000602082015250565b600061231a602c83611a6b565b9150612325826122be565b604082019050919050565b600060208201905081810360008301526123498161230d565b9050919050565b7f546869732070726f6a65637420697320616c726561647920756e64657220707260008201527f6f67726573730000000000000000000000000000000000000000000000000000602082015250565b60006123ac602683611a6b565b91506123b782612350565b604082019050919050565b600060208201905081810360008301526123db8161239f565b9050919050565b60008190508160005260206000209050919050565b60006020601f8301049050919050565b600082821b905092915050565b6000600883026124447fffffffffffffffffffffffffffffffffffffffffffffffffffffffffffffffff82612407565b61244e8683612407565b95508019841693508086168417925050509392505050565b6000819050919050565b600061248b612486612481846119ee565b612466565b6119ee565b9050919050565b6000819050919050565b6124a583612470565b6124b96124b182612492565b848454612414565b825550505050565b600090565b6124ce6124c1565b6124d981848461249c565b505050565b5b818110156124fd576124f26000826124c6565b6001810190506124df565b5050565b601f82111561254257612513816123e2565b61251c846123f7565b8101602085101561252b578190505b61253f612537856123f7565b8301826124de565b50505b505050565b600082821c905092915050565b600061256560001984600802612547565b1980831691505092915050565b600061257e8383612554565b9150826002028217905092915050565b61259782611a60565b67ffffffffffffffff8111156125b0576125af611c05565b5b6125ba82546121fb565b6125c5828285612501565b600060209050601f8311600181146125f857600084156125e6578287015190505b6125f08582612572565b865550612658565b601f198416612606866123e2565b60005b8281101561262e57848901518255600182019150602085019450602081019050612609565b8683101561264b5784890151612647601f891682612554565b8355505b6001600288020188555050505b505050505050565b6000819050919050565b600061268561268061267b84612660565b612466565b6119ee565b9050919050565b6126958161266a565b82525050565b6000610120820190506126b1600083018c611a51565b81810360208301526126c3818b611ab7565b90506126d2604083018a611b22565b6126df6060830189611a51565b6126ec6080830188611a51565b6126f960a0830187611b3d565b61270660c083018661268c565b61271360e0830185611b3d565b612721610100830184611b3d565b9a9950505050505050505050565b7f4f6e6c792050726f6a656374206f776e65722063616e2061636365737320736560008201527f6c65637465642070726f706f73616c2773206f776e6572000000000000000000602082015250565b600061278b603783611a6b565b91506127968261272f565b604082019050919050565b600060208201905081810360008301526127ba8161277e565b9050919050565b7f4e487b7100000000000000000000000000000000000000000000000000000000600052603260045260246000fd5b7f4e487b7100000000000000000000000000000000000000000000000000000000600052601160045260246000fd5b600061282a826119ee565b91507fffffffffffffffffffffffffffffffffffffffffffffffffffffffffffffffff820361285c5761285b6127f0565b5b600182019050919050565b7f546869732050726f6a65637420497320416c726561647920436f6d706c65746560008201527f6400000000000000000000000000000000000000000000000000000000000000602082015250565b60006128c3602183611a6b565b91506128ce82612867565b604082019050919050565b600060208201905081810360008301526128f2816128b6565b9050919050565b7f596f7520417265204e6f7420417574686f72697a656420546f2046696e616c6960008201527f7a6520546869732050726f6a6563740000000000000000000000000000000000602082015250565b6000612955602f83611a6b565b9150612960826128f9565b604082019050919050565b6000602082019050818103600083015261298481612948565b9050919050565b7f50726f6a656374206973206e6f742079657420636f6d706c6574656400000000600082015250565b60006129c1601c83611a6b565b91506129cc8261298b565b602082019050919050565b600060208201905081810360008301526129f0816129b4565b9050919050565b6000612a02826119ee565b9150612a0d836119ee565b9250828203905081811115612a2557612a246127f0565b5b92915050565b7f4f6e6c792050726f6a656374204f776e65722043616e2043616c6c205468697360008201527f2046756e6374696f6e0000000000000000000000000000000000000000000000602082015250565b6000612a87602983611a6b565b9150612a9282612a2b565b604082019050919050565b60006020820190508181036000830152612ab681612a7a565b9050919050565b7f546869732050726f6a65637420497320416c726561647920417070726f76656460008201527f20546f20536f6d656f6e6520656c736500000000000000000000000000000000602082015250565b6000612b19603083611a6b565b9150612b2482612abd565b604082019050919050565b60006020820190508181036000830152612b4881612b0c565b9050919050565b7f4f6e6c792050726f6a656374204f776e65722043616e204170726f766520546860008201527f652050726f706f73616c73000000000000000000000000000000000000000000602082015250565b6000612bab602b83611a6b565b9150612bb682612b4f565b604082019050919050565b60006020820190508181036000830152612bda81612b9e565b9050919050565b7f546869732050726f6a65637420497320416c726561647920436f6d706c65746560008201527f6420596f752043616e6e6f74204d616b6520416e796d6f726520417070726f7660208201527f616c730000000000000000000000000000000000000000000000000000000000604082015250565b6000612c63604383611a6b565b9150612c6e82612be1565b606082019050919050565b60006020820190508181036000830152612c9281612c56565b9050919050565b600081549050612ca8816121fb565b9050919050565b818103612cbd575050612d95565b612cc682612c99565b67ffffffffffffffff811115612cdf57612cde611c05565b5b612ce982546121fb565b612cf4828285612501565b6000601f831160018114612d235760008415612d11578287015490505b612d1b8582612572565b865550612d8e565b601f198416612d31876123e2565b9650612d3c866123e2565b60005b82811015612d6457848901548255600182019150600185019450602081019050612d3f565b86831015612d815784890154612d7d601f891682612554565b8355505b6001600288020188555050505b5050505050505b565b7f596f757220636f61746174696f6e206973206e6f742079657420617070726f7660008201527f6564000000000000000000000000000000000000000000000000000000000000602082015250565b6000612df3602283611a6b565b9150612dfe82612d97565b604082019050919050565b60006020820190508181036000830152612e2281612de6565b9050919050565b7f4f6e6c792070726f706f73616c206f776e65722063616e206d61726b2070726f60008201527f6a65637420617320636f6d706c65746500000000000000000000000000000000602082015250565b6000612e85603083611a6b565b9150612e9082612e29565b604082019050919050565b60006020820190508181036000830152612eb481612e78565b9050919050565b7f596f75206861766520616c7265616479206d61726b656420746869732070726f60008201527f6a65637420617320636f6d706c65746500000000000000000000000000000000602082015250565b6000612f17603083611a6b565b9150612f2282612ebb565b604082019050919050565b60006020820190508181036000830152612f4681612f0a565b905091905056fea26469706673582212203b6815ac70c0e14923eebad7bf9178aec368a5adae0d3296b71c37107af2a85564736f6c63430008110033a2646970667358221220cb372d569895180181ca9f697e4a0205173878d96997d50520830cc73bb4047764736f6c63430008110033",
  "linkReferences": {},
  "deployedLinkReferences": {}
}