{
  "_format": "hh-sol-artifact-1",
  "contractName": "Project",
  "sourceName": "contracts/Project.sol",
  "abi": [
    {
      "inputs": [
        {
          "internalType": "address payable",
          "name": "_projectOwner",
          "type": "address"
        },
        {
          "internalType": "uint256",
          "name": "_projectDeadline",
          "type": "uint256"
        },
        {
          "internalType": "uint256",
          "name": "_projectBudget",
          "type": "uint256"
        }
      ],
      "stateMutability": "nonpayable",
      "type": "constructor"
    },
    {
      "anonymous": false,
      "inputs": [
        {
          "indexed": false,
          "internalType": "uint256",
          "name": "id",
          "type": "uint256"
        },
        {
          "indexed": false,
          "internalType": "string",
          "name": "title",
          "type": "string"
        },
        {
          "indexed": false,
          "internalType": "string",
          "name": "description",
          "type": "string"
        },
        {
          "indexed": false,
          "internalType": "address payable",
          "name": "owner",
          "type": "address"
        },
        {
          "indexed": false,
          "internalType": "uint256",
          "name": "asked_amount",
          "type": "uint256"
        },
        {
          "indexed": false,
          "internalType": "uint256",
          "name": "time_of_completion",
          "type": "uint256"
        },
        {
          "indexed": false,
          "internalType": "bool",
          "name": "isApproved",
          "type": "bool"
        },
        {
          "indexed": false,
          "internalType": "uint256",
          "name": "approvalDate",
          "type": "uint256"
        },
        {
          "indexed": false,
          "internalType": "bool",
          "name": "isCompleted",
          "type": "bool"
        },
        {
          "indexed": false,
          "internalType": "bool",
          "name": "isFinalized",
          "type": "bool"
        }
      ],
      "name": "ProposalCreated",
      "type": "event"
    },
    {
      "inputs": [
        {
          "internalType": "uint256",
          "name": "_proposaId",
          "type": "uint256"
        }
      ],
      "name": "approveProposal",
      "outputs": [],
      "stateMutability": "nonpayable",
      "type": "function"
    },
    {
      "inputs": [
        {
          "internalType": "string",
          "name": "_title",
          "type": "string"
        },
        {
          "internalType": "string",
          "name": "_description",
          "type": "string"
        },
        {
          "internalType": "uint256",
          "name": "_amount",
          "type": "uint256"
        },
        {
          "internalType": "uint256",
          "name": "_time_of_completion",
          "type": "uint256"
        }
      ],
      "name": "createProposal",
      "outputs": [],
      "stateMutability": "nonpayable",
      "type": "function"
    },
    {
      "inputs": [],
      "name": "finalizeProject",
      "outputs": [],
      "stateMutability": "nonpayable",
      "type": "function"
    },
    {
      "inputs": [],
      "name": "getBalance",
      "outputs": [
        {
          "internalType": "uint256",
          "name": "",
          "type": "uint256"
        }
      ],
      "stateMutability": "view",
      "type": "function"
    },
    {
      "inputs": [],
      "name": "getProjectStatus",
      "outputs": [
        {
          "internalType": "bool",
          "name": "",
          "type": "bool"
        }
      ],
      "stateMutability": "view",
      "type": "function"
    },
    {
      "inputs": [],
      "name": "getProposals",
      "outputs": [
        {
          "components": [
            {
              "internalType": "uint256",
              "name": "id",
              "type": "uint256"
            },
            {
              "internalType": "string",
              "name": "title",
              "type": "string"
            },
            {
              "internalType": "string",
              "name": "description",
              "type": "string"
            },
            {
              "internalType": "address payable",
              "name": "owner",
              "type": "address"
            },
            {
              "internalType": "uint256",
              "name": "asked_amount",
              "type": "uint256"
            },
            {
              "internalType": "uint256",
              "name": "time_of_completion",
              "type": "uint256"
            },
            {
              "internalType": "bool",
              "name": "isApproved",
              "type": "bool"
            },
            {
              "internalType": "uint256",
              "name": "approvalDate",
              "type": "uint256"
            },
            {
              "internalType": "bool",
              "name": "isCompleted",
              "type": "bool"
            },
            {
              "internalType": "bool",
              "name": "isFinalized",
              "type": "bool"
            }
          ],
          "internalType": "struct Project.Proposal[]",
          "name": "",
          "type": "tuple[]"
        }
      ],
      "stateMutability": "view",
      "type": "function"
    },
    {
      "inputs": [],
      "name": "getSelectedProposal",
      "outputs": [
        {
          "components": [
            {
              "internalType": "uint256",
              "name": "id",
              "type": "uint256"
            },
            {
              "internalType": "string",
              "name": "title",
              "type": "string"
            },
            {
              "internalType": "string",
              "name": "description",
              "type": "string"
            },
            {
              "internalType": "address payable",
              "name": "owner",
              "type": "address"
            },
            {
              "internalType": "uint256",
              "name": "asked_amount",
              "type": "uint256"
            },
            {
              "internalType": "uint256",
              "name": "time_of_completion",
              "type": "uint256"
            },
            {
              "internalType": "bool",
              "name": "isApproved",
              "type": "bool"
            },
            {
              "internalType": "uint256",
              "name": "approvalDate",
              "type": "uint256"
            },
            {
              "internalType": "bool",
              "name": "isCompleted",
              "type": "bool"
            },
            {
              "internalType": "bool",
              "name": "isFinalized",
              "type": "bool"
            }
          ],
          "internalType": "struct Project.Proposal",
          "name": "",
          "type": "tuple"
        }
      ],
      "stateMutability": "view",
      "type": "function"
    },
    {
      "inputs": [],
      "name": "isProjectApproved",
      "outputs": [
        {
          "internalType": "bool",
          "name": "",
          "type": "bool"
        }
      ],
      "stateMutability": "view",
      "type": "function"
    },
    {
      "inputs": [],
      "name": "markProjectAsComplete",
      "outputs": [],
      "stateMutability": "nonpayable",
      "type": "function"
    },
    {
      "inputs": [],
      "name": "projectOwner",
      "outputs": [
        {
          "internalType": "address payable",
          "name": "",
          "type": "address"
        }
      ],
      "stateMutability": "view",
      "type": "function"
    },
    {
      "inputs": [
        {
          "internalType": "uint256",
          "name": "",
          "type": "uint256"
        }
      ],
      "name": "proposals",
      "outputs": [
        {
          "internalType": "uint256",
          "name": "id",
          "type": "uint256"
        },
        {
          "internalType": "string",
          "name": "title",
          "type": "string"
        },
        {
          "internalType": "string",
          "name": "description",
          "type": "string"
        },
        {
          "internalType": "address payable",
          "name": "owner",
          "type": "address"
        },
        {
          "internalType": "uint256",
          "name": "asked_amount",
          "type": "uint256"
        },
        {
          "internalType": "uint256",
          "name": "time_of_completion",
          "type": "uint256"
        },
        {
          "internalType": "bool",
          "name": "isApproved",
          "type": "bool"
        },
        {
          "internalType": "uint256",
          "name": "approvalDate",
          "type": "uint256"
        },
        {
          "internalType": "bool",
          "name": "isCompleted",
          "type": "bool"
        },
        {
          "internalType": "bool",
          "name": "isFinalized",
          "type": "bool"
        }
      ],
      "stateMutability": "view",
      "type": "function"
    },
    {
      "inputs": [],
      "name": "selectedProposal",
      "outputs": [
        {
          "internalType": "uint256",
          "name": "id",
          "type": "uint256"
        },
        {
          "internalType": "string",
          "name": "title",
          "type": "string"
        },
        {
          "internalType": "string",
          "name": "description",
          "type": "string"
        },
        {
          "internalType": "address payable",
          "name": "owner",
          "type": "address"
        },
        {
          "internalType": "uint256",
          "name": "asked_amount",
          "type": "uint256"
        },
        {
          "internalType": "uint256",
          "name": "time_of_completion",
          "type": "uint256"
        },
        {
          "internalType": "bool",
          "name": "isApproved",
          "type": "bool"
        },
        {
          "internalType": "uint256",
          "name": "approvalDate",
          "type": "uint256"
        },
        {
          "internalType": "bool",
          "name": "isCompleted",
          "type": "bool"
        },
        {
          "internalType": "bool",
          "name": "isFinalized",
          "type": "bool"
        }
      ],
      "stateMutability": "view",
      "type": "function"
    },
    {
      "stateMutability": "payable",
      "type": "receive"
    }
  ],
  "bytecode": "0x60806040526000600460006101000a81548160ff0219169083151502179055506000600960006101000a81548160ff0219169083151502179055503480156200004757600080fd5b50604051620031983803806200319883398181016040528101906200006d91906200016a565b82600160006101000a81548173ffffffffffffffffffffffffffffffffffffffff021916908373ffffffffffffffffffffffffffffffffffffffff1602179055508160028190555080600381905550505050620001c6565b600080fd5b600073ffffffffffffffffffffffffffffffffffffffff82169050919050565b6000620000f782620000ca565b9050919050565b6200010981620000ea565b81146200011557600080fd5b50565b6000815190506200012981620000fe565b92915050565b6000819050919050565b62000144816200012f565b81146200015057600080fd5b50565b600081519050620001648162000139565b92915050565b600080600060608486031215620001865762000185620000c5565b5b6000620001968682870162000118565b9350506020620001a98682870162000153565b9250506040620001bc8682870162000153565b9150509250925092565b612fc280620001d66000396000f3fe6080604052600436106100ab5760003560e01c806398951b561161006457806398951b56146101be578063a4475ce4146101e7578063a6a2cb0514610212578063b19b0afe14610246578063e7aa3afc14610271578063ecc254b31461029c576100b2565b8063013cf08b146100b757806312065fe0146100fd5780632a9cc1411461012857806362564c48146101535780636b5e17661461017e5780637417882c146101a7576100b2565b366100b257005b600080fd5b3480156100c357600080fd5b506100de60048036038101906100d99190611a2d565b6102b3565b6040516100f49a99989796959493929190611b55565b60405180910390f35b34801561010957600080fd5b5061011261045e565b60405161011f9190611bff565b60405180910390f35b34801561013457600080fd5b5061013d610466565b60405161014a9190611d72565b60405180910390f35b34801561015f57600080fd5b50610168610704565b6040516101759190611f37565b60405180910390f35b34801561018a57600080fd5b506101a560048036038101906101a0919061208e565b6109d9565b005b3480156101b357600080fd5b506101bc610d34565b005b3480156101ca57600080fd5b506101e560048036038101906101e09190611a2d565b6110f8565b005b3480156101f357600080fd5b506101fc6114a6565b604051610209919061212d565b60405180910390f35b34801561021e57600080fd5b506102276114cc565b60405161023d9a99989796959493929190611b55565b60405180910390f35b34801561025257600080fd5b5061025b611665565b6040516102689190612148565b60405180910390f35b34801561027d57600080fd5b50610286611678565b6040516102939190612148565b60405180910390f35b3480156102a857600080fd5b506102b16116f1565b005b60056020528060005260406000206000915090508060000154908060010180546102dc90612192565b80601f016020809104026020016040519081016040528092919081815260200182805461030890612192565b80156103555780601f1061032a57610100808354040283529160200191610355565b820191906000526020600020905b81548152906001019060200180831161033857829003601f168201915b50505050509080600201805461036a90612192565b80601f016020809104026020016040519081016040528092919081815260200182805461039690612192565b80156103e35780601f106103b8576101008083540402835291602001916103e3565b820191906000526020600020905b8154815290600101906020018083116103c657829003601f168201915b5050505050908060030160009054906101000a900473ffffffffffffffffffffffffffffffffffffffff16908060040154908060050154908060060160009054906101000a900460ff16908060070154908060080160009054906101000a900460ff16908060080160019054906101000a900460ff1690508a565b600047905090565b61046e611974565b600160009054906101000a900473ffffffffffffffffffffffffffffffffffffffff1673ffffffffffffffffffffffffffffffffffffffff163373ffffffffffffffffffffffffffffffffffffffff16146104fe576040517f08c379a00000000000000000000000000000000000000000000000000000000081526004016104f590612235565b60405180910390fd5b600a604051806101400160405290816000820154815260200160018201805461052690612192565b80601f016020809104026020016040519081016040528092919081815260200182805461055290612192565b801561059f5780601f106105745761010080835404028352916020019161059f565b820191906000526020600020905b81548152906001019060200180831161058257829003601f168201915b505050505081526020016002820180546105b890612192565b80601f01602080910402602001604051908101604052809291908181526020018280546105e490612192565b80156106315780601f1061060657610100808354040283529160200191610631565b820191906000526020600020905b81548152906001019060200180831161061457829003601f168201915b505050505081526020016003820160009054906101000a900473ffffffffffffffffffffffffffffffffffffffff1673ffffffffffffffffffffffffffffffffffffffff1673ffffffffffffffffffffffffffffffffffffffff16815260200160048201548152602001600582015481526020016006820160009054906101000a900460ff16151515158152602001600782015481526020016008820160009054906101000a900460ff161515151581526020016008820160019054906101000a900460ff161515151581525050905090565b606060006107126000611950565b905060008167ffffffffffffffff8111156107305761072f611f63565b5b60405190808252806020026020018201604052801561076957816020015b610756611974565b81526020019060019003908161074e5790505b5090506000805b838110156109cf5760006005600083815260200190815260200160002060405180610140016040529081600082015481526020016001820180546107b390612192565b80601f01602080910402602001604051908101604052809291908181526020018280546107df90612192565b801561082c5780601f106108015761010080835404028352916020019161082c565b820191906000526020600020905b81548152906001019060200180831161080f57829003601f168201915b5050505050815260200160028201805461084590612192565b80601f016020809104026020016040519081016040528092919081815260200182805461087190612192565b80156108be5780601f10610893576101008083540402835291602001916108be565b820191906000526020600020905b8154815290600101906020018083116108a157829003601f168201915b505050505081526020016003820160009054906101000a900473ffffffffffffffffffffffffffffffffffffffff1673ffffffffffffffffffffffffffffffffffffffff1673ffffffffffffffffffffffffffffffffffffffff16815260200160048201548152602001600582015481526020016006820160009054906101000a900460ff16151515158152602001600782015481526020016008820160009054906101000a900460ff161515151581526020016008820160019054906101000a900460ff1615151515815250509050808484815181106109a2576109a1612255565b5b602002602001018190525082806109b8906122b3565b9350505080806109c7906122b3565b915050610770565b5081935050505090565b600660003373ffffffffffffffffffffffffffffffffffffffff1673ffffffffffffffffffffffffffffffffffffffff16815260200190815260200160002060009054906101000a900460ff1615610a66576040517f08c379a0000000000000000000000000000000000000000000000000000000008152600401610a5d9061236d565b60405180910390fd5b600860003373ffffffffffffffffffffffffffffffffffffffff1673ffffffffffffffffffffffffffffffffffffffff16815260200190815260200160002060009054906101000a900460ff1615610af3576040517f08c379a0000000000000000000000000000000000000000000000000000000008152600401610aea906123ff565b60405180910390fd5b6000610aff6000611950565b905060006040518061014001604052808381526020018781526020018681526020013373ffffffffffffffffffffffffffffffffffffffff168152602001858152602001848152602001600015158152602001600081526020016000151581526020016000151581525090506001600660003373ffffffffffffffffffffffffffffffffffffffff1673ffffffffffffffffffffffffffffffffffffffff16815260200190815260200160002060006101000a81548160ff0219169083151502179055508060056000848152602001908152602001600020600082015181600001556020820151816001019081610bf691906125cb565b506040820151816002019081610c0c91906125cb565b5060608201518160030160006101000a81548173ffffffffffffffffffffffffffffffffffffffff021916908373ffffffffffffffffffffffffffffffffffffffff1602179055506080820151816004015560a0820151816005015560c08201518160060160006101000a81548160ff02191690831515021790555060e082015181600701556101008201518160080160006101000a81548160ff0219169083151502179055506101208201518160080160016101000a81548160ff021916908315150217905550905050610ce1600061195e565b7f3d601d209577003776c4b52046adb4a53904a5be6c089dd5f69db8a24e0083bf828787338888600080600080604051610d249a999897969594939291906126d8565b60405180910390a1505050505050565b600460009054906101000a900460ff1615610d84576040517f08c379a0000000000000000000000000000000000000000000000000000000008152600401610d7b906127f4565b60405180910390fd5b600160009054906101000a900473ffffffffffffffffffffffffffffffffffffffff1673ffffffffffffffffffffffffffffffffffffffff163373ffffffffffffffffffffffffffffffffffffffff1614610e14576040517f08c379a0000000000000000000000000000000000000000000000000000000008152600401610e0b90612886565b60405180910390fd5b600a60080160009054906101000a900460ff16610e66576040517f08c379a0000000000000000000000000000000000000000000000000000000008152600401610e5d90612918565b60405180910390fd5b600a60060160009054906101000a900460ff16610eb8576040517f08c379a0000000000000000000000000000000000000000000000000000000008152600401610eaf90612984565b60405180910390fd5b60076000600a60030160009054906101000a900473ffffffffffffffffffffffffffffffffffffffff1673ffffffffffffffffffffffffffffffffffffffff1673ffffffffffffffffffffffffffffffffffffffff16815260200190815260200160002060009054906101000a900460ff16610f69576040517f08c379a0000000000000000000000000000000000000000000000000000000008152600401610f6090612a16565b60405180910390fd5b6000600a60040154600354610f7e9190612a36565b9050600160009054906101000a900473ffffffffffffffffffffffffffffffffffffffff1673ffffffffffffffffffffffffffffffffffffffff166108fc829081150290604051600060405180830381858888f19350505050158015610fe8573d6000803e3d6000fd5b50600a60030160009054906101000a900473ffffffffffffffffffffffffffffffffffffffff1673ffffffffffffffffffffffffffffffffffffffff166108fc600a600401549081150290604051600060405180830381858888f19350505050158015611059573d6000803e3d6000fd5b506001600a60080160016101000a81548160ff021916908315150217905550600060086000600a60030160009054906101000a900473ffffffffffffffffffffffffffffffffffffffff1673ffffffffffffffffffffffffffffffffffffffff1673ffffffffffffffffffffffffffffffffffffffff16815260200190815260200160002060006101000a81548160ff02191690831515021790555050565b600160009054906101000a900473ffffffffffffffffffffffffffffffffffffffff1673ffffffffffffffffffffffffffffffffffffffff163373ffffffffffffffffffffffffffffffffffffffff1614611188576040517f08c379a000000000000000000000000000000000000000000000000000000000815260040161117f90612adc565b60405180910390fd5b6000600560008381526020019081526020016000209050600960009054906101000a900460ff16156111ef576040517f08c379a00000000000000000000000000000000000000000000000000000000081526004016111e690612b6e565b60405180910390fd5b600160009054906101000a900473ffffffffffffffffffffffffffffffffffffffff1673ffffffffffffffffffffffffffffffffffffffff163373ffffffffffffffffffffffffffffffffffffffff161461127f576040517f08c379a000000000000000000000000000000000000000000000000000000000815260040161127690612c00565b60405180910390fd5b60025442116112c3576040517f08c379a00000000000000000000000000000000000000000000000000000000081526004016112ba90612cb8565b60405180910390fd5b42816007018190555060018160060160006101000a81548160ff0219169083151502179055506001600960006101000a81548160ff02191690831515021790555080600a60008201548160000155600182018160010190816113259190612cee565b506002820181600201908161133a9190612cee565b506003820160009054906101000a900473ffffffffffffffffffffffffffffffffffffffff168160030160006101000a81548173ffffffffffffffffffffffffffffffffffffffff021916908373ffffffffffffffffffffffffffffffffffffffff16021790555060048201548160040155600582015481600501556006820160009054906101000a900460ff168160060160006101000a81548160ff021916908315150217905550600782015481600701556008820160009054906101000a900460ff168160080160006101000a81548160ff0219169083151502179055506008820160019054906101000a900460ff168160080160016101000a81548160ff0219169083151502179055509050506001600860003373ffffffffffffffffffffffffffffffffffffffff1673ffffffffffffffffffffffffffffffffffffffff16815260200190815260200160002060006101000a81548160ff0219169083151502179055505050565b600160009054906101000a900473ffffffffffffffffffffffffffffffffffffffff1681565b600a8060000154908060010180546114e390612192565b80601f016020809104026020016040519081016040528092919081815260200182805461150f90612192565b801561155c5780601f106115315761010080835404028352916020019161155c565b820191906000526020600020905b81548152906001019060200180831161153f57829003601f168201915b50505050509080600201805461157190612192565b80601f016020809104026020016040519081016040528092919081815260200182805461159d90612192565b80156115ea5780601f106115bf576101008083540402835291602001916115ea565b820191906000526020600020905b8154815290600101906020018083116115cd57829003601f168201915b5050505050908060030160009054906101000a900473ffffffffffffffffffffffffffffffffffffffff16908060040154908060050154908060060160009054906101000a900460ff16908060070154908060080160009054906101000a900460ff16908060080160019054906101000a900460ff1690508a565b600960009054906101000a900460ff1681565b600060076000600a60030160009054906101000a900473ffffffffffffffffffffffffffffffffffffffff1673ffffffffffffffffffffffffffffffffffffffff1673ffffffffffffffffffffffffffffffffffffffff16815260200190815260200160002060009054906101000a900460ff16905090565b600a60060160009054906101000a900460ff16611743576040517f08c379a000000000000000000000000000000000000000000000000000000000815260040161173a90612e48565b60405180910390fd5b600460009054906101000a900460ff1615611793576040517f08c379a000000000000000000000000000000000000000000000000000000000815260040161178a906127f4565b60405180910390fd5b600a60030160009054906101000a900473ffffffffffffffffffffffffffffffffffffffff1673ffffffffffffffffffffffffffffffffffffffff163373ffffffffffffffffffffffffffffffffffffffff1614611826576040517f08c379a000000000000000000000000000000000000000000000000000000000815260040161181d90612eda565b60405180910390fd5b600760003373ffffffffffffffffffffffffffffffffffffffff1673ffffffffffffffffffffffffffffffffffffffff16815260200190815260200160002060009054906101000a900460ff16156118b3576040517f08c379a00000000000000000000000000000000000000000000000000000000081526004016118aa90612f6c565b60405180910390fd5b600160076000600a60030160009054906101000a900473ffffffffffffffffffffffffffffffffffffffff1673ffffffffffffffffffffffffffffffffffffffff1673ffffffffffffffffffffffffffffffffffffffff16815260200190815260200160002060006101000a81548160ff0219169083151502179055506001600a60080160006101000a81548160ff021916908315150217905550565b600081600001549050919050565b6001816000016000828254019250508190555050565b604051806101400160405280600081526020016060815260200160608152602001600073ffffffffffffffffffffffffffffffffffffffff1681526020016000815260200160008152602001600015158152602001600081526020016000151581526020016000151581525090565b6000604051905090565b600080fd5b600080fd5b6000819050919050565b611a0a816119f7565b8114611a1557600080fd5b50565b600081359050611a2781611a01565b92915050565b600060208284031215611a4357611a426119ed565b5b6000611a5184828501611a18565b91505092915050565b611a63816119f7565b82525050565b600081519050919050565b600082825260208201905092915050565b60005b83811015611aa3578082015181840152602081019050611a88565b60008484015250505050565b6000601f19601f8301169050919050565b6000611acb82611a69565b611ad58185611a74565b9350611ae5818560208601611a85565b611aee81611aaf565b840191505092915050565b600073ffffffffffffffffffffffffffffffffffffffff82169050919050565b6000611b2482611af9565b9050919050565b611b3481611b19565b82525050565b60008115159050919050565b611b4f81611b3a565b82525050565b600061014082019050611b6b600083018d611a5a565b8181036020830152611b7d818c611ac0565b90508181036040830152611b91818b611ac0565b9050611ba0606083018a611b2b565b611bad6080830189611a5a565b611bba60a0830188611a5a565b611bc760c0830187611b46565b611bd460e0830186611a5a565b611be2610100830185611b46565b611bf0610120830184611b46565b9b9a5050505050505050505050565b6000602082019050611c146000830184611a5a565b92915050565b611c23816119f7565b82525050565b600082825260208201905092915050565b6000611c4582611a69565b611c4f8185611c29565b9350611c5f818560208601611a85565b611c6881611aaf565b840191505092915050565b611c7c81611b19565b82525050565b611c8b81611b3a565b82525050565b600061014083016000830151611caa6000860182611c1a565b5060208301518482036020860152611cc28282611c3a565b91505060408301518482036040860152611cdc8282611c3a565b9150506060830151611cf16060860182611c73565b506080830151611d046080860182611c1a565b5060a0830151611d1760a0860182611c1a565b5060c0830151611d2a60c0860182611c82565b5060e0830151611d3d60e0860182611c1a565b50610100830151611d52610100860182611c82565b50610120830151611d67610120860182611c82565b508091505092915050565b60006020820190508181036000830152611d8c8184611c91565b905092915050565b600081519050919050565b600082825260208201905092915050565b6000819050602082019050919050565b600061014083016000830151611dd96000860182611c1a565b5060208301518482036020860152611df18282611c3a565b91505060408301518482036040860152611e0b8282611c3a565b9150506060830151611e206060860182611c73565b506080830151611e336080860182611c1a565b5060a0830151611e4660a0860182611c1a565b5060c0830151611e5960c0860182611c82565b5060e0830151611e6c60e0860182611c1a565b50610100830151611e81610100860182611c82565b50610120830151611e96610120860182611c82565b508091505092915050565b6000611ead8383611dc0565b905092915050565b6000602082019050919050565b6000611ecd82611d94565b611ed78185611d9f565b935083602082028501611ee985611db0565b8060005b85811015611f255784840389528151611f068582611ea1565b9450611f1183611eb5565b925060208a01995050600181019050611eed565b50829750879550505050505092915050565b60006020820190508181036000830152611f518184611ec2565b905092915050565b600080fd5b600080fd5b7f4e487b7100000000000000000000000000000000000000000000000000000000600052604160045260246000fd5b611f9b82611aaf565b810181811067ffffffffffffffff82111715611fba57611fb9611f63565b5b80604052505050565b6000611fcd6119e3565b9050611fd98282611f92565b919050565b600067ffffffffffffffff821115611ff957611ff8611f63565b5b61200282611aaf565b9050602081019050919050565b82818337600083830152505050565b600061203161202c84611fde565b611fc3565b90508281526020810184848401111561204d5761204c611f5e565b5b61205884828561200f565b509392505050565b600082601f83011261207557612074611f59565b5b813561208584826020860161201e565b91505092915050565b600080600080608085870312156120a8576120a76119ed565b5b600085013567ffffffffffffffff8111156120c6576120c56119f2565b5b6120d287828801612060565b945050602085013567ffffffffffffffff8111156120f3576120f26119f2565b5b6120ff87828801612060565b935050604061211087828801611a18565b925050606061212187828801611a18565b91505092959194509250565b60006020820190506121426000830184611b2b565b92915050565b600060208201905061215d6000830184611b46565b92915050565b7f4e487b7100000000000000000000000000000000000000000000000000000000600052602260045260246000fd5b600060028204905060018216806121aa57607f821691505b6020821081036121bd576121bc612163565b5b50919050565b7f4f6e6c792050726f6a656374206f776e65722063616e2061636365737320736560008201527f6c65637465642070726f706f73616c2773206f776e6572000000000000000000602082015250565b600061221f603783611a74565b915061222a826121c3565b604082019050919050565b6000602082019050818103600083015261224e81612212565b9050919050565b7f4e487b7100000000000000000000000000000000000000000000000000000000600052603260045260246000fd5b7f4e487b7100000000000000000000000000000000000000000000000000000000600052601160045260246000fd5b60006122be826119f7565b91507fffffffffffffffffffffffffffffffffffffffffffffffffffffffffffffffff82036122f0576122ef612284565b5b600182019050919050565b7f596f75206861766520616c7265616479206372656174656420612070726f706f60008201527f73616c20666f7220746869732070726f6a656374000000000000000000000000602082015250565b6000612357603483611a74565b9150612362826122fb565b604082019050919050565b600060208201905081810360008301526123868161234a565b9050919050565b7f506c6561736520666972737420636f6d706c65746520796f757220707265766960008201527f6f75732070726f6a656374730000000000000000000000000000000000000000602082015250565b60006123e9602c83611a74565b91506123f48261238d565b604082019050919050565b60006020820190508181036000830152612418816123dc565b9050919050565b60008190508160005260206000209050919050565b60006020601f8301049050919050565b600082821b905092915050565b6000600883026124817fffffffffffffffffffffffffffffffffffffffffffffffffffffffffffffffff82612444565b61248b8683612444565b95508019841693508086168417925050509392505050565b6000819050919050565b60006124c86124c36124be846119f7565b6124a3565b6119f7565b9050919050565b6000819050919050565b6124e2836124ad565b6124f66124ee826124cf565b848454612451565b825550505050565b600090565b61250b6124fe565b6125168184846124d9565b505050565b5b8181101561253a5761252f600082612503565b60018101905061251c565b5050565b601f82111561257f576125508161241f565b61255984612434565b81016020851015612568578190505b61257c61257485612434565b83018261251b565b50505b505050565b600082821c905092915050565b60006125a260001984600802612584565b1980831691505092915050565b60006125bb8383612591565b9150826002028217905092915050565b6125d482611a69565b67ffffffffffffffff8111156125ed576125ec611f63565b5b6125f78254612192565b61260282828561253e565b600060209050601f8311600181146126355760008415612623578287015190505b61262d85826125af565b865550612695565b601f1984166126438661241f565b60005b8281101561266b57848901518255600182019150602085019450602081019050612646565b868310156126885784890151612684601f891682612591565b8355505b6001600288020188555050505b505050505050565b6000819050919050565b60006126c26126bd6126b88461269d565b6124a3565b6119f7565b9050919050565b6126d2816126a7565b82525050565b6000610140820190506126ee600083018d611a5a565b8181036020830152612700818c611ac0565b90508181036040830152612714818b611ac0565b9050612723606083018a611b2b565b6127306080830189611a5a565b61273d60a0830188611a5a565b61274a60c0830187611b46565b61275760e08301866126c9565b612765610100830185611b46565b612773610120830184611b46565b9b9a5050505050505050505050565b7f546869732050726f6a65637420497320416c726561647920436f6d706c65746560008201527f6400000000000000000000000000000000000000000000000000000000000000602082015250565b60006127de602183611a74565b91506127e982612782565b604082019050919050565b6000602082019050818103600083015261280d816127d1565b9050919050565b7f596f7520417265204e6f7420417574686f72697a656420546f2046696e616c6960008201527f7a6520546869732050726f6a6563740000000000000000000000000000000000602082015250565b6000612870602f83611a74565b915061287b82612814565b604082019050919050565b6000602082019050818103600083015261289f81612863565b9050919050565b7f506c6561736520466972737420436f6d70656c657465205468652050726f6a6560008201527f6374204265666f72652046696e616c697a696e67204974000000000000000000602082015250565b6000612902603783611a74565b915061290d826128a6565b604082019050919050565b60006020820190508181036000830152612931816128f5565b9050919050565b7f546869732050726f6a656374204973204e6f742059657420417070726f766564600082015250565b600061296e602083611a74565b915061297982612938565b602082019050919050565b6000602082019050818103600083015261299d81612961565b9050919050565b7f467265656c616e63657220686173206e6f742079657420436f6d706c6574656460008201527f20746869732070726f6a65637400000000000000000000000000000000000000602082015250565b6000612a00602d83611a74565b9150612a0b826129a4565b604082019050919050565b60006020820190508181036000830152612a2f816129f3565b9050919050565b6000612a41826119f7565b9150612a4c836119f7565b9250828203905081811115612a6457612a63612284565b5b92915050565b7f4f6e6c792050726f6a656374204f776e65722043616e2043616c6c205468697360008201527f2046756e6374696f6e0000000000000000000000000000000000000000000000602082015250565b6000612ac6602983611a74565b9150612ad182612a6a565b604082019050919050565b60006020820190508181036000830152612af581612ab9565b9050919050565b7f546869732050726f6a65637420497320416c726561647920417070726f76656460008201527f20546f20536f6d656f6e6520656c736500000000000000000000000000000000602082015250565b6000612b58603083611a74565b9150612b6382612afc565b604082019050919050565b60006020820190508181036000830152612b8781612b4b565b9050919050565b7f4f6e6c792050726f6a656374204f776e65722043616e204170726f766520546860008201527f652050726f706f73616c73000000000000000000000000000000000000000000602082015250565b6000612bea602b83611a74565b9150612bf582612b8e565b604082019050919050565b60006020820190508181036000830152612c1981612bdd565b9050919050565b7f546869732050726f6a65637420497320416c726561647920436f6d706c65746560008201527f6420596f752043616e6e6f74204d616b6520416e796d6f726520417070726f7660208201527f616c730000000000000000000000000000000000000000000000000000000000604082015250565b6000612ca2604383611a74565b9150612cad82612c20565b606082019050919050565b60006020820190508181036000830152612cd181612c95565b9050919050565b600081549050612ce781612192565b9050919050565b818103612cfc575050612dd4565b612d0582612cd8565b67ffffffffffffffff811115612d1e57612d1d611f63565b5b612d288254612192565b612d3382828561253e565b6000601f831160018114612d625760008415612d50578287015490505b612d5a85826125af565b865550612dcd565b601f198416612d708761241f565b9650612d7b8661241f565b60005b82811015612da357848901548255600182019150600185019450602081019050612d7e565b86831015612dc05784890154612dbc601f891682612591565b8355505b6001600288020188555050505b5050505050505b565b7f506c6561736520466972737420417070726f766520546869732050726f6a656360008201527f7400000000000000000000000000000000000000000000000000000000000000602082015250565b6000612e32602183611a74565b9150612e3d82612dd6565b604082019050919050565b60006020820190508181036000830152612e6181612e25565b9050919050565b7f4f6e6c792070726f706f73616c206f776e65722063616e206d61726b2070726f60008201527f6a65637420617320636f6d706c65746500000000000000000000000000000000602082015250565b6000612ec4603083611a74565b9150612ecf82612e68565b604082019050919050565b60006020820190508181036000830152612ef381612eb7565b9050919050565b7f596f75206861766520616c7265616479206d61726b656420746869732070726f60008201527f6a65637420617320636f6d706c65746500000000000000000000000000000000602082015250565b6000612f56603083611a74565b9150612f6182612efa565b604082019050919050565b60006020820190508181036000830152612f8581612f49565b905091905056fea264697066735822122012fa1369a23a226fc6c32b88114163c4677393e58064a84306a678458635269c64736f6c63430008110033",
  "linkReferences": {},
  "deployedLinkReferences": {}
}